S01300007461726765742D7A726332302E7333377C
S31508002000C82000200D3A0108CD3B0108D13B010844
S31508002010A70A080100210008040303AC0056E700DC
S3150800202000000000000000000000000000000000A2
S315080020300000000000000000000000000000000092
S315080020400000000000000000FFFFFFFFFFFFFFFF8A
S31508002050FFFFFFFF00E0020800000000000000008C
S31508002060FFFFFFFFFFFFFFFFFFFFFFFFFFFFFFFF72
S31508002070FFFFFFFFFFFFFFFFFFFFFFFFFFFFFFFF62
S31508002080F02F002000000000F02F0020F02F002085
S31508002090C8200020BC540108E44401086817002041
S311080020A03C0C0020000003080030002063
S31508002100C82000200D3A0108CD3B0108D13B010843
S31508002110D93B0108D53B0108DD3B0108583C0108BD
S31508002120583C0108583C0108583C0108583C01082D
S31508002130E13B0108583C0108583C0108C13C00082D
S315080021409BDF0008583C0108FB6B0008583C010857
S31508002150F1B00008B9690008583C0108583C010864
S31508002160D75B000885320008352D00089121000844
S31508002170583C01080B6B0008536B0008583C0108D3
S31508002180FD6E0008583C0108583C0108593C0108F6
S3150800219070B52C482C4942780B685B0725D5032A6D
S315080021A023DA838800EB4204A3810123847803FAA7
S315080021B002F222438270254C0278002A12D00025AA
S315080021C022FA05F6F60708D5AB4045705A40027064
S315080021D010EB4500808A206007E06D1CEDB2032DE8
S315080021E0EEDB02E02260032242704FF6FF700860C1
S315080021F0BFF35F8F70BD13480021017000220321D1
S3150800220041700021C1700521018100218170001DE6
S315080022100E490A604A604FF400428A601022CA607A
S315080022204861012088610320C860042106480164CA
S315080022304FF6FF7101604FF400600549086000F031
S3150800224045B80000D022002010A8004004D0004065
S3150800225000E100E0DFF8E03433F810001040C84031
S31508002260704730B50FF29054DFF8D03434F8104088
S315080022709C601140DFF8C04434F810509543294358
S31508002280D96002221A6000221A6024F810105868D1
S315080022900028FCD130BDDFF8A824DFF8A80412789E
S315080022A0DFF8A4140AB149780EE0895611F1090F2E
S315080022B0B8BF302108DBC16D39B1C26D40F24A3171
S315080022C0B1FBF2F189B2C91E01607047E0B5DFF8CB
S315080022D07C0401880A2300F064F8BDF806104FF65E
S315080022E0FF720D20FFF7BDFF07BDF8B50546B5F52A
S315080022F0004FDFF8544419D1DFF85404018802234B
S3150800230000F04FF8BDF80000000AFF2814BF0028A7
S3150800231018206070BDF800000006C00E10281CBF0B
S31508002320001D00F098F9BDF80000C543DFF81064F9
S31508002330707808B1002005E0A089ADB26840C007F2
S3150800234001D501207070DFF80C04A58105F00104A1
S31508002350016841F400410160C5F340070FF2BC4033
S3150800236000EB44004FF440524078010389B2022042
S31508002370FFF777FF204600F053FA4022B90100F034
S3150800238005FA2D06A80E00F0010038433070FFF755
S3150800239082FF707818B1FFF799FF0020707000204F
S315080023A0F2BD7F2200A800F0B1BA2DE9F04FDFF8A0
S315080023B0AC43207887B0042304900C210B38C0B2B4
S315080023C0039000A8039A00F019FB9DF800008DF809
S315080023D00A009DF801008DF809009DF802008DF8A5
S315080023E008009DF803008DF80500DFF874030078EF
S315080023F0012804D16078451EAD41ED0F00E00125A6
S3150800240000F070FD83469DF902000399D24F0BF147
S315080024100A0AABF10A065045B6BF86424FF00108D4
S315080024204FF0000801208840ADF806009DF801002D
S31508002430000604D47888BDF80610084201D04FF08B
S31508002440010800F0C5FD9DF8030000060AD4B88807
S31508002450BDF80610084205D19DF900005045B8BFE1
S31508002460864202DB4FF0010901E04FF0000948EA15
S31508002470050059EA000000F09E80DFF8E8A2BA4994
S31508002480DAF8000000F002008DF80400B74800688A
S3150800249000F4E06005904FF4E0600860002001F069
S315080024A091F901F092FCB24EADB1607858B1DAF804
S315080024B00000AB4940084000CAF800000120087037
S315080024C001F068FD07E0306840F40050306030687D
S315080024D020F480503060A248007801280DD101F020
S315080024E090FEDAF800009E4940F00100CAF80000A4
S315080024F000200870642001F04DFD2DB1607818B9F0
S315080025000498C0B201F03FFF607838B1306820F413
S3150800251080503060306840F400503060BDF80600E6
S31508002520C543B8F1000F08D002F018F88DF801007D
S315080025308DF802B0788828407880B9F1000F08D065
S3150800254002F0BDF88DF803008DF800B0B888284071
S31508002550B8809DF900009DF90A10884202BF9DF8CF
S3150800256001009DF8091088420BD19DF902009DF9DA
S315080025700810884202BF9DF803009DF8051088429E
S3150800258006D00399042300AAC9B20C2000F047FA22
S3150800259005987649086000F077FA9DF8040001F07E
S315080025A011F902F0ACF9607828B148F26070306031
S315080025B0642001F0EFFC9DF8010001F03BFF9DF857
S315080025C0030002F077F807B0BDE8F08F80B500F099
S315080025D07CFCBDE80140E8E600F077BC70B506462D
S315080025E0A6F10B0401F04FF80546A6F10B001028DA
S315080025F001D38A2070BD5F488168090702D4006844
S31508002600C00701D58C2070BD544806705A48016829
S315080026100C290FD00FF27811584A92F90020A4B26B
S3150800262031F824105118C161FFF7BFFE012D08BF0C
S3150800263000F0BAFF002070BD10B5044600F045FC56
S315080026402046BDE81040C9E74448007870473E4830
S3150800265090F9000070472DE9F041044614F12B0F5C
S3150800266086B045DB464801881423FFF79AFEBDF875
S3150800267010004FF6FF71884203D0400448BF012678
S3150800268006D43F2200211020FFF7E4FD0546002668
S3150800269004F12B022F2A2C483A491AD213220FF298
S315080026A0301300E0521ED2B213F91270BC42F9DBA5
S315080026B003EB4204032764780C60002413F8121015
S315080026C0017000208046AEB1BDF810104FF6BF72FB
S315080026D029E0092C0CDA225C0A60047014232A48C3
S315080026E00188FFF75EFE01240320A0462827EAE7B3
S315080026F08B201DE0C1024FF4605200F047F84FF4FA
S31508002700E062210200F042F880224FEAC81100F088
S315080027103DF885F020003D18ADB2402DA8BF3F25F5
S315080027203F2285F0200100F031F8FFF7B4FD0020C4
S3150800273006B0BDE8F0810000F4220020E810004051
S31508002740C62F002064100040D0200020BA4F010890
S31508002750C44F01081C100040EE220020CC200020A7
S31508002760C42100208020004080E100E000E100E074
S31508002770D010004060200040AC100040C52F00205B
S31508002780B64F0108C0100040B84F01080B2068E595
S31508002790AA2129005523290000252800AA26270052
S315080027A055282700002A2600AA2B2600552D250085
S315080027B0002F2400AA3024005532230000342200BA
S315080027C0AA3522005537210000392000AA3A2000F0
S315080027D0D500E601EC02EF03F204F405F506F70767
S315080027E0F808F909FA0AFB0BFC0DFD0FFE11FF1399
S315080027F000160119021C031F1000110020003000EA
S315080028004000410050006000700080009000A00069
S31508002810B000C000D000E000F00000000000010396
S31508002820F0B5044689B0002001F04CFB2648018823
S315080028300A237F2200A800F069F8BDF802004FF6C7
S31508002840FF75A84204D1DC210FF2940002F090F83B
S315080028500FF2A407002601E02A4616B94FF47C4277
S3150800286003E0022E08BF4EF23F0200A800F032F83D
S31508002870761C052EF0D3012C03D114237F2213488E
S3150800288002E014237F221248018803A800F03EF8CC
S3150800289000260FF26C072A4608E02A46012E08BFD2
S315080028A04FF6C07202D0082E08BF002203A800F017
S315080028B011F8761C0A2EF0D3012C04BF012001F072
S315080028C001FB09B0F0BD0000BA4F0108B84F010876
S315080028D0B64F010830F81610F05DFFF7C2BC0000CD
S315080028E0616E616C6F6775652D63656C6C2D6269C9
S315080028F061732E630000000000100C0D0E0000002E
S31508002900010203040708090A0B0F000030B5044644
S3150800291010467F2808BF0020B1F5004F83B01AD1B2
S3150800292008237F2240F6120100A8FFF7EFFF0822CE
S315080029300FF2380100A802F063F930B908237F22A4
S3150800294040F2A27100A8FFF7E1FF082200A920467D
S3150800295002F00CF937BD044D294300FB03111A4652
S31508002960204602F003F937BD00000408FFFFFFFF09
S31508002970FFFFFFFF30B50FF20C11DFF8F8500A68B9
S3150800298083B001A80024026001202870002002F00C
S3150800299049F930B1002002F045F910B12C704920F0
S315080029A03EBDDFF8D400018802237F220DF1020024
S315080029B000F024F802237F22002100A800F01EF868
S315080029C0204601A9BDF8022031F81010914208BF2F
S315080029D00124401C0228F4D3BDF8000024B1B0F548
S315080029E07F7F07D100203EBDB0F57F7F0CBF062054
S315080029F0042000E00720002129703EBD10B5FF29FC
S31508002A0008DCDFF87040247844B1BDE81040C9B24C
S31508002A1002F014BCBDE81040FFF778BF10BD2DE9E1
S31508002A20F0410546FF2D0E46174698460FF24C0014
S31508002A3012DC104C2178A1B1617811B1C02101F0E6
S31508002A4097FF01206070434632463946E8B202F0E5
S31508002A505FFD0020607004E0BDE8F041CB2101F085
S31508002A6087BFBDE8F08103490978002918BF02F03D
S31508002A7052BE7047EE2F0020C24F0108746F6B6577
S31508002A806E2E6300FE01FD0210B5DFF8F04410203B
S31508002A90206302F0F5FEDFF8E8140A6842F0010246
S31508002AA00A6002F0F3FEDFF8DC0400F10801616059
S31508002AB02160923061688931616001212163E0609B
S31508002AC0A060DFF8C414E0688930E0600220206363
S31508002AD04FF6FF70086010BDDFF8B00445F26401D8
S31508002AE0C1601E21416250210162C821C161816510
S31508002AF0F021C16545F69001416688218166062167
S31508002B00C16644F2066101604FF6FF714160DFF865
S31508002B108004007838B1DFF87C0448F260710160FF
S31508002B204FF4C1514160DFF87004016841F00401B7
S31508002B3001600020DFF86414487070472DE9F84FEB
S31508002B40DFF840148A2202FB001202F10806721C02
S31508002B5004245378127802EB03221FFA82FA0AF445
S31508002B604062B2F5006F05460AF4404808BF0824DB
S31508002B7003D0B2F5406F08BF0E24B8F1000F04D099
S31508002B805FEA4A625CBFA21CD4B2DFF8142412784A
S31508002B904A70401800900020009988700AF02700B3
S31508002BA0232851D1DFF8FC73786E00064CD5A0199E
S31508002BB0B8F5404F4FF4806B4FF4006902D102F02C
S31508002BC057FF09E0B8F5004F34D14078A15D01EB15
S31508002BD0002080B202F04AFF60B35FEA0A701BD495
S31508002BE0B8F5004F08BFA01C04D0B8F5404F02D175
S31508002BF004F10800C4B26008002D14BF796839686A
S31508002C00814217D3002D14BF79683968421C914256
S31508002C10F8D3A05D04280DD1F86DC00606D400F0DF
S31508002C2015F803D0786C40F001007864012000990B
S31508002C30887009E0F86DC00606D500F007F803D0DD
S31508002C40786C400840007864BDE8F18FB86C05B12F
S31508002C50CB4610EA0B0F70472DE9F04E0446DFF815
S31508002C602463DFF840538A2000FB046000F1080B58
S31508002C70002C0CBF28686868C1B2052903DA706899
S31508002C80401C706054E040005FFA80F909EB0B00C5
S31508002C90DFF8147310F8081D427802EB01211FFAB9
S31508002CA081FA7178017000214170F86B20F4805028
S31508002CB0F863686E14B93868400504D4012C1FD12E
S31508002CC0386800051CD5B948017889B1002101701A
S31508002CD01AF4E45FB648016802D00022402005E0F5
S31508002CE09BF80100000900F001028F2002F0D9FECE
S31508002CF0002C0CBF4FF480604FF40060386012E07F
S31508002D001AF4E45F0FD100F05AFD10B15FEA4A40A9
S31508002D1009D59BF80000802805DAA019494682786B
S31508002D20584602F083FF002C0CBF012002202861C0
S31508002D30BDE8F08E2DE9F84F934C9A4E2068216C29
S31508002D40DFF870A2DFF86482DFF838929A4F01EA5A
S31508002D5000051AE040B14878C00605D494480168D1
S31508002D6000228F2002F09DFE280605D502F0F2FE0D
S31508002D70802025F080052060E80506D502F0EAFEE9
S31508002D804FF4807025F480752060002D68D02807E0
S31508002D9006D50020FFF7D2FE082025F0080520609A
S31508002DA0E80606D50120FFF7C9FE102025F0100514
S31508002DB0206005F06000602803D1B06CC0050AD415
S31508002DC001E0A80605D52020206025F02005002072
S31508002DD006E0680606D54020206025F0400501205B
S31508002DE0FFF73AFFE80410D54FF48050206025F429
S31508002DF08055D7F800B0082038607868000548BFC5
S31508002E0000F01EF91FFA8BF03860E807ACD50120F0
S31508002E1020606D0899F800006D000028A4D000F025
S31508002E2047FC0128A0D198F8000000289CD09AF801
S31508002E300000042898D1F068400800F001008A21B3
S31508002E4001FB00910831002814BF7268326812B974
S31508002E502268D204F7D5002814BF7068306879E76D
S31508002E6000202060BDE8F18F544800687047F0B52F
S31508002E7004460D4689B00021032001F0E9FC04AEA2
S31508002E801BE0002701F0FFFC26F8170001F0FBFC09
S31508002E9000A921F817007F1C082FF3DB04A803F00C
S31508002EA03BF800202080218836F810205140401C2D
S31508002EB008282180F7DB6D1EA41CEDB2002DE0D199
S31508002EC001F01DFD012009B0F0BD0321022001F02B
S31508002ED0BFBC4FF6FF71081A292190FBF1F03A3072
S31508002EE040B2704738B501F0CEFCFFF7F2FF344D1B
S31508002EF004462878B0B90321032001F0A9FC31481B
S31508002F00018802237F2200A8FFF700FD01F0BBFC21
S31508002F10BDF80010401880B2FFF7DBFF153868705F
S31508002F200120287001F0EBFC6878201A40B232BD07
S31508002F3080B50321022001F08BFCBDE80140D1E7F2
S31508002F4070B521480078002490B9FFF7F1FF134EB9
S31508002F500546707848B13078401B40B202F0EDFF64
S31508002F600B2805DB3570012402E0012035707070EE
S31508002F70204670BD154800787047000000200040C4
S31508002F8084200040DC24002000A000404C100040B3
S31508002F90CD200020D010004080200040E42F0020E3
S31508002FA0CC2000202020004004A00040D02400208F
S31508002FB0D8240020C3210020B82000403820004033
S31508002FC0E22F0020C04F0108C4210020E62F002070
S31508002FD010B50D48018884B00A237F2200A8FFF7A0
S31508002FE095FCBDF800004FF6FF74A04204D14E21AF
S31508002FF00FF2180001F0BCFCBDF8001022460020B4
S31508003000FFF72FF91FBD0000BA4F0108616E616C0A
S315080030106F6775652D66696C7465722E63000000AE
S31508003020DFF80808007848B1DFF8040801790129B3
S3150800303004BF4079042801D1012070470020704759
S31508003040DFF8F007016821F480510160DFF8E8072E
S31508003050017881B100210170DFF8E0170A6852088B
S3150800306052000A600A6842F001020A60002281687A
S31508003070402002F016BD7047010603D54FF67F7152
S315080030800840C0007047491C800189B2B0FBF1F0C6
S3150800309080B2FF288CBF0020C0F1FF00C0B2704785
S315080030A038B5DFF89407C178012901D1002032BD6F
S315080030B0DFF89047617871B1E17840794518207951
S315080030C0ADB2854228BF054602F050FF0121A9404E
S315080030D0491E084000E0002061790818C0B232BDD8
S315080030E02DE9F0470446C00705D540F271110FF2E5
S315080030F0D47001F03DFCDFF85057286DC00748BF73
S315080031008C2000F19480DFF83007DFF8387700214B
S31508003110017101704178B1B93978A1B121781229C4
S3150800312018BF0C290BD1627802F00702032A02BFE6
S31508003130091911F8021C042904BF01210171A96F9C
S3150800314041F0010102E0A96F49084900A967DFF8C3
S31508003150E0867A7898F80610DFF8F096DFF8F066D9
S3150800316092B1002242710129286D40F004002865B9
S3150800317006D14FF6FF7030604FF40070C9F80000B2
S31508003180FFF78EFF82460CE0286D20F00400012927
S3150800319028654FF0000A04D100F043FA642000F0D5
S315080031A0F9FEA86F20F00800A8671420E864C5F89F
S315080031B048A0787838B198F80600002801BFA86CAE
S315080031C000280120A864B8790028286D14BF40F0AB
S315080031D0080020F008002865FFF722FF18B1306CB8
S315080031E040F008003064202028626C602C604FF4A0
S315080031F0E06468687F30686004202862DFF8540657
S31508003200046006E002F0C2FE18B102F0C7FE02F042
S3150800321037FBDFF84406006800F003000328F1D006
S31508003220C9F80040286D40F0010028650020BDE877
S31508003230F087DFF82806002141608160016821F0E7
S31508003240020101604FF00070DFF8141608600120D3
S31508003250DFF8101608707047A0F13301DFF808266A
S31508003260914200D3704710B5DFF8F8450021217068
S3150800327000F07BFB02E0012002F094FE2078002893
S31508003280F9D010BD2DE9F84FDFF8E065DFF8A8554D
S315080032907068716CDFF8B07508401FFA80F8C6F8D8
S315080032A004806878002840F0DD805FEAC870DFF89F
S315080032B0C045DFF8909553D5D7F800A0386C796CDF
S315080032C041EA004199F80000A960002844D09AF81C
S315080032D00100800640D5012028704FF480503060E8
S315080032E0306C40F480503064FFF79AFEC0B3192062
S315080032F000F050FE4FF44040DFF878B5CBF82800D0
S31508003300DBF800000090E06E40F40050E066E06EE6
S3150800331040F48050E0669AF80010A8684901B83170
S3150800332001EB000AFFF7A0FDAAEB00000003000B63
S31508003330FFF792FFE06E80098001E06600A9E06E63
S3150800334009880843E0660020CBF8280048F2607038
S31508003350E066E888206003E00022002002F0A1FB76
S315080033605FEA08600CD5287830B100202870002262
S31508003370A968402002F095FB306C20F48050306438
S315080033805FEA486008D5687830B9FFF76DFD0146F1
S315080033900022892002F085FB5FEAC86054D5DFF871
S315080033A090A4DFF8A8B49AF80400012804BF9AF894
S315080033B0061001291FD100F024FF386F40F00100E4
S315080033C0386700208AF80600FFF75EFB0A2000F03F
S315080033D0E1FD4FF6FF7070604FF000084FF4E060B3
S315080033E0CBF800000920B8660120B864B86F40F031
S315080033F00800B86718E0697999F80220491C6971CC
S31508003400C9B2914215D2012808BF00F0CDF8B86FAD
S3150800341020F00800B8671420B866FFF741FEB864C4
S315080034204FF40070CBF80000386D40F001003865A5
S315080034300AE0012808BF00F0B7F8FFF715FD0146B6
S3150800344000228D2002F02DFB5FEA08700AD5FFF7EF
S31508003450E7FD38B12068E88001202060706C20F014
S31508003460080070645FEA88600AD5202038626878A8
S3150800347030B9FFF7F9FC01460022882002F011FB5B
S31508003480687820B118F4407F04BF0120A870BDE811
S31508003490F18F70B582B00446FFF79EF8DFF8E003B7
S315080034A0DFF89853002101601521E96009210165BB
S315080034B01F21416001210166DFF8C0030088FEF77D
S315080034C014FFFFF709FB03F09DF800F03EF9DFF85B
S315080034D06063308900F066F9708900F06BF902F0D4
S315080034E0CFF9696841F04001696002F0CFF9707858
S315080034F000F000F9B07800F00DF9DFF888030078DD
S3150800350000F03AF9DFF8800390F90000FFF7A3F816
S31508003510307800F057F996F9030000F05FF9DFF804
S315080035206C0300F07DF9BDF80000DFF86413C005F0
S315080035304CBF0020BDF800000870DFF8580300787B
S31508003540FFF74CF828B10FF27C3040F2B73101F0A2
S315080035500FFA012C05D12868C00711D500F024F808
S315080035600EE06CB92868C0070AD400F04AFE28683D
S3150800357040F001002860C82000F00CFD0020B07162
S31508003580F120DFF8CC42206440F2F910E063FFF73F
S315080035907BFA2868C00704D54FF6FF70206000F054
S315080035A06DF800F012FC73BD70B5DFF8EC52DFF869
S315080035B080422E68A079012832D002F061F948F2DB
S315080035C0D00129606A68520509D548F222022A60A4
S315080035D06A68D205F5D529606A685207F1D4B6B289
S315080035E0DFF870222E604FF4E0611160DFF8881270
S315080035F00A6A520852000A620A68520852000A60A9
S315080036000A6842F002020A604A6A42F001024A6205
S315080036100121A17102F03AF9BDE8704000F0EABD57
S3150800362070BD70B5824CA07938B300F0EAFD02F09F
S3150800363027F90546DFF86412814E01200860306DCF
S3150800364040F0010030650020A071FFF71DFA202028
S315080036503060306B40F002003063F06D40F00800D7
S31508003660F065284602F012F90A2000F093FC784922
S315080036704FF6FF70086000F001F870BD4FF4E06087
S315080036807249086070476A488079704710B5684C77
S31508003690A07928B140F2AD410FF2282001F068F96F
S315080036A02079012804BFBDE81040FFF77DBF10BD93
S315080036B05F480079704780B5022801DB012002BD0A
S315080036C05B4908718979884205D010B9FFF7A9FFC7
S315080036D001E0FFF769FF002002BD7148006880021B
S315080036E000149A3801B211F1800FB8BF6FF07F004D
S315080036F040B2704710B5044602F0C2F869490A6834
S31508003700002C14BF42F0120222F012020A60484945
S315080037104C7040E038B5044602F0B2F80546FFF7AB
S3150800372029FC40B95F480168002C14BF41F08001AC
S3150800373021F0800101603E4884702846BDE8324089
S3150800374002F0A4B83A488078704757494A780B7807
S31508003750564803EB022202608B78CA7803EB0222F2
S3150800376042600B794A7903EB02228260CA79897929
S3150800377001EB0221C160704710B5044602F080F8DB
S3150800378048490A68002C14BF42F0200222F02002A1
S315080037900A603C490C70BDE8104002F077B824482E
S315080037A000897047224908814149086070472048C6
S315080037B0408970471E4948813E49086070473E481F
S315080037C0007870471D490A68002814BF42F00202B3
S315080037D022F002020A6016490870704738B5044696
S315080037E07F2C0AD1354800F01BF8BDF80000C0054B
S315080037F054BFBDF800406FF04A0402F041F8054690
S31508003800FFF7B8FB30B964B204F19A0080052C4979
S31508003810000C08600648C470284602F037F831BD27
S31508003820018802237F2200A8FFF770B8E02F002046
S31508003830BE21002040A00040D02400208020004067
S3150800384030200040C42200201020004000E100E0A3
S3150800385004A0004080E100E0A820004010E000E05D
S3150800386004ED00E0E12F0020CDFF070000A0004096
S3150800387064100040E410004060200040DC20002076
S315080038805C100040DF2F0020D0200020C84F010820
S31508003890C52F0020CC2000201C1000402810004016
S315080038A00C1000408420004014240020982000407A
S315080038B09420004090200040BD210020CC4F0108F4
S315080038C0541000407068792D636F6D6D6F6E2E63AE
S315080038D000000000DFF864155120086070472DE9E4
S315080038E0F041054602F0A2FEDFF85415B0FBF1F6EA
S315080038F04FF4F070B0FBF6F71E2D3FB201DBE81B64
S3150800390004D5A8B2BDE8F04100F044BB01F0B8FF09
S31508003910804602F0F7FEDFF82C15DFF82C2501208B
S3150800392048700721DFF8240500F041F8E91B09B2C1
S315080039307143C91C8908491EDFF81455416000F017
S31508003940BDF8DFF8F8743C68386820F04000386045
S3150800395002F0DAFE3C602E6002F0DAFE02F0E0FECB
S315080039604046BDE8F04101F091BF38B5054602F082
S315080039705DFEDFF8CC14B0FBF1F44FF4F070B0FB49
S31508003980F4F02D1A1E2D04DA98210FF20C5000F0CF
S31508003990EFFFDFF8B804DFF8B024072100F007F8D6
S315080039A005FB04F1C91C8908491E416031BD016047
S315080039B00021416081604FF0007111607047DFF8A7
S315080039C0842401215170D0E7DFF88804006800B923
S315080039D070472DE9F041DFF88054DFF88064002451
S315080039E02C6034604FF4A040706041F29A0840465B
S315080039F0FFF775FF6F6802F021FE000142F21071B1
S31508003A00B0FBF1F000F5C870C01B00B24FF4487166
S31508003A1090FBF1F000B20828A8BF072004DA10F1DD
S31508003A20080FB8BF6FF0070030604046FFF757FF32
S31508003A3008274046FFF753FF686804197F1EF8D128
S31508003A4002F0FCFD211D4001C908B0FBF1F080B26F
S31508003A507060BDE8F081DFF8FC03006800B97047C4
S31508003A6038B5DFF8FC5301206FF00F04A8602C600E
S31508003A708020FFF734FFE868FF2802D8641C102C62
S31508003A80F5DB31BD70B5DFF8DC03016841F00101F3
S31508003A9001600121416001F0F3FE0446DFF8B053EE
S31508003AA000F00CF85120DFF8941308602E6002F03D
S31508003AB02FFE2046BDE8704001F0E8BE2E68286853
S31508003AC040084000286002F023BE0020704710B569
S31508003AD0DFF88003DFF86C4300680128BCBF0320C9
S31508003AE000F01DF80120207000202071DFF878030F
S31508003AF0816901F00301032907D10020A070042081
S31508003B0000F07FF80120207110BD0F21016002210D
S31508003B1081610120E0706420BDE810404FE72DE97F
S31508003B20F041CC4CC74D226840F2DC51012A884648
S31508003B30CD4ECE4F17DA0221B9803160B16901F056
S31508003B40030103295BD02168002903D5B16941F037
S31508003B500201B161FFF7B9FF5FEA00081BD12068CF
S31508003B6000284CD549E0B8884FF6FF74A0421DD10D
S31508003B70BF48018802237F22381DFEF7C7FEB88892
S31508003B80A04204BF0220B880B069800703D4B06998
S31508003B9040F00200B0610120A870B88830600FFAC2
S31508003BA088F0FFF70CFF4046BDE8F081B3699B0734
S31508003BB0EDD5AB780BB10846F6E7B168B36811F0F6
S31508003BC0010103D10F2809D2401C06E09B0705D541
S31508003BD03B781BB1032801DB2018B880B8883970F8
S31508003BE00228BCBF0220B8803068B9888842D2D182
S31508003BF0B06900F00300032801D0FFF743FF002057
S31508003C00D2E72DE9F047804600248C4D904E01F00E
S31508003C1037FE814602F076FD4046FFF780FF08B979
S31508003C2001240AE000F0CAF8D5F800A000F02EF941
S31508003C30C5F800A0376002F06BFD02F071FD48463A
S31508003C4001F024FE002CE2D0BDE8F0870220D8E778
S31508003C5010B57E487B4C002141608160016821F0E7
S31508003C6002010160002060704FF00070764908601C
S31508003C70A07838B10020A0700620FFF726FF00F0D4
S31508003C8098F81CDBE078012814D17A4801210160F4
S31508003C9079490968C90748BF03200FD40221E17092
S31508003CA0016C41F0010101640420744908607449FB
S31508003CB0086010BDE078042801D10520E07010BD29
S31508003CC080B56048407800281CBFBDE80140FFF772
S31508003CD0BFBFFFF7AEFA01BD2DE9F84300F069F85A
S31508003CE003DABDE8F24304208BE7564C207900B38B
S31508003CF05DE001F0C5FD054602F004FDE078032805
S31508003D0012D000F05AF8DFF83481D8F80090D8F8C5
S31508003D10000020F04000C8F8000002F0F5FCC8F8E2
S31508003D200090376002F0F4FC02F0FAFC284601F035
S31508003D30ADFDE0780328DCD14C4E4B4DB0882860A9
S31508003D404FF6FF777088B8420CD14E480188022397
S31508003D507F22B01CFEF7DAFD7088B84202D16420D3
S31508003D60708001E07088C8B102F068FC7188344A36
S31508003D70B0FBF2F048432F303021B0FBF1F0424956
S31508003D804A6D42F001024A650A68AB68DB07FBD553
S31508003D900B689B1A1B031B0B8342F6D3FFF772FEB5
S31508003DA00420E0704FF4C870BDE8F24307E6BDE8AA
S31508003DB0F1832848006801287047254E376830681F
S31508003DC040084000306002F0A3BC2DE9F8431D4CC2
S31508003DD0207800282DD0207900282AD1FFF7E9FF7E
S31508003DE01FDA40F2F7310FF2B00000F0C1FD18E01B
S31508003DF001F046FD804602F085FCE07805280BD0E8
S31508003E00FFF7DBFF0D4DD5F8009000F03FF8C5F839
S31508003E100090376002F07CFC02F082FC404601F01C
S31508003E2035FDE0780528E3D10020A0700520FFF7CE
S31508003E30E8FE00202070BDE8F18300000080004005
S31508003E4090D00300CA2F002004ED00E010E000E047
S31508003E5094ED00E0644A0108104000400C00004060
S31508003E60084000401C40004004400040E02000207C
S31508003E70C64F010818A000400C40004080E200E050
S31508003E8000E100E0CA4F010838200040286820F009
S31508003E904000286002F038BC636C6F636B732E6356
S31508003EA00000000010B5664C002000F02EFD40F61C
S31508003EB08C2188422068B4BF40F0080020F0080032
S31508003EC0206010BD10B504465E48018882B000F037
S31508003ED05CF89DF800109DF80100FF2902BFFF2835
S31508003EE00420002104B1801C574A1368C0B2082870
S31508003EF0A8BF072023F4607343EAC010106008299E
S31508003F001068A8BF0721C00841EAC00010604F48E2
S31508003F10047013BD00B54E48018883B000F035F82B
S31508003F20BDF800004FF6FF7188420EBF4FF4E160FE
S31508003F300A2190FBF1F0ADF800004448007808B378
S31508003F404048018802237F2201A8FEF7DFFC9DF87E
S31508003F500500BDF80030FF2808BF0420811CC9B23F
S31508003F600829A8BF0721C1F12F0202EBD272C0F1BE
S31508003F702F00521000FB0320C1F12F01B0FBF1F016
S31508003F80ADF80000BDF800000EBD02237F2200A890
S31508003F90FEF7BCBC70B52F4C2568064602F04EFBF2
S31508003FA02D49B0FBF1F070432F303021B0FBF1F012
S31508003FB0032809D3616D41F0010161652168491B38
S31508003FC00903090B8142F9D370BD10B5040004D169
S31508003FD010BD4FF47A70FFF7DDFF2046441E80B20D
S31508003FE00028F6D110BD704738B50C4620B1012817
S31508003FF00FD0032820D021E0184D44B102F01EFB53
S315080040001749B0FBF1F0401EB0F5005F0CD22860EE
S3150800401012E04CB102F012FB610801EB4000B0FB64
S31508004020F4F0B0F5003F01D3202032BD0D4900F071
S3150800403001024A6040080860002032BD212032BDD6
S3150800404000BC0040BC4F010818000040DD2F0020CE
S31508004050BE4F01083820004090D00300100004E04D
S3150800406020A1070068C8004038B50120FFF757FDB2
S315080040700020FFF727FF7B4C206840F008002060EF
S3150800408002F0E3FAFFF70EFF774900F03CF88D7867
S31508004090764BDD608D880560CD88456000F02AF88E
S315080040A000F0A8F8206820F010002060FEF7A3F8BA
S315080040B002F081FC02F0E4FCFFF7C8FD02F0C3FA47
S315080040C0BDE8314002F0DFBA40F2016002F074BD8B
S315080040D010B502F04CFE02F059FC654900F013F8E1
S315080040E08C78624BDC608C880460CC88446000F075
S315080040F001F810BD088910604889506088891860E1
S31508004100C889586070475B480A78C2604B785A4A33
S31508004110D360704710B5FFF7DAFCFFF7C3FE00F06F
S3150800412011F800F008F8FFF7D7FD02F038FCBDE8F3
S31508004130104002F038BE4B48016821F010010160BA
S31508004140FEF759B848494B480A78C2604B784A4A3C
S31508004150D3608C78454BDC608C880460CC884460DE
S31508004160088910604889506088891860C88958602D
S3150800417040E0F0B50B68424C0F252468960005FA16
S3150800418006F6344215D0002606EB820724FA07F70E
S31508004190FF070BD5B70005FA07FC23EA0C0330F82E
S315080041A012C005FA07F707EA0C073B43761C042EEC
S315080041B0EADB0B60F0BDF0B50B68314CFF252468CF
S315080041C0D600B5402C4213D00025012605EBC207C0
S315080041D024FA07F7FF0708D506FA05F7BB43175C65
S315080041E006FA05FC0CEA07073B436D1C082DEDDBB8
S315080041F00B60F0BD10B52248006808B11C4C07E0FA
S3150800420010BD10B51E48006808B1174C00E010BD77
S315080042101C4900222046FFF7CEFF01221A492046F4
S31508004220FFF7C9FF022219492046FFF7C4FF0022FB
S31508004230104900F031F80122104900F02DF8022249
S315080042400D4900F029F80322114900F025F8042247
S31508004250064900F021F8201DBDE8104005220D4949
S3150800426087E7000000BC00405C21002000B8004041
S315080042706C21002000B0004000B4004004B00040AB
S31508004280C02400200CB000400CB400400CB800401C
S3150800429004B4004004B80040201D6AE70320FEF776
S315080042A0E2BB80B502F0F5FE0FF2600109E080B5C9
S315080042B002F0F3FE0FF280010204120E51F82210EA
S315080042C0C0B201EB800002BD10B502F0E2FE044662
S315080042D002F0E3FEC0B208B9012C07D1072C11D8A9
S315080042E0DFE804F004100608080A0C0E002010BDCA
S315080042F0092010BD022010BD032010BD0B2010BDE3
S31508004300062010BD44F0800010BD0000554E4B003D
S315080043104649420042544C004558540050575200F2
S31508004320574447002053570043525300465348000A
S3150800433042414400464C5400684A01086C4A010848
S31508004340C44A0108E44A0108EC4A0108F84A010887
S31508004350044B0108104B0108184B0108244B0108AF
S31508004360344B01082A490A68920992010A600A68C8
S31508004370104308604FF4004126480160002101609F
S315080043806420FFF707BE2DE9F047234D204FD5F8E7
S315080043900090224C8046286840F40040286038681F
S315080043A020F480503860207868B162781C48A1787B
S315080043B000EB820200EB880012F82A2C10F82A0C6F
S315080043C0891A461802E0012020262070B0B2FFF7AD
S315080043D0C9FF0FF2500A02E0B0B2FFF7C3FF386B0D
S315080043E0042805D0386B400754BF761E761CF3E7C1
S315080043F0F86A38B184F80180A6701FFA89F0286037
S31508004400BDE8F08740F22111504600F0B1FAE6E720
S31508004410D0100040181000401C100040C22F002089
S3150800442090270008616E616C6F6775652D76636FFE
S315080044302E63000081014FF4FE5289B20C20FDF76D
S3150800444010BF2DE9F84F8F4CA56820680127ADB23B
S3150800445000264FF00A08B9461FFA80FA00F04FFA0C
S31508004460B0202063DFF820B208E016F1190FB8BFB4
S315080044704FF00A08464436B27019A060DBF800000F
S31508004480000702D559EA070028D00120FFF782FD68
S31508004490B9F1000F11D0AAF10300874202DAF81C1D
S315080044A087B213E00AF50040206057460621092026
S315080044B000F0CEF94FF000090BE0DBF8000000072A
S315080044C007D5042FA6BFF81E87B2002707F50040B8
S315080044D020601A2EC9DB6FF00908CBE7A560C4F87F
S315080044E000A00820CBF800006848006880B2BDE844
S315080044F0F28F80B5624B66491B784FF0FF326BB17D
S31508004500002819BF4A606348486041F211100860E4
S31508004510614841880088BDE8044092E7002819BF31
S315080045204A600A604860086000F0E9F9BDE804409E
S315080045300621092000F0DDB938B50120FFF7D9FFBB
S3150800454004460020FFF7D5FF05460120FFF7D1FFF7
S315080045504042001B00EB450000B232BD2DE9FE4F7C
S315080045604E4CDFF83C81A06A454EADF8020025683E
S31508004570D8F800B0307860B14FF6FF7200210820F5
S31508004580FDF768FEADF80000C022C0210820FDF73F
S3150800459068FE4448DFF81091007818B148F2607058
S315080045A0C9F80000708840F4404040F04C00C9F853
S315080045B03C000220A0620120206040F24C40FFF738
S315080045C0E9FC0120C8F80C00C8F800000020324FAA
S315080045D0388040207880307800B12020FFF72AFF05
S315080045E0FFF7AAFF8246402038807F207880FFF7B1
S315080045F021FFFFF7A1FF0290504601F09EFCFE2125
S3150800460001FB00F70298AAEB00000190307860B130
S31508004610029801F092FC8246019801F08EFC80B265
S3150800462007EB8A11B1FBF0F005E0019801F085FC73
S3150800463080B2B7FBF0F080B2401CC7031FFA8BF0BC
S31508004640C8F80000ADB20020C8F80C0002202060AF
S315080046502560BDF80200A0620020C9F83C00307849
S3150800466030B1BDF800104FF6FF720820FDF7F9FDCE
S3150800467040F24C40FFF78EFC380CBDE8FE8F000078
S31508004680C8200020C010004018A00040007000405C
S3150800469038100040EEEEFFFFB42F002060200040E7
S315080046A028100040CD200020D010004041003F22B5
S315080046B089B201E001463F220220FDF7D2BD2DE96D
S315080046C0F04F564C564D95B0E06CADF810004FF6CD
S315080046D0FF782068ADF80E004246E86AADF80C008F
S315080046E000210120FDF7B6FDADF80A00424600217B
S315080046F00B20FDF7AFFDADF808004FF40040206031
S3150800470000202861686148F2020000F08BF84CF638
S315080047108C30E0644FF4805248F2F000E8621146AB
S315080047200120FDF79EFD424600210B20FDF799FD6D
S315080047300621062000F0DDF8019000F085F80090CB
S315080047404CF69C30E0640020FFF7B0FF06210846CF
S3150800475000F07EF800260DF1140BB0B2FFF7A6FFA5
S315080047600621062000F074F800F08DF82BF81600E4
S31508004770761C202EF1DB00F086F81020FFF796FF56
S3150800478000F062F80099019A401ABBF82010891ABD
S31508004790404301FB01094FF0100A112700F04EF8BB
S315080047A000F052F800F043F806DB81461FFA87FA54
S315080047B0781C07B2202FF1DBBAF1100F0ED10F27A4
S315080047C000F03CF800F040F800F031F806DB8146CE
S315080047D01FFA87FA781E07B2002FF1D5BDF8100028
S315080047E0E0644246BDF80E002060BDF80C00E862A1
S315080047F00120BDF80A10FDF734FDBDF80810424641
S315080048000B20FDF72EFD01202861002000F00AF894
S315080048104FEA4A00C0B215B0BDE8F08FC01000409C
S3150800482018100040286040F24C40FFF7B3BB0099CF
S31508004830401A404306FB0600484570473BF81700F8
S315080048400199461AB8B231E70621072000F051B897
S3150800485070B505460E4601F055FF3D4C206C20F01C
S315080048600800206401F05CFF01F00AF8310341EA10
S31508004870C511384A41F00101116008212160BDE8DF
S31508004880704001F003B82DE9F041334C334D304EFA
S3150800489025E001F037FF324904200860306C40F00B
S315080048A0080030642F68286840084000286001F036
S315080048B02FFFD4F80080206820F04000206001F027
S315080048C023FFC4F800802F6001F022FF306C2549D1
S315080048D020F0080030640420086001F021FF3068E9
S315080048E00007D6D5082030601F48006880B2BDE8AA
S315080048F0F08180B5FFF7ACFFBDE80140C3E7154876
S3150800490001684908490001607047F8B50746FFF78E
S3150800491001FB044639460320FFF7EBFF05463946F7
S315080049200120FFF7E6FF064639460020FFF7E1FFBC
S3150800493008490A68520852000A60401B0004711BA5
S31508004940B0FBF1F060434000000CF2BD000000002F
S3150800495018A00040047000400080004094ED00E07C
S3150800496000E100E080E200E00070004042DE7047AF
S3150800497038B504460D4601F071FE00F081FF294660
S31508004980204602F0C0FB2B4622460FF2CC1101202E
S3150800499002F02BFE29462046BDE83440E6E72DE91D
S315080049A0F84F6548654D01682E1D4FF4206A7165FC
S315080049B0016AB16562490968F165416A3166816AC9
S315080049C07166C16AB166016BF166806B306796F8ED
S315080049D0340040074CBFF76BB76BBB4602F08BF948
S315080049E00022584CDFF86081DFF86091F264874254
S315080049F0014624BFA4F12003BB4231651DD357F8F5
S31508004A00180F306457F8040F7064706DC005C00D38
S31508004A10062815D1306C484512D3404510D2008877
S31508004A204DF6426290420BD105F18C006A684260ED
S31508004A3040F2017A7268826002E0326472648346E8
S31508004A404348814202D2014600E0091DA14203D231
S31508004A500B68B3F1CD3FF8D0601AB064182105F1A0
S31508004A60780002F003FE002003E0C0B205EB8002E6
S31508004A709167A34523D254F8041D4945F9D3414506
S31508004A80F7D2CA07F5D5002205EB82039B6F8B4246
S31508004A9003D0521CD2B2062AF6DB062AE9D1002830
S31508004AA014BF401E0520E0E7716F002205EB820364
S31508004AB0521CDF6F9F67052AF8DBC5F88C10014684
S31508004AC0481EC9B20029EFD1706DC005C00D022875
S31508004AD00AD0032815D0042816D0052817D006288A
S31508004AE018D00C281CD01EE01A480168890748BF50
S31508004AF040F6021A1CD40068C00719D540F2025ABB
S31508004B0016E040F6012A13E040F6022A10E040F6C5
S31508004B10032A0DE0BAF5206F0AD140F6042A07E009
S31508004B2040F6052A04E018B1242838BF40F6072ABB
S31508004B305046BDE8F28F000004ED00E000000020BA
S31508004B4000E300E0C8200020E444010890210008A2
S31508004B50980000201CA000400D0A5B4153534552A3
S31508004B60543A25703A25645D0D0A0000814233D215
S31508004B7010185118401E491E10E011F8013900F8A6
S31508004B800139121F11F8013900F8013911F80139F4
S31508004B9000F8013911F8013900F8013992B2042AEE
S31508004BA0EBDA92B2002A1EBF11F8013900F8013972
S31508004BB0521EF6D1704711F8013B00F8013B121F4F
S31508004BC011F8013B00F8013B11F8013B00F8013BE5
S31508004BD011F8013B00F8013B92B2042AEBDA92B2D3
S31508004BE0002A1EBF11F8013B00F8013B521EF6D100
S31508004BF07047130003D00A46194602F03BBD7047BA
S31508004C0010B500E0521E92B222B100F005F8F9D0B4
S31508004C10181B10BD002010BD10F8013B11F8014B00
S31508004C20A34270472DE9F04F87B080461A251A220D
S31508004C30FF2100A8FFF7DDFFDFF8ACA09E22FF21C9
S31508004C405046FFF7D6FF0027284CDFF8A490294ED8
S31508004C50B85D17F809B0395D401C00EBD0704010FC
S31508004C6001B11930401C00FB0BF2234830F817102D
S31508004C700FF2880092B202F034FDBBF1010F1CBF9F
S31508004C802AF817505D447F1C1A2FE1DB0FF28805BE
S31508004C904FF4E04000F016F918B1C2212846FFF794
S31508004CA067FE4FF4804000F00DF918B1C42128467C
S31508004CB0FFF75EFE4FF4805000F004F918B1C621E4
S31508004CC02846FFF755FE1A2340F21C4240F21F21E0
S31508004CD00FF2540002F005FD00A9404600F01FF946
S31508004CE007B0BDE8F08F0000DC2E00203C5001081C
S31508004CF0745001085850010808500108437265614C
S31508004D00746F723A2030782532582C20576F7264A7
S31508004D10733A2025640A000073696D2D6565707203
S31508004D206F6D2E630000000053696D454520646170
S31508004D3074613A20256420776F726473206F662049
S31508004D402564206D61782C20746F6B656E436F75D2
S31508004D506E743A2025640A0010B5DFF8B04ADFF809
S31508004D60B03A2488001B06E010B5DFF8A84ADFF839
S31508004D70A03A24681B1B03EB4000002304E030F82C
S31508004D80134021F813405B1C9342F8DB002010BD4A
S31508004D902DE9F04182B004460D4616460027DFF895
S31508004DA0708A01E0B81CC7B2B74217DA7819795D7C
S31508004DB04078DFF8583A1B8801EB0020ADF8000070
S31508004DC0012207EBD77004EB6000C01A00F09BFBCA
S31508004DD00028E7D002F00EFD002000E00120BDE823
S31508004DE0F681F8B504460E46154600270DE000F094
S31508004DF019F8BDF8000004EB4701000A4870761C54
S31508004E00BDF8000004F817007F1CB7EB550FEEDB62
S31508004E10E80706D500F006F8BDF80000291901F8DC
S31508004E20010CF1BD012200A9B0B295E7DFF8DC2933
S31508004E30DFF8DC191288801A01EB4001022002F023
S31508004E4040BDDFF8D419DFF8D429415C825CDFF86D
S31508004E50D039C05C10B102F5997292B241EAC2101B
S31508004E6080B2704710B5DFF8BC39DFF8AC4903EB00
S31508004E704002005D012801D1104610BD10880818AF
S31508004E8003EB400010BD38B50C46DFF89C190D78C9
S31508004E902A462146FFF760FF208800281CBF4FF6E8
S31508004EA0FF7188420AD0012000E0401CC0B2A84227
S31508004EB006D234F8101022889142F6D0002032BD6E
S31508004EC0012032BDF0B5DFF84C1987B008600C2216
S31508004ED000A90020FFF748FF00A90025C88A8A898B
S31508004EE00346040A01204FF6FF7631F81570BDF81F
S31508004EF000C0BC4503D1B74218BF002F00D100201F
S31508004F006D1C062DF1DBB21A944518BF0020DBB2E2
S31508004F10C4F1FF018B4218BF002007B0F0BD2DE990
S31508004F20F24F0446DFF804690020307070809CB0A8
S31508004F30DFF8FC080088ADF8020007A9FFF7A3FF11
S31508004F4083460120707009A9DFF8E8080588DFF8AC
S31508004F50E808B0F80080DFF8B408BDF802A00788B2
S31508004F603846FFF790FFB8B1BBF1000F3CD0BDF84B
S31508004F701C10BDF824004FF6FE72914202D101289A
S31508004F8004D10CE0012908BF90422DD00846BDF88F
S31508004F902410884228D202E0BBF1000F23D000205B
S31508004FA07070029750460695CDF810800122DFF8FA
S31508004FB0781891F800804044ADF8060000A9BDF8BD
S31508004FC00600FFF7C9FEDFF87408008805904FF65B
S31508004FD0FF79BDF80000000B404518BF0F2800D127
S31508004FE00CB3002516E0012470780128D9D138467B
S31508004FF0CDF808A0CDF818800495D7E7059805FBE5
S3150800500000F4E01900F028FCBDF80200201800F0B2
S3150800501023FC6D1C4545F1DB012030704D2002F064
S31508005020E9FB0025FCE0BDF80650012201A9284647
S31508005030FFF792FEBDF80400C043C0B2ADF8040005
S315080050406F1CDFF8FC070588BDF80400A84218BFE6
S3150800505001244FF0000A20E0401CC1B2A94218D230
S31508005060C0B2DFF8E017BDF80E20834631F81B10F2
S315080050709142F1D1FFF7E5FE4FF680710840BDF881
S315080050800C104FF680721140884204BF1C980BF82A
S3150800509000A00AF101001FFA80FABDF80400824553
S315080050A007DA022203A9B8B2FFF756FEBF1C002092
S315080050B0D3E7002001E0401C80B2A84217DA1C9909
S315080050C0415C8142F7D0012411E02AF81070BDF83E
S315080050D0060000EB4300401C00F0D2FABDF80200BF
S315080050E0C0F3C710401C00EBD07007EB60070498AC
S315080050F0DFF830A7BFB2874211DA012200A9384685
S31508005100FFF72AFEBDF80000484508D0030A00F05C
S315080051107F01BDF804007F1C834202DB01240025C1
S315080051202DE0002001E0401C80B2A842CFDA1C9A8C
S31508005130825C9A42F7D1C0B2FF28C8D0DFF8D826D9
S31508005140825C7F290CBF4FF0000C8C46944509DA27
S31508005150DFF8CCE6BDF800C010F80EE0CCF3C01CB2
S31508005160F44501D00124B2E7012AAED07F293AF8E6
S31508005170100008BF00210818A7E76D1CADB2DFF8BC
S31508005180C8060088854204DA3AF815004845F4D17D
S31508005190012477800498BDB285420ADA012200A963
S315080051A02846FFF7D9FDBDF800006F1C4845F1D029
S315080051B034E7002CFCD1029801220BA980B2FFF734
S315080051C0CBFDBDF82C0048450DD105E0401C80B24A
S315080051D0202813DB2034A4B20699029A891A8C4235
S315080051E005DB0120307000201DB0BDE8F08FA51842
S315080051F020220BA9A8B2FFF7AFFD00200BA931F8B2
S3150800520010104945E2D0A8B2FFF710FE203CA4B220
S31508005210E0E70298059905FB010000F01DFB6D1CEF
S315080052204545F6DB01203070494600F043F818B1D1
S3150800523000F02DF90028D6D10120D5E72DE9F8454B
S3150800524004460F461646984631463846FFF70AFE84
S31508005250DFF8EC15B0F800A00988DFF8C0558F42D2
S315080052600AD2DFF8B405385C7F2E08BF00268642CE
S3150800527002DA785D804503D040F2DA4100F0FCF9A5
S31508005280DFF89C05385C68B15146384600F029FAC3
S31508005290795D012908BF20700AD0022914BF206051
S315080052A0208005E0424651462046BDE8F84598E587
S315080052B0BDE8F1852DE9F34FDFF85005DFF86815ED
S315080052C00488DFF868050978407883B000281ABF93
S315080052D0DFF85C05008820460D18DFF864050088AD
S315080052E0ADF80800ADB2C043C0B200EB013000F51E
S315080052F05060ADF802002B1BDFF8140500F0C6F964
S315080053006E1C0028B6B238D10025DFF8387514E0CF
S31508005310E8B2FFF796FDADF80400331B37F8150021
S31508005320ADF806000222DFF8E80400F0ABF8002822
S3150800533023D1B61C6D1CB6B2ADB2BDF808008542C5
S31508005340E6DB002501E06D1CADB2BDF8080085421C
S3150800535080F293804FF0000A1CE001220DF1020151
S315080053601FFA89F0FFF7F8FCBB19DFF8A4041B1B2A
S3150800537009F1010900F08AF9002878D17F1CFFB2EB
S31508005380B7EB1B6FE9DBDFF8C404285C8619B6B2F5
S315080053900AF1010ADFF8800415F800B05FFA8AFA04
S315080053A0DA45D0D25146E8B2FFF75CFD8046DFF811
S315080053B07004B8F800902F5CF80140EA0520ADF8B3
S315080053C00000BBF1010FBDF800000CBF40F07F00E4
S315080053D04AEA0000ADF80000311BDFF8340400EBA0
S315080053E04100711C89B201914FF6FF7189451EBFB4
S315080053F0BDF80010BDF81020914218D19DF80C1088
S315080054000029C5D0012200A902F094FA019E70BBBA
S31508005410DFF80804A8F800602A5CDFF8340450F8BE
S315080054202510B0B2FFF7B4FC0028ACD122E0DFF8B3
S31508005430EC13695C491C01EBD1714FEAC15B01228F
S3150800544000A902F077FA019E88B9002FA8F8006033
S3150800545095D04946E8B200F044F90190331BDFF8CD
S31508005460B0034FEA1B6200F00DF800288BD002F05B
S31508005470C1F9002005B0BDE8F08FDFF8B00346801B
S315080054800120F7E701A900EB430002F053BA2DE922
S31508005490F041DFF89C03DFF894530688DFF86C03C5
S315080054A004886878002882B012BF2046304626460F
S315080054B0012200A9FFF750FCBDF80000DFF8508371
S315080054C001280CBF4FF6FE70401EADF80000DFF84D
S315080054D0580307783846471E58B1BFB2B819001B9B
S315080054E0012200F010F80028F4D002F083F9002019
S315080054F007E06978481E8041C00F68700020287050
S315080055000120BDE8F68100A908EB400002F012BAB6
S315080055102DE9FE4F0D46174604461E464FF0000974
S315080055204FF001083946FFF79DFCC54909880190E7
S315080055308C420AD2B848205C7F2F08BF00278742D2
S3150800554003DAB648205C864203D040F2FD5100F0EB
S3150800555093F8B64F787820B1B648B0F800A0AB48B3
S3150800556003E0B548B0F800A0B1483978008849B9D1
S315080055707988081AB74909888842B4BF4320442065
S3150800558002F038F901980188A548205CF8B1204650
S3150800559000F0A7F8012E08BF297803D0022E0CBF09
S315080055A029882968814265D001980088401E00F044
S315080055B067F8A648265C7888AAF10101891B81420A
S315080055C001DB002835D1387858BB452044E00291E4
S315080055D0CB4620E002980BEBDB7300EB630000F090
S315080055E03EF90BEB05001BF80510407801EB00208F
S315080055F0711E8B4580B205D1BDF80010C9B2C0B284
S31508005600ADF80010BDF8001088420BF1020018BF73
S31508005610C8465FFA80FBB345DCDBB8F1000FC3D0A0
S3150800562028E0BDF802100020FFF744FE10B34FF043
S31508005630010978887949401C788080B2625C2946DD
S31508005640FFF7A6FBB0B1714C7B88248870485B1EB7
S315080056501B1B00F01BF810B102F0CCF80AE0B9F1F8
S31508005660000F02D0FFF713FF20B101997888088050
S3150800567030187880BDE8F78F0FF2EC10FFF778B98D
S3150800568001220DF1020180B2FFF766BB01220DF17E
S31508005690020100EB430002F04DB970B582B0044632
S315080056A000251926012200A9A0B2FFF755FBBDF86F
S315080056B00000641C48B14FF47F41401A02D0FF38FD
S315080056C006D007E0681C40B276BDAD1C761EE9D14F
S315080056D068B276BDBDF80000C0B200B96D1CE843DB
S315080056E0F1E738B50C46002100914C49455C2A463D
S315080056F0214600A8FFF775FB681C00EBD07004EB89
S31508005700600080B2FFF7C9FF002848BFC043009970
S3150800571040B2401832BDF0B54949098804464148A7
S3150800572083B0254630F815608C4202D23C48285C86
S3150800573018B94FF4E761FFF79FFF38482D5C681CDE
S3150800574000EBD07006EB6007B8B2FFF7A6FF322869
S3150800575014D2C107BFB207EB60002C4F2C4B3F8811
S315080057604CBF00214FF47F41ADF80410C01B012245
S3150800577001A903EB400002F0DDF860B1314620468E
S31508005780FFF7AFFF00902B46401C00907F2200A930
S315080057902046FFF7BDFEF7BDF8B5244C2078002754
S315080057A0002830D119480588607800281ABF204893
S315080057B006882E461C4807783846471E02281BDBF3
S315080057C0FFB2B81900F04BF8BDF800000028F3D076
S315080057D01A48008807FB006000F03EF80020ADF884
S315080057E00000BB190A485B1B012200A9FFF74BFE04
S315080057F048B101F0FFFF06E03046FFF717FBFFB29E
S315080058000FB9012020703846F2BD0000DC4F0108B0
S3150800581000E00208D82E00207450010858500108EC
S315080058203C500108DC2E0020D84F0108BE2F00206E
S31508005830E04F0108DE4F0108E24F0108DA4F010880
S31508005840E64F010808500108E84F0108EC4F010827
S3150800585048520108E44F010880B2FFF7E7BA01226F
S3150800586000A980B2FFF778BA73696D2D6565707205
S315080058706F6D2D696E7465726E616C2E6300000023
S31508005880EFF31180602181F31188704780F3118846
S315080058907047000080B502F039F902F050FABDE809
S315080058A0014002F039BC6549002008716448007857
S315080058B0022808BF03F092B8704770B5614803F034
S315080058C038FB0446FF2C48D003F0AEFB00F00C066C
S315080058D05A4D0321204603F088FB287004212046F0
S315080058E003F083FB68700521204603F07EFBA87051
S315080058F0012003F061FC204603F096FB00F00C0043
S31508005900082803D1204602F094FA1EE00C2E18D17E
S31508005910204603F07AFB064603F09EFB805D0728C7
S3150800592002BF4748007802280FD1287968B900F0E5
S315080059301DFB00F07F00411C89B2281D03F061FCA5
S3150800594003E016B9204604F0D7F9204603F004F917
S31508005950BDE87040002003F02FBC70BD2DE9F04172
S3150800596080460D4600260DB9012602E0312D08BFF6
S315080059700025354F03F058FB0C21084202D139782F
S31508005980012013E00324404603F081FBB0F5006FC5
S3150800599008D1404603F09FFB4FF6FF71884208BFC7
S315080059A0012401D005B105243978204605F0E6F82A
S315080059B02946404602F0CCF828B9324629464046E0
S315080059C0BDE8F04101E0BDE8F08170B504460D463A
S315080059D0164603F029FB00F00C00082806D13246CB
S315080059E029462046BDE8704002F0EAB970BD10B5F8
S315080059F00446A079012804D11448017841F0010130
S31508005A000170207803F010FB00F00C00082809D17B
S31508005A10207802F037FA28B9607800F0F000607054
S31508005A20002010BD012010BD04F05CB808490870BC
S31508005A30411E8941C80FFDF73EBE0000C424002060
S31508005A40D42F00204C210020D92F00202924002003
S31508005A50D32F002080B503F0F7FE08B1002002BD61
S31508005A60702002BD00207047012070470020704753
S31508005A700020704738B504460D46012003F09CFB0C
S31508005A805D48002D12BF00210178491C01705B4852
S31508005A9044705B48FDF724FBBDE83240002003F064
S31508005AA08BBB10B5002814463FD0402823D0882841
S31508005AB018BF892840D08D282FD08F2846D1514825
S31508005AC0007804280DD144B14F490220087040F6E9
S31508005AD00620BDE8104005F053B8FDF7D7FD312084
S31508005AE030E0012001F031FEFDF7D0FD002C0CBF9F
S31508005AF03120002026E04048444900780978884249
S31508005B0004D2BDE8104000210120B3E7002001F0CF
S31508005B101CFEFDF7BBFD402014E0002001F015FE39
S31508005B200021202005F02AF80BE0012001F00DFEE7
S31508005B30FDF7ACFD002005E0002001F006FEFDF7AC
S31508005B40A5FD8D20BDE8104002F024BEBDE810403A
S31508005B50C9213CE02C480078022800D0704780B55F
S31508005B602B480078042807D00C280ED1294800783D
S31508005B70022818BF7C2808D105F01DF8FDF786FD18
S31508005B80BDE80240002002F005BE01BD38B500247C
S31508005B90FFF776FE05461C48007810B9FDF7D0F9E0
S31508005BA004462846FFF772FE002C1CBFBDE83140AC
S31508005BB001F068BE31BD80B5FFF7E8FFBDE80440D7
S31508005BC04FF4A051144803F01CBB40F205110FF224
S31508005BD05000FEF7CDBE38B5104C2068216C01EA9E
S31508005BE00005ADB2680705D5206C20F004002064D6
S31508005BF002F0A0FC256031BDD92F0020C422002068
S31508005C0038240020C3210020282400204721002012
S31508005C10DA2F0020DB2F00202024002008A00040D7
S31508005C206D61632D656D3235302E630070B504469F
S31508005C300D461646FDF786FD38B16078002E14BF6E
S31508005C4040F0200000F0DF0060702946204602F090
S31508005C50E5FFFF2821D0864C0146201D03F054F9A4
S31508005C60844D28882188401C288080B281420AD227
S31508005C706888401C6880201D03F05BF902F06CFF01
S31508005C802888401E2880208829888842F3D3BDE8C2
S31508005C9070407948007803F083BB70BD2DE9F04F5A
S31508005CA0A5B082460027FFF7EBFD724C2188491EF6
S31508005CB02180FFF7EBFD504602F0DAFE90F80090DF
S31508005CC081784078009700EB01201FFA80F800F0F1
S31508005CD0B3F8A0F108020823D2B2514602A802F08E
S31508005CE0B9FF6648007802AEE8B16068002819D0A6
S31508005CF0F078FDF7C1F94946FDF7C5F9074696F963
S31508005D00020000F166060020009009F10103DBB2EB
S31508005D100022514604A802F09DFF636872B2394614
S31508005D2004A8984780E008F0070002287DD0FF20E5
S31508005D308DF80400504602F09BFE00F1010B584610
S31508005D4003F08AF90446A9EB0400801E45B2002D2B
S31508005D506BD45FEA885003D508F00700032810D1F2
S31508005D6001A9584602F06BFD00285ED108F007002D
S31508005D7001280BD19DF8040004EB0B01FFF774FE14
S31508005D8020B99DF8040002F0E7FE4EE03C499DF874
S31508005D9004000968475C3B49096800F801A000F05F
S31508005DA04BF800F120019DF80400C9B202F066FE26
S31508005DB09DF8040003F038F900F00C0004281CBF15
S31508005DC06519002468B280B20090631C9DF804002F
S31508005DD09BB25246394603F066F8E9199DF8040065
S31508005DE0C9B202F0E3FFF078FDF746F94946FDF738
S31508005DF04AF902469DF80400032103F0EFF8B0784B
S31508005E0000F166029DF80400D2B2042103F0E6F818
S31508005E109DF808209DF80400052103F0DFF89DF899
S31508005E2004A0504602F0D5FC0127504602F094FE25
S31508005E30384625B0BDE8F08F114800681AF800000A
S31508005E40704710B50B4C618829B1C9B21D2004F002
S31508005E5095FE002060800C4803F06BF8FF2803D0FD
S31508005E60FFF71CFF0028F6D010BD074803F088B8D6
S31508005E7050210020B8240020EC2F0020D124002037
S31508005E8020210020282100205421002038B504466E
S31508005E901B4D214600F03DF8E860211D00F039F859
S31508005EA0A86004F1080100F034F8686004F10C01F8
S31508005EB000F02FF8286031BDF8B50446114D124E92
S31508005EC08020286006203060072028603068800718
S31508005ED0FCD5002704EB870100F01BF87F1C042F74
S31508005EE0A862F7D330684007FCD500262A6B04EB76
S31508005EF0860100F00BF8761C042EF7D3F1BD0000DE
S31508005F00383000400030004010A00040002004F067
S31508005F1070BE002004F07BBE70B504460D46FFF740
S31508005F20AFFC06462846FFF7B1FF2046FFF7C4FF39
S31508005F303046BDE87040FFF7A9BC002848BF40427C
S31508005F407047000081B209B94BF6EF610E4A11801D
S31508005F50000C08BF4FF6CE20508070470288130405
S31508005F6048BF4A40510001801046704738B5064C74
S31508005F7062212046FFF7F2FF054641F20B01A01CFD
S31508005F80FFF7ECFF684032BDCA210020EFF311800D
S31508005F9060288041C043C00F70470000002181F38C
S31508005FA0118870472DE9F04FDFF8FC4599B0804617
S31508005FB060681890B8F1070F08BF4FF0030804D0BF
S31508005FC0B8F1080F08BF4FF00208DFF8E055286857
S31508005FD0696840EA0120A96840EA014000906868BB
S31508005FE0400703D5E06940F00200E06128684007F1
S31508005FF003D5E06940F00400E06100982969C840CB
S31508006000C00703D5E06940F00800E0610020DFF82A
S315080060109465DFF89C953060B8F1010F00F069824D
S31508006020C0F08F82B8F1030F1ED005D3B8F1040F64
S3150800603040F08782606017E0D9F84000C00703D5B2
S31508006040E06940F04000E061D9F84000400703D518
S31508006050E06940F02000E061D9F84000800703D5E8
S31508006060E06940F01000E061FFF70AFC00F003FB6E
S315080060708DF85C004FF0000BD9F84000DFF834A526
S31508006080DFF83475DFF834151690D9F84400159002
S31508006090DFF82C05C06C1490DFF82405006D13900A
S315080060A0DFF81C05406D1290DFF81405806D11901D
S315080060B0DAF800001090DAF804000F90DAF8140005
S315080060C00E90DAF824000D9038680C9078680B90DA
S315080060D0B8680A90F868099038690890786907904E
S315080060E0B8690690F8690590B86B0490DFF8D4048F
S315080060F000680968039102212160DFF8CC14096859
S315080061008DF80410DFF8C41409688DF80510DFF857
S31508006110C01409688DF806104FF0FF316162DFF888
S31508006120B4140968C9040BD56968C90708D5E169B3
S31508006130C90705D5316841F480714FF0010B31600C
S31508006140DFF89014096889040BD56968490608D5EB
S31508006150E169C90705D5316841F480414FF0010B63
S3150800616031600121DFF86C24126852040ED5009ABA
S31508006170EB68DA40D20709D5E269D20706D5326854
S31508006180EB6801FA03F31A438B463260DFF84424BE
S315080061901268120410D5009A2B69DA40D2070BD57B
S315080061A0E269D20702D4E269120705D532682B697B
S315080061B08B46994011433160DFF818140968C90302
S315080061C008D5E169090605D5F17841F008014FF0CF
S315080061D0010BF17000216A68D2076A6848BF4FF45C
S315080061E080515206009AEB6848BF41F40051DA40E4
S315080061F0D207009A2B6948BF41F48041DA40D2079A
S31508006200E26948BF41F40041D20605D4E269920624
S3150800621002D4E269520601D541F01001E26912067C
S3150800622048BF41F4803108400290A52000F01AFAD0
S315080062300120E063E069A16B11B1616A0142FAD0FD
S31508006240616A014200F0F2800020E0634FF0010B22
S31508006250F07840F04000F07000F054FA0720C9F8D2
S3150800626000000F20DFF85813086004F0E5FC1898C2
S31508006270D34960601698C9F840001598C9F84400D3
S315080062801498C86413980865129848651198886523
S31508006290CC491098CAF800000F98CAF804000E985E
S315080062A0CAF814000D98CAF824000C9838600B98A0
S315080062B078600A98B8600998F8600898386107986D
S315080062C078610698B8610598F8610498B8630298E9
S315080062D00860BA49039808604FF0FF30BE49086065
S315080062E0B94800683070B94800687070B8480068E6
S315080062F0B070626AE06910402A69336801994B40B8
S3150800630000990B400106490E01F0010143EA812379
S315080063100106890E01F0010143EA81030106C90E4F
S3150800632001F0010101FA02F21A4300F47C7042EA14
S3150800633000503060FFF7A4FA00F0F2F90020206060
S315080063409DF85C0008B100F080F9F0789D4909686D
S31508006350C90304D5C0F3C00109B120212162D9F8C7
S315080063604010890704D5C10744BF0221C9F80C109B
S31508006370D9F84010490705D5C0F3400111B10421E9
S31508006380C9F80C10D9F84010C90705D5C0F3800024
S3150800639010B10120C9F80C0030688949C96C11F0A0
S315080063A0E00F05D0C10503D58A4A4FF48051116024
S315080063B08349096D11F0E00F05D0410403D5854ADC
S315080063C04FF4005111607E49496D11F0E00F08D075
S315080063D0E96820FA01F1C90703D57E4A4FF48041DE
S315080063E011607749896D11F0E00F07D02969C84017
S315080063F0C00703D577494FF400400860BBF1000F8A
S315080064006ED17648006800056AD56068800767D54A
S31508006410B8F1040F64D06B480068C0063DD56D48D6
S315080064200068C00639D50120307159E0BBF1000F6C
S315080064307FF40EAFDAF81800604940084000CAF841
S3150800644018005E48806840F00400886040F2072122
S3150800645063480088884201BF614840884FF20F01AF
S31508006460884205D15E494CF23C3048804FF0010B1A
S31508006470012004F01BFCBBF1000F05D058494FF270
S315080064800F0048804FF0000B5448544940680004F8
S31508006490B06089680843B060E0E600F0CFF851497B
S315080064A0B0FBF1F04FF47A7148432F303021B0FB3E
S315080064B0F1F0002131714C494A6D42F001024A65FA
S315080064C00A68464B454C5B68A46844EA0343B468CB
S315080064D0A34205D10B689B1A1B031B0B8342F0D3FF
S315080064E0F07840F08000F07019B0BDE8F04FFFF783
S315080064F055BD00F0C0F80446A52000F0B3F800F03A
S3150800650001F9FFF74BFD394D2E6828684008400011
S31508006510286000F0FDF8364FD7F80080386820F07C
S315080065204000386000F0F0F8C7F800802E6000F0F0
S31508006530EFF80CB100F089F819B0BDE8F04F00F09B
S31508006540EFB819B0BDE8F04F4FF488610FF2AC0010
S31508006550FEF70EBA11F1010F144A07D0CBB2136039
S31508006560C1F307235360C1F3074191600023214912
S315080065700B601368002B04BF5368002B01D1926887
S315080065801AB10A6842F001020A600A6842F4007207
S315080065900A600A6842F080020A6003E51649D9E7EC
S315080065A0000000007C2F00200400004008BC0040CA
S315080065B014A00040044000400050004008ED00E0F0
S315080065C014A8004000E100E008B0004008B400400C
S315080065D008B8004000E200E080E200E00C600040FD
S315080065E00000002090D003003820004094ED00E021
S315080065F0008000402000004000404000736C656544
S31508006600702E630003480188034808237F22FCF79D
S315080066107DB900BFCE4F0108142400202D4800681C
S31508006620C00701D42C4870472C48704780B5FFF73F
S31508006630F5FF2B49096801B9400802BD80B5FFF787
S31508006640EDFF400802BDFDF706BA26480121816024
S315080066504EF6BE21416001210160704722490120A2
S3150800666008607047A52805D11E484DF6AD61416002
S315080066700221016070471B480068C00701D5012048
S3150800668070470020704780B51849194A10200860DD
S3150800669018491948007858B103280CBF0020012072
S315080066A0106040F6510008600020FDF78EFC06E0F9
S315080066B0022010604FF400600860FDF785F9072195
S315080066C00E4801600021016410200D490860002071
S315080066D002BD00001C400040001BB70000366E01DA
S315080066E020400040006000400860004080E100E073
S315080066F0080000400C600040DE2F002014A0004077
S3150800670000E100E072B6704700BF30BF00BF7047B7
S31508006710BFF35F8FBFF34F8FBFF36F8F70470000D4
S3150800672062B67047DFF80003016C41F4C04141F0DE
S31508006730090101644FF6FF7101602020DFF8EC12B1
S315080067400860704770B515461E46002804BFBDE8A8
S31508006750614000F0FBBA012835D113293CBF0FF27E
S315080067600C30095C08096422504301F00F010B291B
S3150800677003DA884006E00A2250430A46511ED2B27E
S315080067800B2AF8DA01460120FDF72EFCE0B930099C
S3150800679007280CBF00200220012D08BF40F0180072
S315080067A003D0022D08BF40F0080006F00F010229A9
S315080067B09F49A8BF40F00400886001200860FFF7E1
S315080067C0B1FF002062BD212062BD38B5040012D198
S315080067D098480468608828B140F2B7210FF28420EF
S315080067E0FEF7C6F8A188C9B2A01D00F099FC0020E2
S315080067F0A080208031BD012802BF8D48006801288D
S315080068000FD1FFF73DF805468B48016841F00601B0
S315080068100160012000F09AF82846BDE83240FFF7EB
S3150800682035B831BD012804D18348016821F0060135
S315080068300160704780B50B46114620B9184600F02E
S315080068406FFC002002BD012802BF7C488269012A2C
S3150800685007D0212002BDC2685207FCD513F8012BC8
S3150800686002600A46511ED2B2002AF4D1C16849060E
S31508006870FCD5E6E710B50446FFF7F0FE012C03D178
S31508006880714800684006FBD510BD70B56C4A6D4B63
S3150800689012680CE0158810F8014BAD18AC71148815
S315080068A01D8800F06DF814809488641C94800C464A
S315080068B0611EE4B254B19488644D2D886D1EAC42B5
S315080068C0E8DBBDE87040232100208EE070BD2DE98D
S315080068D0F84304465A48DFF86C91DFF87081574F41
S315080068E0254650F8256014E0B18838F81520521E60
S315080068F091421CDA318889198871308839F815105F
S31508006900401C90FBF1F201FB12003080B088401C5D
S31508006910B080F868800716D5F86810F0380138682E
S31508006920E2D0080705D4C80605D5242107E02321A7
S3150800693005E0272103E088064CBF252101212046D2
S3150800694000F053F8E5E7BDE8F183704770B53949BB
S315080069503F4A51F82010394B0CE04C886418A4794A
S315080069601C604C8832F8105000F00AF84C808C886D
S31508006970641E8C808C8814B1DC686407EDD470BD05
S31508006980641C94FBF5F605FB1644704731483249FA
S31508006990C2680A6002694A600068886070472E49C2
S315080069A023480A6842614A688261896881600121D0
S315080069B001600120B6E6704738B51B4C0FE046F279
S315080069C029700542256003D0A9B20120FFF77FFF91
S315080069D041F6D60005421CBF0120FFF7B7FF206825
S315080069E0216C11EA0005EAD131BD30B5144A1B4CB9
S315080069F052F82020055D1A4B25B9128823F8102075
S31508006A00015530BD33F8103013800155138851886D
S31508006A108B4205D20D4C34F81000401A181800E0C5
S31508006A20581A908030BD000008A8004000E100E038
S31508006A3054C80040A422002048A800403CC8004092
S31508006A40B42200206076000848C80040D04F0108EC
S31508006A50587600085CC80040A82F0020CC2E0020DD
S31508006A60D02E0020756172742E630000306090C0CD
S31508006A70C1C2C394C495C55C96C6AC9798990D00D7
S31508006A802DE9F041454C464EDFF818810020206577
S31508006A904FF40055356002202060E560002020652F
S31508006AA0206D40F0600020650E2000F01DF888F883
S31508006AB000004FF48047002060653760042020609E
S31508006AC0E76016203849086000206065606D40F070
S31508006AD060006065162000F007F888F80100334862
S31508006AE005600760BDE8F0810E2802D0162802D09E
S31508006AF009E02F4800E02F480068800900F00100EF
S31508006B0080F0010070470020704710B523484FF405
S31508006B100051C160022101600E20FFF7E5FF214CFC
S31508006B20227801468A4218BF21700DD1501E804135
S31508006B30C00F20700E20217804F0FCF82178481E3A
S31508006B408041C00F20702178BDE810400E2004F067
S31508006B50F1B810B511484FF48041C16004210160B5
S31508006B601620FFF7C1FF0F4C627801468A4218BF0C
S31508006B7061700DD1501E8041C00F6070162061787B
S31508006B8004F0D8F86178481E8041C00F60706178BB
S31508006B90BDE81040162004F0CDB8000014A8004047
S31508006BA080E100E0C82F002014BC004000E100E0AE
S31508006BB008B4004008B8004010B50446FEF760FE69
S31508006BC04E49302008604E4908604E49086010203A
S31508006BD04D4908604FF20F01200A00284B4808BFAC
S31508006BE0240204804180BFF35F8F49480021016079
S31508006BF0416048484849086010BD10B5474C2068B0
S31508006C00C0060BD5464941480A68C0F89420496829
S31508006C10C0F8901040F60620FFF7CEFF2068C007A0
S31508006C2008D5404903200870206C400840002064BD
S31508006C30012020602068000703D5206C20F008009A
S31508006C40206410BD80B5002000F009F830B9BDE811
S31508006C500440FC210FF2E000FDF78ABE01BD2DE9D4
S31508006C60F044314C21680D1A15F01F0105D0002893
S31508006C7052BF6D1A681A00F120052C48A5F12006A6
S31508006C80A84224BF2A48864203D3EFF308808542E8
S31508006C9001D300202DE0FEF7F3FD82462548006863
S31508006CA010F0010718BF03F0DFFF206801468D4288
S31508006CB006D2A84224BFCD2100F80119F9D206E070
S31508006CC02038002201E000F8012B8842FBD325601A
S31508006CD0304603F0CEFFE22001E006F8010BAE4293
S31508006CE0FBD30FB103F0A8FF5046FEF7CFFD20688F
S31508006CF02038BDE8F0840C48006870473020004012
S31508006D0030C8004030C0004010D0004000000020CD
S31508006D101C4000400400FA050CED00E018A00040F5
S31508006D2030500040CD2F0020582100206817002041
S31508006D303C0C002094ED00E06D6963726F2D696E5E
S31508006D407465726E616C2E630000000080B59F4802
S31508006D500021416041708170A5210170012000F079
S31508006D60BDFC00F0EDFC00F01EF8002002BD9848BE
S31508006D700168C90700D4704780B596490A6822F4A5
S31508006D8040620A6001684908490001600168090211
S31508006D90FCD49148006810B16420FDF7FBF88F49D0
S31508006DA00020086001BD80B58D48016841F08071FA
S31508006DB0016001208B49086000208B49FDF714F912
S31508006DC08A498B4A0220086000208A4908608A4955
S31508006DD08A480160012111607D4A8949116040F2A3
S31508006DE0014101654FF480308649086001BD7B4842
S31508006DF0006800B10120C0B27047D122027041700C
S31508006E00090A817080490A78C270501C08700420EB
S31508006E1070472DE9F14F82B0002500907B48009914
S31508006E200068085C441DE4B204F044F901904FF68A
S31508006E30FF79FFF7DCFFB8B954E0A91E9DF80800F2
S31508006E40C9B201F0FEFF0746494604F0FFF981463C
S31508006E505546F000F9B2761C01FA00F0042E40EA15
S31508006E60080815DBCBF80080EDB2A54232DA04F04B
S31508006E7021F90199401A80B2B0F5FA7F2ADC4FF061
S31508006E80604BDBF800000128EED14FF00008002621
S31508006E90EDB215B95B270125DBE7012D05F1010ADE
S31508006EA004D15A48009900680F5CD1E7E11E8D426B
S31508006EB008BF4F46CCD0A11E8D4208BF4FEA1927FE
S31508006EC0C6D0611E8D4208BF5D27C1D0A542B4D188
S31508006ED00027BEE74FF4C870FDF75CF8A54208BF67
S31508006EE0002000D00120BDE8FE8F48490968415CB2
S31508006EF00429A8BFFFF78DBF012070472DE9F04D83
S31508006F00324D6E78002E5ED004F0D4F883463146B2
S31508006F10002001F083FE0446FF2CA04602D1002083
S31508006F20687050E0202EB4BF3746202701F0A0FD38
S31508006F306860AF70DFF8D8A004E0404601F098FD1D
S31508006F406860AF706878C0B104F0B4F8A0EB0B00C5
S31508006F5080B2B0F5FA7F10DCA8780028F2D1F61BCB
S31508006F606E70F6B2002EEDD0DAF8000018F8008040
S31508006F70202EB4BF37462027DFE7002E04BF6878E7
S31508006F80002818D1A878B0B920480068205C851E6A
S31508006F90E9B2204601F060FF122808D1E9B220467E
S31508006FA001F004FF2146122000F09EF906E0204673
S31508006FB000F0E4F802E000206870A8702046BDE8FA
S31508006FC0F04D01F0C9BDBDE8F08D0000F02F00209E
S31508006FD0800E00E0001000E034000040100004E0DD
S31508006FE0FCED00E0040004E020A10700F00004E046
S31508006FF0000E00E0040304E055CEACC5B00F00E077
S315080070000D00010000E100E0D22F00202021002021
S315080070102821002030B522480168002000220124DA
S315080070209440CBB2234213D00FF284001D4C30F8A3
S31508007030120006284CF23C324FF20F031DD160882D
S31508007040984216D12188080A0B2812DA084612E057
S31508007050521C92B2082AE2D31349088140F20172FF
S315080070600889904204D11148D0E90023C1E90023D8
S3150800707030BD4FF4C0606280EEE740F20725A842B3
S3150800708001BF618899422188A942E5D162800846F4
S31508007090E2E705480089000A7047034800897047F7
S315080070A02C00004000000020B4230020900000209F
S315080070B00104020401030105060007020309010988
S315080070C070B5B24C204601F05BFFD8B9204601F0F6
S315080070D030FFFF28044615D0AD490968405C851E77
S315080070E0E9B2204601F0B8FE0646E9B2204601F0AC
S315080070F05DFE2146304600F0F7F82046BDE87040B0
S3150800710001F02ABD70BD03460A469EA10420FFE78A
S315080071100CB480B502AA00F03CF801BC5DF80CFB83
S3150800712021B103460A4698A11120F1E7704700B538
S3150800713087B0FDF7C9F8002105910491024656214A
S3150800714003910023002102910191012091490091A8
S315080071500FF25021FFF7DCFF8F488179C3788278D8
S3150800716003910188029141790191017900914220A8
S315080071700FF23C21FFF7CCFF07B000BD10B504465F
S315080071802146824801F0C0FE2046BDE8104001F0C5
S31508007190D5BC2DE9F04F85B005460C46904600262D
S315080071A000F0E2FAF8B9FFF722FEE0B1012001F09B
S315080071B06AFC8246BAF1FF0F15D0002101F05EFC89
S315080071C0294601A8FFF719FE05469CB900F087F87D
S315080071D030B95046FFF789FE10B1042000F0B5FA21
S315080071E0504601F0B9FC05B0BDE8F08F8DF80420D3
S315080071F00125641C20780028E8D0A0F130010A296E
S3150800720005D20A2101FB0600A0F13006F1E700F0DD
S3150800721066F80028E4D122780025422A01A80ED073
S31508007220442A1AD0462A25D0572A0DD0622A3AD09F
S31508007230662A2AD06C2A25D0702A26D0D6E758F88E
S31508007240040B8DF80400D3E758F8041B8DF80410D6
S3150800725002250904090E4170CBE758F8041B8DF87E
S3150800726004100A0A427004250A0C8270080E8DF86A
S315080072700700BEE758F8041B504601F057FD0028E2
S31508007280B7D0ADE758F8046BB3E7012358F8041BE9
S31508007290662A08BF0223F2B2504601F029FD0028EB
S315080072A008BF0026ECE73A4858F8041B00681AF8A5
S315080072B00090CFB2FF2F9CD017F800B00BEB090156
S315080072C0C9B2504601F072FD002889D1CDF800B048
S315080072D000233A464946504601F0E5FD89E72A4625
S315080072E001A9504601F020BD2DE9F043122885B0CA
S315080072F080460D4609D03A281DD04FF6FE718842C1
S3150800730004BF284600F05EFA33E02148234F0068A0
S315080073102E5C08E0284601F0ABFB2146FFF7B5FADC
S3150800732038682D5C203EFF2D23D0F6B2212EACBF47
S3150800733020243446EEE704F04CF98146FCF737FA88
S315080073400646FBF784F90746FBF77EF90446FCF781
S3150800735026FA02460F480FF260010390CDF8109006
S315080073600196009723460E48008802903B20FFF7B7
S31508007370CFFE2946404605B0BDE8F04300F014BAF2
S3150800738000000000574600006C7000000C21002029
S3150800739020210020142400205C4A0108282100200E
S315080073A0B82F0020424238704242424257424200B9
S315080073B042424242574200005742425757387042AB
S315080073C0000000002DE9F0470446884691469A4693
S315080073D000F031F9002801BF25460FF27820285C15
S315080073E0012823D1DFF8406256F82570FEF748FADF
S315080073F00021B98039807980FEF748FA06EB8500C6
S315080074000669FEF73DFADFF824220021B1803180B3
S315080074107180A954FEF73AFAFFF7CDFA53464A4661
S3150800742041462046BDE8F047FFF78CB92120BDE864
S31508007430F08710B50446FFF788FADFF8EC0100EB91
S3150800744084000069808810BD2DE9F84381464C46C2
S31508007450DFF8D40100EB840088460669484600F048
S31508007460EAF808B1012037E0DFF8C051605D05EBA6
S31508007470440760B1B8887188884208D1FEF700FAD7
S31508007480665D00216155FEF701FA304624E048465C
S31508007490FFF75BFAB088F0B1FEF7F2F971880FF2E0
S315080074A0C0128919897988F800104FF6FF78718813
S315080074B032F8142000F03BF87180B1884144B1805D
S315080074C0FEF7E4F9605D20B1B888404504BF30880E
S315080074D0B880002000E02620BDE8F2830FF2741180
S315080074E0415C01290AD10FF264114F4A31F8101094
S315080074F052F820008088081A80B27047002070472A
S3150800750010B50446FFF7EAFF0FF2401131F81410E0
S31508007510081A80B210BD80880FF2301333F81110A4
S31508007520891A884201DA0120704700207047491CF1
S3150800753091FBF2F302FB131170472DE9F84F8046D1
S3150800754047460FF21010385C01288B46164638D18C
