S00F0000786E63702D6C65642E733337CA
S3150800200080220020D93102085534020859340208C2
S31508002010A70A080100210008040303AC0056E700DC
S3150800202000000000000000000000000000000000A2
S315080020300000000000000000000000000000000092
S315080020400000000000000000FFFFFFFFFFFFFFFF8A
S31508002050FFFFFFFF007002080000000000000000FC
S31508002060FFFFFFFFFFFFFFFFFFFFFFFFFFFFFFFF72
S31508002070FFFFFFFFFFFFFFFFFFFFFFFFFFFFFFFF62
S31508002080F02F002000000000EB2F0020EB2F00208F
S3150800209080220020643B0208E4340208201900204C
S311080020A030160020000003080030002065
S3150800210080220020D93102085534020859340208C1
S31508002110613402085D34020865340208E0340208B6
S31508002120E0340208E0340208E0340208E034020829
S3150800213069340208E0340208E03402083D3E00082B
S31508002140E0340208E03402080B7B0008E034020899
S31508002150E58800084B7A0008E0340208E0340208F3
S315080021607F6B0008A33300080D2E00089121000894
S31508002170E0340208E0340208E0340208514300085B
S3150800218089D00008E0340208E0340208E134020885
S3150800219070B52C482C4942780B685B0725D5032A6D
S315080021A023DA838800EB4204A3810123847803FAA7
S315080021B002F222438270254C0278002A12D00025AA
S315080021C022FA05F6F60708D5AB4045705A40027064
S315080021D010EB4500808A206007E06D1CEDB2032DE8
S315080021E0EEDB02E02260032242704FF6FF700860C1
S315080021F0BFF35F8F70BD13480021017000220321D1
S3150800220041700021C1700521018100218170001DE6
S315080022100E490A604A604FF400428A601022CA607A
S315080022204861012088610320C860042106480164CA
S315080022304FF6FF7101604FF400600549086000F031
S3150800224045B800000825002010A8004004D000402A
S3150800225000E100E0DFF8E03433F810001040C84031
S31508002260704730B50FF29054DFF8D03434F8104088
S315080022709C601140DFF8C04434F810509543294358
S31508002280D96002221A6000221A6024F810105868D1
S315080022900028FCD130BDDFF8A824DFF8A80412789E
S315080022A0DFF8A4140AB149780EE0895611F1090F2E
S315080022B0B8BF302108DBC16D39B1C26D40F24A3171
S315080022C0B1FBF2F189B2C91E01607047E0B5DFF8CB
S315080022D07C0401880A2300F064F8BDF806104FF65E
S315080022E0FF720D20FFF7BDFF07BDF8B50546B5F52A
S315080022F0004FDFF8544419D1DFF85404018802234B
S3150800230000F04FF8BDF80000000AFF2814BF0028A7
S3150800231018206070BDF800000006C00E10281CBF0B
S31508002320001D00F098F9BDF80000C543DFF81064F9
S31508002330707808B1002005E0A089ADB26840C007F2
S3150800234001D501207070DFF80C04A58105F00104A1
S31508002350016841F400410160C5F340070FF2BC4033
S3150800236000EB44004FF440524078010389B2022042
S31508002370FFF777FF204600F053FA4022B90100F034
S3150800238005FA2D06A80E00F0010038433070FFF755
S3150800239082FF707818B1FFF799FF0020707000204F
S315080023A0F2BD7F2200A800F0B1BA2DE9F04FDFF8A0
S315080023B0AC43207887B0042304900C210B38C0B2B4
S315080023C0039000A8039A00F05FFB9DF800008DF8C3
S315080023D00A009DF801008DF809009DF802008DF8A5
S315080023E008009DF803008DF80500DFF874030078EF
S315080023F0012804D16078451EAD41ED0F00E00125A6
S3150800240000F0DCFD83469DF902000399D24F0BF1DB
S315080024100A0AABF10A065045B6BF86424FF00108D4
S315080024204FF0000801208840ADF806009DF801002D
S31508002430000604D47888BDF80610084201D04FF08B
S31508002440010800F04FFE9DF8030000060AD4B8887C
S31508002450BDF80610084205D19DF900005045B8BFE1
S31508002460864202DB4FF0010901E04FF0000948EA15
S31508002470050059EA000000F09E80DFF8E8A2BA4994
S31508002480DAF8000000F002008DF80400B74800688A
S3150800249000F4E06005904FF4E0600860002001F069
S315080024A069FA01F0E3FCB24EADB1607858B1DAF8DA
S315080024B00000AB4940084000CAF800000120087037
S315080024C001F0B4FD07E0306840F400503060306831
S315080024D020F480503060A248007801280DD101F020
S315080024E0CBFEDAF800009E4940F00100CAF8000069
S315080024F000200870642001F099FD2DB1607818B9A4
S315080025000498C0B201F0E1FF607838B1306820F471
S3150800251080503060306840F400503060BDF80600E6
S31508002520C543B8F1000F08D002F0BAF88DF80100DB
S315080025308DF802B0788828407880B9F1000F08D065
S3150800254002F05FF98DF803008DF800B0B8882840CE
S31508002550B8809DF900009DF90A10884202BF9DF8CF
S3150800256001009DF8091088420BD19DF902009DF9DA
S315080025700810884202BF9DF803009DF8051088429E
S3150800258006D00399042300AAC9B20C2000F0A3FAC6
S3150800259005987649086000F0D5FA9DF8040001F020
S315080025A0E9F902F04EFA607828B148F260703060B6
S315080025B0642001F03BFD9DF8010001F0DDFF9DF868
S315080025C0030002F019F907B0BDE8F08F80B500F0F6
S315080025D0E8FCBDE80140E8E600F0E3BC70B5064655
S315080025E0A6F10B0401F0DEF80546A6F10B0010284B
S315080025F001D38A2070BD5F488168090702D4006844
S31508002600C00701D58C2070BD544806705A48016829
S315080026100C290FD00FF27811584A92F90020A4B26B
S3150800262031F824105118C161FFF7BFFE012D08BF0C
S3150800263001F049F8002070BD10B5044600F0B1FC61
S315080026402046BDE81040C9E74448007870473E4830
S3150800265090F9000070472DE9F041044614F12B0F5C
S3150800266086B045DB464801881423FFF79AFEBDF875
S3150800267010004FF6FF71884203D0400448BF012678
S3150800268006D43F2200211020FFF7E4FD0546002668
S3150800269004F12B022F2A2C483A491AD213220FF298
S315080026A0301300E0521ED2B213F91270BC42F9DBA5
S315080026B003EB4204032764780C60002413F8121015
S315080026C0017000208046AEB1BDF810104FF6BF72FB
S315080026D029E0092C0CDA225C0A60047014232A48C3
S315080026E00188FFF75EFE01240320A0462827EAE7B3
S315080026F08B201DE0C1024FF4605200F047F84FF4FA
S31508002700E062210200F042F880224FEAC81100F088
S315080027103DF885F020003D18ADB2402DA8BF3F25F5
S315080027203F2285F0200100F031F8FFF7B4FD0020C4
S3150800273006B0BDE8F08100002C250020E810004016
S315080027409C2F00206410004088220020EA340208EA
S31508002750FE3402081C100040262500208422002092
S31508002760422400208020004080E100E000E100E0F3
S31508002770D010004060200040AC1000409B2F002085
S31508002780E6340208C0100040E83402080B2068E569
S31508002790AA2129005523290000252800AA26270052
S315080027A055282700002A2600AA2B2600552D250085
S315080027B0002F2400AA3024005532230000342200BA
S315080027C0AA3522005537210000392000AA3A2000F0
S315080027D0D500E601EC02EF03F204F405F506F70767
S315080027E0F808F909FA0AFB0BFC0DFD0FFE11FF1399
S315080027F000160119021C031F1000110020003000EA
S315080028004000410050006000700080009000A00069
S31508002810B000C000D000E000F00000000000010396
S31508002820F0B5044689B0002001F098FB26480188D7
S315080028300A237F2200A800F069F8BDF802004FF6C7
S31508002840FF75A84204D1DC210FF2940002F032F998
S315080028500FF2A407002601E02A4616B94FF47C4277
S3150800286003E0022E08BF4EF23F0200A800F032F83D
S31508002870761C052EF0D3012C03D114237F2213488E
S3150800288002E014237F221248018803A800F03EF8CC
S3150800289000260FF26C072A4608E02A46012E08BFD2
S315080028A04FF6C07202D0082E08BF002203A800F017
S315080028B011F8761C0A2EF0D3012C04BF012001F072
S315080028C04DFB09B0F0BD0000EA340208E8340208FE
S315080028D0E634020830F81610F05DFFF7C2BC0000B7
S315080028E0616E616C6F6775652D63656C6C2D6269C9
S315080028F061732E630000000000100C0D0E0000002E
S31508002900010203040708090A0B0F000030B5044644
S3150800291010467F2808BF0020B1F5004F83B01AD1B2
S3150800292008237F2240F6120100A8FFF7EFFF0822CE
S315080029300FF2C40100A802F005FA30B908237F2275
S3150800294040F2A27100A8FFF7E1FF082200A920467D
S3150800295002F0AEF937BD204D294300FB03111A4694
S31508002960204602F0A5F937BD2DE9F0440C461A4970
S315080029700FF2780A41EA0006C007154602D5622119
S3150800298000F030F8E80702D5632100F02BF8134869
S31508002990864204D3A819401E1149884202D36421ED
S315080029A000F020F8002706E0B85DFF2802D06B216A
S315080029B000F018F87F1CAF42F6D36A082146304665
S315080029C002F02AFA28B15046BDE8F044712102F017
S315080029D071B8BDE8F0840000000004080008040887
S315080029E000100408504602F065B800006D66672DB1
S315080029F0746F6B656E2E6300FFFFFFFFFFFFFFFF1F
S31508002A0030B50FF23C11DFF824510A6883B001A8EB
S31508002A100024026001202870002002F043FA30B139
S31508002A20002002F03FFA10B12C7049203EBDDFF8B5
S31508002A300001018802237F220DF1020000F024F82C
S31508002A4002237F22002100A800F01EF8204601A9D3
S31508002A50BDF8022031F81010914208BF0124401C2D
S31508002A600228F4D3BDF8000024B1B0F57F7F07D162
S31508002A7000203EBDB0F57F7F0CBF0620042000E095
S31508002A800720002129703EBD10B5FF2908DCDFF8B4
S31508002A909C40247844B1BDE81040C9B202F03DBE5E
S31508002AA0BDE81040FFF732BF10BD10B5FF2908DC9E
S31508002AB0DFF8784024786CB1BDE81040C9B202F05E
S31508002AC063BE7F2A08BF0022DFF86840214302FB65
S31508002AD00311016010BD2DE9F0410546FF2D0E4694
S31508002AE0174698460FF2500012DC104C2178A1B117
S31508002AF0617811B1C02101F0DDFF01206070434605
S31508002B0032463946E8B203F05FF90020607004E007
S31508002B10BDE8F041CB2101F0CDBFBDE8F081034906
S31508002B200978002918BF03F089BA7047E02F0020FA
S31508002B30F234020800000408746F6B656E2E630099
S31508002B40FE01FD0210B5DFF840451020206303F0B2
S31508002B503BFBDFF838150A6842F001020A6003F009
S31508002B6039FBDFF82C0500F108016160216092301D
S31508002B7061688931616001212163E060A060DFF846
S31508002B801415E0688930E060022020634FF6FF7074
S31508002B90086010BDDFF8000545F26401C1601E211A
S31508002BA0416250210162C821C1618165F021C16578
S31508002BB045F690014166882181660621C16644F280
S31508002BC0066101604FF6FF714160DFF8D0040078B6
S31508002BD038B1DFF8CC0448F2607101604FF4C15196
S31508002BE04160DFF8C004016841F00401016000207B
S31508002BF0DFF8B414487070472DE9F84FDFF89014E1
S31508002C008A2202FB001202F10806721C0427537876
S31508002C10127802EB03221FFA82F808F44062B2F532
S31508002C20006F044608F4404B08BF082703D0B2F5E6
S31508002C30406F08BF0E27BBF1000F04D05FEA486259
S31508002C405CBFBF1CFFB2DFF8642412784A704018D4
S31508002C50009000200099887008F0270023285ED18C
S31508002C60DFF84C54686E000659D5B819BBF5404FC5
S31508002C704FF480694FF4006A03D103F0FCFA014669
S31508002C8016E0BBF5004F40D14078B95D01EB002056
S31508002C9080B203F07DFD0021FF2808D0DFF8142458
S31508002CA0126832F810004FF4FE62104200D001217B
S31508002CB059B35FEA08701AD4BBF5004F08BFBF1CAA
S31508002CC003D0BBF5404F01D10837FFB27808002C76
S31508002CD014BF69682968814217D3002C14BF696834
S31508002CE02968421C9142F8D3B85D04280DD1E86DD5
S31508002CF0C00606D400F015F803D0686C40F0010051
S31508002D00686401200099887009E0E86DC00606D558
S31508002D1000F007F803D0686C400840006864BDE816
S31508002D20F18FA86C04B1D14610EA090F70472DE956
S31508002D30F04E0446DFF85863DFF874538A2000FB28
S31508002D40046000F1080B002C0CBF28686868C1B243
S31508002D50052903DA7068401C706055E040005FFA88
S31508002D6080F909EB0B00A0F108073878797801EBB0
S31508002D7000201FFA80FA7078387003F0DAFD787050
S31508002D80CD4FF86B20F48050F863686E14B9386834
S31508002D90400504D4012C1FD1386800051CD5C74846
S31508002DA0017889B1002101701AF4E45FC44801680A
S31508002DB002D00022402005E09BF80100000900F03F
S31508002DC001028F2003F041FE002C0CBF4FF48060F7
S31508002DD04FF40060386012E01AF4E45F0FD100F097
S31508002DE07DFD10B15FEA4A4009D59BF800008028AE
S31508002DF005DAA01949468278584603F0EBFE002CFE
S31508002E000CBF012002202861BDE8F08E2DE9F84F9D
S31508002E10A04CA74E2068216CDFF8A8A2DFF89C8298
S31508002E20DFF86C92A84F01EA00051AE040B148782D
S31508002E30C00605D4A248016800228F2003F005FECB
S31508002E40280605D503F05AFE802025F08005206067
S31508002E50E80506D503F052FE4FF4807025F4807518
S31508002E602060002D68D0280706D50020FFF7C4FE8D
S31508002E70082025F008052060E80606D50120FFF79A
S31508002E80BBFE102025F01005206005F060006028C4
S31508002E9003D1B06CC0050AD401E0A80605D52020E8
S31508002EA0206025F02005002006E0680606D54020AB
S31508002EB0206025F040050120FFF739FFE80410D50A
S31508002EC04FF48050206025F48055D7F800B00820CC
S31508002ED038607868000548BF00F03CF91FFA8BF0A7
S31508002EE03860E807ACD5012020606D0899F8000025
S31508002EF06D000028A4D000F06AFC0128A0D198F83B
S31508002F00000000289CD09AF80000042898D1F068A0
S31508002F10400800F001008A2101FB009108310028D1
S31508002F2014BF7268326812B92268D204F7D500282D
S31508002F3014BF7068306879E700202060BDE8F18F1B
S31508002F40624800687047F0B504460D4689B000210E
S31508002F50032001F01FFD04AE1BE0002701F035FD3C
S31508002F6026F8170001F031FD00A921F817007F1C8B
S31508002F70082FF3DB04A803F0CFFF00202080218868
S31508002F8036F810205140401C08282180F7DB6D1EBA
S31508002F90A41CEDB2002DE0D101F053FD012009B0CB
S31508002FA0F0BD0321022001F0F5BC4FF6FF71081AA7
S31508002FB0292190FBF1F03A3040B2704738B501F05C
S31508002FC004FDFFF7F2FF424D04462878B0B9032105
S31508002FD0032001F0DFFC3F48018802237F2200A876
S31508002FE0FFF794FC01F0F1FCBDF80010401880B220
S31508002FF0FFF7DBFF153868700120287001F021FD06
S315080030006878201A40B232BD80B50321022001F04B
S31508003010C1FCBDE80140D1E770B52F48007800240F
S3150800302090B9FFF7F1FF204E0546707848B1307821
S31508003030401B40B203F081FF0B2805DB35700124E5
S3150800304002E0012035707070204670BD2348007874
S31508003050704722490A78904200D1704780B50870B7
S3150800306040B11F49002008600848016821F0800126
S31508003070016001BD00F0B2FC00F088FC00F0F1FB35
S31508003080BDE8024000F0D5BB002000408420004087
S31508003090D829002000A000404C10004085220020BE
S315080030A0D010004080200040D52F00208422002028
S315080030B0202000401423002004A00040CC29002032
S315080030C0D429002041240020B820004038200040A0
S315080030D0D32F0020F034020842240020D72F0020E6
S315080030E05410004010B50D48018884B00A237F2289
S315080030F000A8FFF70BFCBDF800004FF6FF74A042CE
S3150800310004D14E210FF2180001F0D4FCBDF80010CE
S3150800311022460020FFF7A5F81FBD0000EA34020882
S31508003120616E616C6F6775652D66696C7465722E64
S3150800313063000000DFF8B008007848B1DFF8AC0893
S315080031400179012904BF4079042801D1012070477B
S3150800315000207047DFF89808016821F48051016063
S31508003160DFF89008017881B100210170DFF888182E
S315080031700A68520852000A600A6842F001020A60A8
S3150800318000228168402003F060BC70470FF60C11DE
S315080031904008405C7047010603D54FF67F7108402A
S315080031A0C0007047491C800189B2B0FBF1F080B2BB
S315080031B0FF288CBF0020C0F1FF00C0B2704738B5A9
S315080031C0DFF83008C178012901D1002032BDDFF8C7
S315080031D03048617871B1E178407945182079ADB207
S315080031E0854228BF054603F0C1FE0121A940491EB4
S315080031F0084000E0002061790818C0B232BD2DE908
S31508003200F0470446C00705D540F271110FF67C0059
S3150800321001F050FCDFF8EC57286DC00748BF8C203A
S3150800322000F19480DFF8CC07DFF8D477002101712C
S3150800323001704178B1B93978A1B12178122918BF3E
S315080032400C290BD1627802F00702032A02BF09197A
S3150800325011F8021C042904BF01210171A96F41F06C
S31508003260010102E0A96F49084900A967DFF87C87D0
S315080032707A7898F80610DFF89097DFF8906792B199
S31508003280002242710129286D40F00400286506D104
S315080032904FF6FF7030604FF40070C9F80000FFF772
S315080032A08EFF82460CE0286D20F00400012928656F
S315080032B04FF0000A04D100F043FA642000F0B6FE8D
S315080032C0A86F20F00800A8671420E864C5F848A08D
S315080032D0787838B198F80600002801BFA86C00284D
S315080032E00120A864B8790028286D14BF40F00800AA
S315080032F020F008002865FFF71DFF18B1306C40F074
S3150800330008003064202028626C602C604FF4E0646A
S3150800331068687F30686004202862DFF8F406046075
S3150800332006E003F033FE18B103F038FE02F04CFF56
S31508003330DFF8E006006800F003000328F1D0C9F8BA
S315080033400040286D40F0010028650020BDE8F087A0
S31508003350DFF8C406002141608160016821F002019E
S3150800336001604FF00070DFF8B41608600120DFF83E
S31508003370B01608707047A0F13301DFF8A82691420D
S3150800338000D3704710B5DFF898460021217000F089
S31508003390D2FB02E0012003F005FE20780028F9D0D0
S315080033A010BD2DE9F84FDFF88066DFF848567068DB
S315080033B0716CDFF8507608401FFA80F8C6F804806A
S315080033C06878002840F0DD805FEAC870DFF85C4660
S315080033D0DFF82C9653D5D7F800A0386C796C41EAFB
S315080033E0004199F80000A960002844D09AF8010025
S315080033F0800640D5012028704FF480503060306C2C
S3150800340040F480503064FFF795FEC0B3192000F0F1
S315080034100DFE4FF44040DFF818B6CBF82800DBF86D
S3150800342000000090E06E40F40050E066E06E40F464
S315080034308050E0669AF80010A8684901B83101EB97
S31508003440000AFFF77DFDAAEB00000003000BFFF75B
S3150800345092FFE06E80098001E06600A9E06E0988A7
S315080034600843E0660020CBF8280048F26070E06662
S31508003470E888206003E00022002003F0E6FA5FEA0D
S3150800348008600CD5287830B1002028700022A96879
S31508003490402003F0DAFA306C20F4805030645FEA9A
S315080034A0486008D5687830B9FFF74AFD014600221A
S315080034B0892003F0CAFA5FEAC86054D5DFF82CA55C
S315080034C0DFF844B59AF80400012804BF9AF80610F4
S315080034D001291FD100F0D0FE386F40F0010038678F
S315080034E000208AF80600FFF72DFB0A2000F09EFD53
S315080034F04FF6FF7070604FF000084FF4E060CBF8AD
S3150800350000000920B8660120B864B86F40F00800CA
S31508003510B86718E0697999F80220491C6971C9B237
S31508003520914215D2012808BF00F0CDF8B86F20F0F7
S315080035300800B8671420B866FFF741FEB8644FF470
S315080035400070CBF80000386D40F0010038650AE0DD
S31508003550012808BF00F0B7F8FFF7F2FC0146002281
S315080035608D2003F072FA5FEA08700AD5FFF7E2FDCC
S3150800357038B12068E88001202060706C20F00800CF
S3150800358070645FEA88600AD520203862687830B9A6
S31508003590FFF7D6FC01460022882003F056FA687821
S315080035A020B118F4407F04BF0120A870BDE8F18F50
S315080035B070B582B00446FFF70FF8DFF88004DFF82D
S315080035C03854002101601521E960092101651F2190
S315080035D0416001210166DFF860040088FEF785FE78
S315080035E0FFF7D8FA04F00EF800F03EF9DFF8FC63AE
S315080035F0308900F066F9708900F06BF902F0E4FD95
S31508003600696841F04001696002F0E4FD707800F0F5
S3150800361000F9B07800F00DF9DFF82404007800F01E
S315080036203AF9DFF8200490F90000FFF714F830782B
S3150800363000F0A0F996F9030000F0A8F9DFF80804ED
S3150800364000F0C6F9BDF80000DFF80014C0054CBF4D
S315080036500020BDF800000870DFF8F4030078FEF7D4
S31508003660BDFF28B10FF2244040F2B73101F022FA2B
S31508003670012C05D12868C00711D500F024F80EE002
S315080036806CB92868C0070AD400F0F6FD286840F02F
S3150800369001002860C82000F0C9FC0020B071F120A4
S315080036A0DFF86843206440F2F910E063FFF74AFA4E
S315080036B02868C00704D54FF6FF70206000F06DF843
S315080036C000F0D4FB73BD70B5DFF88853DFF81C43F0
S315080036D02E68A079012832D002F076FD48F2D00192
S315080036E029606A68520509D548F222022A606A6882
S315080036F0D205F5D529606A685207F1D4B6B2DFF863
S3150800370010232E604FF4E0611160DFF828130A6A6F
S31508003710520852000A620A68520852000A600A6889
S3150800372042F002020A604A6A42F001024A62012134
S31508003730A17102F04FFDBDE8704000F063BD70BD99
S3150800374070B5AA4CA07938B300F096FD02F03CFD9E
S315080037500546DFF80413A94E01200860306D40F0D5
S31508003760010030650020A071FFF7ECF920203060D9
S31508003770306B40F002003063F06D40F00800F065F1
S31508003780284602F027FD0A2000F050FC9F494FF614
S31508003790FF70086000F001F870BD4FF4E0609A49C8
S315080037A00860704791488079704710B58F4CA079AA
S315080037B028B140F2AD410FF2D42001F07BF920790F
S315080037C0012804BFBDE81040FFF77DBF10BD87483C
S315080037D00079704780B5022801DB012002BD8349C4
S315080037E008718979884205D010B9FFF7A9FF01E069
S315080037F0FFF769FF002002BD9848006880020014A0
S315080038009A3801B211F1800FB8BF6FF07F0040B24D
S31508003810704710B5044602F0D7FC91490A68002C97
S3150800382014BF42F0120222F012020A606F494C706D
S3150800383040E038B5044602F0C7FC0546FFF706FC2B
S3150800384040B987480168002C14BF41F0800121F077
S3150800385080010160654884702846BDE8324002F060
S31508003860B9BC6248807870477E494A780B787E48AA
S3150800387003EB022202608B78CA7803EB02224260CD
S315080038800B794A7903EB02228260CA79897901EBBE
S315080038900221C160704710B5044602F095FC7049D4
S315080038A00A68002C14BF42F0200222F020020A60A7
S315080038B063490C70BDE8104002F08CBC4B48008987
S315080038C070474A49088169490860704747484089EE
S315080038D070474649488166490860704765480078D8
S315080038E070475448816A41F00201816201210160F2
S315080038F07047504800210160816A21F00201816207
S31508003900502000F093BB38B55B4C5C4821695C4D90
S315080039100180E1694180E96C818000202061FFF720
S31508003920E0FF0120E0610020606220624CF25D0049
S31508003930E864286840F4004028604FF4004020609E
S3150800394048F20200206031BD80B5FFF7D2FF4A4831
S315080039504FF4004101600021016049490A6822F4D8
S3150800396000420A60454A9388CB64118801615188F0
S31508003970C16101BD20490A68002814BF42F002024D
S3150800398022F002020A6019490870704738B50446E1
S315080039907F2C0AD13B4800F01BF8BDF80000C00593
S315080039A054BFBDF800406FF04A0402F00DFC05460E
S315080039B0FFF74CFB30B964B204F19A00800532492E
S315080039C0000C08600948C470284602F003FC31BDA3
S315080039D0018802237F2200A8FEF798BF034890F9C2
S315080039E00300704700000000D12F00203C2400206F
S315080039F040A00040CC290020802000403020004014
S31508003A00EC2400201020004000E100E004A0004063
S31508003A1080E100E0A820004010E000E004ED00E0AE
S31508003A20D22F0020CDFF070000A000406410004000
S31508003A30E410004060200040942200205C10004002
S31508003A40D02F0020882200200C3502089B2F00204A
S31508003A50842200201C100040281000400C10004052
S31508003A6084200040B0280020982000409420004080
S31508003A70902000403B240020181000400A2900200E
S31508003A80C010004010350208541000407068792DA7
S31508003A90636F6D6D6F6E2E6300000000FEF7C80140
S31508003AA0DFF838145120086070472DE9F0410546C3
S31508003AB003F0BCFDDFF82814B0FBF1F64FF4F07004
S31508003AC0B0FBF6F71E2D3FB201DBE81B04D5A8B202
S31508003AD0BDE8F04100F0AABA02F076FB804603F092
S31508003AE011FEDFF80014DFF80024012048700721D2
S31508003AF0DFF8F80300F041F8E91B09B27143C91C65
S31508003B008908491EDFF8E853416000F0BDF8DFF880
S31508003B10CC733C68386820F04000386003F0F4FD48
S31508003B203C602E6003F0F4FD03F0FAFD4046BDE864
S31508003B30F04102F04FBB38B5054603F077FDDFF8D4
S31508003B40A013B0FBF1F44FF4F070B0FBF4F02D1AAB
S31508003B501E2D04DA98210FF2D83000F0ABFFDFF8FB
S31508003B608C03DFF88423072100F007F805FB04F12E
S31508003B70C91C8908491E416031BD016000214160A8
S31508003B8081604FF0007111607047DFF858230121FA
S31508003B905170D0E7DFF85C03006800B970472DE97B
S31508003BA0F041DFF85453DFF8546300242C60346086
S31508003BB04FF4A040706041F29A084046FFF775FF3F
S31508003BC06F6803F03BFD000142F21071B0FBF1F0A3
S31508003BD000F5C870C01B00B24FF4487190FBF1F0B5
S31508003BE000B20828A8BF072004DA10F1080FB8BFEA
S31508003BF06FF0070030604046FFF757FF082740463A
S31508003C00FFF753FF686804197F1EF8D103F016FD05
S31508003C10211D4001C908B0FBF1F080B27060BDE813
S31508003C20F081DFF8D002006800B9704738B5DFF8D0
S31508003C30D05201206FF00F04A8602C608020FFF797
S31508003C4034FFE868FF2802D8641C102CF5DB31BD68
S31508003C5070B5DFF8B002016841F001010160012189
S31508003C60416002F0B1FA0446DFF8845200F00CF81D
S31508003C705120DFF8681208602E6003F049FD2046DF
S31508003C80BDE8704002F0A6BA2E68286840084000D1
S31508003C90286003F03DBD002070472DE9F041954CA2
S31508003CA0904D226840F2DC51012A8846964E974F7D
S31508003CB017DA0221B9803160B16901F003010329DD
S31508003CC05BD02168002903D5B16941F00201B161D1
S31508003CD0FFF7E1FF5FEA00081BD1206800284CD5F2
S31508003CE049E0B8884FF6FF74A0421DD1884801887C
S31508003CF002237F22381DFEF709FEB888A04204BFBA
S31508003D000220B880B069800703D4B06940F0020089
S31508003D10B0610120A870B88830600FFA88F0FFF704
S31508003D2034FF4046BDE8F081B3699B07EDD5AB7813
S31508003D300BB10846F6E7B168B36811F0010103D183
S31508003D400F2809D2401C06E09B0705D53B781BB116
S31508003D50032801DB2018B880B88839700228BCBF50
S31508003D600220B8803068B9888842D2D1B06900F09C
S31508003D700300032801D0FFF76BFF0020D2E72DE9E7
S31508003D80F04780460024554D594E02F01DFA8146EB
S31508003D9003F0B8FC4046FFF780FF08B901240AE0A3
S31508003DA000F05DF8D5F800A000F0BCF8C5F800A052
S31508003DB0376003F0ADFC03F0B3FC484602F00AFA9C
S31508003DC0002CE2D0BDE8F0870220D8E710B54748B6
S31508003DD0444C002141608160016821F002010160C4
S31508003DE0002060704FF000703F490860A07838B135
S31508003DF00020A0700620FFF74EFF00F02BF81CDB12
S31508003E00E078012814D14348012101604249096834
S31508003E10C90748BF03200FD40221E170016C41F0A5
S31508003E200101016404203D4908603D49086010BD50
S31508003E30E078042801D10520E07010BD80B5294836
S31508003E40407800281CBFBDE80140FFF7BFBFFFF759
S31508003E507FFA01BD2748006801287047244E376855
S31508003E60306840084000306003F052BC2DE9F84342
S31508003E701C4C207800282DD0207900282AD1FFF75D
S31508003E80E9FF1FDA40F2F7310FF2A40000F012FE44
S31508003E9018E002F099F9804603F034FCE07805282A
S31508003EA00BD0FFF7DBFF0D4DD5F8009000F03AF880
S31508003EB0C5F80090376003F02BFC03F031FC404650
S31508003EC002F088F9E0780528E3D10020A0700520E3
S31508003ED0FFF755FF00202070BDE8F1830080004001
S31508003EE090D00300A42F002004ED00E010E000E0CD
S31508003EF094ED00E020350208104000400C00004018
S31508003F00084000401C40004004400040C6220020F3
S31508003F100A35020818A000400C40004080E200E084
S31508003F2000E100E0286820F04000286003F0ECBBC0
S31508003F30636C6F636B732E630000000010B5664CEC
S31508003F40002000F084FD40F68C2188422068B4BF2A
S31508003F5040F0080020F00800206010BD10B50446A7
S31508003F605E48018882B000F05CF89DF800109DF864
S31508003F700100FF2902BFFF280420002104B1801C8C
S31508003F80574A1368C0B20828A8BF072023F46073ED
S31508003F9043EAC010106008291068A8BF0721C008A6
S31508003FA041EAC00010604F48047013BD00B54E4882
S31508003FB0018883B000F035F8BDF800004FF6FF71B0
S31508003FC088420EBF4FF4E1600A2190FBF1F0ADF88C
S31508003FD000004448007808B34048018802237F223D
S31508003FE001A8FEF793FC9DF80500BDF80030FF28F0
S31508003FF008BF0420811CC9B20829A8BF0721C1F13E
S315080040002F0202EBD272C0F12F00521000FB0320E0
S31508004010C1F12F01B0FBF1F0ADF80000BDF80000CA
S315080040200EBD02237F2200A8FEF770BC70B52F4C88
S315080040302568064603F002FB2D49B0FBF1F07043F4
S315080040402F303021B0FBF1F0032809D3616D41F020
S31508004050010161652168491B0903090B8142F9D3EE
S3150800406070BD10B5040004D110BD4FF47A70FFF787
S31508004070DDFF2046441E80B20028F6D110BD7047E9
S3150800408038B50C4620B101280FD0032820D021E0EE
S31508004090184D44B103F0D2FA1749B0FBF1F0401EAF
S315080040A0B0F5005F0CD2286012E04CB103F0C6FAF6
S315080040B0610801EB4000B0FBF4F0B0F5003F01D316
S315080040C0202032BD0D4900F001024A604008086010
S315080040D0002032BD212032BD00BC0040EC3402086D
S315080040E018000040C82F0020EE340208382000408F
S315080040F090D00300100004E020A1070068C8004023
S3150800410038B50120FFF7C9FD0020FFF727FFDFF8C4
S315080041103C43206840F00800206003F096FAFFF759
S315080041200DFFDFF82C13DFF82C030A78C2604B78F2
S31508004130DFF82423D3608D78DFF82033DD600D891E
S3150800414005604D89456088891060C8895060088A6D
S315080041501860488A586000F055F8206820F010006A
S315080041602060FEF748F803F037FCFFF72DFE03F052
S315080041706AFABDE8314003F086BA40F2016003F0FE
S31508004180A3BCF0B50B68B24C0F25246A960005FA55
S3150800419006F6344215D0002606EB820724FA07F7FE
S315080041A0FF070BD5B70005FA07FC23EA0C0330F81E
S315080041B012C005FA07F707EA0C073B43761C042EDC
S315080041C0EADB0B60F0BDF0B50B68A14CFF25246A4D
S315080041D0D600B5402C4213D00025012605EBC207B0
S315080041E024FA07F7FF0708D506FA05F7BB43175C55
S315080041F006FA05FC0CEA07073B436D1C082DEDDBA8
S315080042000B60F0BD10B59748017801F0FD0101700B
S31508004210C80703D594494FF4004008608C4C206ABF
S31508004220002825D000229149201DFFF7CCFF012246
S315080042308F49201DFFF7C7FF02228E49201DFFF771
S31508004240C2FF0022834900F014F80122844900F0D5
S3150800425010F80222804900F00CF80322864900F083
S3150800426008F804227D4900F004F804F1140041E03E
S3150800427010BD04F1140084E710B57A48017841F0BE
S3150800428002010170C80707D577484FF40044046057
S3150800429000F05EF8794804606D4C206A002825D045
S315080042A0002272492046FFF78EFF012270492046F8
S315080042B0FFF789FF02226F492046FFF784FF002295
S315080042C0644900F014F80122654900F010F802224A
S315080042D0614900F00CF80322674900F008F8042247
S315080042E05E4900F004F804F1080003E010BD04F18B
S315080042F0080046E7BDE810400522614941E703206A
S31508004300FEF70DBC10B503F0F0FC044603F0F1FC13
S31508004310C0B208B9012C07D1072C11D8DFE804F080
S3150800432004100608080A0C0E002010BD092010BD4E
S31508004330022010BD032010BD0B2010BD062010BDA5
S3150800434044F0800010BD4748007800F0010070472F
S3150800435044494C480978C9070BD54FF40041C16058
S315080043600821016048480068800900F00100FEF74E
S3150800437070BE0821016070472DE9F041394D414E64
S31508004380040028784FF4004801D1C1070CD5002154
S31508004390B1653549C1F8008008213160C6F80C803E
S315080043A0210002D0012100E0002100F0FE000843B0
S315080043B0287001F009FF002C294F25493A6822F494
S315080043C0706214D042F400623A60BA6822F0400281
S315080043D0BA60082200F062F802F0BF020A700822EA
S315080043E000F056F802F0BF020A71602113E042F4A9
S315080043F080723A60BA6842F04002BA60012200F060
S315080044004DF842F040020A70012200F041F842F0ED
S3150800441040020A710021B16506211C4A116001F0AB
S31508004420D9FE64B1287880070CD57868800900F031
S315080044300100FEF70EFE1148C0F8008002E00020D9
S31508004440FEF707FE0020BDE8F081000000BC004032
S31508004450D023002000B0004000B4004000B800405F
S3150800446004B00040CA2F002080E100E00CB00040F4
S315080044700CB400400CB8004004B4004000E100E071
S3150800448004B8004014A8004008B0004018BC00401A
S31508004490CB8A62F30B230A79CB8270474B8962F386
S315080044A00B230A784B8170472A490A6892099201B8
S315080044B00A600A68104308604FF400412648016004
S315080044C0002101606420FFF7B1BD2DE9F047234DB7
S315080044D0204FD5F80090224C8046286840F40040CA
S315080044E02860386820F480503860207868B162788F
S315080044F01C48A17800EB820200EB880012F82A2CEF
S3150800450010F82A0C891A461802E001202026207085
S31508004510B0B2FFF7C9FF0FF2500A02E0B0B2FFF7D8
S31508004520C3FF386B042805D0386B400754BF761E86
S31508004530761CF3E7F86A38B184F80180A6701FFA8A
S3150800454089F02860BDE8F08740F22111504600F056
S31508004550B1FAE6E7D0100040181000401C100040E1
S315080045603527002090270008616E616C6F677565B6
S315080045702D76636F2E63000081014FF4FE5289B2D7
S315080045800C20FDF76EBE2DE9F84F8F4CA568206804
S315080045900127ADB200264FF00A08B9461FFA80FA7D
S315080045A000F04FFAB0202063DFF820B208E016F1D9
S315080045B0190FB8BF4FF00A08464436B27019A06002
S315080045C0DBF80000000702D559EA070028D00120C9
S315080045D0FFF72CFDB9F1000F11D0AAF103008742AD
S315080045E002DAF81C87B213E00AF500402060574645
S315080045F00621092000F0CEF94FF000090BE0DBF8A0
S315080046000000000707D5042FA6BFF81E87B20027AB
S3150800461007F5004020601A2EC9DB6FF00908CBE7C2
S31508004620A560C4F800A00820CBF800006848006818
S3150800463080B2BDE8F28F80B5624B66491B784FF0B1
S31508004640FF326BB1002819BF4A606348486041F2DF
S3150800465011100860614841880088BDE8044092E767
S31508004660002819BF4A600A604860086000F0E9F946
S31508004670BDE804400621092000F0DDB938B501205F
S31508004680FFF7D9FF04460020FFF7D5FF05460120AE
S31508004690FFF7D1FF4042001B00EB450000B232BDD8
S315080046A02DE9FE4F4E4CDFF83C81A06A454EADF829
S315080046B002002568D8F800B0307860B14FF6FF726E
S315080046C000210820FDF7C6FDADF80000C022C02174
S315080046D00820FDF7C6FD4448DFF81091007818B1A8
S315080046E048F26070C9F80000708840F4404040F015
S315080046F04C00C9F83C000220A0620120206040F26C
S315080047004C40FFF793FC0120C8F80C00C8F80000DD
S315080047100020324F388040207880307800B1202041
S31508004720FFF72AFFFFF7AAFF8246402038807F203E
S315080047307880FFF721FFFFF7A1FF0290504602F0AD
S31508004740FCFBFE2101FB00F70298AAEB0000019092
S31508004750307860B1029802F0F0FB8246019802F0C8
S31508004760ECFB80B207EB8A11B1FBF0F005E001988B
S3150800477002F0E3FB80B2B7FBF0F080B2401CC7033F
S315080047801FFA8BF0C8F80000ADB20020C8F80C007C
S31508004790022020602560BDF80200A0620020C9F84A
S315080047A03C00307830B1BDF800104FF6FF72082093
S315080047B0FDF757FD40F24C40FFF738FC380CBDE8D2
S315080047C0FE8F000080220020C010004018A0004084
S315080047D00070004038100040EEEEFFFF782F0020F2
S315080047E0602000402810004085220020D01000409C
S315080047F041003F2289B201E001463F220220FDF72F
S3150800480030BD2DE9F04F564C564D95B0E06CADF8DD
S3150800481010004FF6FF782068ADF80E004246E86AA9
S31508004820ADF80C0000210120FDF714FDADF80A00D3
S31508004830424600210B20FDF70DFDADF808004FF4A8
S315080048400040206000202861686148F2020000F0FC
S315080048508BF84CF68C30E0644FF4805248F2F00046
S31508004860E86211460120FDF7FCFC424600210B20B8
S31508004870FDF7F7FC0621062000F0DDF8019000F0B0
S3150800488085F800904CF69C30E0640020FFF7B0FFF6
S315080048900621084600F07EF800260DF1140BB0B28A
S315080048A0FFF7A6FF0621062000F074F800F08DF841
S315080048B02BF81600761C202EF1DB00F086F8102067
S315080048C0FFF796FF00F062F80099019A401ABBF8C4
S315080048D02010891A404301FB01094FF0100A1127DD
S315080048E000F04EF800F052F800F043F806DB814677
S315080048F01FFA87FA781C07B2202FF1DBBAF1100FDE
S315080049000ED10F2700F03CF800F040F800F031F81F
S3150800491006DB81461FFA87FA781E07B2002FF1D503
S31508004920BDF81000E0644246BDF80E002060BDF8F0
S315080049300C00E8620120BDF80A10FDF792FCBDF8EC
S31508004940081042460B20FDF78CFC01202861002048
S3150800495000F00AF84FEA4A00C0B215B0BDE8F08F79
S31508004960C010004018100040286040F24C40FFF785
S315080049705DBB0099401A404306FB06004845704750
S315080049803BF817000199461AB8B231E70621072005
S3150800499000F051B870B505460E4602F0B3FE3D4C20
S315080049A0206C20F00800206402F0BAFE01F00CFC2E
S315080049B0310341EAC511384A41F001011160082165
S315080049C02160BDE8704001F005BC2DE9F041334C8B
S315080049D0334D304E25E002F095FE3249042008603A
S315080049E0306C40F0080030642F68286840084000A2
S315080049F0286002F08DFED4F80080206820F0400080
S31508004A00206002F081FEC4F800802F6002F080FE6C
S31508004A10306C254920F0080030640420086002F054
S31508004A207FFE30680007D6D5082030601F4800682A
S31508004A3080B2BDE8F08180B5FFF7ACFFBDE8014064
S31508004A40C3E7154801684908490001607047F8B589
S31508004A500746FFF7ABFA044639460320FFF7EBFF94
S31508004A60054639460120FFF7E6FF06463946002087
S31508004A70FFF7E1FF08490A68520852000A60401B1E
S31508004A800004711BB0FBF1F060434000000CF2BD5E
S31508004A900000000018A0004004700040008000409C
S31508004AA094ED00E000E100E080E200E000700040E4
S31508004AB042DE704738B504460D4602F0CFFD01F0D8
S31508004AC083FB2946204603F04AF92B4622460FF275
S31508004AD0CC11012003F087FB29462046BDE8344067
S31508004AE0E6E72DE9F84F6548654D01682E1D4FF438
S31508004AF0206A7165016AB16562490968F165416AAA
S31508004B003166816A7166C16AB166016BF166806B4E
S31508004B10306796F8340040074CBFF76BB76BBB4657
S31508004B2003F071F80022584CDFF86081DFF86091D5
S31508004B30F2648742014624BFA4F12003BB423165D3
S31508004B401DD357F8180F306457F8040F7064706D4A
S31508004B50C005C00D062815D1306C484512D340450E
S31508004B6010D200884DF6426290420BD105F18C00B6
S31508004B706A68426040F2017A7268826002E03264D2
S31508004B80726483464348814202D2014600E0091D09
S31508004B90A14203D20B68B3F1CD3FF8D0601AB064D6
S31508004BA0182105F1780003F05DFB002003E0C0B290
S31508004BB005EB80029167A34523D254F8041D4945A5
S31508004BC0F9D34145F7D2CA07F5D5002205EB82038A
S31508004BD09B6F8B4203D0521CD2B2062AF6DB062AFA
S31508004BE0E9D1002814BF401E0520E0E7716F0022B6
S31508004BF005EB8203521CDF6F9F67052AF8DBC5F8B1
S31508004C008C100146481EC9B20029EFD1706DC00547
S31508004C10C00D02280AD0032815D0042816D0052866
S31508004C2017D0062818D00C281CD01EE01A48016890
S31508004C30890748BF40F6021A1CD40068C00719D570
S31508004C4040F2025A16E040F6012A13E040F6022A1C
S31508004C5010E040F6032A0DE0BAF5206F0AD140F6B7
S31508004C60042A07E040F6052A04E018B1242838BFCC
S31508004C7040F6072A5046BDE8F28F000004ED00E032
S31508004C800000002000E300E080220020E43402084F
S31508004C9090210008980000201CA000400D0A5B41E6
S31508004CA053534552543A25703A25645D0D0A00005F
S31508004CB0814233D210185118401E491E10E011F8CF
S31508004CC0013900F80139121F11F8013900F80139C4
S31508004CD011F8013900F8013911F8013900F80139DC
S31508004CE092B2042AEBDA92B2002A1EBF11F80139F1
S31508004CF000F80139521EF6D1704711F8013B00F849
S31508004D00013B121F11F8013B00F8013B11F8013B6A
S31508004D1000F8013B11F8013B00F8013B92B2042A66
S31508004D20EBDA92B2002A1EBF11F8013B00F8013BEC
S31508004D30521EF6D17047130003D00A46194603F0EF
S31508004D4095BA704710B500E0521E92B222B100F033
S31508004D5012F8F9D0181B10BD002010BD10B500E0E0
S31508004D60521E92B22AB100F006F8F9D0181B40B2CA
S31508004D7010BD002010BD10F8013B11F8014BA342ED
S31508004D80704700004148018A40F6A772914202BF67
S31508004D90408A4FF47F41084203D1022801DB0120F3
S31508004DA07047002070472DE9F84F8246884601F083
S31508004DB00BFA374D2F6804462868400840002860DB
S31508004DC002F0A6FC0120DFF8C0B08BF80000FFF760
S31508004DD0D9FF20B9FF210FF2BC00FFF76BFE2B4865
S31508004DE0D0F8289041464AF48070C84706462F6096
S31508004DF002F08EFC204601F0EDF900208BF8000049
S31508004E000FF298040EB1305D04E041464AF4007092
S31508004E10C847005DBDE8F28F2DE9F84F8046894600
S31508004E204FEA420A01F0D0F9194E3768054630684C
S31508004E3040084000306002F06BFCFFF7A3FF28B97A
S31508004E404FF4A1710FF24C00FFF734FE0F48D0F86B
S31508004E5024B00023524649464046D84704463760A0
S31508004E6002F056FC284601F0B5F90FF230050CB1F0
S31508004E70605D05E05346002249464046D847405DF6
S31508004E80BDE8F28F00000000C12F002000000408D2
S31508004E9094ED00E0666C6173682E630000020202FE
S31508004EA04B4B46472DE9F84F8046DFF880A00AF5B8
S31508004EB0A4701F2500901F22FF21FFF73CFF4FF427
S31508004EC0A372FF215046FFF736FF0027184CDFF87C
S31508004ED06490194EB85D17F809B0395D401C00EBAF
S31508004EE0D070401001B11930C01C00FB0BF21348FA
S31508004EF030F817100FF2480003F0EFF9BBF1010F75
S31508004F001CBF2AF817505D447F1C1F2FE2DB0FF2E7
S31508004F104C001F234FF480524FF4BD6103F0DDF9B6
S31508004F2000994046BDE8F44F00F03BBB982D0020A1
S31508004F30F43502083436020814360208B435020875
S31508004F4043726561746F723A2030782532582C2086
S31508004F50576F7264733A2025640A000053696D45D9
S31508004F604520646174613A20256420776F72647302
S31508004F70206F66202564206D61782C20746F6B6520
S31508004F806E436F756E743A2025640A0010B5DFF813
S31508004F901C4CDFF81C3C2488001B03EB4000002354
S31508004FA004E030F8134021F813405B1C9342F8DB09
S31508004FB0002010BDDFF8F42BDFF8F41B1288801AE6
S31508004FC001EB40010220FFF7EEBEF8B504460F4696
S31508004FD01546DFF8DC6BEDB205B34FF6FF70ADF89A
S31508004FE0000000AA002017F8011B8154401C6D1E02
S31508004FF0C0B2022802DAEDB2002DF4D1DFF8AC0B0C
S315080050000088A4B2201A012200A906EB4000FFF787
S3150800501003FF641C0028DED000F0FCBB0120F2BDB3
S3150800502070B582B004460D461646F6B27EB100F05B
S31508005030E1FF641C002000A9761E415C05F8011BEF
S31508005040401CC0B20228F0DAF6B2002EF3D173BDC6
S31508005050DFF8601BDFF8602B415C825CDFF8903C70
S31508005060C05C10B102F5997292B241EAC21080B2E0
S31508005070704710B5DFF8443BDFF8384B03EB4002C6
S31508005080005D012801D1104610BD1088081803EBF1
S31508005090400010BD30B591B004460D4604E0401CF2
S315080050A080B220280BDB2034A4B2A54211D32022DB
S315080050B000A92046FFF76AFF00204FF6FF7200A9F5
S315080050C031F810109142EAD02046FFF773FF203CD2
S315080050D0E9E711B030BD10B5044661882088FFF7AE
S315080050E0D9FFDFF8101C0120A0710978208808185C
S315080050F0DFF8C41C098800EB4100801DA08010BDA4
S3150800510010B5DFF8F44B00F08AF800F050F900F01B
S315080051104BF9DFF8A80C446004F10801816004F13A
S315080051201001C16010BD2DE9F0460446DFF8C40B36
S3150800513005782E46072E85B003DB4FF4317100F053
S315080051401FFB0020A0716A1C208892B201A9FFF7F4
S315080051501DFFBDF804004FF6FF7A504518BF00281A
S3150800516058D00DF10409AAEB000039F8161081424F
S3150800517050D1012705E0BDF8041088424AD1781CB1
S31508005180C7B2B74214DA39F817000028F3D1DFF8A6
S31508005190301C20880A8807FB02214118514407FB66
S315080051A0020089B280B2FFF775FF0220A071E6E718
S315080051B0A079022830D020882818C01C00F0F4FEF8
S315080051C0BDF80000000BA84224D120882818401DED
S315080051D000F0EAFEBDF80010BDF80000C1F1FF01BD
S315080051E0000AC9B2884215D10320A071012220887D
S315080051F02818401C0DF1020180B2FFF7C7FEBDF862
S315080052000200FF2802D10420A07105E0504518BF0E
S31508005210002801D000F003F805B0BDE8F086204666
S3150800522059E770B5DFF8D04ADFF8905B0020A07127
S31508005230A073A07582B004F10800A8606C6004F140
S315080052401000E8602046FFF76EFF04F10800FFF73C
S315080052506AFF04F11000FFF766FFA179A07BDFF86B
S315080052605069042908D100210428ADF800102CD172
S31508005270FFF746FF012076BDA17D042812D1002044
S315080052800429ADF80000F3D0FFF7C9FF00F08CF849
S31508005290DFF8603A208900F08DF8060026D1032051
S315080052A0A07334E0042929D10020ADF80000FFF7E7
S315080052B0B6FF00F07CF8DFF83C3A208A00F07AF86E
S315080052C0060013D10320A07518E0A07D0428CFD0CE
S315080052D000F06DF800F068F8DFF8183A208800F05A
S315080052E069F8060002D10320A0710AE0304603F0EF
S315080052F06AF81EB14FF46E7100F042FAA0790328DD
S3150800530005D1A07B012804BFA07D012843D0A07940
S31508005310032801BFA17B0329A17D01293BD00228CF
S3150800532001BFA17B0329A17D01290DD0012801BF59
S31508005330A17B0329A17D012906D0012801BFA17BF4
S315080053400329A17D032904D104F1080004F1100101
S3150800535025E0012801BFA17B0229A17D03290DD0E3
S31508005360012801BFA17B0129A17D032906D00328B5
S3150800537001BFA17B0129A17D032904D104F11000F5
S31508005380214608340BE0032801BFA07B0128A07D35
S3150800539002287FF46DAF204604F1080110346860D6
S315080053A0EC60A960002076BD04F1100093E604F1D4
S315080053B0080090E61B781818DFF8F0371B88401CA1
S315080053C0C01A012200A906EB4000FFF725BD2DE90A
S315080053D0F04F0446DFF81C09007885B00D46ADF895
S315080053E00C0001222088BDF80C100818461D0DF186
S315080053F00201B0B2FFF7CAFDBDF80200DFF8C489A2
S31508005400DFF830AC000AADF80200761CDFF8A80910
S315080054100788BDF80200B8421CBF012028704FF06B
S3150800542000091DE0401CC1B2B94215D2C0B283467C
S315080054303AF81B10BDF80A209142F3D1FFF708FE8F
S315080054404FF680710840BDF808104FF6807211407B
S31508005450884208BF0BF8089009F101001FFA80F985
S31508005460BDF80200814507DA022202A9B0B2FFF7A9
S315080054708DFDB61C0020D6E70021B94601E0491C7F
S3150800548089B2494509DA11F808008842F7D001209F
S31508005490287002E022F8176006466088C01EB6B279
S315080054A0B0424FF6FF7A69DBFF2700F076F8BDF8C1
S315080054B00000504562D0701C01220DF1060180B231
S315080054C0FFF764FDBDF80010BDF80600AAEB010160
S315080054D088425FD1BDF80010BDF8000001F07F0AD0
S315080054E0BDF80210F61C000A884253DA002101E0D2
S315080054F0491C89B2494504DA11F808208242F7D1D5
S31508005500CFB22388BDF80CC0634403EB4000801D6E
S3150800551000F045FDBDF804006188C0F3C710401CC3
S3150800552000EBD07006EB600080B2814232D3FF2FC9
S31508005530B2D0DFF8281C795CBAF17F0F0CBF0022C5
S3150800554052468A4208DADFF8A837BDF80020FB5C25
S31508005550C2F3C0129A4202D0012129709CE70129A0
S31508005560DFF8FC2B96D0BAF17F0F32F8171008BF78
S315080055704FF0000A514422F811608DE7A680608832
S31508005580B6B2B04208D300F008F8BDF80000761CA1
S315080055905045F4D00120287008E2012200A93046BF
S315080055A0F4E4F8B58DF80000DFF8B81BDFF8FC0561
S315080055B00288DFF844070988DFF83837DFF8FC4740
S315080055C01E78DFF8A43B1B8841800280B218DFF8FA
S315080055D0E8170D88438102EB4502921D828000225E
S315080055E08271DFF8883BDFF8882B12881B880281D6
S315080055F04382B21802EB4502921D82810022827311
S31508005600DFF8702B12880282B21802EB4501891D59
S3150800561081820021817503F0A3F830B19DF800005E
S3150800562040F001008DF800000FE0FFF7FAFD9DF845
S31508005630001008438DF800000122606800883018C1
S31508005640801CA11C80B2FFF7A1FC9DF80000002871
S315080056503ED1606800A9FFF7BAFEDFF81C0BDFF839
S315080056605C750688A0688179032922D100A9FFF70D
S31508005670AEFE6168DFF8E42A002010E0A84202DAEC
S31508005680835C012B09D137F81030B1F800C06345A7
S3150800569024BFB1F802C09C450BD2401C80B2B04270
S315080056A0ECDB02208871A16860686160E168A1602E
S315080056B0E06000204FF6FF7201E0401C80B2B04265
S315080056C006DA37F810109142F7D101208DF800005C
S315080056D0607828B101208DF800000020607002E093
S315080056E09DF80000B8B14D2002F06DFE6088401CA0
S315080056F06080E068FFF7EFFC9DF8000000F055F8C1
S3150800570038B100F08BF820B19DF8000000F05EFA81
S3150800571008B90120F2BD0020F2BD2DE9F04104468A
S315080057200D461646984631462846FFF7A2FCDFF88E
S315080057308816078809887F2E08BF00268D423EBF37
S31508005740DFF87004285C864204D2DFF86C04285C13
S31508005750804503D040F2336100F012F8DFF8200AE2
S31508005760285C28B13946284600F049FC206005E047
S31508005770424621463846BDE8F04151E4BDE8F0818D
S315080057800FF62C20FFF796B910B5044608461146C1
S31508005790FFF76FFCDFF8142400881288DFF8E41995
S315080057A0801A01EB4000206010BDF8B5DFF80C1632
S315080057B0DFF8FC43DFF87C58002814BFC8688868FF
S315080057C0DFF83015008809780818861DB6B2002754
S315080057D003E0B61C7F1CB6B2BFB2DFF8DC05008852
S315080057E0874215DAF8B2FFF733FCADF8000002225B
S315080057F035F81700DFF890391B88ADF8020000A9C4
S31508005800F01A04EB4000FFF707FB0028E1D001E09F
S315080058100120F2BD02F0D7FD0020F2BD2DE9F04FC0
S31508005820DFF89405DFF8CC1400880978DFF8809350
S3150800583085B00024ADF80C00DFF88005C068008844
S315080058400818BDF80C1000EB4100801D86B201E077
S31508005850641CA4B2BDF80C00844280F29E804FF00E
S31508005860000B5CE000F04FFAADF80600711CCF485B
S315080058700588701B8EB2BDF800104FF6FF72914274
S3150800588009EB400016D100F09AF800281CD100F068
S315080058909BF8002818D1B01C86B2C7483E80225C07
S315080058A0DFF8E80850F824103046FFF78EFB00288A
S315080058B02ED17BE0C049615C491C01EBD1714FEAEE
S315080058C0C15A00F07CF800286DD100F07DF8002858
S315080058D069D1B11C8EB2B8F1000F3E8040D002905B
S315080058E0DFF8D804007828B102AA00A9204602F0F9
S315080058F05FFF05E0BDF80010E0B200F080FB029003
S31508005900701B4FEA1A6202A900F0F9F900284AD179
S31508005910DFF87C08205C801986B20BF1010BA548DC
S31508005920255C5FFA8BFBAB4592D25946E0B2FFF78E
S31508005930A0FB0746012D3888ADF80000DFF8B00354
S3150800594014F800804FEAC81040EA0420ADF80200B7
S31508005950BDF802000CBF40F07F004BEA000081E76B
S3150800596000270AE000F025F8FFF710FBB819401BDE
S31508005970012200F0C3F9B0B97F1CFFB2B7EB1A6F6A
S31508005980C6DADFF8380400780028BDF80000E9D048
S3150800599000F00FF802F072FDE8E7DFF82004C068AF
S315080059A08680012002E002F00EFD002005B0BDE869
S315080059B0F08F411CADF80010012201A970470122A1
S315080059C00DF10201FFF728BA701B01220DF106013D
S315080059D009EB4000FFF720BA2DE9F64F8046DFF8BD
S315080059E0B007DFF8B0371B6885B0085CDFF8A81782
S315080059F0098801900C264A0891FBF6F6B618B342B8
S31508005A004FF0000928BF001808D2182691FBF6F1B6
S31508005A10511A8B4203D300EB500080B20190002646
S31508005A20DFF8587701E0761CB6B2DFF88C030088F9
S31508005A30864280F2AB80002441E001220DF102018A
S31508005A401FFA8BF0FFF7A2FABB68DFF860C19B88E4
S31508005A50BCF800C05648EB18A3EB0C030BF1010B7E
S31508005A604A4600F0ADF8002816D16D1C0498EDB230
S31508005A708542E2DBBDF80010BB684FF6FF70401A9E
S31508005A80ADF80200012249489B88058848489B1EB4
S31508005A905B1B00F095F8002872D1BB6844489B88C8
S31508005AA0DB1E5B1B012200F044FB002868D1B868A6
S31508005AB0039A81881180818851448180641CE4B2EC
S31508005AC03C48355CAC42AED22146F0B2FFF7D1FA7B
S31508005AD00390B0F800B03848305C401C00EBD0703A
S31508005AE0C005000E0490BDF81400864204BF9DF858
S31508005AF018008442E2D0786801888B4524BF408824
S31508005B005845DBD301981FFA88F880B2804549D2F8
S31508005B10DFF87C0616F800A0B868828841885244E7
S31508005B20D21C914203DA01207870452028E070499A
S31508005B30715CCA0142EA0622ADF80020012DBDF8C3
S31508005B4000200CBF42F07F022243ADF80020D0446B
S31508005B508288D21C4FF001098280A9B15946F0B259
S31508005B6000F04DFABB68114D049A02909B882D8867
S31508005B700F485B1B02A900F025F800283FF47AAF0E
S31508005B8002F021FC002000E200256FE7B9F1000FC2
S31508005B9008D1796802208871B96878687960F968E7
S31508005BA0B960F8600120EEE7000000007E350208C3
S31508005BB0007002083436020814360208982D0020B0
S31508005BC00DF1020100EB4300FFF726B92DE9F04F6E
S31508005BD083B05FEA0008DFF8A455DFF8A89514BF7C
S31508005BE0E868A8680122B0F800B073480088C0F1D8
S31508005BF0FF01C9B241EA0020ADF8000000A93D48FE
S31508005C000678DFF88405048806EB0B07781D001B69
S31508005C1000F075F8002846D140F6127040EA0630C2
S31508005C20ADF800000122F81C001B00A900F067F877
S31508005C30002838D1B81C001B0122A91C09EB40001A
S31508005C40FFF7EAF800282ED1781C001BB8F1000FE0
S31508005C5009EB400A03D0FF2000F05DF818BB68681E
S31508005C60008801220DF10201FFF790F9BDF8020044
S31508005C7001280CBF4FF6FE70401E00F044F8ADF840
S31508005C8004000122381B00F039F860B9731E7EB192
S31508005C909EB206EB0B00001B01220DF1020100F07B
S31508005CA02EF80028F2D002F08EFB0020BDE8FE8F09
S31508005CB0B8F1000F17D0E968032088716868FFF704
S31508005CC00AFAA868FFF707FAA968EA686868AA607E
S31508005CD0E860A860696000206A60E96000F01BF867
S31508005CE00028E0D102E0A968032088710120DDE7D9
S31508005CF0F43502087C350208AC24002001A909EB1A
S31508005D004000FFF789B8ADF802004FF6FF70BDF8FE
S31508005D100210401A7047ADF80000012200A950464B
S31508005D20FFF77AB8F8B50446DFF8640482B00D5C6C
S31508005D30A088134662882E18F61CB24205DADFF8E8
S31508005D403C1401204870452031E0C01CDFF84C2483
S31508005D50A08080B28A5C1946FFF737F950B3DFF89E
S31508005D602804DFF820740688A088C01E801B01223C
S31508005D7002A907EB4000FFF74FF8C0B9BDF80810B5
S31508005D804FF6FF70401AADF800000122A088801E69
S31508005D90801B00A907EB4000FFF73EF838B90899C1
S31508005DA0A0880880A0882818A0800120FEBD02F0DF
S31508005DB00AFB0020FEBD00008A350208882D002057
S31508005DC07A350208E02E00202DE9F94F85B088467D
S31508005DD09146012601F042FCB9F17F0F08BF4FF04A
S31508005DE000099DF8140001274946FFF742F90446C1
S31508005DF09DF81400258802908F48B0F800A09DF8F9
S31508005E00140050453FBFDFF854030299085C8145EA
S31508005E1007D2029ADFF884139DF81800515C88426D
S31508005E2003D040F6A501FFF7ABFCDFF874038179D0
S31508005E3002291FBF817B0229807D022802D14320C7
S31508005E4002F0C1FA0299CE48085C80B39DF81400A6
S31508005E50294600F0D4F8D8F80010814253D0E81E3D
S31508005E6000F09DF8C54F7868DDF808C0C84B428831
S31508005E701CF803308188D21ED21A8A4207DB31B158
S31508005E80B9680A889542A4BF4988A94272DBF868AE
S31508005E90BD688079022837D1442002F094FAF86860
S31508005EA08079012830D0452002F08DFA53E09DF81C
S31508005EB0180003904FF0000B20E00BEBDB7005EBAE
S31508005EC0600000F071F80BEB08001BF8081040782A
S31508005ED001EB00200399491E8B4580B205D1BDF818
S31508005EE00010C9B2C0B2ADF80010BDF80010884263
S31508005EF00BF1020018BF00275FFA80FB0398834561
S31508005F00DBDB002FABD040E0B8688179012913D1DB
S31508005F100020FFF74AFC002837D00020FFF756FE7E
S31508005F20002832D09F489DF81410007800EB4A00EC
S31508005F30C01D4A4680B205E0032912D19DF8141007
S31508005F404A460020FFF748FD28B100F021F8284608
S31508005F50FFF7E8FEC8B93046461EC0B2002812D17F
S31508005F6013E002290CBF40F68B1140F68E11FFF79D
S31508005F7007FC0AE000F00CF8FFF7D4FE28B9304613
S31508005F80461EC0B200287FF42CAF07B0BDE8F08FDC
S31508005F900094BDF804309DF814104246704701225B
S31508005FA001A980B2FEF7F2BF012200A980B2FEF76E
S31508005FB0EDBF70B582B004460025192600F01AF820
S31508005FC0BDF80000641C48B14FF47F41401A02D066
S31508005FD0FF3806D007E0681C40B276BDAD1C761EB9
S31508005FE0ECD168B276BDBDF80000C0B200B96D1C30
S31508005FF0E843F1E7012200A9A0B2FEF7C7BF38B50A
S315080060000C46002100916549455C2A4600A92046B0
S31508006010FFF706F8681C00EBD07004EB600080B24E
S31508006020FFF7C7FF002848BFC043009940B2401891
S3150800603032BD0000B43502088A350208F0B55A495F
S3150800604009880446464883B0254630F815608C42D0
S3150800605002D24B48285C18B940F6ED11FFF790FBC1
S315080060604E482D5C681C00EBD07006EB6007B8B292
S31508006070FFF79FFF322814D2C107BFB207EB6000B3
S31508006080414F404B3F884CBF00214FF47F41ADF84C
S315080060900410C01B012201A903EB4000FEF7BCFE59
S315080060A060B131462046FFF7AAFF00902B46401CF8
S315080060B000907F2200A92046FFF786FEF7BD70B53F
S315080060C004463848067882B0354629464D1E20884B
S315080060D0022920DBEDB22818FFF766FFBDF800009D
S315080060E00028F2D031492088098805FB010080B2D2
S315080060F0FEF760FF0020ADF8000001222388224C3D
S3150800610020482488EB181B1B00F013F808B102F08E
S315080061105AF9284676BDFEF74DFF0120A07122499F
S3150800612020880988301800EB4100801DA080E8B25D
S3150800613076BD00A900EB4300FEF76EBE18488179CC
S31508006140022908D0817B022908BF083003D0817D47
S31508006150022901D11030B2E7002070473436020810
S31508006160982D0020803502088435020888350208F3
S3150800617082350208863502088C350208882D0020EB
S31508006180F4350208007002087E35020860380208F5
S315080061909435020890350208783502081436020844
S315080061A0AC2400207C3502088A3502087A350208B4
S315080061B073696D2D656570726F6D322D696E7465C4
S315080061C0726E616C2E630000EFF31180602181F31B
S315080061D01188704780F3118870470000DFF884152E
S315080061E000200870FF21DFF88005017001717047F3
S315080061F0F8B5044602F052FB0546DFF87005DFF8ED
S3150800620068750688204602F05AFCB0F5006F16D16C
S31508006210204602F078FC00F0BBFAFF280DD000F00B
S3150800622029FA2146381D02F0FFFFDFF83805017804
S3150800623081B10089A9190E1A10E09320F2BDFF2139
S31508006240384603F01CF8052802DA21463846EAE7FC
S315080062503920F2BD0581314603F071F8B2B2032147
S31508006260204602F0AAFB032200F070F8204602F04E
S3150800627023FD0020F2BDF8B50446DFF8EC040078EB
S31508006280FF2813D0DFF8E8542968465C37463846B5
S3150800629002F02AFC014608222046FEF753FD08B9FB
S315080062A00120F2BD28683F5CB742F0D10020F2BD5C
S315080062B0F8B5044602F0ADFB000B00F001052046D8
S315080062C002F036FC0646204602F021FCB0F5404FA7
S315080062D011D1002D36D03146002000F086F904464B
S315080062E0FF2C2FD0002103F023F958B300F0A3F9AF
S315080062F000F02AF826E0304603F04EFB00F048FA94
S315080063000446FF2C01D10020F2BD012000212246BF
S3150800631003F070FBDFF85C24D2E9006706430F43FD
S31508006320C2E9006775B1DFF850341B6833F81430DA
S315080063304FF4FE64234205D0D2E90245204329439F
S31508006340C2E902010120F2BD40F080020521204683
S3150800635002F03EBB38B5044602F0B1FBB0F5006F5B
S315080063600CBF01250025204602F0BEFB0446214647
S31508006370284600F03AF9FF2810D18DB1204603F0DF
S315080063800BFB00F005FAFF280AD0DFF8EC130968C2
S3150800639031F810004FF4FA61084201D0012032BDED
S315080063A0002032BD2DE9F04107460C46DFF8B85308
S315080063B002F085FBB0F5006F0CBF281D2846007853
S315080063C0FF2846D0DFF8A8130968405C0646B7429E
S315080063D03CD1FFF7F9FE80460521304602F0FFFA68
S315080063E000F07F00471EFAB20521304602F0F0FAA7
S315080063F0002C18BF312C01D0F8B200BBFFF7E4FE21
S315080064000746F0B202F05BFBB0F5006FF1B205D1BA
S31508006410281D02F034FF00F012F902E0284602F0C7
S315080064202EFF3846FFF7D6FE4046FFF7D3FE214635
S31508006430304604F01DFA304602F04CFC04E000F049
S31508006440FEF84046FFF7C6FE012003E0765C86426A
S31508006450BDD10020BDE8F08138B502F01FFAC14C65
S3150800646021892081421A4FF6FF75ADF8005000A920
S3150800647090B200F008F9BDF80000A84202D1002049
S31508006480207031BD0146204602F059FF31BD00217A
S315080064904FF6FF70F7E02DE9F84FDFF8D892D9E903
S315080064A00001002908BF002800F0988000264FF058
S315080064B00108B24600270024FFF786FED9E9002323
S315080064C0844608EA02001AEA030108BF002817D022
S315080064D06FEA08006FEA0A0102400B40C9E9002387
S315080064E0D9E9025B012708EA05021AEA0B0308BF85
S315080064F0002A05D028400BEA0101C9E90201012456
S315080065006046FFF767FE002F57D09B48006830F8B3
S315080065101600810751D59949096831F816702CB1CA
S3150800652000F49871102908BF012500D00025944968
S315080065300978C9070AD5934A1268002142F8261035
S3150800654091490968725C42F0F0027254F4B180060F
S315080065501CD5380A8DF801008DF8007000A90120B5
S3150800656000F043F80446FF2C07D100F039F84FF63F
S31508006570DF72114020F8161014E0002102F0D8FF4F
S3150800658080B100F058F8FFF7DFFE0BE085F0010058
S31508006590044207D000F024F841F4006120F81610F0
S315080065A004F010FD00953B461A226DA1032001F068
S315080065B0CFFE2946384604F062FF761CF6B24FEA4B
S315080065C04A0040EAD87A402E4FEA480806DAD9E95E
S315080065D00001002908BF00287FF46CAFBDE8F18FE1
S315080065E06548006830F8161070472DE9F04188466E
S315080065F05D4900281ABF091D022508250878FF28C5
S3150800660016D05B4E3168475C3C4600F014F800062D
S315080066100AD4204602F068FA01462A464046FEF7A2
S3150800662091FB08B9204604E03068245CBC42ECD1F2
S31508006630FF20BDE8F0810521204602F0D0B970B5EB
S315080066400021202004F0C1FF47480079FF2810D018
S31508006650474C2168455C2E46304602F054FA00F055
S3150800666097F8FF2801D000F005F82068365CAE429E
S31508006670F2D170BD4049096831F8102042F0200275
S3150800668021F8102070472DE9F84F80460FF2FC00DC
S31508006690354E0068364F00908A46344600E0341D71
S315080066A0FFF792FD814606E0204602F0D2FD294614
S315080066B000A802F0B9FD204602F014FE40B9386879
S315080066C021780D5C0321284602F06EF98045EBD24D
S315080066D0301D844208BFFFF7B2FF4846FFF77AFD30
S315080066E02078FF281CD0396810F801904D46032100
S315080066F0284602F059F9A0EB080B1FFA8BF2032182
S31508006700284602F05AF9BAF800001FFA8BFB8345AF
S3150800671088BF8346AAF800B038682D5C4D45E6D197
S31508006720301D8442BBD100A802F0DCFDA8B900A840
S3150800673002F08FFD044602F076F900F0FCF8FFF748
S315080067407AFF000603D44221204604F091F8204639
S3150800675002F0C0FA00F0F0F8E5E7BDE8F18F0000B6
S315080067604257420000290020B82300209823002021
S3150800677004230020F8240020142300200C230020E2
S31508006780482600201823002078230020FF00000058
S31508006790F8B50D4C2768060014D0FFF715FD0B4D0C
S315080067A021682A7821F8126037F8021BB142FBD11A
S315080067B0FFF710FDB81E2168401AC0052978000E9B
S315080067C0884200D1FF20F2BD0C23002010230020B0
S315080067D010B57B487B4C0068206060604822002129
S315080067E0FEF7A9FA78482168007808700020216821
S315080067F00873216848730B20216888730320216871
S31508006800C8734FF6FE71206801824FF6FF71418208
S3150800681000F0ACFB2168087600F0A8FB21684876F2
S3150800682000F0A4FB21688876684821680078C87655
S3150800683067492068096881626649097880F82C10DA
S31508006840654821680068086310BD10B5FBF7FCFEB3
S315080068505C4C6168897B884203D00846FBF7ECFEEE
S3150800686050B9FBF7F4FE0146606890F90F008142C3
S3150800687004D0FBF7F0FE08B1012010BD6068008A5D
S31508006880FDF71FF86068408AFDF723F86068007B0B
S31508006890012818BF0020FCF7FEFF002010BD10B528
S315080068A04E4C0020207004F08FFD20B92046BDE82C
S315080068B0104002F039BD05F08FFA08B105F020FB4B
S315080068C065E080B5002000F015F828B1002000F03A
S315080068D005F808B1002002BDFF2002BD394800684E
S315080068E0407B02281CBF1128432801D1012070478C
S315080068F00020704733480068007B012818BF02282B
S3150800690004D003281CBF0628072801D10120704798
S31508006910002070470020704770207047002070479D
S315080069207047704700207047012070477047002065
S31508006930704700207047704770470020704780B541
S315080069400020FFF7CBFF20B10020FFF7D3FF00B1EF
S31508006950012002BD80B50020FFF7C0FF30B11948FD
S315080069600068007B032801DA002002BDFF2002BD73
S3150800697010B5040004D0E5210FF28400FEF79AF85A
S315080069800F480068482101FB04000E494860BDE82D
S3150800699010405AE70B484068008A70470948406823
S315080069A0408A7047074909684A690260C97E0171C9
S315080069B070470449096802684A610079C8767047D1
S315080069C0402300208C280020BA2F00209523002081
S315080069D0482300204C230020502300207C28002038
S315080069E07047002070470020704702F0D6BD7047F8
S315080069F0704705F0AABD05F0E5BE05F03DBF0000ED
S31508006A00656D6265722D6D756C74692D6E6574772A
S31508006A106F726B2D737475622E63000038B5044669
S31508006A200D46012006F01CF85D48002D12BF002116
S31508006A300178491C01705B4844705B48FCF7DFFB32
S31508006A40BDE83240002006F00BB810B50028144601
S31508006A503FD0402823D0882818BF892840D08D28C1
S31508006A602FD08F2846D15148007804280DD144B13B
S31508006A704F490220087040F60620BDE8104005F090
S31508006A80F7BFFCF792FE312030E0012001F059FCF7
S31508006A90FCF78BFE002C0CBF3120002026E0404876
S31508006AA0444900780978884204D2BDE8104000219C
S31508006AB00120B3E7002001F044FCFCF776FE4020F5
S31508006AC014E0002001F03DFC00212020FFF795FF8F
S31508006AD00BE0012001F035FCFCF767FE002005E01D
S31508006AE0002001F02EFCFCF760FE8D20BDE810406A
S31508006AF002F018BEBDE81040C9213CE02C480078D9
S31508006B00022800D0704780B52B480078042807D0A3
S31508006B100C280ED129480078022818BF7C2808D1ED
S31508006B2005F0C1FFFCF741FEBDE80240002002F077
S31508006B30F9BD01BD38B50024FFF746FB05461C48DC
S31508006B40007810B9FCF768FA04462846FFF742FBB6
S31508006B50002C1CBFBDE8314001F081BC31BD80B5B9
S31508006B60FFF7E8FFBDE804404FF4A051144802F0CF
S31508006B70E6BB40F205110FF25000FDF79BBF38B592
S31508006B80104C2068216C01EA0005ADB2680705D5EE
S31508006B90206C20F00400206404F0FCFA256031BD66
S31508006BA0C52F0020EC2400202429002041240020A1
S31508006BB018290020B4230020C32F0020C42F00204A
S31508006BC0F028002008A000406D61632D656D323500
S31508006BD0302E630070B504460D461646FCF741FE96
S31508006BE038B16078002E14BF40F0200000F0DF00B6
S31508006BF060702946204602F0F0F8FF2821D0974C0D
S31508006C000146201D02F010FB954D28882188401C5E
S31508006C10288080B281420AD26888401C6880201D7C
S31508006C2002F017FB02F056F82888401E28802088B4
S31508006C3029888842F3D3BDE870408A48007802F074
S31508006C4061BC70BD2DE9F04FA5B082460027FFF75D
S31508006C50BBFA834C2188491E2180FFF7BBFA5046B0
S31508006C6001F0C4FF90F8009081784078009700EB17
S31508006C7001201FFA80F800F0D4F8A0F108020823D2
S31508006C80D2B2514602A802F0C4F802AD6878FFF7FE
S31508006C9052FE7548007808B3606800281DD0E87869
S31508006CA0FCF779FA4946FCF77DFA074695F902009A
S31508006CB000F166050020009009F10103DBB200220D
S31508006CC0514604A802F0A5F8FFF730FE63686AB2D9
S31508006CD0394604A89847FFF72FFE98E008F0070002
S31508006CE002282DD0FF208DF80400504601F07EFFC3
S31508006CF000F1010B584601F0C7FE0446A9EB040053
S31508006D00801E46B2002E1BD45FEA885003D508F0D1
S31508006D100700032810D101A9584605F0D7FF002817
S31508006D2076D108F0070001280BD19DF8040004EB82
S31508006D300B0104F0C5F820B99DF8040001F0CAFF5C
S31508006D4066E04A499DF804000968475C48490968AD
S31508006D5000F801A000F065F800F120019DF8040094
S31508006D60C9B201F049FF9DF8040001F057FE00F092
S31508006D700C0004281CBFA619002470B280B200902B
S31508006D80631C9DF804009BB25246394602F01BFA72
S31508006D90F1199DF80400C9B202F0E7F83549687898
S31508006DA00978884204D3CD210FF2D000FDF782FE80
S31508006DB09DF8040001F02DFE69788004800C40EAF5
S31508006DC081319DF8040089B201F025FEE878FCF7C8
S31508006DD0E2F94946FCF7E6F902469DF80400032164
S31508006DE001F0F6FDA87800F166029DF80400D2B21B
S31508006DF0042101F0EDFD9DF808209DF80400052109
S31508006E0001F0E6FD9DF804A0504602F0E7FC0127D4
S31508006E10504601F05FFFFFF78FFD384625B0BDE805
S31508006E20F08F124800681AF80000704710B50C4C2D
S31508006E30618829B1C9B21D20FFF7DFFD00206080F7
S31508006E400D4802F006FAFF2803D0FFF7FBFE0028DC
S31508006E50F6D010BD084802F045BA0000C02300204D
S31508006E6010290020E92F0020CD290020F822002033
S31508006E700023002044230020C42300206D61632DD5
S31508006E80726563656976652E6300000038B5044649
S31508006E901B4D214600F03DF8E860211D00F039F849
S31508006EA0A86004F1080100F034F8686004F10C01E8
S31508006EB000F02FF8286031BD7047F8B50446114D2B
S31508006EC0114E802028600620306007202860306830
S31508006ED08007FCD5002704EB870100F01AF87F1C11
S31508006EE0042FA862F7D330684007FCD500262A6B22
S31508006EF004EB860100F00AF8761C042EF7D3F1BDE0
S31508006F00383000400030004010A00040002002F059
S31508006F104EBD002002F059BD70B504460D46FFF778
S31508006F2053F906462846FFF7B1FF2046FFF7C5FF87
S31508006F303046BDE87040FFF74DB9002848BF4042CB
S31508006F407047000081B209B94BF6EF610E4A11800D
S31508006F50000C08BF4FF6CE205080704702881304F5
S31508006F6048BF4A40510001801046704738B5064C64
S31508006F7062212046FFF7F2FF054641F20B01A01CED
S31508006F80FFF7ECFF684032BD7A240020EFF311804A
S31508006F9060288041C043C00F70470000002181F37C
S31508006FA0118870472DE9F04FDFF8FC4599B0804607
S31508006FB060681890B8F1070F08BF4FF0030804D0AF
S31508006FC0B8F1080F08BF4FF00208DFF8E055286847
S31508006FD0696840EA0120A96840EA014000906868AB
S31508006FE0400703D5E06940F00200E06128684007E1
S31508006FF003D5E06940F00400E06100982969C840BB
S31508007000C00703D5E06940F00800E0610020DFF81A
S315080070109465DFF89C953060B8F1010F00F069823D
S31508007020C0F08F82B8F1030F1ED005D3B8F1040F54
S3150800703040F08782606017E0D9F84000C00703D5A2
S31508007040E06940F04000E061D9F84000400703D508
S31508007050E06940F02000E061D9F84000800703D5D8
S31508007060E06940F01000E061FFF7AEF800F003FBBE
S315080070708DF85C004FF0000BD9F84000DFF834A516
S31508007080DFF83475DFF834151690D9F844001590F2
S31508007090DFF82C05C06C1490DFF82405006D1390FA
S315080070A0DFF81C05406D1290DFF81405806D11900D
S315080070B0DAF800001090DAF804000F90DAF81400F5
S315080070C00E90DAF824000D9038680C9078680B90CA
S315080070D0B8680A90F868099038690890786907903E
S315080070E0B8690690F8690590B86B0490DFF8D4047F
S315080070F000680968039102212160DFF8CC14096849
S315080071008DF80410DFF8C41409688DF80510DFF847
S31508007110C01409688DF806104FF0FF316162DFF878
S31508007120B4140968C9040BD56968C90708D5E169A3
S31508007130C90705D5316841F480714FF0010B3160FC
S31508007140DFF89014096889040BD56968490608D5DB
S31508007150E169C90705D5316841F480414FF0010B53
S3150800716031600121DFF86C24126852040ED5009AAA
S31508007170EB68DA40D20709D5E269D20706D5326844
S31508007180EB6801FA03F31A438B463260DFF84424AE
S315080071901268120410D5009A2B69DA40D2070BD56B
S315080071A0E269D20702D4E269120705D532682B696B
S315080071B08B46994011433160DFF818140968C903F2
S315080071C008D5E169090605D5F17841F008014FF0BF
S315080071D0010BF17000216A68D2076A6848BF4FF44C
S315080071E080515206009AEB6848BF41F40051DA40D4
S315080071F0D207009A2B6948BF41F48041DA40D2078A
S31508007200E26948BF41F40041D20605D4E269920614
S3150800721002D4E269520601D541F01001E26912066C
S3150800722048BF41F4803108400290A52000F01AFAC0
S315080072300120E063E069A16B11B1616A0142FAD0ED
S31508007240616A014200F0F2800020E0634FF0010B12
S31508007250F07840F04000F07000F054FA0720C9F8C2
S3150800726000000F20DFF85813086005F0F1FD1898A4
S31508007270D34960601698C9F840001598C9F84400C3
S315080072801498C86413980865129848651198886513
S31508007290CC491098CAF800000F98CAF804000E984E
S315080072A0CAF814000D98CAF824000C9838600B9890
S315080072B078600A98B8600998F8600898386107985D
S315080072C078610698B8610598F8610498B8630298D9
S315080072D00860BA49039808604FF0FF30BE49086055
S315080072E0B94800683070B94800687070B8480068D6
S315080072F0B070626AE06910402A69336801994B40A8
S3150800730000990B400106490E01F0010143EA812369
S315080073100106890E01F0010143EA81030106C90E3F
S3150800732001F0010101FA02F21A4300F47C7042EA04
S3150800733000503060FEF748FF00F0F2F900202060A8
S315080073409DF85C0008B100F080F9F0789D4909685D
S31508007350C90304D5C0F3C00109B120212162D9F8B7
S315080073604010890704D5C10744BF0221C9F80C108B
S31508007370D9F84010490705D5C0F3400111B10421D9
S31508007380C9F80C10D9F84010C90705D5C0F3800014
S3150800739010B10120C9F80C0030688949C96C11F090
S315080073A0E00F05D0C10503D58A4A4FF48051116014
S315080073B08349096D11F0E00F05D0410403D5854ACC
S315080073C04FF4005111607E49496D11F0E00F08D065
S315080073D0E96820FA01F1C90703D57E4A4FF48041CE
S315080073E011607749896D11F0E00F07D02969C84007
S315080073F0C00703D577494FF400400860BBF1000F7A
S315080074006ED17648006800056AD56068800767D53A
S31508007410B8F1040F64D06B480068C0063DD56D48C6
S315080074200068C00639D50120307159E0BBF1000F5C
S315080074307FF40EAFDAF81800604940084000CAF831
S3150800744018005E48806840F00400886040F2072112
S3150800745063480088884201BF614840884FF20F019F
S31508007460884205D15E494CF23C3048804FF0010B0A
S31508007470012005F027FDBBF1000F05D058494FF252
S315080074800F0048804FF0000B5448544940680004E8
S31508007490B06089680843B060E0E600F0CFF851496B
S315080074A0B0FBF1F04FF47A7148432F303021B0FB2E
S315080074B0F1F0002131714C494A6D42F001024A65EA
S315080074C00A68464B454C5B68A46844EA0343B468BB
S315080074D0A34205D10B689B1A1B031B0B8342F0D3EF
S315080074E0F07840F08000F07019B0BDE8F04FFFF773
S315080074F055BD00F0C0F80446A52000F0B3F800F02A
S3150800750001F9FFF74BFD394D2E6828684008400001
S31508007510286000F0FDF8364FD7F80080386820F06C
S315080075204000386000F0F0F8C7F800802E6000F0E0
S31508007530EFF80CB100F089F819B0BDE8F04F00F08B
S31508007540EFB819B0BDE8F04F4FF488610FF2AC0000
S31508007550FDF7B0BA11F1010F144A07D0CBB2136088
