S0120000536553616D706C655043542E733337E1
S31508002000501C00209D600208013C0208053C02089D
S31508002010A70A080100210008040303AC0056E700DC
S3150800202000000000000000000000000000000000A2
S315080020300000000000000000000000000000000092
S315080020400000000000000000FFFFFFFFFFFFFFFF8A
S31508002050FFFFFFFF00E0020800000000000000008C
S31508002060FFFFFFFFFFFFFFFFFFFFFFFFFFFFFFFF72
S31508002070FFFFFFFFFFFFFFFFFFFFFFFFFFFFFFFF62
S31508002080F02F002000000000EA2F0020EA2F002091
S31508002090501C002008D8020822630208F01200200B
S311080020A0900D002000000308003000200E
S31508002100501C00209D600208013C0208053C02089C
S315080021100D3C0208093C0208113C0208843D0208ED
S31508002120843D0208843D0208843D0208843D020875
S31508002130153C0208843D0208843D02086D3D0008EE
S31508002140553B0208843D0208B7730008843D02081F
S31508002150017D00087B710008843D0208843D020861
S315080021606B63000873330008DD2D00089121000811
S31508002170843D0208C77200080F730008BD420008B4
S3150800218005BF0008843D0208843D0208853D020813
S3150800219070B52C482C4942780B685B0725D5032A6D
S315080021A023DA838800EB4204A3810123847803FAA7
S315080021B002F222438270254C0278002A12D00025AA
S315080021C022FA05F6F60708D5AB4045705A40027064
S315080021D010EB4500808A206007E06D1CEDB2032DE8
S315080021E0EEDB02E02260032242704FF6FF700860C1
S315080021F0BFF35F8F70BD13480021017000220321D1
S3150800220041700021C1700521018100218170001DE6
S315080022100E490A604A604FF400428A601022CA607A
S315080022204861012088610320C860042106480164CA
S315080022304FF6FF7101604FF400600549086000F031
S3150800224045B80000401F002010A8004004D00040F8
S3150800225000E100E0DFF8E03433F810001040C84031
S31508002260704730B50FF29054DFF8D03434F8104088
S315080022709C601140DFF8C04434F810509543294358
S31508002280D96002221A6000221A6024F810105868D1
S315080022900028FCD130BDDFF8A824DFF8A80412789E
S315080022A0DFF8A4140AB149780EE0895611F1090F2E
S315080022B0B8BF302108DBC16D39B1C26D40F24A3171
S315080022C0B1FBF2F189B2C91E01607047E0B5DFF8CB
S315080022D07C0401880A2300F064F8BDF806104FF65E
S315080022E0FF720D20FFF7BDFF07BDF8B50546B5F52A
S315080022F0004FDFF8544419D1DFF85404018802234B
S3150800230000F04FF8BDF80000000AFF2814BF0028A7
S3150800231018206070BDF800000006C00E10281CBF0B
S31508002320001D00F098F9BDF80000C543DFF81064F9
S31508002330707808B1002005E0A089ADB26840C007F2
S3150800234001D501207070DFF80C04A58105F00104A1
S31508002350016841F400410160C5F340070FF2BC4033
S3150800236000EB44004FF440524078010389B2022042
S31508002370FFF777FF204600F053FA4022B90100F034
S3150800238005FA2D06A80E00F0010038433070FFF755
S3150800239082FF707818B1FFF799FF0020707000204F
S315080023A0F2BD7F2200A800F0B1BA2DE9F04FDFF8A0
S315080023B0AC43207887B0042304900C210B38C0B2B4
S315080023C0039000A8039A00F05FFB9DF800008DF8C3
S315080023D00A009DF801008DF809009DF802008DF8A5
S315080023E008009DF803008DF80500DFF874030078EF
S315080023F0012804D16078451EAD41ED0F00E00125A6
S3150800240000F0C4FD83469DF902000399D24F0BF1F3
S315080024100A0AABF10A065045B6BF86424FF00108D4
S315080024204FF0000801208840ADF806009DF801002D
S31508002430000604D47888BDF80610084201D04FF08B
S31508002440010800F037FE9DF8030000060AD4B88894
S31508002450BDF80610084205D19DF900005045B8BFE1
S31508002460864202DB4FF0010901E04FF0000948EA15
S31508002470050059EA000000F09E80DFF8E8A2BA4994
S31508002480DAF8000000F002008DF80400B74800688A
S3150800249000F4E06005904FF4E0600860002001F069
S315080024A008FA01F07BFCB24EADB1607858B1DAF8A3
S315080024B00000AB4940084000CAF800000120087037
S315080024C001F04CFD07E0306840F400503060306899
S315080024D020F480503060A248007801280DD101F020
S315080024E069FEDAF800009E4940F00100CAF80000CB
S315080024F000200870642001F031FD2DB1607818B90C
S315080025000498C0B201F04BFF607838B1306820F407
S3150800251080503060306840F400503060BDF80600E6
S31508002520C543B8F1000F08D002F024F88DF8010071
S315080025308DF802B0788828407880B9F1000F08D065
S3150800254002F0C9F88DF803008DF800B0B888284065
S31508002550B8809DF900009DF90A10884202BF9DF8CF
S3150800256001009DF8091088420BD19DF902009DF9DA
S315080025700810884202BF9DF803009DF8051088429E
S3150800258006D00399042300AAC9B20C2000F08DFADC
S3150800259005987649086000F0BDFA9DF8040001F038
S315080025A088F902F0B8F9607828B148F260703060AE
S315080025B0642001F0D3FC9DF8010001F047FF9DF867
S315080025C0030002F083F807B0BDE8F08F80B500F08D
S315080025D0D0FCBDE80140E8E600F0CBBC70B5064685
S315080025E0A6F10B0401F0C6F80546A6F10B00102863
S315080025F001D38A2070BD5F488168090702D4006844
S31508002600C00701D58C2070BD544806705A48016829
S315080026100C290FD00FF27811584A92F90020A4B26B
S3150800262031F824105118C161FFF7BFFE012D08BF0C
S3150800263001F031F8002070BD10B5044600F099FC91
S315080026402046BDE81040C9E74448007870473E4830
S3150800265090F9000070472DE9F041044614F12B0F5C
S3150800266086B045DB464801881423FFF79AFEBDF875
S3150800267010004FF6FF71884203D0400448BF012678
S3150800268006D43F2200211020FFF7E4FD0546002668
S3150800269004F12B022F2A2C483A491AD213220FF298
S315080026A0301300E0521ED2B213F91270BC42F9DBA5
S315080026B003EB4204032764780C60002413F8121015
S315080026C0017000208046AEB1BDF810104FF6BF72FB
S315080026D029E0092C0CDA225C0A60047014232A48C3
S315080026E00188FFF75EFE01240320A0462827EAE7B3
S315080026F08B201DE0C1024FF4605200F047F84FF4FA
S31508002700E062210200F042F880224FEAC81100F088
S315080027103DF885F020003D18ADB2402DA8BF3F25F5
S315080027203F2285F0200100F031F8FFF7B4FD0020C4
S3150800273006B0BDE8F0810000942B0020E8100040A8
S31508002740BB2F0020641000408C1E0020EECF02082C
S31508002750FACF02081C100040C22E0020881E002056
S31508002760F01E00208020004080E100E000E100E04B
S31508002770D010004060200040AC100040BA2F002066
S31508002780EACF0208C0100040ECCF02080B2068E52B
S31508002790AA2129005523290000252800AA26270052
S315080027A055282700002A2600AA2B2600552D250085
S315080027B0002F2400AA3024005532230000342200BA
S315080027C0AA3522005537210000392000AA3A2000F0
S315080027D0D500E601EC02EF03F204F405F506F70767
S315080027E0F808F909FA0AFB0BFC0DFD0FFE11FF1399
S315080027F000160119021C031F1000110020003000EA
S315080028004000410050006000700080009000A00069
S31508002810B000C000D000E000F00000000000010396
S31508002820F0B5044689B0002001F030FB264801883F
S315080028300A237F2200A800F069F8BDF802004FF6C7
S31508002840FF75A84204D1DC210FF2940002F09CF82F
S315080028500FF2A407002601E02A4616B94FF47C4277
S3150800286003E0022E08BF4EF23F0200A800F032F83D
S31508002870761C052EF0D3012C03D114237F2213488E
S3150800288002E014237F221248018803A800F03EF8CC
S3150800289000260FF26C072A4608E02A46012E08BFD2
S315080028A04FF6C07202D0082E08BF002203A800F017
S315080028B011F8761C0A2EF0D3012C04BF012001F072
S315080028C0E5FA09B0F0BD0000EECF0208ECCF020829
S315080028D0EACF020830F81610F05DFFF7C2BC000018
S315080028E0616E616C6F6775652D63656C6C2D6269C9
S315080028F061732E630000000000100C0D0E0000002E
S31508002900010203040708090A0B0F000030B5044644
S3150800291010467F2808BF0020B1F5004F83B01AD1B2
S3150800292008237F2240F6120100A8FFF7EFFF0822CE
S315080029300FF2C40100A802F06FF930B908237F220C
S3150800294040F2A27100A8FFF7E1FF082200A920467D
S3150800295002F018F937BD204D294300FB03111A462A
S31508002960204602F00FF937BD2DE9F0440C461A4906
S315080029700FF2780A41EA0006C007154602D5622119
S3150800298000F030F8E80702D5632100F02BF8134869
S31508002990864204D3A819401E1149884202D36421ED
S315080029A000F020F8002706E0B85DFF2802D06B216A
S315080029B000F018F87F1CAF42F6D36A082146304665
S315080029C002F094F928B15046BDE8F044712101F0AF
S315080029D0DBBFBDE8F0840000000004080008040816
S315080029E000100408504601F0CFBF00006D66672D41
S315080029F0746F6B656E2E6300FFFFFFFFFFFFFFFF1F
S31508002A0030B50FF20C11DFF8F8500A6883B001A848
S31508002A100024026001202870002002F0ADF930B1D0
S31508002A20002002F0A9F910B12C7049203EBDDFF84C
S31508002A30D400018802237F220DF1020000F024F859
S31508002A4002237F22002100A800F01EF8204601A9D3
S31508002A50BDF8022031F81010914208BF0124401C2D
S31508002A600228F4D3BDF8000024B1B0F57F7F07D162
S31508002A7000203EBDB0F57F7F0CBF0620042000E095
S31508002A800720002129703EBD10B5FF2908DCDFF8B4
S31508002A907040247844B1BDE81040C9B202F078BC51
S31508002AA0BDE81040FFF732BF10BD2DE9F0410546DD
S31508002AB0FF2D0E46174698460FF24C0012DC104CB6
S31508002AC02178A1B1617811B1C02101F05DFF012023
S31508002AD06070434632463946E8B202F0C3FD00202C
S31508002AE0607004E0BDE8F041CB2101F04DBFBDE8C0
S31508002AF0F08103490978002918BF02F0B6BE70476D
S31508002B00B62F0020F6CF0208746F6B656E2E630031
S31508002B10FE01FD0210B5DFF840451020206302F0E3
S31508002B2059FFDFF838150A6842F001020A6002F018
S31508002B3057FFDFF82C0500F108016160216092302B
S31508002B4061688931616001212163E060A060DFF876
S31508002B501415E0688930E060022020634FF6FF70A4
S31508002B60086010BDDFF8000545F26401C1601E214A
S31508002B70416250210162C821C1618165F021C165A8
S31508002B8045F690014166882181660621C16644F2B0
S31508002B90066101604FF6FF714160DFF8D0040078E6
S31508002BA038B1DFF8CC0448F2607101604FF4C151C6
S31508002BB04160DFF8C004016841F0040101600020AB
S31508002BC0DFF8B414487070472DE9F84FDFF8901411
S31508002BD08A2202FB001202F10806721C04275378A7
S31508002BE0127802EB03221FFA82F808F44062B2F563
S31508002BF0006F044608F4404B08BF082703D0B2F517
S31508002C00406F08BF0E27BBF1000F04D05FEA486289
S31508002C105CBFBF1CFFB2DFF8642412784A70401804
S31508002C20009000200099887008F0270023285ED1BC
S31508002C30DFF84C54686E000659D5B819BBF5404FF5
S31508002C404FF480694FF4006A03D102F01AFF014677
S31508002C5016E0BBF5004F40D14078B95D01EB002086
S31508002C6080B203F09BF90021FF2808D0DFF814246E
S31508002C70126832F810004FF4FE62104200D00121AB
S31508002C8059B35FEA08701AD4BBF5004F08BFBF1CDA
S31508002C9003D0BBF5404F01D10837FFB27808002CA6
S31508002CA014BF69682968814217D3002C14BF696864
S31508002CB02968421C9142F8D3B85D04280DD1E86D05
S31508002CC0C00606D400F015F803D0686C40F0010081
S31508002CD0686401200099887009E0E86DC00606D589
S31508002CE000F007F803D0686C400840006864BDE847
S31508002CF0F18FA86C04B1D14610EA090F70472DE987
S31508002D00F04E0446DFF85863DFF874538A2000FB58
S31508002D10046000F1080B002C0CBF28686868C1B273
S31508002D20052903DA7068401C706055E040005FFAB8
S31508002D3080F909EB0B00A0F108073878797801EBE0
S31508002D4000201FFA80FA7078387003F0F6F9787068
S31508002D50CD4FF86B20F48050F863686E14B9386864
S31508002D60400504D4012C1FD1386800051CD5C74876
S31508002D70017889B1002101701AF4E45FC44801683A
S31508002D8002D00022402005E09BF80100000900F06F
S31508002D9001028F2003F04FFA002C0CBF4FF480601D
S31508002DA04FF40060386012E01AF4E45F0FD100F0C7
S31508002DB07DFD10B15FEA4A4009D59BF800008028DE
S31508002DC005DAA01949468278584603F0F9FA002C24
S31508002DD00CBF012002202861BDE8F08E2DE9F84FCE
S31508002DE0A04CA74E2068216CDFF8A8A2DFF89C82C9
S31508002DF0DFF86C92A84F01EA00051AE040B148785E
S31508002E00C00605D4A248016800228F2003F013FAF1
S31508002E10280605D503F068FA802025F0800520608D
S31508002E20E80506D503F060FA4FF4807025F480753E
S31508002E302060002D68D0280706D50020FFF7C4FEBD
S31508002E40082025F008052060E80606D50120FFF7CA
S31508002E50BBFE102025F01005206005F060006028F4
S31508002E6003D1B06CC0050AD401E0A80605D5202018
S31508002E70206025F02005002006E0680606D54020DB
S31508002E80206025F040050120FFF739FFE80410D53A
S31508002E904FF48050206025F48055D7F800B00820FC
S31508002EA038607868000548BF00F03CF91FFA8BF0D7
S31508002EB03860E807ACD5012020606D0899F8000055
S31508002EC06D000028A4D000F06AFC0128A0D198F86B
S31508002ED0000000289CD09AF80000042898D1F068D1
S31508002EE0400800F001008A2101FB00910831002802
S31508002EF014BF7268326812B92268D204F7D500285E
S31508002F0014BF7068306879E700202060BDE8F18F4B
S31508002F10624800687047F0B504460D4689B000213E
S31508002F20032001F0A1FC04AE1BE0002701F0B7FC6A
S31508002F3026F8170001F0B3FC00A921F817007F1C3A
S31508002F40082FF3DB04A803F0DDFB0020208021888E
S31508002F5036F810205140401C08282180F7DB6D1EEA
S31508002F60A41CEDB2002DE0D101F0D5FC012009B07A
S31508002F70F0BD0321022001F077BC4FF6FF71081A55
S31508002F80292190FBF1F03A3040B2704738B501F08C
S31508002F9086FCFFF7F2FF424D04462878B0B90321B4
S31508002FA0032001F061FC3F48018802237F2200A824
S31508002FB0FFF7ACFC01F073FCBDF80010401880B2B6
S31508002FC0FFF7DBFF153868700120287001F0A3FCB5
S31508002FD06878201A40B232BD80B50321022001F07C
S31508002FE043FCBDE80140D1E770B52F4800780024BE
S31508002FF090B9FFF7F1FF204E0546707848B1307852
S31508003000401B40B203F08FFB0B2805DB357001240B
S3150800301002E0012035707070204670BD23480078A4
S31508003020704722490A78904200D1704780B50870E7
S3150800303040B11F49002008600848016821F0800156
S31508003040016001BD00F069FC00F03FFC00F0F1FBF7
S31508003050BDE8024000F0D5BB0020004084200040B7
S315080030604C2C002000A000404C100040891E002077
S31508003070D010004080200040D02F0020881E00205D
S3150800308020200040EC1C002004A00040842D0020D5
S315080030908C2D0020EF1E0020B8200040382000406C
S315080030A0CE2F0020F4CF0208F01E0020D22F0020D9
S315080030B05410004010B50D48018884B00A237F22B9
S315080030C000A8FFF723FCBDF800004FF6FF74A042E6
S315080030D004D14E210FF2180001F056FCBDF800107D
S315080030E022460020FFF7BDF81FBD0000EECF0208FC
S315080030F0616E616C6F6775652D66696C7465722E95
S3150800310063000000DFF81C08007848B1DFF81808EB
S315080031100179012904BF4079042801D101207047AB
S3150800312000207047DFF80408016821F48051016027
S31508003130DFF8FC07017881B100210170DFF8F41788
S315080031400A68520852000A600A6842F001020A60D8
S3150800315000228168402003F06EB870470FF66C01B4
S315080031604008405C7047010603D54FF67F7108405A
S31508003170C0007047491C800189B2B0FBF1F080B2EB
S31508003180FF288CBF0020C0F1FF00C0B2704738B5D9
S31508003190DFF89C07C178012901D1002032BDDFF88C
S315080031A09C47617871B1E178407945182079ADB2CC
S315080031B0854228BF054603F0CFFA0121A940491EDA
S315080031C0084000E0002061790818C0B232BD2DE938
S315080031D0F0470446C00705D540F271110FF2DC70BE
S315080031E001F0D2FBDFF85857286DC00748BF8C207E
S315080031F000F19480DFF83807DFF840770021017185
S3150800320001704178B1B93978A1B12178122918BF6E
S315080032100C290BD1627802F00702032A02BF0919AA
S3150800322011F8021C042904BF01210171A96F41F09C
S31508003230010102E0A96F49084900A967DFF8E88695
S315080032407A7898F80610DFF8FC96DFF8FC6692B1F3
S31508003250002242710129286D40F00400286506D134
S315080032604FF6FF7030604FF40070C9F80000FFF7A2
S315080032708EFF82460CE0286D20F00400012928659F
S315080032804FF0000A04D100F043FA642000F066FE0D
S31508003290A86F20F00800A8671420E864C5F848A0BD
S315080032A0787838B198F80600002801BFA86C00287D
S315080032B00120A864B8790028286D14BF40F00800DA
S315080032C020F008002865FFF71DFF18B1306C40F0A4
S315080032D008003064202028626C602C604FF4E0649B
S315080032E068687F30686004202862DFF8600604603A
S315080032F006E003F041FA18B103F046FA02F06AFB59
S31508003300DFF84C06006800F003000328F1D0C9F87E
S315080033100040286D40F0010028650020BDE8F087D0
S31508003320DFF83006002141608160016821F0020162
S3150800333001604FF00070DFF8201608600120DFF802
S315080033401C1608707047A0F13301DFF81426914265
S3150800335000D3704710B5DFF804460021217000F04D
S3150800336082FB02E0012003F013FA20780028F9D046
S3150800337010BD2DE9F84FDFF8EC65DFF8B455706835
S31508003380716CDFF8BC7508401FFA80F8C6F804802F
S315080033906878002840F0DD805FEAC870DFF8C84525
S315080033A0DFF8989553D5D7F800A0386C796C41EAC0
S315080033B0004199F80000A960002844D09AF8010055
S315080033C0800640D5012028704FF480503060306C5C
S315080033D040F480503064FFF795FEC0B3192000F022
S315080033E0BDFD4FF44040DFF884B5CBF82800DBF884
S315080033F000000090E06E40F40050E066E06E40F495
S315080034008050E0669AF80010A8684901B83101EBC7
S31508003410000AFFF77DFDAAEB00000003000BFFF78B
S3150800342092FFE06E80098001E06600A9E06E0988D7
S315080034300843E0660020CBF8280048F26070E06692
S31508003440E888206003E00022002002F0F4FE5FEA2C
S3150800345008600CD5287830B1002028700022A968A9
S31508003460402002F0E8FE306C20F4805030645FEAB9
S31508003470486008D5687830B9FFF74AFD014600224A
S31508003480892002F0D8FE5FEAC86054D5DFF898A410
S31508003490DFF8B0B49AF80400012804BF9AF80610B9
S315080034A001291FD100F086FE386F40F00100386709
S315080034B000208AF80600FFF72DFB0A2000F04EFDD3
S315080034C04FF6FF7070604FF000084FF4E060CBF8DD
S315080034D000000920B8660120B864B86F40F00800FB
S315080034E0B86718E0697999F80220491C6971C9B268
S315080034F0914215D2012808BF00F0CDF8B86F20F028
S315080035000800B8671420B866FFF741FEB8644FF4A0
S315080035100070CBF80000386D40F0010038650AE00D
S31508003520012808BF00F0B7F8FFF7F2FC01460022B1
S315080035308D2002F080FE5FEA08700AD5FFF7E2FDEB
S3150800354038B12068E88001202060706C20F00800FF
S3150800355070645FEA88600AD520203862687830B9D6
S31508003560FFF7D6FC01460022882002F064FE687840
S3150800357020B118F4407F04BF0120A870BDE8F18F80
S3150800358070B582B00446FFF727F8DFF8EC03DFF8DA
S31508003590A453002101601521E960092101651F2155
S315080035A0416001210166DFF8CC030088FEF79DFE25
S315080035B0FFF7D8FA03F01CFC00F03EF9DFF8686361
S315080035C0308900F066F9708900F06BF902F002FAAA
S315080035D0696841F04001696002F002FA707800F00B
S315080035E000F9B07800F00DF9DFF89003007800F0E4
S315080035F03AF9DFF88C0390F90000FFF72CF83078D9
S3150800360000F057F996F9030000F05FF9DFF8740344
S3150800361000F07DF9BDF80000DFF86C13C0054CBF5B
S315080036200020BDF800000870DFF860030078FEF798
S31508003630D5FF28B10FF2843040F2B73101F0A4F972
S31508003640012C05D12868C00711D500F024F80EE032
S315080036506CB92868C0070AD400F0ACFD286840F0A9
S3150800366001002860C82000F079FC0020B071F12024
S31508003670DFF8D442206440F2F910E063FFF74AFA13
S315080036802868C00704D54FF6FF70206000F06DF873
S3150800369000F084FB73BD70B5DFF8F452DFF888429A
S315080036A02E68A079012832D002F094F948F2D001A8
S315080036B029606A68520509D548F222022A606A68B2
S315080036C0D205F5D529606A685207F1D4B6B2DFF893
S315080036D07C222E604FF4E0611160DFF894120A6ACA
S315080036E0520852000A620A68520852000A600A68BA
S315080036F042F002020A604A6A42F001024A62012165
S31508003700A17102F06DF9BDE8704000F018BD70BDFA
S3150800371070B5854CA07938B300F04CFD02F05AF923
S315080037200546DFF87012844E01200860306D40F0BF
S31508003730010030650020A071FFF7ECF92020306009
S31508003740306B40F002003063F06D40F00800F06521
S31508003750284602F045F90A2000F000FC7A494FF69F
S31508003760FF70086000F001F870BD4FF4E06075491D
S31508003770086070476C488079704710B56A4CA07924
S3150800378028B140F2AD410FF2342001F0FDF820795E
S31508003790012804BFBDE81040FFF77DBF10BD624891
S315080037A00079704780B5022801DB012002BD5E4919
S315080037B008718979884205D010B9FFF7A9FF01E099
S315080037C0FFF769FF002002BD7348006880020014F5
S315080037D09A3801B211F1800FB8BF6FF07F0040B27E
S315080037E0704710B5044602F0F5F86C490A68002CD3
S315080037F014BF42F0120222F012020A604A494C70C3
S3150800380040E038B5044602F0E5F80546FFF706FC41
S3150800381040B962480168002C14BF41F0800121F0CC
S3150800382080010160404884702846BDE8324002F0B5
S31508003830D7B83D488078704759494A780B7859482F
S3150800384003EB022202608B78CA7803EB02224260FD
S315080038500B794A7903EB02228260CA79897901EBEE
S315080038600221C160704710B5044602F0B3F84B490F
S315080038700A68002C14BF42F0200222F020020A60D7
S315080038803E490C70BDE8104002F0AAB826480089E7
S31508003890704725490881444908607047224840898D
S315080038A07047214948814149086070474048007877
S315080038B0704720490A68002814BF42F0020222F025
S315080038C002020A6018490870704738B504467F2C0A
S315080038D00AD1384800F01BF8BDF80000C00554BFEF
S315080038E0BDF800406FF04A0402F074F80546FFF789
S315080038F095FB30B964B204F19A0080052E49000C94
S3150800390008600948C470284602F06AF831BD018883
S3150800391002237F2200A8FEF7F9BF034890F90300A7
S3150800392070470000D72F0020EA1E002040A0004064
S31508003930842D00208020004030200040C41E002036
S315080039401020004000E100E004A0004080E100E013
S31508003950A820004010E000E004ED00E0D82F002089
S31508003960CDFF070000A0004064100040E4100040AE
S3150800397060200040981E00205C100040D62F0020D2
S315080039808C1E002000D00208BA2F0020881E0020B6
S315080039901C100040281000400C10004084200040F5
S315080039A0FC2B0020982000409420004090200040E6
S315080039B0E81E002004D00208541000407068792DD3
S315080039C0636F6D6D6F6E2E6300000000FEF7C80111
S315080039D0DFF838145120086070472DE9F041054694
S315080039E003F01AFADFF82814B0FBF1F64FF4F0707A
S315080039F0B0FBF6F71E2D3FB201DBE81B04D5A8B2D3
S31508003A00BDE8F04100F0AABA01F0E4FF804603F0F1
S31508003A106FFADFF80014DFF8002401204870072148
S31508003A20DFF8F80300F041F8E91B09B27143C91C35
S31508003A308908491EDFF8E853416000F0BDF8DFF851
S31508003A40CC733C68386820F04000386003F052FABE
S31508003A503C602E6003F052FA03F058FA4046BDE87F
S31508003A60F04101F0BDBF38B5054603F0D5F9DFF8DA
S31508003A70A013B0FBF1F44FF4F070B0FBF4F02D1A7C
S31508003A801E2D04DA98210FF2D83000F07DFFDFF8FA
S31508003A908C03DFF88423072100F007F805FB04F1FF
S31508003AA0C91C8908491E416031BD01600021416079
S31508003AB081604FF0007111607047DFF858230121CB
S31508003AC05170D0E7DFF85C03006800B970472DE94C
S31508003AD0F041DFF85453DFF8546300242C60346057
S31508003AE04FF4A040706041F29A084046FFF775FF10
S31508003AF06F6803F099F9000142F21071B0FBF1F01A
S31508003B0000F5C870C01B00B24FF4487190FBF1F085
S31508003B1000B20828A8BF072004DA10F1080FB8BFBA
S31508003B206FF0070030604046FFF757FF082740460A
S31508003B30FFF753FF686804197F1EF8D103F074F97C
S31508003B40211D4001C908B0FBF1F080B27060BDE8E4
S31508003B50F081DFF8D002006800B9704738B5DFF8A1
S31508003B60D05201206FF00F04A8602C608020FFF768
S31508003B7034FFE868FF2802D8641C102CF5DB31BD39
S31508003B8070B5DFF8B002016841F00101016001215A
S31508003B90416001F01FFF0446DFF8845200F00CF87C
S31508003BA05120DFF8681208602E6003F0A7F9204656
S31508003BB0BDE8704001F014BF2E6828684008400030
S31508003BC0286003F09BB9002070472DE9F041954C19
S31508003BD0904D226840F2DC51012A8846964E974F4E
S31508003BE017DA0221B9803160B16901F003010329AE
S31508003BF05BD02168002903D5B16941F00201B161A2
S31508003C00FFF7E1FF5FEA00081BD1206800284CD5C2
S31508003C1049E0B8884FF6FF74A0421DD1884801884C
S31508003C2002237F22381DFEF771FEB888A04204BF22
S31508003C300220B880B069800703D4B06940F002005A
S31508003C40B0610120A870B88830600FFA88F0FFF7D5
S31508003C5034FF4046BDE8F081B3699B07EDD5AB78E4
S31508003C600BB10846F6E7B168B36811F0010103D154
S31508003C700F2809D2401C06E09B0705D53B781BB1E7
S31508003C80032801DB2018B880B88839700228BCBF21
S31508003C900220B8803068B9888842D2D1B06900F06D
S31508003CA00300032801D0FFF76BFF0020D2E72DE9B8
S31508003CB0F04780460024554D594E01F08BFE81464B
S31508003CC003F016F94046FFF780FF08B901240AE019
S31508003CD000F05DF8D5F800A000F0BCF8C5F800A023
S31508003CE0376003F00BF903F011F9484601F078FE46
S31508003CF0002CE2D0BDE8F0870220D8E710B5474887
S31508003D00444C002141608160016821F00201016094
S31508003D10002060704FF000703F490860A07838B105
S31508003D200020A0700620FFF74EFF00F02BF81CDBE2
S31508003D30E078012814D14348012101604249096805
S31508003D40C90748BF03200FD40221E170016C41F076
S31508003D500101016404203D4908603D49086010BD21
S31508003D60E078042801D10520E07010BD80B5294807
S31508003D70407800281CBFBDE80140FFF7BFBFFFF72A
S31508003D80CFFA01BD2748006801287047244E3768D6
S31508003D90306840084000306003F0B0B82DE9F843B9
S31508003DA01C4C207800282DD0207900282AD1FFF72E
S31508003DB0E9FF1FDA40F2F7310FF2A40000F0E4FD44
S31508003DC018E001F007FE804603F092F8E07805282F
S31508003DD00BD0FFF7DBFF0D4DD5F8009000F03AF851
S31508003DE0C5F80090376003F089F803F08FF840466D
S31508003DF001F0F6FDE0780528E3D10020A070052043
S31508003E00FFF755FF00202070BDE8F18300800040D1
S31508003E1090D00300C82F002004ED00E010E000E079
S31508003E2094ED00E00CCB0208104000400C00004066
S31508003E30084000401C40004004400040DC1E0020B2
S31508003E40FECF020818A000400C40004080E200E0C7
S31508003E5000E100E0286820F04000286003F04AB836
S31508003E60636C6F636B732E630000000010B5664CBD
S31508003E70002000F056FD40F68C2188422068B4BF29
S31508003E8040F0080020F00800206010BD10B5044678
S31508003E905E48018882B000F05CF89DF800109DF835
S31508003EA00100FF2902BFFF280420002104B1801C5D
S31508003EB0574A1368C0B20828A8BF072023F46073BE
S31508003EC043EAC010106008291068A8BF0721C00877
S31508003ED041EAC00010604F48047013BD00B54E4853
S31508003EE0018883B000F035F8BDF800004FF6FF7181
S31508003EF088420EBF4FF4E1600A2190FBF1F0ADF85D
S31508003F0000004448007808B34048018802237F220D
S31508003F1001A8FEF7FBFC9DF80500BDF80030FF2858
S31508003F2008BF0420811CC9B20829A8BF0721C1F10E
S31508003F302F0202EBD272C0F12F00521000FB0320B1
S31508003F40C1F12F01B0FBF1F0ADF80000BDF800009B
S31508003F500EBD02237F2200A8FEF7D8BC70B52F4CF1
S31508003F602568064602F060FF2D49B0FBF1F0704364
S31508003F702F303021B0FBF1F0032809D3616D41F0F1
S31508003F80010161652168491B0903090B8142F9D3BF
S31508003F9070BD10B5040004D110BD4FF47A70FFF758
S31508003FA0DDFF2046441E80B20028F6D110BD7047BA
S31508003FB038B50C4620B101280FD0032820D021E0BF
S31508003FC0184D44B102F030FF1749B0FBF1F0401E1E
S31508003FD0B0F5005F0CD2286012E04CB102F024FF65
S31508003FE0610801EB4000B0FBF4F0B0F5003F01D3E7
S31508003FF0202032BD0D4900F001024A6040080860E1
S31508004000002032BD212032BD00BC0040F0CF02089E
S3150800401018000040BD2F0020F2CF020838200040CB
S3150800402090D00300100004E020A1070068C80040F3
S3150800403038B50120FFF7C9FD0020FFF727FFDFF895
S31508004040A442206840F00800206002F0F4FEFFF762
S315080040500DFF00F020F88D78DFF88C32DD600D89D1
S3150800406005604D89456000F020F8206820F01000B2
S315080040702060FEF7C0F803F07FF803F0DFF8FFF7DB
S315080040803BFE02F0D6FEBDE8314002F0F2BE40F239
S31508004090016003F06FB9DFF85412DFF854020A78AA
S315080040A0C2604B78934AD360704788891060C88984
S315080040B05060088A1860488A586040E0F0B50B6876
S315080040C08D4C0F256468960005FA06F6344215D01D
S315080040D0002606EB820724FA07F7FF070BD5B70079
S315080040E005FA07FC23EA0C0330F812C005FA07F7AD
S315080040F007EA0C073B43761C042EEADB0B60F0BD8F
S31508004100F0B50B687C4CFF256468D600B5402C4298
S3150800411013D00025012605EBC20724FA07F7FF0787
S3150800412008D506FA05F7BB43175C06FA05FC0CEA40
S3150800413007073B436D1C082DEDDB0B60F0BD10B582
S315080041406D48017801F0FD010170C90703D56B4A76
S315080041504FF4004111604068002827D000F066F847
S31508004160201DFFF7CDFF01226549201DFFF7C8FF77
S3150800417002226449201DFFF7C3FF00225C4900F0B4
S3150800418016F80122604900F012F80222594900F097
S315080041900EF803225D4900F00AF80422524900F09D
S315080041A006F804F11400BDE8104046E010BD04F11D
S315080041B0140083E738B5504C207840F00200207090
S315080041C0C00707D54D484FF40045056000F076F85E
S315080041D04F4805606068002827D000F027F8204679
S315080041E0FFF78EFF012246492046FFF789FF022284
S315080041F044492046FFF784FF00223D4900F01AF89B
S315080042000122414900F016F802223A4900F012F854
S3150800421003223E4900F00EF80422334900F00AF85A
S3150800422004F10800BDE8384007E031BD2F4C394994
S315080042300022704704F1080040E7052236493DE7A9
S315080042400320FEF756BC80B503F09DF90FF2D401A2
S3150800425009E080B503F09BF90FF2F4010204120E8F
S3150800426051F82210C0B201EB800002BD0000000028
S3150800427010B503F088F9044603F089F9C0B208B905
S31508004280012C07D1072C11D8DFE804F00410060822
S31508004290080A0C0E002010BD092010BD022010BD12
S315080042A0032010BD0B2010BD062010BD44F0800071
S315080042B010BD1148007800F0010070470E491748F4
S315080042C00978C9070BD54FF40041C1600821016080
S315080042D013480068800900F00100FEF7A2BE082115
S315080042E00160704700BC004000B80040BC1D0020BB
S315080042F000B0004000B400401822002080E100E031
S315080043000CB400400CB8004004B0004004B40040AF
S3150800431000E100E00CB0004004B8004014A80040DA
S3150800432008B00040554E4B004649420042544C00E6
S3150800433045585400505752005744470020535700D9
S31508004340435253004653480042414400464C5400E9
S3150800435010CB020814CB02086CCB02088CCB0208DF
S3150800436094CB0208A0CB0208ACCB0208B8CB020853
S31508004370C0CB0208CCCB0208DCCB02082A490A6863
S31508004380920992010A600A68104308604FF40041D6
S3150800439026480160002101606420FFF7DFBD2DE992
S315080043A0F047234D204FD5F80090224C80462868C8
S315080043B040F400402860386820F48050386020783F
S315080043C068B162781C48A17800EB820200EB88008D
S315080043D012F82A2C10F82A0C891A461802E001202D
S315080043E020262070B0B2FFF7C9FF0FF2500A02E08C
S315080043F0B0B2FFF7C3FF386B042805D0386B400707
S3150800440054BF761E761CF3E7F86A38B184F8018043
S31508004410A6701FFA89F02860BDE8F08740F22111DE
S31508004420504600F0B1FAE6E7D010004018100040F8
S315080044301C100040D32F002090270008616E616C85
S315080044406F6775652D76636F2E63000081014FF4E3
S31508004450FE5289B20C20FDF704BF2DE9F84F8F4CA8
S31508004460A56820680127ADB200264FF00A08B946AC
S315080044701FFA80FA00F04FFAB0202063DFF820B266
S3150800448008E016F1190FB8BF4FF00A08464436B2CD
S315080044907019A060DBF80000000702D559EA07008A
S315080044A028D00120FFF75AFDB9F1000F11D0AAF163
S315080044B00300874202DAF81C87B213E00AF50040C7
S315080044C0206057460621092000F0CEF94FF0000972
S315080044D00BE0DBF80000000707D5042FA6BFF81E7F
S315080044E087B2002707F5004020601A2EC9DB6FF057
S315080044F00908CBE7A560C4F800A00820CBF800009F
S315080045006848006880B2BDE8F28F80B5624B66499C
S315080045101B784FF0FF326BB1002819BF4A60634819
S31508004520486041F211100860614841880088BDE87A
S31508004530044092E7002819BF4A600A60486008608C
S3150800454000F0E9F9BDE804400621092000F0DDB9CC
S3150800455038B50120FFF7D9FF04460020FFF7D5FF3D
S3150800456005460120FFF7D1FF4042001B00EB45003E
S3150800457000B232BD2DE9FE4F4E4CDFF83C81A06AF1
S31508004580454EADF802002568D8F800B0307860B11D
S315080045904FF6FF7200210820FDF75CFEADF800001B
S315080045A0C022C0210820FDF75CFE4448DFF81091C0
S315080045B0007818B148F26070C9F80000708840F4B5
S315080045C0404040F04C00C9F83C000220A06201209F
S315080045D0206040F24C40FFF7C1FC0120C8F80C00EF
S315080045E0C8F800000020324F3880402078803078A4
S315080045F000B12020FFF72AFFFFF7AAFF82464020D6
S3150800460038807F207880FFF721FFFFF7A1FF02900F
S31508004610504602F088F8FE2101FB00F70298AAEB43
S3150800462000000190307860B1029802F07CF882466A
S31508004630019802F078F880B207EB8A11B1FBF0F026
S3150800464005E0019802F06FF880B2B7FBF0F080B28F
S31508004650401CC7031FFA8BF0C8F80000ADB2002053
S31508004660C8F80C00022020602560BDF80200A06290
S315080046700020C9F83C00307830B1BDF800104FF67C
S31508004680FF720820FDF7EDFD40F24C40FFF766FC8F
S31508004690380CBDE8FE8F0000E41E0020C010004064
S315080046A018A000400070004038100040EEEEFFFFF2
S315080046B0942F00206020004028100040891E00200A
S315080046C0D010004041003F2289B201E001463F2256
S315080046D00220FDF7C6BD2DE9F04F564C564D95B054
S315080046E0E06CADF810004FF6FF782068ADF80E00C4
S315080046F04246E86AADF80C0000210120FDF7AAFD44
S31508004700ADF80A00424600210B20FDF7A3FDADF8DF
S3150800471008004FF40040206000202861686148F2D4
S31508004720020000F08BF84CF68C30E0644FF48052AF
S3150800473048F2F000E86211460120FDF792FD424674
S3150800474000210B20FDF78DFD0621062000F0DDF87F
S31508004750019000F085F800904CF69C30E06400204B
S31508004760FFF7B0FF0621084600F07EF800260DF197
S31508004770140BB0B2FFF7A6FF0621062000F074F866
S3150800478000F08DF82BF81600761C202EF1DB00F0D1
S3150800479086F81020FFF796FF00F062F80099019A54
S315080047A0401ABBF82010891A404301FB01094FF053
S315080047B0100A112700F04EF800F052F800F043F8FE
S315080047C006DB81461FFA87FA781C07B2202FF1DB31
S315080047D0BAF1100F0ED10F2700F03CF800F040F8A0
S315080047E000F031F806DB81461FFA87FA781E07B211
S315080047F0002FF1D5BDF81000E0644246BDF80E0062
S315080048002060BDF80C00E8620120BDF80A10FDF72B
S3150800481028FDBDF8081042460B20FDF722FD0120B1
S315080048202861002000F00AF84FEA4A00C0B215B025
S31508004830BDE8F08FC010004018100040286040F214
S315080048404C40FFF78BBB0099401A404306FB060015
S31508004850484570473BF817000199461AB8B231E740
S315080048600621072000F051B870B505460E4602F03D
S315080048703FFB3D4C206C20F00800206402F046FB0C
S3150800488001F0A8F8310341EAC511384A41F001019F
S31508004890116008212160BDE8704001F0A1B82DE93A
S315080048A0F041334C334D304E25E002F021FB3249BE
S315080048B004200860306C40F0080030642F682868CF
S315080048C040084000286002F019FBD4F800802068F0
S315080048D020F04000206002F00DFBC4F800802F6035
S315080048E002F00CFB306C254920F0080030640420E7
S315080048F0086002F00BFB30680007D6D50820306048
S315080049001F48006880B2BDE8F08180B5FFF7ACFFAC
S31508004910BDE80140C3E71548016849084900016038
S315080049207047F8B50746FFF7D9FA04463946032013
S31508004930FFF7EBFF054639460120FFF7E6FF064677
S3150800494039460020FFF7E1FF08490A685208520075
S315080049500A60401B0004711BB0FBF1F06043400085
S31508004960000CF2BD0000000018A0004004700040D2
S315080049700080004094ED00E000E100E080E200E005
S315080049800070004042DE704738B504460D4602F016
S315080049905BFA01F01FF82946204602F02EFE2B4648
S315080049A022460FF2CC11012003F099F82946204639
S315080049B0BDE83440E6E72DE9F84F6548654D0168DE
S315080049C02E1D4FF4206A7165016AB165624909684E
S315080049D0F165416A3166816A7166C16AB166016BC1
S315080049E0F166806B306796F8340040074CBFF76B6A
S315080049F0B76BBB4602F05DFD0022584CDFF86081BC
S31508004A00DFF86091F2648742014624BFA4F12003CF
S31508004A10BB4231651DD357F8180F306457F8040F99
S31508004A207064706DC005C00D062815D1306C4845F8
S31508004A3012D3404510D200884DF6426290420BD1FF
S31508004A4005F18C006A68426040F2017A72688260F9
S31508004A5002E03264726483464348814202D20146C8
S31508004A6000E0091DA14203D20B68B3F1CD3FF8D08F
S31508004A70601AB064182105F1780003F071F8002077
S31508004A8003E0C0B205EB80029167A34523D254F830
S31508004A90041D4945F9D34145F7D2CA07F5D5002281
S31508004AA005EB82039B6F8B4203D0521CD2B2062AB7
S31508004AB0F6DB062AE9D1002814BF401E0520E0E7E8
S31508004AC0716F002205EB8203521CDF6F9F67052A70
S31508004AD0F8DBC5F88C100146481EC9B20029EFD18B
S31508004AE0706DC005C00D02280AD0032815D0042809
S31508004AF016D0052817D0062818D00C281CD01EE07A
S31508004B001A480168890748BF40F6021A1CD400688B
S31508004B10C00719D540F2025A16E040F6012A13E0FA
S31508004B2040F6022A10E040F6032A0DE0BAF5206F97
S31508004B300AD140F6042A07E040F6052A04E018B12F
S31508004B40242838BF40F6072A5046BDE8F28F0000F1
S31508004B5004ED00E00000002000E300E0501C002007
S31508004B602263020890210008980000201CA000403B
S31508004B700D0A5B4153534552543A25703A25645DF4
S31508004B800D0A0000814233D210185118401E491EE2
S31508004B9010E011F8013900F80139121F11F801392E
S31508004BA000F8013911F8013900F8013911F801390D
S31508004BB000F8013992B2042AEBDA92B2002A1EBF33
S31508004BC011F8013900F80139521EF6D1704711F86B
S31508004BD0013B00F8013B121F11F8013B00F8013BAD
S31508004BE011F8013B00F8013B11F8013B00F8013BC5
S31508004BF092B2042AEBDA92B2002A1EBF11F8013BE0
S31508004C0000F8013B521EF6D17047130003D00A463E
S31508004C10194602F0A9BF704710B500E0521E92B2BD
S31508004C2022B100F012F8F9D0181B10BD002010BDF3
S31508004C3010B500E0521E92B22AB100F006F8F9D07B
S31508004C40181B40B210BD002010BD10F8013B11F82A
S31508004C50014BA342704700004148018A40F6A772FB
S31508004C60914202BF408A4FF47F41084203D102288D
S31508004C7001DB01207047002070472DE9F84F824676
S31508004C80884600F0A7FE374D2F6804462868400876
S31508004C904000286002F032F90120DFF8C0B08BF836
S31508004CA00000FFF7D9FF20B9FF210FF2BC00FFF77C
S31508004CB06BFE2B48D0F8289041464AF48070C847C6
S31508004CC006462F6002F01AF9204600F089FE0020F9
S31508004CD08BF800000FF298040EB1305D04E04146EF
S31508004CE04AF40070C847005DBDE8F28F2DE9F84F19
S31508004CF0804689464FEA420A00F06CFE194E37682C
S31508004D000546306840084000306002F0F7F8FFF7C3
S31508004D10A3FF28B94FF4A1710FF24C00FFF734FE38
S31508004D200F48D0F824B00023524649464046D84793
S31508004D300446376002F0E2F8284600F051FE0FF20A
S31508004D4030050CB1605D05E05346002249464046F1
S31508004D50D847405DBDE8F28F00000000C72F00204D
S31508004D600000040894ED00E0666C6173682E630029
S31508004D70000202024B4B46472DE9F04F89B08046A8
S31508004D801E251E22FF2100A8FFF73FFFDFF8ACA073
S31508004D907822FF215046FFF738FF0027284CDFF816
S31508004DA0A490294EB85D17F809B0395D401C00EB90
S31508004DB0D070401001B11930401C00FB0BF223489B
S31508004DC030F817100FF2880092B202F001FFBBF11B
S31508004DD0010F1CBF2AF817505D447F1C1E2FE1DB0C
S31508004DE00FF288054FF4E04000F016F918B1C22119
S31508004DF02846FFF7C9FD4FF4804000F00DF918B1B9
S31508004E00C4212846FFF7C0FD4FF4805000F004F98E
S31508004E1018B1C6212846FFF7B7FD1E2340F21C42EB
S31508004E204FF4C3710FF2540002F0D2FE00A94046B7
S31508004E3000F01FF909B0BDE8F08F00004C2A0020E9
S31508004E40BCCC0208FCCC0208DCCC020880CC0208E8
S31508004E5043726561746F723A2030782532582C2077
S31508004E60576F7264733A2025640A000073696D2DC2
S31508004E70656570726F6D2E630000000053696D459D
S31508004E804520646174613A20256420776F726473E3
S31508004E90206F66202564206D61782C20746F6B6501
S31508004EA06E436F756E743A2025640A0010B5DFF8F4
S31508004EB0B04ADFF8B03A2488001B06E010B5DFF8E0
S31508004EC0A84ADFF8A03A24681B1B03EB400000231E
S31508004ED004E030F8134021F813405B1C9342F8DBDA
S31508004EE0002010BD2DE9F04182B004460D46164655
S31508004EF00027DFF8708A01E0B81CC7B2B74217DA94
S31508004F007819795D4078DFF8583A1B8801EB00205C
S31508004F10ADF80000012207EBD77004EB6000C01A59
S31508004F2000F09BFB0028E7D002F075FE002000E0A9
S31508004F300120BDE8F681F8B504460E461546002759
S31508004F400DE000F019F8BDF8000004EB4701000A6F
S31508004F504870761CBDF8000004F817007F1CB7EBF4
S31508004F60550FEEDBE80706D500F006F8BDF8000099
S31508004F70291901F8010CF1BD012200A9B0B295E783
S31508004F80DFF8DC29DFF8DC191288801A01EB40010A
S31508004F900220FFF772BEDFF8D419DFF8D429415C86
S31508004FA0825CDFF8D039C05C10B102F5997292B212
S31508004FB041EAC21080B2704710B5DFF8BC39DFF895
S31508004FC0AC4903EB4002005D012801D1104610BD33
S31508004FD01088081803EB400010BD38B50C46DFF8FA
S31508004FE09C190D782A462146FFF760FF208800287D
S31508004FF01CBF4FF6FF7188420AD0012000E0401C12
S31508005000C0B2A84206D234F8101022889142F6D0CF
S31508005010002032BD012032BDF0B5DFF84C1987B04B
S3150800502008600C2200A90020FFF748FF00A9002508
S31508005030C88A8A890346040A01204FF6FF7631F8A2
S315080050401570BDF800C0BC4503D1B74218BF002F84
S3150800505000D100206D1C062DF1DBB21A944518BF4D
S315080050600020DBB2C4F1FF018B4218BF002007B055
S31508005070F0BD2DE9F24F0446DFF8046900203070D0
S3150800508070809CB0DFF8FC080088ADF8020007A91C
S31508005090FFF7A3FF83460120707009A9DFF8E80827
S315080050A00588DFF8E808B0F80080DFF8B408BDF82E
S315080050B002A007883846FFF790FFB8B1BBF1000F8A
S315080050C03CD0BDF81C10BDF824004FF6FE72914284
S315080050D002D1012804D10CE0012908BF90422DD045
S315080050E00846BDF82410884228D202E0BBF1000F1A
S315080050F023D000207070029750460695CDF8108090
S315080051000122DFF8781891F800804044ADF80600CF
S3150800511000A9BDF80600FFF7C9FEDFF87408008885
S3150800512005904FF6FF79BDF80000000B404518BF03
S315080051300F2800D10CB3002516E001247078012849
S31508005140D9D13846CDF808A0CDF818800495D7E708
S31508005150059805FB00F4E01900F028FCBDF80200EC
S31508005160201800F023FC6D1C4545F1DB012030704A
S315080051704D2002F050FD0025FCE0BDF80650012246
S3150800518001A92846FFF792FEBDF80400C043C0B245
S31508005190ADF804006F1CDFF8FC070588BDF80400AD
S315080051A0A84218BF01244FF0000A20E0401CC1B2F3
S315080051B0A94218D2C0B2DFF8E017BDF80E20834620
S315080051C031F81B109142F1D1FFF7E5FE4FF68071D9
S315080051D00840BDF80C104FF680721140884204BF93
S315080051E01C980BF800A00AF101001FFA80FABDF816
S315080051F00400824507DA022203A9B8B2FFF756FE71
S31508005200BF1C0020D3E7002001E0401C80B2A84262
S3150800521017DA1C99415C8142F7D0012411E02AF87B
S315080052201070BDF8060000EB4300401C00F0D2FAEF
S31508005230BDF80200C0F3C710401C00EBD07007EBA6
S3150800524060070498DFF830A7BFB2874211DA012257
S3150800525000A93846FFF72AFEBDF80000484508D0E1
S31508005260030A00F07F01BDF804007F1C834202DBBD
S31508005270012400252DE0002001E0401C80B2A84250
S31508005280CFDA1C9A825C9A42F7D1C0B2FF28C8D0FE
S31508005290DFF8D826825C7F290CBF4FF0000C8C46BD
S315080052A0944509DADFF8CCE6BDF800C010F80EE040
S315080052B0CCF3C01CF44501D00124B2E7012AAED0D4
S315080052C07F293AF8100008BF00210818A7E76D1CC7
S315080052D0ADB2DFF8C8060088854204DA3AF8150048
S315080052E04845F4D1012477800498BDB285420ADA8C
S315080052F0012200A92846FFF7D9FDBDF800006F1C5A
S315080053004845F1D034E7002CFCD1029801220BA9BC
S3150800531080B2FFF7CBFDBDF82C0048450DD105E05E
S31508005320401C80B2202813DB2034A4B20699029AC6
S31508005330891A8C4205DB0120307000201DB0BDE8BB
S31508005340F08FA51820220BA9A8B2FFF7AFFD002001
S315080053500BA931F810104945E2D0A8B2FFF710FEA4
S31508005360203CA4B2E0E70298059905FB010000F08D
S315080053701DFB6D1C4545F6DB01203070494600F0E3
S3150800538043F818B100F02DF90028D6D10120D5E749
S315080053902DE9F84504460F461646984631463846DE
S315080053A0FFF70AFEDFF8EC15B0F800A00988DFF869
S315080053B0C0558F420AD2DFF8B405385C7F2E08BF85
S315080053C00026864202DA785D804503D040F2DA414B
S315080053D000F0FCF9DFF89C05385C68B151463846A0
S315080053E000F029FA795D012908BF20700AD0022940
S315080053F014BF2060208005E0424651462046BDE89D
S31508005400F84598E5BDE8F1852DE9F34FDFF8500535
S31508005410DFF868150488DFF868050978407883B0EE
S3150800542000281ABFDFF85C05008820460D18DFF84B
S3150800543064050088ADF80800ADB2C043C0B200EB01
S31508005440013000F55060ADF802002B1BDFF814059B
S3150800545000F0C6F96E1C0028B6B238D10025DFF870
S31508005460387514E0E8B2FFF796FDADF80400331B73
S3150800547037F81500ADF806000222DFF8E80400F058
S31508005480ABF8002823D1B61C6D1CB6B2ADB2BDF878
S3150800549008008542E6DB002501E06D1CADB2BDF8CB
S315080054A00800854280F293804FF0000A1CE0012232
S315080054B00DF102011FFA89F0FFF7F8FCBB19DFF8B6
S315080054C0A4041B1B09F1010900F08AF9002878D108
S315080054D07F1CFFB2B7EB1B6FE9DBDFF8C404285C5F
S315080054E08619B6B20AF1010ADFF8800415F800B089
S315080054F05FFA8AFADA45D0D25146E8B2FFF75CFD80
S315080055008046DFF87004B8F800902F5CF80140EA8E
S315080055100520ADF80000BBF1010FBDF800000CBF77
S3150800552040F07F004AEA0000ADF80000311BDFF8C2
S31508005530340400EB4100711C89B201914FF6FF71EA
S3150800554089451EBFBDF80010BDF81020914218D13C
S315080055509DF80C100029C5D0012200A9FFF7C6FB4B
S31508005560019E70BBDFF80804A8F800602A5CDFF823
S31508005570340450F82510B0B2FFF7B4FC0028ACD1BB
S3150800558022E0DFF8EC13695C491C01EBD1714FEAA4
S31508005590C15B012200A9FFF7A9FB019E88B9002F6C
S315080055A0A8F8006095D04946E8B200F044F90190A1
S315080055B0331BDFF8B0034FEA1B6200F00DF8002832
S315080055C08BD002F028FB002005B0BDE8F08FDFF88D
S315080055D0B00346800120F7E701A900EB4300FFF777
S315080055E085BB2DE9F041DFF89C03DFF89453068864
S315080055F0DFF86C0304886878002882B012BF20465A
S3150800560030462646012200A9FFF750FCBDF80000E7
S31508005610DFF8508301280CBF4FF6FE70401EADF828
S315080056200000DFF8580307783846471E58B1BFB25E
S31508005630B819001B012200F010F80028F4D002F077
S31508005640EAFA002007E06978481E8041C00F6870B2
S31508005650002028700120BDE8F68100A908EB40006B
S31508005660FFF744BB2DE9FE4F0D46174604461E4676
S315080056704FF000094FF001083946FFF79DFCC54970
S31508005680098801908C420AD2B848205C7F2F08BF4F
S315080056900027874203DAB648205C864203D040F2E8
S315080056A0FD5100F093F8B64F787820B1B648B0F8B7
S315080056B000A0AB4803E0B548B0F800A0B148397877
S315080056C0008849B97988081AB74909888842B4BF51
S315080056D04320442002F09FFA01980188A548205CDF
S315080056E0F8B1204600F0A7F8012E08BF297803D0A4
S315080056F0022E0CBF29882968814265D00198008846
S31508005700401E00F067F8A648265C7888AAF10101D1
S31508005710891B814201DB002835D1387858BB4520E2
S3150800572044E00291CB4620E002980BEBDB7300EBDA
S31508005730630000F03EF90BEB05001BF805104078F6
S3150800574001EB0020711E8B4580B205D1BDF8001013
S31508005750C9B2C0B2ADF80010BDF8001088420BF10E
S31508005760020018BFC8465FFA80FBB345DCDBB8F118
S31508005770000FC3D028E0BDF802100020FFF744FE52
S3150800578010B34FF0010978887949401C788080B2B7
S31508005790625C2946FFF7A6FBB0B1714C7B8824886A
S315080057A070485B1E1B1B00F01BF810B102F033FAA1
S315080057B00AE0B9F1000F02D0FFF713FF20B10199F3
S315080057C07888088030187880BDE8F78F0FF2EC10DB
S315080057D0FFF7DAB801220DF1020180B2FFF766BBC6
S315080057E001220DF1020100EB4300FFF77FBA70B505
S315080057F082B0044600251926012200A9A0B2FFF7A7
S3150800580055FBBDF80000641C48B14FF47F41401AAF
S3150800581002D0FF3806D007E0681C40B276BDAD1C42
S31508005820761EE9D168B276BDBDF80000C0B200B9EF
S315080058306D1CE843F1E738B50C46002100914C4948
S31508005840455C2A46214600A8FFF775FB681C00EB55
S31508005850D07004EB600080B2FFF7C9FF002848BF8C
S31508005860C043009940B2401832BDF0B5494909888D
S315080058700446414883B0254630F815608C4202D26A
S315080058803C48285C18B94FF4E761FFF79FFF384892
S315080058902D5C681C00EBD07006EB6007B8B2FFF70A
S315080058A0A6FF322814D2C107BFB207EB60002C4FFF
S315080058B02C4B3F884CBF00214FF47F41ADF80410B4
S315080058C0C01B012201A903EB4000FFF70FFA60B1E4
S315080058D031462046FFF7AFFF00902B46401C00904C
S315080058E07F2200A92046FFF7BDFEF7BDF8B5244C78
S315080058F020780027002830D11948058860780028C4
S315080059001ABF204806882E461C4807783846471E80
S3150800591002281BDBFFB2B81900F04BF8BDF80000EF
S315080059200028F3D01A48008807FB006000F03EF80C
S315080059300020ADF80000BB190A485B1B012200A92C
S31508005940FFF74BFE48B102F066F906E03046FFF76E
S3150800595017FBFFB20FB9012020703846F2BD0000D0
S3150800596050CC020800E00208182C0020FCCC0208E3
S31508005970DCCC0208BCCC02084C2A00204CCC02081D
S31508005980902F002054CC020852CC020856CC0208AC
S315080059904ECC02085ACC020880CC02085CCC02081D
S315080059A060CC020820CF020858CC020880B2FFF764
S315080059B0E7BA012200A980B2FFF778BA73696D2D9C
S315080059C0656570726F6D2D696E7465726E616C2E89
S315080059D063000000EFF31180602181F3118870479E
S315080059E080F3118870470000DFF8841500200870DE
S315080059F0FF21DFF88005017001717047F8B504468C
S31508005A0002F05AF90546DFF87005DFF8687506886A
S31508005A10204602F062FAB0F5006F16D1204602F071
S31508005A2080FA00F0BBFAFF280DD000F029FA2146CB
S31508005A30381D02F003FEDFF83805017881B10089C8
S31508005A40A9190E1A10E09320F2BDFF21384602F07C
S31508005A5020FE052802DA21463846EAE73920F2BD53
S31508005A600581314602F075FEB2B20321204602F0E6
S31508005A70B2F9032200F070F8204602F02BFB002052
S31508005A80F2BDF8B50446DFF8EC040078FF2813D019
S31508005A90DFF8E8542968465C3746384602F032FA99
S31508005AA0014608222046FFF7B7F808B90120F2BDDB
S31508005AB028683F5CB742F0D10020F2BDF8B504462D
S31508005AC002F0B5F9000B00F00105204602F03EFA97
S31508005AD00646204602F029FAB0F5404F11D1002DAE
S31508005AE036D03146002000F086F90446FF2C2FD028
S31508005AF0002102F029FF58B300F0A3F900F02AF8B4
S31508005B0026E0304603F04BF900F048FA0446FF2C2D
S31508005B1001D10020F2BD01200021224603F06CF9D4
S31508005B20DFF85C24D2E9006706430F43C2E9006741
S31508005B3075B1DFF850341B6833F814304FF4FE643F
S31508005B40234205D0D2E9024520432943C2E902018E
S31508005B500120F2BD40F080020521204602F046B938
S31508005B6038B5044602F0B9F9B0F5006F0CBF012547
S31508005B700025204602F0C6F904462146284600F0CC
S31508005B803AF9FF2810D18DB1204603F008F900F044
S31508005B9005FAFF280AD0DFF8EC13096831F8100077
S31508005BA04FF4FA61084201D0012032BD002032BD0F
S31508005BB02DE9F04107460C46DFF8B85302F08DF997
S31508005BC0B0F5006F0CBF281D28460078FF2846D080
S31508005BD0DFF8A8130968405C0646B7423CD1FFF7D0
S31508005BE0F9FE80460521304602F007F900F07F00ED
S31508005BF0471EFAB20521304602F0F8F8002C18BF05
S31508005C00312C01D0F8B200BBFFF7E4FE0746F0B22C
S31508005C1002F063F9B0F5006FF1B205D1281D02F064
S31508005C2038FD00F012F902E0284602F032FD384647
S31508005C30FFF7D6FE4046FFF7D3FE2146304603F06F
S31508005C40D1FF304602F054FA04E000F0FEF8404670
S31508005C50FFF7C6FE012003E0765C8642BDD1002030
S31508005C60BDE8F08138B502F027F8C14C21892081BA
S31508005C70421A4FF6FF75ADF8005000A990B200F031
S31508005C8008F9BDF80000A84202D10020207031BDF5
S31508005C900146204602F05DFD31BD00214FF6FF703A
S31508005CA0F7E02DE9F84FDFF8D892D9E90001002985
S31508005CB008BF002800F0988000264FF00108B24679
S31508005CC000270024FFF786FED9E90023844608EA60
S31508005CD002001AEA030108BF002817D06FEA080075
S31508005CE06FEA0A0102400B40C9E90023D9E9025BC1
S31508005CF0012708EA05021AEA0B0308BF002A05D09D
S31508005D0028400BEA0101C9E9020101246046FFF7B0
S31508005D1067FE002F57D09B48006830F816008107A9
S31508005D2051D59949096831F816702CB100F4987163
S31508005D30102908BF012500D0002594490978C9070C
S31508005D400AD5934A1268002142F826109149096833
S31508005D50725C42F0F0027254F4B180061CD5380A1F
S31508005D608DF801008DF8007000A9012000F043F8B5
S31508005D700446FF2C07D100F039F84FF6DF721140C0
S31508005D8020F8161014E0002102F0DEFD80B100F0C4
S31508005D9058F8FFF7DFFE0BE085F00100044207D054
S31508005DA000F024F841F4006120F8161004F0C2FA55
S31508005DB000953B461A226DA1032001F00EFF2946E5
S31508005DC0384601F01AFF761CF6B24FEA4A0040EA56
S31508005DD0D87A402E4FEA480806DAD9E900010029A0
S31508005DE008BF00287FF46CAFBDE8F18F65480068EE
S31508005DF030F8161070472DE9F04188465D490028AD
S31508005E001ABF091D022508250878FF2816D05B4EFB
S31508005E103168475C3C4600F014F800060AD4204670
S31508005E2002F070F801462A464046FEF7F5FE08B924
S31508005E30204604E03068245CBC42ECD1FF20BDE873
S31508005E40F0810521204601F0D8BF70B50021202039
S31508005E5004F005FD47480079FF2810D0474C216813
S31508005E60455C2E46304602F05CF800F097F8FF28AD
S31508005E7001D000F005F82068365CAE42F2D170BD5C
S31508005E804049096831F8102042F0200221F8102014
S31508005E9070472DE9F84F80460FF2FC00354E006832
S31508005EA0364F00908A46344600E0341DFFF792FDCF
S31508005EB0814606E0204602F0D6FB294600A802F0F5
S31508005EC0BDFB204602F018FC40B9386821780D5C05
S31508005ED00321284601F076FF8045EBD2301D844227
S31508005EE008BFFFF7B2FF4846FFF77AFD2078FF287C
S31508005EF01CD0396810F801904D460321284601F058
S31508005F0061FFA0EB080B1FFA8BF20321284601F06C
S31508005F1062FFBAF800001FFA8BFB834588BF8346E9
S31508005F20AAF800B038682D5C4D45E6D1301D84428C
S31508005F30BBD100A802F0E0FBA8B900A802F093FBC9
S31508005F40044601F07EFF00F0FAF8FFF77AFF000634
S31508005F5003D44221204603F045FE204602F0C8F845
S31508005F6000F0EEF8E5E7BDE8F18F00004257420081
S31508005F70B82E0020101F00205A1D0020DC1C00200F
S31508005F80301F0020EC1C0020E41C0020702E00208E
S31508005F90F01C0020381D0020FF000000F8B50D4C4D
S31508005FA02768060014D0FFF715FD0B4D21682A78DF
S31508005FB021F8126037F8021BB142FBD1FFF710FD3A
S31508005FC0B81E2168401AC0052978000E884200D1FB
S31508005FD0FF20F2BDE41C0020E81C002010B5734821
S31508005FE0734C00682060606048220021FEF70DFEB1
S31508005FF070482168007808700020216808732168B5
S3150800600048730B202168887303202168C8734FF6EC
S31508006010FE71206801824FF6FF71418200F09CFBF9
S315080060202168087600F098FB2168487600F094FB12
S3150800603021688876604821680078C8765F492068B4
S31508006040096881625E49097880F82C105D482168E4
S315080060500068086310BD10B5FCF7F6FA544C616881
S31508006060897B884203D00846FCF7E6FA50B9FCF764
S31508006070EEFA0146606890F90F00814204D0FCF7F9
S31508006080EAFA08B1012010BD6068008AFDF701FC34
S315080060906068408AFDF705FC6068007B012818BF28
S315080060A00020FDF7E0FB002010BD10B5464C00208F
S315080060B0207004F041FB20B92046BDE8104002F0EC
S315080060C03DBB04F0FBFF08B105F029F863E080B595
S315080060D0002000F015F828B1002000F005F808B1F6
S315080060E0002002BDFF2002BD31480068407B02281F
S315080060F01CBF1128432801D1012070470020704792
S315080061002B480068007B012818BF022804D0032802
S315080061101CBF0628072801D10120704700207047B8
S31508006120002070470020704770477047002070476E
S31508006130012070477047002070470020704770475D
S3150800614070470020704780B50020FFF7CDFF20B1CB
S315080061500020FFF7D5FF00B1012002BD80B5002061
S31508006160FFF7C2FF30B112480068007B032801DA46
S31508006170002002BDFF2002BD10B5040004D0E521B1
S315080061800FF26800FEF700FC08480068482101FB8A
S31508006190040007494860BDE810405CE704484068C9
S315080061A0008A704702484068408A7047101D0020E0
S315080061B0C82B0020551D0020561D0020181D002044
S315080061C01C1D0020201D0020B82B00207047002031
S315080061D070470020704702F0ECBB7047704705F027
S315080061E060B805F00ABA01F00FBD0000656D62657A
S315080061F0722D6D756C74692D6E6574776F726B2D63
S31508006200737475622E63000038B504460D46012086
S3150800621005F086FB5D48002D12BF00210178491C58
S3150800622001705B4844705B48FCF7D1FFBDE832401B
S31508006230002005F075BB10B5002814463FD040284D
S3150800624023D0882818BF892840D08D282FD08F289A
S3150800625046D15148007804280DD144B14F4902204F
S31508006260087040F60620BDE8104005F061BBFDF752
S3150800627084FA312030E0012001F0AEFCFDF77DFA0A
S31508006280002C0CBF3120002026E040484449007805
S315080062900978884204D2BDE8104000210120B3E7FE
S315080062A0002001F099FCFDF768FA402014E0002070
S315080062B001F092FC00212020FFF795FF0BE001205A
S315080062C001F08AFCFDF759FA002005E0002001F0EC
S315080062D083FCFDF752FA8D20BDE8104002F018BC89
S315080062E0BDE81040C9213CE02C480078022800D0BF
S315080062F0704780B52B480078042807D00C280ED1A3
S3150800630029480078022818BF7C2808D105F02BFBFD
S31508006310FDF733FABDE80240002002F0F9BB01BDE3
S3150800632038B50024FFF756FB05461C48007810B917
S31508006330FCF75AFE04462846FFF752FB002C1CBF02
S31508006340BDE8314001F065BC31BD80B5FFF7E8FF17
S31508006350BDE804404FF4A051144802F0FAB940F2DF
S3150800636005110FF25000FEF70FBB38B5104C206828
S31508006370216C01EA0005ADB2680705D5206C20F04E
S315080063800400206404F0BEF8256031BDE82F002023
S31508006390C41E0020AC2D0020EF1E0020A02D0020DA
S315080063A0241F0020D92F0020DA2F0020582F002084
S315080063B008A000406D61632D656D3235302E63008F
S315080063C070B504460D461646FDF733FA38B16078BF
S315080063D0002E14BF40F0200000F0DF006070294650
S315080063E0204601F008FFFF2821D0974C0146201DC2
S315080063F002F024F9954D28882188401C288080B20F
S3150800640081420AD26888401C6880201D02F02BF958
S3150800641001F06EFE2888401E288020882988884238
S31508006420F3D3BDE870408A48007802F075BA70BDAB
S315080064302DE9F04FA5B082460027FFF7CBFA834C2B
S315080064402188491E2180FFF7CBFA504601F0DCFD72
S3150800645090F8009081784078009700EB01201FFAA9
S3150800646080F800F0D4F8A0F108020823D2B2514609
S3150800647002A801F0DCFE02AD6878FFF760FE7548F9
S31508006480007808B3606800281DD0E878FCF76BFE32
S315080064904946FCF76FFE074695F9020000F16605C6
S315080064A00020009009F10103DBB20022514604A83E
S315080064B001F0BDFEFFF73EFE63686AB2394604A8DE
S315080064C09847FFF73DFE98E008F0070002282DD010
S315080064D0FF208DF80400504601F096FD00F1010BEF
S315080064E0584601F0DFFC0446A9EB0400801E46B2BC
S315080064F0002E1BD45FEA885003D508F0070003284E
S3150800650010D101A9584605F023FB002876D108F0DA
S31508006510070001280BD19DF8040004EB0B0103F0DA
S3150800652087FE20B99DF8040001F0E2FD66E04A49BD
S315080065309DF804000968475C4849096800F801A005
S3150800654000F065F800F120019DF80400C9B201F0D9
S3150800655061FD9DF8040001F06FFC00F00C000428B2
S315080065601CBFA619002470B280B20090631C9DF867
S3150800657004009BB25246394602F02FF8F1199DF8ED
S315080065800400C9B201F0FFFE3549687809788842E7
S3150800659004D3CD210FF2D000FEF7F6F99DF80400DA
S315080065A001F045FC69788004800C40EA81319DF849
S315080065B0040089B201F03DFCE878FCF7D4FD4946B1
S315080065C0FCF7D8FD02469DF80400032101F00EFCF5
S315080065D0A87800F166029DF80400D2B2042101F001
S315080065E005FC9DF808209DF80400052101F0FEFB36
S315080065F09DF804A0504602F0E7FA0127504601F03C
S3150800660077FDFFF79DFD384625B0BDE8F08F1248A7
S3150800661000681AF80000704710B50C4C618829B15B
S31508006620C9B21D20FFF7DFFD002060800D4802F08B
S315080066301AF8FF2803D0FFF7FBFE0028F6D010BD96
S31508006640084802F059B800001C1F0020D82E002068
S31508006650C52F0020852D0020D01C0020D81C002026
S31508006660141D0020201F00206D61632D726563656F
S315080066706976652E6300000038B504461B4D214631
S3150800668000F03DF8E860211D00F039F8A86004F133
S31508006690080100F034F8686004F10C0100F02FF8E6
S315080066A0286031BD7047F8B50446114D114E80205B
S315080066B02860062030600720286030688007FCD5EF
S315080066C0002704EB870100F01AF87F1C042FA86244
S315080066D0F7D330684007FCD500262A6B04EB860101
S315080066E000F00AF8761C042EF7D3F1BD38300040C6
S315080066F00030004010A00040002002F05BBB0020E4
S3150800670002F066BB70B504460D46FFF763F9064608
S315080067102846FFF7B1FF2046FFF7C5FF3046BDE81C
S315080067207040FFF75DB9002848BF40427047000037
S3150800673081B209B94BF6EF610E4A1180000C08BF09
S315080067404FF6CE20508070470288130448BF4A404F
S31508006750510001801046704738B5064C6221204624
S31508006760FFF7F2FF054641F20B01A01CFFF7ECFF0D
S31508006770684032BD321E0020EFF311806028804148
S31508006780C043C00F70470000002181F3118870478D
S315080067902DE9F04FDFF8FC4599B0804660681890FF
S315080067A0B8F1070F08BF4FF0030804D0B8F1080F77
S315080067B008BF4FF00208DFF8E0552868696840EA24
S315080067C00120A96840EA014000906868400703D59F
S315080067D0E06940F00200E0612868400703D5E069F7
S315080067E040F00400E06100982969C840C00703D555
S315080067F0E06940F00800E0610020DFF89465DFF802
S315080068009C953060B8F1010F00F06982C0F08F8264
S31508006810B8F1030F1ED005D3B8F1040F40F08782F4
S31508006820606017E0D9F84000C00703D5E06940F07A
S315080068304000E061D9F84000400703D5E06940F020
S315080068402000E061D9F84000800703D5E06940F0F0
S315080068501000E061FFF7BEF800F003FB8DF85C005E
S315080068604FF0000BD9F84000DFF834A5DFF834758F
S31508006870DFF834151690D9F844001590DFF82C0582
S31508006880C06C1490DFF82405006D1390DFF81C0522
S31508006890406D1290DFF81405806D1190DAF800004B
S315080068A01090DAF804000F90DAF814000E90DAF86F
S315080068B024000D9038680C9078680B90B8680A9098
S315080068C0F86809903869089078690790B869069059
S315080068D0F8690590B86B0490DFF8D4040068096875
S315080068E0039102212160DFF8CC1409688DF80410A1
S315080068F0DFF8C41409688DF80510DFF8C0140968B4
S315080069008DF806104FF0FF316162DFF8B41409689C
S31508006910C9040BD56968C90708D5E169C90705D54A
S31508006920316841F480714FF0010B3160DFF8901443
S31508006930096889040BD56968490608D5E169C90754
S3150800694005D5316841F480414FF0010B31600121D2
S31508006950DFF86C24126852040ED5009AEB68DA4008
S31508006960D20709D5E269D20706D53268EB6801FA7B
S3150800697003F31A438B463260DFF844241268120484
S3150800698010D5009A2B69DA40D2070BD5E269D207EF
S3150800699002D4E269120705D532682B698B469940FD
S315080069A011433160DFF818140968C90308D5E1698D
S315080069B0090605D5F17841F008014FF0010BF17091
S315080069C000216A68D2076A6848BF4FF480515206A8
S315080069D0009AEB6848BF41F40051DA40D207009AA2
S315080069E02B6948BF41F48041DA40D207E26948BFC3
S315080069F041F40041D20605D4E269920602D4E2695E
S31508006A00520601D541F01001E269120648BF41F469
S31508006A10803108400290A52000F01AFA0120E063B0
S31508006A20E069A16B11B1616A0142FAD0616A01425B
S31508006A3000F0F2800020E0634FF0010BF07840F0A0
S31508006A404000F07000F054FA0720C9F800000F2043
S31508006A50DFF85813086005F039F91898D3496060CB
S31508006A601698C9F840001598C9F844001498C864DF
S31508006A70139808651298486511988865CC49109846
S31508006A80CAF800000F98CAF804000E98CAF814004D
S31508006A900D98CAF824000C9838600B9878600A9804
S31508006AA0B8600998F8600898386107987861069878
S31508006AB0B8610598F8610498B86302980860BA49FD
S31508006AC0039808604FF0FF30BE490860B94800686F
S31508006AD03070B94800687070B8480068B070626A6B
S31508006AE0E06910402A69336801994B4000990B40C8
S31508006AF00106490E01F0010143EA81230106890EC8
S31508006B0001F0010143EA81030106C90E01F0010102
S31508006B1001FA02F21A4300F47C7042EA005030602F
S31508006B20FEF758FF00F0F2F9002020609DF85C009F
S31508006B3008B100F080F9F0789D490968C90304D5C1
S31508006B40C0F3C00109B120212162D9F84010890794
S31508006B5004D5C10744BF0221C9F80C10D9F8401062
S31508006B60490705D5C0F3400111B10421C9F80C1035
S31508006B70D9F84010C90705D5C0F3800010B1012027
S31508006B80C9F80C0030688949C96C11F0E00F05D0C6
S31508006B90C10503D58A4A4FF4805111608349096DAE
S31508006BA011F0E00F05D0410403D5854A4FF4005192
S31508006BB011607E49496D11F0E00F08D0E96820FAA6
S31508006BC001F1C90703D57E4A4FF480411160774920
S31508006BD0896D11F0E00F07D02969C840C00703D5B1
S31508006BE077494FF400400860BBF1000F6ED1764834
S31508006BF0006800056AD56068800767D5B8F1040F94
S31508006C0064D06B480068C0063DD56D480068C0066C
S31508006C1039D50120307159E0BBF1000F7FF40EAF72
S31508006C20DAF81800604940084000CAF818005E48BB
S31508006C30806840F00400886040F2072163480088B5
S31508006C40884201BF614840884FF20F01884205D14A
S31508006C505E494CF23C3048804FF0010B012005F0AC
S31508006C606FF8BBF1000F05D058494FF20F00488066
S31508006C704FF0000B5448544940680004B0608968D6
S31508006C800843B060E0E600F0CFF85149B0FBF1F0F8
S31508006C904FF47A7148432F303021B0FBF1F00021D0
S31508006CA031714C494A6D42F001024A650A68464B01
S31508006CB0454C5B68A46844EA0343B468A34205D11B
S31508006CC00B689B1A1B031B0B8342F0D3F07840F02A
S31508006CD08000F07019B0BDE8F04FFFF755BD00F021
S31508006CE0C0F80446A52000F0B3F800F001F9FFF754
S31508006CF04BFD394D2E68286840084000286000F092
S31508006D00FDF8364FD7F80080386820F04000386024
S31508006D1000F0F0F8C7F800802E6000F0EFF80CB12C
S31508006D2000F089F819B0BDE8F04F00F0EFB819B0D7
S31508006D30BDE8F04F4FF488610FF2AC00FDF724BEB2
S31508006D4011F1010F144A07D0CBB21360C1F3072320
S31508006D505360C1F307419160002321490B60136812
S31508006D60002B04BF5368002B01D192681AB10A6838
S31508006D7042F001020A600A6842F400720A600A6870
S31508006D8042F080020A6003E51649D9E700000000D0
S31508006D90C42A00200400004008BC004014A000409B
S31508006DA0044000400050004008ED00E014A80040F0
S31508006DB000E100E008B0004008B4004008B8004010
S31508006DC000E200E080E200E00C60004000000020E5
S31508006DD090D003003820004094ED00E00080004089
S31508006DE02000004000404000736C6565702E63000B
S31508006DF003480188034808237F22FBF787BD00BFA5
S31508006E0006D00208FC2B00202D480068C00701D4D4
S31508006E102C4870472C48704780B5FFF7F5FF2B497B
S31508006E20096801B9400802BD80B5FFF7EDFF4008C3
S31508006E3002BDFCF78EBE2648012181604EF6BE21B2
S31508006E4041600121016070472249012008607047AE
S31508006E50A52805D11E484DF6AD61416002210160A5
S31508006E6070471B480068C00701D5012070470020FD
S31508006E70704780B51849194A1020086018491948FA
S31508006E80007858B103280CBF00200120106040F696
S31508006E90510008600020FDF77CF806E0022010602B
S31508006EA04FF400600860FCF70DFE07210E480160EC
S31508006EB00021016410200D490860002002BD000071
S31508006EC01C400040001BB70000366E012040004001
S31508006ED0006000400860004080E100E008000040D3
S31508006EE00C600040B02F002014A0004000E100E034
S31508006EF072B6704700BF30BF00BF7047BFF35F8FE1
S31508006F00BFF34F8FBFF36F8F7047000062B67047AD
S31508006F10DFF8D802016C41F4C04141F0090101646F
S31508006F204FF6FF7101602020DFF8C4120860704731
S31508006F3070B515461E46002804BFBDE8614004F03A
S31508006F4025BF012835D113293CBF0FF2DC20095C87
S31508006F5008096422504301F00F010B2903DA88401F
S31508006F6006E00A2250430A46511ED2B20B2AF8DA24
S31508006F7001460120FDF71CF8E0B9300907280CBFC7
S31508006F8000200220012D08BF40F0180003D0022D72
S31508006F9008BF40F0080006F00F0102299549A8BF6E
S31508006FA040F00400886001200860FFF7B1FF002068
S31508006FB062BD212062BD38B5040012D18E4804682E
S31508006FC0608828B140F2B7210FF25420FDF7DCFCA7
S31508006FD0A188C9B2A01D00F01DFB0020A08020805A
S31508006FE031BD012802BF8348006801280FD1FEF78A
S31508006FF0F1FC05468148016841F00601016001205F
S3150800700000F09AF82846BDE83240FEF7E9BC31BDE3
S31508007010012804D17948016821F00601016070470A
S3150800702080B50B46114620B9184600F0F3FA002041
S3150800703002BD012802BF72488269012A07D02120B1
S3150800704002BDC2685207FCD513F8012B02600A4636
S31508007050511ED2B2002AF4D1C1684906FCD5E6E72A
S3150800706010B50446FFF7F0FE012C03D16748006807
S315080070704006FBD510BD70B5624A634B12680CE03A
S31508007080158810F8014BAD18AC7114881D8800F0EE
S315080070906DF814809488641C94800C46611EE4B2D2
S315080070A054B194885A4D2D886D1EAC42E8DBBDE874
S315080070B070402321002079E070BD2DE9F84304468D
S315080070C05048DFF84491DFF848814D4F254650F87F
S315080070D0256014E0B18838F81520521E91421CDA52
S315080070E0318889198871308839F81510401C90FB49
S315080070F0F1F201FB12003080B088401CB080F868BD
S31508007100800716D5F86810F038013868E2D0080705
S3150800711005D4C80605D5242107E0232105E0272143
S3150800712003E088064CBF25210121204600F03EF8E1
S31508007130E5E7BDE8F183704770B52F49354A51F840
S3150800714020102F4B0CE04C886418A4791C604C88DE
S3150800715032F8105000F00AF84C808C88641E8C8037
S315080071608C8814B1DC686407EDD470BD641C94FB8C
S31508007170F5F605FB16447047704738B51B4C0FE00B
S3150800718046F229700542256003D0A9B20120FFF70F
S3150800719094FF41F6D60005421CBF0120FFF7CCFF3D
S315080071A02068216C11EA0005EAD131BD30B5154ACF
S315080071B0194C52F82020055D184B25B9128823F87A
S315080071C01020015530BD33F810301380015513884F
S315080071D051888B4205D20E4C34F81000401A181804
S315080071E000E0581A908030BD0000000008A8004052
S315080071F000E100E054C80040581E002048A800409E
S315080072003CC80040681E0020547B000848C800405F
S3150800721044CC02084C7B0008242A0020282A002097
S31508007220756172742E630000306090C0C1C2C39449
S31508007230C495C55C96C6AC9798990D002DE9F041A2
S31508007240454C464EDFF81881002020654FF400555E
S31508007250356002202060E56000202065206D40F042
S31508007260600020650E2000F01DF888F800004FF435
S31508007270804700206065376004202060E76016209C
S315080072803849086000206065606D40F06000606500
S31508007290162000F007F888F80100334805600760F3
S315080072A0BDE8F0810E2802D0162802D009E02F4842
S315080072B000E02F480068800900F0010080F0010016
S315080072C070470020704710B523484FF40051C1603D
S315080072D0022101600E20FFF7E5FF214C22780146C6
S315080072E08A4218BF21700DD1501E8041C00F2070F0
S315080072F00E20217805F04CFA2178481E8041C00FEF
S3150800730020702178BDE810400E2005F041BA10B56E
S3150800731011484FF48041C160042101601620FFF72F
S31508007320C1FF0F4C627801468A4218BF61700DD1C1
S31508007330501E8041C00F60701620617805F028FA4B
S315080073406178481E8041C00F60706178BDE81040C2
S31508007350162005F01DBA000014A8004080E100E0E0
S31508007360A02F002014BC004000E100E008B4004053
S3150800737008B8004010B50446FEF72CFB4E493020ED
S3150800738008604E4908604E49086010204D4908605B
S315080073904FF20F01200A00284B4808BF2402048038
S315080073A04180BFF35F8F494800210160416048482A
S315080073B04849086010BD10B5474C2068C0060BD573
S315080073C0464941480A68C0F894204968C0F89010B0
S315080073D040F60620FFF7CEFF2068C00708D54049CB
S315080073E003200870206C40084000206401202060BB
S315080073F02068000703D5206C20F00800206410BD23
S3150800740080B5002000F009F830B9BDE80440FC2139
S315080074100FF2E000FDF7B8BA01BD2DE9F044314C92
S3150800742021680D1A15F01F0105D0002852BF6D1AE4
S31508007430681A00F120052C48A5F12006A84224BFA9
S315080074402A48864203D3EFF30880854201D30020F9
S315080074502DE0FEF7BFFA82462548006810F00107BE
S3150800746018BF04F04BFC206801468D4206D2A8429C
S3150800747024BFCD2100F80119F9D206E020380022F0
S3150800748001E000F8012B8842FBD32560304604F062
S315080074903AFCE22001E006F8010BAE42FBD30FB13D
S315080074A004F014FC5046FEF79BFA20682038BDE825
S315080074B0F0840C48006870473020004030C800400F
S315080074C030C0004010D00040000000201C400040A2
S315080074D00400FA050CED00E018A00040305000400A
S315080074E0CB2F0020D41E0020F0120020900D002083
S315080074F094ED00E06D6963726F2D696E7465726E46
S31508007500616C2E630000000030B522480168002037
S31508007510002201249440CBB2234213D00FF28400F8
S315080075201D4C30F8120006284CF23C324FF20F037D
S315080075301DD16088984216D12188080A0B2812DACC
S31508007540084612E0521C92B2082AE2D3134908816F
S3150800755040F201720889904204D11148D0E900230B
