:020000040800F2
:100000000004002079000008850000088500000831
:10001000A70B0901000000000101005600200008A4
:1000200004030000270A0008E90C00082005000866
:1000300000000000000000000000000000000000C0
:10004000000000000000000000000000E7000000C9
:10005000FFFFFFFF06480068202100EA010028B1E9
:100060000448016842685FEA010D104770470000CC
:100070002C00004000200008FFF7ECFF00F00BF818
:1000800000F03EF803E000005FEA000D70474FF417
:10009000017000F09DB838B54FF20F04404D00F0EC
:1000A000C5F828B140F2052028806C80012032BDBF
:1000B0003C480068C00615D56888A0421ED1288833
:1000C00040F2022188421CBF40F20621884215D02E
:1000D00040F2011188421EBFB0F58A7F40F2111133
:1000E00088420BD0304C208A40F6A721884205D1A7
:1000F0002068FFF7C9FF6068804700BF002032BD5D
:1001000038B50400294872B6016849084900016001
:1001100000F0D2F823480068000910F001000CBF7D
:100120002349244902E0CD2201F8012B224A9142C1
:10013000F9D32249224A234B03E011F8015B02F86C
:10014000015B9A42F9D32049204A002301E001F8DB
:10015000013B9142FBD3124A53884FF20F05AB4249
:1001600040F205210AD113888B4205D030B1180A1C
:10017000012818BF022801D1194601E004B9002165
:10018000064801804CF23C30508000F0AFF94FF44B
:100190000170BDE8324000F01BB80000240C0020C4
:1001A000000000202C00004000200008FCED00E0D2
:1001B0000000002098000020000400209811000892
:1001C0000004002004040020040400202D0C002062
:1001D0000E4A302111600E4A11600E4A1160102142
:1001E0000D4A1160010A00290C4908BF000208806D
:1001F0004FF20F004880BFF35F8F09480021016074
:1002000041600848084908607047000030200040FD
:1002100030C8004030C0004010D000400000002036
:100220001C4000400400FA050CED00E0002070477F
:1002300080B500F08EF90121062000F097F9062024
:1002400000F0C4F90121072000F090F9072000F028
:10025000B1F91748016821F01001016001BD0000EB
:10026000052800D9704710B5DFE800F01721030F0B
:100270001C17104C2088411E2180C0B9072000F0B7
:10028000B1F942F21070208010BD072000F09EF9F5
:10029000BDE81040062000F0A5B9BDE810400620DA
:1002A00000F088B9BDE81040062000F08FB910BDFD
:1002B00000BC0040260C00206F49512008607047A8
:1002C00038B5054600F038F96C49B0FBF1F44FF44D
:1002D000F070B0FBF4F02D1A1E2DBCBF4FF401706E
:1002E000FFF776FF6648674A0721016000214160F9
:1002F00081604FF00071116005FB04F1C91C890891
:10030000491E416031BD604A01215170D8E7604803
:10031000016841F00101016001214160512056490D
:1003200008607047002070472DE9F047574D564E42
:100330002968814640F2DC580129C2465048554F91
:10034000554C1DDA0221618039600068C00348BF46
:1003500000F079F8B86900F00300032861D028683C
:10036000002803D5B86940F00200B8614846FFF79D
:10037000D9FF5FEA000A1BD12868002851D54EE05A
:1003800061884FF6FF75A9421DD1444801880223B8
:100390007F22A01C00F03CF96088A84204BF022024
:1003A0006080B869800703D4B86940F00200B86182
:1003B0000120B070608838600FFA8AF0FFF7A3FF61
:1003C0005046BDE8F087B9698907EDD50068C003DC
:1003D00048BF00F038F8B07808B14046F1E7B86897
:1003E000B968628810F0010003D10F2A08D2521CAC
:1003F00006E0890704D5217811B1032AA8BFAA18FD
:1004000092B2022A2070B8BF0222628038686188E6
:100410008842CDD1B86900F00300032801D0FFF76E
:1004200076FF0020CDE710B5044604E000F024F983
:100430000620FFF777FF2046FFF776FF0028F5D16B
:1004400010BD0220EFE70E480E4A00214160816096
:10045000016821F00201016000210B4841704FF05A
:1004600000711160817801B9704780B500218170F9
:100470000620FFF757FF01BD0080004090D0030029
:1004800010E000E004ED00E0280C002090110008CE
:100490001C4000400440004000040020941100086B
:1004A0000078704730B5DBB00446214636A800F02E
:1004B00035F9002000904FF402630B4A36A901A8D9
:1004C00000F0B1FA0FF24C020FF2540001A900F053
:1004D0000BFC054600F046F81DB12146284600F009
:1004E00069F928465BB030BD0404002080B5FFF7F1
:1004F000A8FFFFF79DFE00F017FC00F0A1FC40F202
:100500000120FFF765FE002002BD012A08BF00F0B0
:1005100020BC70470711000843110008A10400081F
:1005200075090008AD0900081A480068C00701D421
:10053000194870471948704780B5FFF7F5FF18490B
:10054000096801B9400802BD80B5FFF7EDFF40081A
:1005500002BD1448012181604EF6BE214160012197
:10056000016070471049012008607047C2084307C6
:1005700010B54CBF0D4B0E4B03EB822200F0030075
:10058000800013680F248440A34301FA00F018434D
:10059000106010BD1C400040001BB70000366E010B
:1005A00020400040006000400860004004B000406F
:1005B00000B00040C108032907DA012100F007025A
:1005C0009140C00880020F4A11507047C1080329AA
:1005D00007DA012100F007029140C00880020A4AB0
:1005E00011507047C10803290ADA084A02EB812139
:1005F00001230A6800F0070003FA00F05040086089
:100600007047000014B0004010B000400CB0004033
:1006100030B5044610467F2808BF0020B1F5004FD2
:1006200083B01AD108237F2240F6120100A8FFF7F9
:10063000EFFF08220FF2380100A800F01EFD30B9CC
:1006400008237F2240F2A27100A8FFF7E1FF0822F1
:1006500000A9204600F0F8FC37BD044D294300FBFB
:1006600003111A46204600F0EFFC37BD00000408D5
:10067000FFFFFFFFFFFFFFFF70B5234C2568064615
:10068000FFF762FF2149B0FBF1F070432F303021BA
:10069000B0FBF1F0032809D3616D41F00101616500
:1006A0002168491B0903090B8142F9D370BD38B594
:1006B0000C4620B101280FD0032820D021E0144D92
:1006C00044B1FFF741FF1349B0FBF1F0401EB0F514
:1006D000005F0CD2286012E04CB1FFF735FF6108D3
:1006E00001EB4000B0FBF4F0B0F5003F01D3202057
:1006F00032BD094900F001024A604008086000204C
:1007000032BD212032BD00003820004090D00300CF
:10071000100004E020A1070068C800400170012219
:100720004270012982700CBF80214021818000210C
:10073000C18001811D4801600E218162016821F0A4
:10074000100101600021416341627047F8B50D4618
:1007500004461749154F4FF0FF3008601646FE62F9
:1007600000207862386840F001003860FFF7FAFE38
:10077000012C19D16DB900F03DFB78B9786AB0420F
:10078000F4D3002EF2D038684008400038601620BC
:10079000F2BD284600F036FB0028EFD1386840084B
:1007A000400038600020F2BD0120F2BD00E00040B2
:1007B00000A8004038B504460D4600F009F800F0E6
:1007C00007F82A462146BDE838401820FFF79DBEAD
:1007D0002A4621461820FFF798BE38B50446002067
:1007E00020814AF6B432207800A9FFF7AFFF08B1A4
:1007F0001C2032BD9DF80000032818BF182801D125
:10080000182032BD042801D1172032BD012801D0A3
:10081000212032BD002500E06D1CA188EDB2091D2C
:100820008D420BDA281900F10A01207840F2DD220E
:10083000FFF78CFF0028EFD0262032BD00250020D6
:1008400006E00146EDB22819007B00F029FC6D1C82
:10085000A188EAB28A42F4D3A27AE37A9B18FF2BEA
:1008600001D0222032BD0B191D7BB5EB102F01D01A
:10087000232032BD5B7BC0B2834201D0242032BD35
:10088000A078824207D0401EC0B2824201D1272008
:1008900032BD252032BD881C20810220E08000204E
:1008A00032BD38B504466078012804D028D3032827
:1008B00059D01DD324E02078012816D13B2500A86B
:1008C00000F0A0FA0028FAD0432000F042FA207885
:1008D00040F2DD220021FFF739FF30B12846451EE6
:1008E000C0B20028F0D11B2032BD022060700FE0A2
:1008F00000F09AFA00F039F8A078401CA07007E0E8
:10090000182032BDA0782278411EC9B200F02FF81D
:100910002046FFF762FF050018BF00F085FA272D7B
:10092000F0D0A8060BD52278A1781520FFF7EDFDB1
:10093000002DEDD10320FFF793FC002032BD6806A7
:1009400003D4182D18BF1C2D07D121782846FFF796
:1009500031FF04206070284632BD172DE8D100F029
:1009600004F803206070172032BD2278A178062099
:10097000FFF7CBBDF8B504460D461646002706E046
:10098000E088411C0019E180807A78557F1CBFB255
:10099000B74209D2E08821898842F1D32046FFF787
:1009A00080FF0028ECD0F2BD0020F2BD10B5044657
:1009B0002046FFF776FF0028FAD010BDF8B50446B0
:1009C0000D4616461F4607E03046A047294600F070
:1009D00079FB05467F1E761CBFB2002FF4D1284656
:1009E000F2BD38B50C46154605E0014614F8010B7A
:1009F00000F068FB6D1EADB2002DF6D132BDF8B52A
:100A000004460D461F461646286823683A46314676
:100A10009847040005D1E8683A463146FFF7E1FF00
:100A2000E8602046F2BD10B5029C847203814260EA
:100A300001604FF0FF31C1600021017410BD2DE94C
:100A4000F84F8946044699F81BB0D068A249BBF11B
:100A5000800FA8BF4FF0800B88421E4651D1002E58
:100A60004DD0B06800904FF0FF38002509EB450AE3
:100A70009AF848700DE0FFF775FDF80240F000624B
:100A800000984FF400634146FFF798FF8046781CBA
:100A9000C7B20AF148004078B84204DA681CC5B20F
:100AA000062D02DAE2E7FF2FE5D1D9F844006FEA1C
:100AB0000801884225D1A068736800BA4FEA5B023A
:100AC00049469847C8B9E06805BAA06802BAB06854
:100AD0005B464FF0FF31FFF771FFC04385420CD1F9
:100AE00040F6A720A9F810000122A068736800BA98
:100AF00009F110011030984708B1422002E0172098
:100B000000E04320BDE8F28F2DE9F04F0D4683B0A1
:100B10008046D5F804A02889ADF80400914605F177
:100B2000140606F11007042352464046FFF767FFFC
:100B3000002870D1BAF8000040BA80B20090BAF82C
:100B4000020040BA84B2E00748BF462063D4B4F53F
:100B5000026FC8BF4E205EDC002C5BD00098DFF82F
:100B60007CB148B14FF60441401A00F09C80FF3838
:100B700053D0FE3851D0ACE0287C08B151204AE077
:100B80008D2C28BF4F2046D22346321D00F0A9F8F5
:100B9000002840D1FA7E802AA8BF802202F10C00F2
:100BA000844201BFB08840BA00F47F40B0F5007FB6
:100BB0002CD1F08840BA4EF25031884202BF388AB8
:100BC00040F6A721884221D1788A00F47F40B0F511
:100BD000807F01BFB06800BADBF81C10884215D1D5
:100BE0004FF6FF70388206F110014FF0FF30FFF72B
:100BF000F8FEF16809BAC943884204BF387E042868
:100C000004D1787E032818BF062801D0452002E0D1
:100C1000012028740020BDE8FE8F287C002844D0E5
:100C2000042300F05DF80028F5D1DAF8000006BAD8
:100C3000201F84B2DBF81C00864238BF4820EAD36C
:100C4000796DA019884228BF4920E4D200984FF658
:100C5000035188420DD1B9F1000F0AD0D9F8002014
:100C600031460220904720B14A20D4E7E01B84B2ED
:100C7000BE19002CCED0BDF804008442B4BF274674
:100C800007463B4600F02CF80028C4D1B9F1000F0C
:100C9000ECD0D9F804307A085146304698470028FD
:100CA000E4D04B20B7E7287C08B94120B3E7042CF7
:100CB00018BF4C20AFD16A68042300F012F8002856
:100CC000A9D14B462A463946304603B0BDE8F04F1D
:100CD000B5E644209FE70000E320BBDE00000008EB
:100CE0005246294640468AE670B50D460446288994
:100CF000C107164601D4802803DA4F2070BDA87AB8
:100D000078B9324629462046FFF7FEFE0028F6D085
:100D1000172807D1286861688847172802D1002062
:100D200070BD502070BD000080B54FF4E13101204E
:100D3000FFF7BDFC394802218160012101600920D3
:100D40000921FFF713FCBDE8044004210A20FFF746
:100D50000DBC3449CA685207FCD50860704710B50D
:100D6000044603E014F8010BFFF7F3FF2078002896
:100D7000F8D110BD30B583B00FF2BC0218CA00A97B
:100D8000042218C1052100AD0DE080B20A2390FBBA
:100D9000F3F30A2404FB1304E4B2184604F130030D
:100DA0004B5504B10A46491E49B20029EDD500A8A9
:100DB000D2B21018FFF7D3FF37BD10B50446200993
:100DC0000A28ACBF37303030C0B2FFF7C2FF04F0A2
:100DD0000F000A28BDE81040ACBF37303030C0B239
:100DE000B7E710B50446200AFFF7E7FFE0B2BDE819
:100DF0001040E2E70A480068800701D501207047EB
:100E00000020704710B50446FFF7F4FF20B10548F5
:100E100000682070002010BD012010BD54C80040A3
:100E200048C800403CC8004080B500A8FFF7EAFF72
:100E30000028FAD001BD0000303030303000000012
:100E40002DE9F84FFFF78EFBFFF7EEFF0020FFF7CD
:100E500007FA0FF27018474D0FF23C1BDFF818919C
:100E60000FF2181A41A642A41EE05046FFF777FF82
:100E70000C27B9F81A00F84000F00F00FFF77AFFCE
:100E8000012FA4BF2E20FFF764FF3F1FF1D520469E
:100E9000FFF765FF09F11A00408EFFF76BFF584618
:100EA000FFF75DFFFFF7C0FFFFF75CFB0220FFF7D6
:100EB000D7F900A8FFF7A6FF0028F5D19DF800009C
:100EC000FFF747FF9DF800000A2818BF0D28CCD077
:100ED000312804D032282ED0332831D0E2E70FF267
:100EE000F400FFF73CFF0120FFF7DCFA07460FF2A2
:100EF000F800FFF734FF2FB90520FFF7B1F90FF223
:100F0000FC00CDE70420FFF7ABF90FF2FC00FFF780
:100F100026FFB80648BF0FF2FC0005D478064CBF88
:100F20000FF208100FF21410FFF719FF3846FFF701
:100F300058FF3046B4E70120FFF792F9BDE8F18F82
:100F400000273046FFF70BFF288A40F6A72188428A
:100F500018BF4046A4D178197F1C90F8240020B116
:100F6000FFF7F7FEFFB2202FF5DBE2E70D0A0000E6
:100F70002062000000200008000000080D0A454D16
:100F80003335372053657269616C20426F6F746C22
:100F90006F616465722076000D0A312E2075706CC9
:100FA0006F61642065626C0D0A322E2072756E0DC1
:100FB0000A332E2065626C20696E666F0D0A424C02
:100FC000203E20002A2A206E6F20617070202A2A7D
:100FD0000D0A00000D0A626567696E2075706C6FFE
:100FE00061640D0A000000000D0A53657269616CAE
:100FF0002075706C6F61642000000000636F6D707D
:101000006C6574650D0A000061626F727465640D31
:101010000A0000000D0A584D6F64656D20626C6F08
:10102000636B206572726F72203078000D0A6669FA
:101030006C65206572726F72203078000D0A6572DF
:10104000726F722030780000814212D2101851184D
:10105000401E491E92B2002A1EBF11F8013900F845
:101060000139521EF6D1704711F8013B00F8013BDF
:10107000521E92B2002AF7D1704710B500E0521EFE
:1010800092B222B100F005F8F9D0181B10BD002073
:1010900010BD10F8013B11F8014BA342704700004E
:1010A0000A0242EA11214840C0F30311484080EA95
:1010B000003041010206C9B2D20E41EA0221484085
:1010C00080B270470A0A4840C0B208214308C007EE
:1010D00046BF034858401846491EF7D15040704754
:1010E0002083B8ED2748018A40F6A772914202BFDB
:1010F000408A4FF47F41084203D1022801DB0120DE
:10110000704700207047F8B504461D4E01200D467B
:101110003070FFF7E7FF18B94FF40170FFF758F888
:1011200029461848876A44F48070B8470021317016
:101130000FF2540618B9294644F40070B847805D90
:10114000F2BD2DE9F041044688465600FFF7CAFF7C
:1011500018B94FF40170FFF73BF80A48476A0023BB
:10116000324641462046B8470FF21C0520B93346A7
:10117000002241462046B847405DBDE8F0810000AE
:101180002C0C002000000408000202024B4B4647D2
:1011900000366E01EE0800000100FFFFFFFFFFFFB9
:1011A000FFFFFFFFFFFFFFFFFFFFFFFFFFFFFFFF4F
:1011B000FFFFFFFFFFFFFFFFFFFFFFFFFFFFFFFF3F
:1011C000FFFFFFFFFFFFFFFFFFFFFFFFFFFFFFFF2F
:1011D000FFFFFFFFFFFFFFFFFFFFFFFFFFFFFFFF1F
:1020000000240020D9090108310901083509010817
:10201000A70A080100210008040303AC0056E700EA
:1020200013318C550000000000000000000000008B
:1020300000000000000000000000000000000000A0
:1020400000000000010D92C00425FFFFFFFFFFFF0D
:10205000FFFFFFFF00E0020800000000000000009A
:10206000AE85C02BAF8853F8FFFFFFFFFFFFFFFFD8
:10207000FFFFFFFFFFFFFFFFFFFFFFFFFFFFFFFF70
:10208000F02F002000000000EC2F0020EC2F00209B
:1020900000240020342E0108960B0108A01A00200D
:1020A000040E00200000030800300020FFFFFFFFA7
:1020B000FFFFFFFFFFFFFFFFFFFFFFFFFFFFFFFF30
:1020C000FFFFFFFFFFFFFFFFFFFFFFFFFFFFFFFF20
:1020D000FFFFFFFFFFFFFFFFFFFFFFFFFFFFFFFF10
:1020E000FFFFFFFFFFFFFFFFFFFFFFFFFFFFFFFF00
:1020F000FFFFFFFFFFFFFFFFFFFFFFFFFFFFFFFFF0
:1021000000240020D9090108310901083509010816
:102110003D0901083909010841090108BC09010804
:10212000BC090108BC090108BC090108BC09010877
:1021300045090108BC090108BC09010885770008A8
:102140008BE20008BC090108AB810008BC0901084A
:10215000697B0008A1800008BC090108BC090108CE
:10216000F9C8000873960008F1B00008EDB6000841
:10217000BC0901081FBA000867BA0008B37000085C
:1021800099390008BC090108BC090108BD0901080A
:1021900070472DE9F84FDFF81C580FF29001044604
:1021A0002878002600F088FD0FF2A82A0FF2645B61
:1021B0000FF25058DFF8009804E0514600F07CFD23
:1021C000701C86B2226828783701B9184B689BB119
:1021D000BA584B4503D1414600F06EFDF0E78B68DD
:1021E000594600F069FD20683818C2682878002A2E
:1021F000E3D00FF22851EFE70FF2A40100F05CFDED
:1022000028780FF2C40100F057FD28780FF2E8019A
:1022100000F052FD28780FF20C1100F04DFD2878E7
:102220005146BDE8F44F00F047BD0000434F4D4D0F
:10223000414E44205B504152414D45544552535DFF
:10224000205B2D204445534352495054494F4E5D25
:102250000D0A202077686572653A20623D627566D6
:102260006665722C2073313D696E7438732C20734F
:10227000323D696E743136732C2075313D696E7450
:1022800038752C2075323D696E743136752C207589
:10229000343D696E743332750D0A0D0A000000007A
:1022A00020202120202D20526563616C6C732074E6
:1022B00068652070726576696F757320636F6D6DE8
:1022C000616E640D0A00000020205B7461625D2075
:1022D0002D20417474656D70747320746F20746167
:1022E0006220636F6D706C65746520636F6D6D61E6
:1022F0006E640D0A00000000202020202A2A204EB3
:102300004F54453A20616C6C20696E70757420766C
:10231000616C7565732061726520696E20686578EF
:10232000210D0A00202020202A2A20436F6D6D6194
:102330006E647320617265204E4F54206361736533
:102340002073656E7369746976650D0A000000007C
:10235000A0F141011A293CBF2030C0B270472DE9DD
:10236000F84F0546DFF85416A86800680968DFF8DA
:102370004466C0B2002410F80180B8F1210FA346D2
:1023800007DB30780FF2D001BDE8F84F202200F0D3
:1023900093BC00F0B9FC8246A14607E019F80A0098
:1023A000FFF7D6FF09F80A0009F10109C145F5DB7D
:1023B00042460FF2E801504600F042FF40B94FF0AC
:1023C000010B05E030780FF2DC013A4600F074FCB6
:1023D0002968200142185268130039D0641CDFF8C4
:1023E000D8954A45A4B2F3D14758BBF1000FE9D1C3
:1023F000384600F039FF4045EAD14246514638465A
:1024000000F012FF0028E3D10FF2EC280FF20C3B92
:102410000FF2980A04E0414600F04EFC641CA4B29E
:102420002868270139184A68130018BF4A450FD099
:102430003A588B683078514600F03EFC28683818CE
:10244000C2683078002AE6D0594600F035FCE5E74E
:10245000BDE8F18F0D0A00004572726F723A206C70
:1024600069737420617267756D656E7420746F6F27
:10247000206C6F6E672C207765206F6E6C792073EF
:102480007570706F727420757020746F20257520C0
:1024900062797465732E0D0A000000006D6F64751B
:1024A0006C65730025700D0A000000002570202562
:1024B0007000000070B5044688B0A068DFF80055D1
:1024C0000068DFF800652870A068406830700FF27F
:1024D000580001F0B7F8A168DFF8EC04C9682B7860
:1024E0000170A26800781269DFF8E01405900A70A4
:1024F0000FF25C0009780FF260020490079101204E
:1025000003907EA002900FF258013078019006915E
:1025100004F111010FF2500000900FF2540001F08D
:1025200091F808B070BD00005475726E696E672036
:102530006F66662074616773206E6F7420796574AE
:1025400020737570706F727465640D0A000000006E
:1025500064656C696D000000686561646572000007
:102560007465787400000000636F6D6D616E6400C7
:102570007B264E20566572626F73697479206F7086
:1025800074696F6E732073657420746F3A0D0A2638
:1025900074750D0A2674750D0A2674750D0A267455
:1025A000750D0A2674757D0D0A000000DFF82014F1
:1025B000007C51F82020DFF8FC030FF208010078BE
:1025C00000F07ABB4349204572726F723A20257041
:1025D0000D0A000038B5DFF8DC43207846A500F08E
:1025E00035FA20780FF2340100F066FB00F02DFA86
:1025F00020780FF24C0100F05FFB207840A100F042
:102600005BFB20780FF2440100F056FB20780FF2BC
:102610004801BDE8344000F04FBB0000456D6265E5
:1026200072204E6F64652054657374204170706C25
:1026300069636174696F6E2076312E30000000008E
:102640004A756E20323520323031350031373A3418
:10265000383A3534000000000D0A0D0A0000000071
:102660002DE9F24F044682B0256BDFF8489390467F
:10267000002705E020A100F01FFB7F1CBFB2103532
:102680006868B8B32E68DDF808A04FF0000B0EE0C4
:102690001AF8010BFFF75CFE009016F8010BFFF72C
:1026A00057FE0099C9B28142E7D10BF1010B1FFA25
:1026B0008BFBC345ECD32068DFF8FCC23E01311828
:1026C00032584B6899F80000634504D10FF2340189
:1026D00000F0F2FAD1E78B680FF2380100F0ECFA63
:1026E00020683018C26899F80000002AC2D00FF2A2
:1026F0002C01EDE7BDE8F78F0D0A0000746167005B
:102700002C2000002D2D2D2D202570202D2D2D2D40
:102710000D0A00002020257020257000202D202586
:10272000700D0A002DE9F0439BB00EA80FF2A42112
:10273000342200F0B9FF4FF000098DF80190A52078
:1027400001F002F801F050F8002201230F21104699
:1027500001F0AEF9050006D0002201230A2110463F
:1027600001F0A6F90546012300220F21184601F0C9
:102770009FF9060006D0012300220A21184601F025
:1027800097F90646012300220F21022001F090F95B
:102790005FEA000806D0012300220A21022001F08E
:1027A00087F9804601F08AFB824C5DB1002E68D02B
:1027B000B8F1000F6BD040F2E1110FF24C2001F0A4
:1027C00083FB04E0002E18BFB8F1000F62D084F83C
:1027D0000090201D01F0A6FC201DFFF7FBFE0FF26C
:1027E000382500F032F920780FF2802100F064FAE9
:1027F00020786DA600F026F9201D01F029FF00F0D9
:1028000024F920780FF2702100F056FA00F019F93F
:10281000201D01F08EFF00F018F920780FF26421DE
:1028200000F04AFA00F00DF9201D03F036FB00F02D
:102830000CF920780FF2582100F03EFA00F001F96F
:10284000201D03F04DFB00F000F920780FF24C2121
:1028500000F032FA00F0F5F8201D03F05EFB00F006
:10286000F4F820780FF2402100F026FA00F0E9F8A1
:10287000201D03F041FF4DA54DA60FF2A41801AF96
:102880003FE0B8F1000F05D001202070A1E7022041
:10289000FBE725702078FF289BD1002500A928465A
:1028A00001F048F938B99DF800000D2818BF0A2832
:1028B00018BF2A28EDD06D1CEDB2032DEEDBE9E741
:1028C0008DF800009DF80010CA5D481C0A2A18BF48
:1028D0000D2A18BF002AF3D10D22CA558DF8000029
:1028E00001A99DF80020201D01F028FC9DF8002082
:1028F00001A90EA800F04EFC9DF8009000208DF874
:10290000010000F0A6F820780DF10103322201A9A0
:1029100001F05AF90028D3D000F012FF04F0C0F9FA
:102920009DF8010020B39DF8011001A8081810F8C7
:10293000010C09281CD100F084F89DF80100401E0C
:102940008DF8010001A99DF80120201DFFF788FEE8
:102950009DF801100020C85500F07BF8002004E02D
:1029600000F06AF89DF80000401C00F05DF8F7D315
:102970009DF804002128C6D100F063F84A460EA94C
:1029800001A800F007FCA9F101008DF8010000F09A
:1029900060F8002000F048F8B5D200F04DF89DF83E
:1029A0000000401CF6E700005D0D0A0025630000F2
:1029B0000D0A00000024002091210008642400205A
:1029C00038240020392400203A2400203B24002011
:1029D0001C2500200D000000000000000000000089
:1029E00000000000000000000000000000000000E7
:1029F00000000000000000000000000000000000D7
:102A00000000000000000000706C6174666F726D61
:102A1000746573742E6300005B494E4954200000B6
:102A20000D0A3E20000000008DF800009DF8011006
:102A30009DF8000088427047C25D2078294600F06A
:102A40003BB92078314600F037B92078294600F0AC
:102A500033B94146207800F02FB980B504F0C2F9AF
:102A6000BDE8024000205DE600207047637261739C
:102A700068696E666F000000696E6974546F6B65FB
:102A80006E7300007265736574737472696E6700AB
:102A9000696E6974526164696F00000073656564F2
:102AA000506E726700000000736574506572546563
:102AB000737454780000000070B51346101802E0DB
:102AC000A4192C705B1EDBB24BB101F00F06090993
:102AD000451E0A2E2846B4BF30243724F0E71018CC
:102AE00070BD2DE9F24F88B0804601A81446994682
:102AF00001AD4FF0000B00278DF8000010E001271A
:102B0000641E05A885420AD39DF800002E1A00F025
:102B1000B4F8002839D1B3445FFA8BFB01AD641CD3
:102B20009DF800002E1A207800280BD0252803D00D
:102B300017B905F8010BE4E7002F14BF0027641C48
:102B40002078010000F08E80B0F1250113D00B3900
:102B5000092967D928395CD00B390ED0491E2CD0F1
:102B600008392AD0091F0BD0C91E09D0891E24D0CC
:102B7000C91E4ED0C5E72520DBE759F8040BD8E77E
:102B800059F804AB00F079F8002872D1B3445FFA29
:102B90008BFB01AD002600E0761CF6B216F80A00A9
:102BA0000028F9D19DF8200032465146C047002840
:102BB0005FD1B3445FFA8BFBA3E759F8040B002104
:102BC000002803D52D212970404201210023002235
:102BD0004FF0000C02E0801B0CF1010C0FF2041608
:102BE00056F82260B042F6D243EA0C06F6B2002E46
:102BF00005D0C9B20CF130034B55491C0123521CBE
:102C0000092AE5DBC9B230304855481CC0B2451925
:102C100077E759F8041B0222C9B22846FFF74CFF98
:102C200005466EE760780127782818BF5828F8D144
:102C3000641C002714F8010C322804D159F8041B35
:102C4000042289B2E9E734287FF459AF59F804AB7C
:102C500004224FEA1A412846FFF72EFF04221FFAEA
:102C60008AF1DBE700F009F818B906EB0B00C0B2F7
:102C700000E0002009B0BDE8F08F9DF82000F2B21E
:102C800001A9404709A117E010B5094BC35C002416
:102C9000012B07D113460A4601460648FFF721FFDC
:102CA00000B90124204610BD000000000D0A0000FC
:102CB000A43E0008873D00080CB480B502AAFFF7C7
:102CC000E3FF02BC5DF80CFB0CB438B5044604AA63
:102CD000FFF7DAFF05462046FFF7D4FF284632BC4F
:102CE0005DF80CFB00CA9A3B00E1F5058096980060
:102CF00040420F00A086010010270000E8030000FA
:102D0000640000000A000000DFF85814096801EBB5
:102D100040107047DFF850241268815470472DE945
:102D2000F041040035D004F09DFADFF84014DFF8DC
:102D300040340E78FF228046FE2EDFF838041BD187
:102D400000260E70DFF830C4DFF8306437781F706B
:102D5000002708E007F1010E07F805E0DCF8005055
:102D60007A555FFA8EF796F800E005687745F1DB53
:102D70000EEB050606F8012C1E78A6420BD2404643
:102D800004F076FA052004F07BFA00211B2004F001
:102D9000CBFAFF201CE0361B1E70DFF8E4330E7800
:102DA0000F78D3F800E0012507F80E50641E05687F
:102DB00017F805E081F800E0E4B2002CF0D17A5574
:102DC00000213046FFF7A6FF404604F051FA304696
:102DD000BDE8F08110B5044604F044FADFF8A01312
:102DE0000968625C521C6254BDE8104004F040BAAD
:102DF0002DE9F041054600F031F8044604F032FABE
:102E0000DFF86823DFF86833DFF86863DFF8708382
:102E1000FF2D1FD0D8F800106F5C7F1E6F547F27E6
:102E2000D8F800E015F80E10394213D13168695C0A
:102E3000002705F80E701F787F1C1F70FF29376868
:102E400092F800E005F807E0157006BF2546FF245C
:102E50000D46DDE7BDE8F04104F00ABA80B5DFF8C1
:102E600020130968415C090603D5FFF74DFF007880
:102E700002BDFF2002BD70B504460D4605F11F00DE
:102E80000004400D82B0C0B2FFF749FF0646FF2E96
:102E90000CD02946FFF73EFF3CB1012000902B46A5
:102EA00000223146204600F002F8304676BD73B568
:102EB00000F0BBF8085C15461E467119884203DA1B
:102EC0004FF4B07100F0DAF866B1294601A800F0BD
:102ED000D9F8024606989DF8041000903346204623
:102EE00000F001F873BD2DE9F843089CDFF88482F7
:102EF0000546894616461F460BE04A5D0A54491CA2
:102F0000B142FADBD8F80000BF1B751919F8009020
:102F10000026FFB2BFB14846FFF7F6FE3018F119A0
:102F20002029B2BF3E46C6F12006F6B2324624B989
:102F30000146284600F02EF9E4E7012C08BF294697
:102F4000F8D00021DCE7BDE8F1832DE9F04100F085
:102F50006CF882B01600255C88461F460ED07119A9
:102F6000C9B2204600F04FF808B1182007E00097DA
:102F700033462A4621464046FFF799FF0020BDE828
:102F8000F6810123E1E70A4600E0521C1378002B8A
:102F9000FBD1521A0223D2B2D7E7F8B5044601F1A9
:102FA0001F00C50402F11F00C0042D0E000E05B95C
:102FB000012500B90120854223D08542DFF8B461A4
:102FC00010DA401BC0B2FFF7AAFE0746FF2F01D15F
:102FD0000020F2BD691EC9B2204600F02BF831680E
:102FE00047540EE08A420CD2411EC9B2204600F07E
:102FF00021F804463068205CFFF7FAFE3168FF20B4
:1030000060540120F2BD38B500F00FF80D46215C88
:103010002A462046FFF7C1FF28B129462046FFF780
:1030200079FE002032BD182032BD0446DFF8380199
:103030000068704704E0DFF83C211268805C491E9C
:10304000C9B20029F7D1704711B581B0DFF8180176
:1030500000680C469DF80410085C844203D34FF4CA
:10306000F47100F00BF8214601A800F00BF80446BB
:103070009DF80400FFF748FE201816BD0FF204105B
:1030800000F022BF38B504460D46E9042078090E49
:10309000FFF7D0FF207005F01F0032BD80B5FFF7AD
:1030A000D3FF007802BD10B51446FFF7CDFF0470C2
:1030B00010BD70B500F00AF800F004F800EB06202F
:1030C00080B270BD064629462046E7E70D46691CDA
:1030D0000446C9B2E2E72DE9F541089C1F464CB30E
:1030E000254689B200A8FFF7CDFF0646B9B201A870
:1030F000FFF7C8FF07463046B84238BF3846C0F130
:103100002000C0B2A842B8BF05469DF80400FFF7F2
:10311000FBFD80469DF80000FFF7F6FDAAB207EB25
:103120000801301800F036F8641BA919EF19A4B291
:10313000002CD5D1BDE8F38170B504460D4604F0EE
:1031400091F80D4B21781B68FF2908BFED5403D07F
:10315000C9180E78EE540D702570BDE8704004F06B
:1031600087B800006024002064240020F824002098
:103170005E2400206C240020702400205D240020A8
:10318000682400207061636B65742D6275666665E6
:10319000722E6300814233D210185118401E491E0E
:1031A00010E011F8013900F80139121F11F8013946
:1031B00000F8013911F8013900F8013911F8013925
:1031C00000F8013992B2042AEBDA92B2002A1EBF4B
:1031D00011F8013900F80139521EF6D1704711F883
:1031E000013B00F8013B121F11F8013B00F8013BC5
:1031F00011F8013B00F8013B11F8013B00F8013BDD
:1032000092B2042AEBDA92B2002A1EBF11F8013BF7
:1032100000F8013B521EF6D17047130003D00A4656
:10322000194604F085B8704710B500E0521E92B2FE
:1032300022B100F012F8F9D0181B10BD002010BD0B
:1032400010B500E0521E92B22AB100F006F8F9D093
:10325000181B40B210BD002010BD10F8013B11F842
:10326000014BA3427047000000F10103810704D025
:1032700010F8011B89B18107FAD10268B2F101315E
:10328000914311F0803F04BF50F8042FF6E710F887
:10329000011B11B110F8011BFBE7C01A70470000B9
:1032A00038B50446611D206A2368451A2079EAB2C0
:1032B000984708B1002032BD00F018F8601D206268
:1032C000012032BD38B50446002500E06D1CEDB28A
:1032D000685C0028FAD1207923682A46984718B9F3
:1032E00000F004F8012032BD002032BD94F829001E
:1032F000281884F8290070472DE9F04F044683B060
:10330000601D206204F1200704F1150078600E466C
:10331000002091467872DFF8608312E010B1601DE2
:103320002062164625B17D2000F065F901F8010DF7
:10333000206A7968884203D300F063F9002863D0DB
:10334000761C3078002800F04D81252898F801106F
:1033500018BF26280AD07B281CBF7D28232802D12D
:103360000029E5D0E0E798F80210F9E716F8012FF8
:10337000252A18BF262A04D100F03DF901F8012DB5
:10338000D6E726280BD151B101256E2A18BF4E2A47
:1033900006D000F030F97B2001F8010D00E0002597
:1033A000317800204E2906D0542926D06E2902D02B
:1033B000742922D034E098F8000059F804BB0028A2
:1033C000B6D03DB1206A7B2100F8011B411C21626F
:1033D0002821017000F015F9002815D000F008F937
:1033E000002811D0002DA3D0206A292100F8011B4C
:1033F000411C21627D2101709AE700F000F900284C
:1034000002D000F0F5F800287BD000F0FAF8002890
:1034100077D000F0F0F83A2001F8010D761C012079
:10342000317896F801E0A1F13002D2B2911E05295F
:103430003CD2BEF1640F18BFBEF1750F36D159F8FA
:10344000041B1FFA81FC00230121BEF1640FE24638
:1034500009D15FEA0C4E06D56FEA0C0C0CF1010C99
:1034600001231FFA8CFCBCF1000F0AD04FF00A0EAA
:103470009CFBFEFC5B1C1FFA8CFCBCF1000FF5D121
:103480000BE05B1C09E0D7F800E00EF1010EC7F875
:1034900000E04FF0200C0EF801CD9C460CF101032A
:1034A0005FFA8CFC9445EEDB761C00E0002133785B
:1034B000721E002B00F09280322B18BF342B69D083
:1034C000482B5CD0582B5CD0632B0CD0642B1BD0CA
:1034D000682B54D0702B18BF732B0BD0752B13D0C7
:1034E000782B4ED01AE7206A411C216259F8041B40
:1034F000017017E700F083F818B100F079F80028A0
:10350000F7D10020BDE8FE8F002919BF1FFA8AFA03
:10351000514659F8041B89B229B900F06CF83020E3
:1035200001F8010DFEE60020642B0DD10A040BD535
:103530003B685B1C2D223B60B1F5004F03F8012D69
:1035400002D0494289B259B10A2291FBF2F20A2310
:1035500003FB121100ABC0B2C154401C91B2F2E7A0
:103560000146481EC9B2002913D000A9C0B23A686A
:10357000415C521C3A60303102F8011DF0E700F066
:1035800042F8022259F8041B206AC9B2FFF794FAE4
:103590002062C7E616F8010F682818BF48280BD12B
:1035A00000F031F816F8011C206A32290AD159F8C6
:1035B000041B042289B2E9E7782818BF5828F1D003
:1035C000761EAFE659F804BB04224FEA1B41FFF711
:1035D00073FA206204221FFA8BF1D7E700287FF4E8
:1035E0009DAE9EE600F00DF800288AD0787A89E733
:1035F0005946204666E63968491C3960704759F8D3
:1036000004BB20464CE6206A302100F8011B411C17
:1036100021627821017070470EB410B517490978FE
:103620008BB0002409B900200BE0154900910DAAC8
:1036300000F01CF8014600A8FFF75EFE00B9012467
:1036400020460FE00EB410B58BB00D490091002458
:1036500000F00CF80DAA014600A8FFF74DFE00B9D6
:10366000012420460BB010BC5DF810FB0549097819
:103670008DF8041070470000392400203824002001
:10368000873D00080024002062B38B0708D0521E3B
:1036900011F8013B00F8013B00F024808B07F6D1C4
:1036A000830740F0208000BF103A07D330B4B1E860
:1036B0003810103AA0E83810F9D230BC530724BFB4
:1036C000B1E80810A0E8081044BF51F8043B40F8E6
:1036D000043BD20724BF31F8022B20F8022B44BF51
:1036E0000B7803707047083A07D3B1E80810083A1E
:1036F00040F8043B40F804CBF7D25307E4E700005E
:103700002D480068C00701D42C4870472C487047EA
:1037100080B5FFF7F5FF2B49096801B9400802BDE4
:1037200080B5FFF7EDFF400802BD03F0F6BE264866
:10373000012181604EF6BE21416001210160704788
:103740002249012008607047A52805D11E484DF682
:10375000AD6141600221016070471B480068C007ED
:1037600001D5012070470020704780B51849194ADB
:103770001020086018491948007858B103280CBF78
:1037800000200120106040F651000860002004F085
:103790007EF906E0022010604FF40060086003F03C
:1037A00075FE07210E4801600021016410200D49BB
:1037B0000860002002BD00001C400040001BB70054
:1037C00000366E012040004000600040086000406C
:1037D00080E100E0080000400C600040D22F002093
:1037E00014A0004000E100E080B59F480021416046
:1037F00041708170A5210170012003F03CFD03F0B0
:103800003EFD00F01EF8002002BD98480168C9077F
:1038100000D4704780B596490A6822F440620A6075
:10382000016849084900016001680902FCD4914817
:10383000006810B1642004F00FF98F49002008607F
:1038400001BD80B58D48016841F0807101600120A3
:103850008B49086000208B4904F027F98A498B4A7C
:103860000220086000208A4908608A498A4801606D
:10387000012111607D4A8949116040F201410165D1
:103880004FF480308649086001BD7B48006800B174
:103890000120C0B27047D12202704170090A8170C4
:1038A00080490A78C270501C0870042070472DE9C6
:1038B000F14F82B0002500907B4800990068085CB9
:1038C000441DE4B204F032F901904FF6FF79FFF79E
:1038D000DCFFB8B954E0A91E9DF80800C9B2FFF793
:1038E000DDFB0746494604F053F981465546F00092
:1038F000F9B2761C01FA00F0042E40EA080815DB44
:10390000CBF80080EDB2A54232DA04F00FF901994C
:10391000401A80B2B0F5FA7F2ADC4FF0604BDBF83A
:1039200000000128EED14FF000080026EDB215B9D5
:103930005B270125DBE7012D05F1010A04D15A4877
:10394000009900680F5CD1E7E11E8D4208BF4F4629
:10395000CCD0A11E8D4208BF4FEA1927C6D0611EE8
:103960008D4208BF5D27C1D0A542B4D10027BEE774
:103970004FF4C87004F070F8A54208BF002000D0D2
:103980000120BDE8FE8F48490968415C0429A8BFB1
:10399000FFF78DBF012070472DE9F04D324D6E7855
:1039A000002E5ED004F0C2F8834631460020FFF7B7
:1039B00062FA0446FF2CA04602D10020687050E055
:1039C000202EB4BF37462027FFF79EF96860AF70FE
:1039D000DFF8D8A004E04046FFF796F96860AF70C2
:1039E0006878C0B104F0A2F8A0EB0B0080B2B0F58B
:1039F000FA7F10DCA8780028F2D1F61B6E70F6B2C0
:103A0000002EEDD0DAF8000018F80080202EB4BFA8
:103A100037462027DFE7002E04BF6878002818D13A
:103A2000A878B0B920480068205C851EE9B220461D
:103A3000FFF73FFB122808D1E9B22046FFF7E3FA6F
:103A40002146122004F080F906E0204604F0C6F872
:103A500002E000206870A8702046BDE8F04DFFF736
:103A6000C7B9BDE8F08D0000F02F0020800E00E007
:103A7000001000E034000040100004E0FCED00E025
:103A8000040004E020A10700F00004E0000E00E0C4
:103A9000040304E055CEACC5B00F00E00D000100FA
:103AA00000E100E0D52F0020642400206C240020D9
:103AB0002DE9F0470446884691469A4600F0E2F91F
:103AC000002801BF25460FF2DC30285C012823D1F5
:103AD000DFF8A46356F8257003F0C4FB0021B98019
:103AE0003980798003F0C4FB06EB8500066903F09A
:103AF000B9FBDFF888230021B18031807180A9549F
:103B000003F0B6FB04F0CBFA53464A464146204642
:103B1000BDE8F04704F08AB92120BDE8F08710B570
:103B2000044604F086FADFF8500300EB84000069D5
:103B3000808810BD2DE9F84381464C46DFF83803F4
:103B400000EB840088460669484600F09BF908B1FE
:103B5000012037E0DFF82453605D05EB440760B1D6
:103B6000B8887188884208D103F07CFB665D00212B
:103B7000615503F07DFB304624E0484604F059FAD5
:103B8000B088F0B103F06EFB71880FF2243289190E
:103B9000897988F800104FF6FF78718832F8142080
:103BA00000F0EBF87180B1884144B18003F060FB14
:103BB000605D20B1B888404504BF3088B8800020DF
:103BC00000E02620BDE8F283F8B51F4604463878A9
:103BD0000D46164608B1B04208D30020287005E013
:103BE0003878411C39709DF80010415500A92046D5
:103BF000FFF7A0FF002855D19DF800008028F5DAD6
:103C0000397819B90A2818BF0028EFD0B14207D374
:103C1000002038709DF800000D2818BF0028E5D05E
:103C20009DF80000082818BF7F280CD1387800289C
:103C3000DCD0401E38700021C0B2415520468DA115
:103C400000F057F8D2E73878801C8642BCBF0D20C0
:103C50008DF800009DF80010204600F038F89DF81F
:103C6000000061381A2804D29DF8000020388DF831
:103C700000009DF800000D2818BF0A28B0D139783F
:103C8000002048559DF800000D2805D10A21204646
:103C900000F01DF8002603E00D21204600F017F883
:103CA0003E700020F2BD70B582B0044600200D4683
:103CB00016468DF8000001E0FFF742FD00AB3246EA
:103CC00029462046FFF780FF0028F5D176BD02B5D2
:103CD000012200A900F057F802BD80880FF2BC1342
:103CE00033F81110891A884201DA01207047002048
:103CF00070472DE9F047824656460FF2A810305C17
:103D000001280D4636D15C480FF2AC1850F82670E9
:103D10000FF29419002414E003F0A4FAB98801B951
:103D200001243A8815F8011BD2199171398839F8A4
:103D3000162000F022F83980B988491CB98003F0B8
:103D400097FA287888B1002251463846FFF7C5FF18
:103D50000028E1D11CB1504604F0ABF8002416F85D
:103D600008000028EFD1222005E0504604F0A1F819
:103D7000002000E00120BDE8F087491C91FBF2F330
:103D800002FB131170472DE9F84F804647460FF2AA
:103D90001410385C01288B46164638D136480FF28D
:103DA000181950F827400FF2001A002514E003F00C
:103DB00059FAA18801B9012522881BF8011B1219A3
:103DC000917121883AF81720FFF7D7FF2180A18849
:103DD000491CA18003F04CFA3046461EC0B288B19F
:103DE000002241462046FFF778FF0028DFD11DB1B1
:103DF000404604F05EF8002517F809000028EFD1CE
:103E0000222005E0404604F054F8002000E00120A4
:103E1000BDE8F28F80B501460FF288028A5C012A64
:103E200005D1154A52F821108A88002AFCD104F0E5
:103E300095F8002002BD0CB438B504460D4604F0D8
:103E400065F804AB2A4621460D48FEF74AFE0FF2FC
:103E500054012046415C012907D1074951F820004F
:103E6000808810B1204604F024F832BC00205DF8B0
:103E70000CFB000008200800FC240020A42D0020DA
:103E80001D7F0008042806DA0FF21801415C481E65
:103E90008041C00F70470120704700008000800003
:103EA000800080000101010180008000800080000E
:103EB000400040004000400001010101002181F369
:103EC0001188704742DE704738B504460D46FFF74B
:103ED00037FC03F0C7F92946204603F06BFE2B465A
:103EE00022460FF2CC110120FFF7A5FF29462046FC
:103EF000BDE83440E6E72DE9F84F6548654D0168B7
:103F00002E1D4FF4206A7165016AB1656249096826
:103F1000F165416A3166816A7166C16AB166016B99
:103F2000F166806B306796F8340040074CBFF76B42
:103F3000B76BBB4604F0B7F90022584CDFF860813C
:103F4000DFF86091F2648742014624BFA4F12003A8
:103F5000BB4231651DD357F8180F306457F8040F72
:103F60007064706DC005C00D062815D1306C4845D1
:103F700012D3404510D200884DF6426290420BD1D8
:103F800005F18C006A68426040F2017A72688260D2
:103F900002E03264726483464348814202D20146A1
:103FA00000E0091DA14203D20B68B3F1CD3FF8D068
:103FB000601AB064182105F1780004F09FF9002020
:103FC00003E0C0B205EB80029167A34523D254F809
:103FD000041D4945F9D34145F7D2CA07F5D500225A
:103FE00005EB82039B6F8B4203D0521CD2B2062A90
:103FF000F6DB062AE9D1002814BF401E0520E0E7C1
:10400000716F002205EB8203521CDF6F9F67052A48
:10401000F8DBC5F88C100146481EC9B20029EFD163
:10402000706DC005C00D02280AD0032815D00428E1
:1040300016D0052817D0062818D00C281CD01EE052
:104040001A480168890748BF40F6021A1CD4006864
:10405000C00719D540F2025A16E040F6012A13E0D3
:1040600040F6022A10E040F6032A0DE0BAF5206F70
:104070000AD140F6042A07E040F6052A04E018B108
:10408000242838BF40F6072A5046BDE8F28F0000CA
:1040900004ED00E00000002000E300E00024002028
:1040A000960B010890210008980000201CA00040F9
:1040B0000D0A5B4153534552543A25703A25645DCD
:1040C0000D0A00002DE9F8430446DFF8F803006804
:1040D000255C0026E807B14648BF002020D4002711
:1040E0000FF2045802E04FEA00197F1CFFB2AF4202
:1040F00011DA39462046FEF7D1FF10F80800F9071B
:1041000000F00F00EFD549EA0002F1B22046FEF7B9
:10411000CAFF761CE9E7F1B22046FEF7FBFD01205D
:10412000BDE8F283FF2180F826100021C173C1830E
:1041300080F8241081730168016370472DE9F64F00
:1041400083B0814600208DF8010009F104050AE0E2
:10415000687A09F1240148720120E87249469DF805
:10416000000000F0C1F903980026002760BB9DF80D
:10417000100000A9FFF7DEFC002839D0262826D041
:104180000121484600F0A2F97820B0468DF80000E1
:10419000102600208DF80100E87A0828E3D8DFE82F
:1041A00010F00A004D009700FD00FD00550161016F
:1041B000BA00AA00D7E7102ECAD09DF80000232825
:1041C00038D10820E872CEE79DF8100020B99DF89C
:1041D000010005B0BDE8F08F0398401C0390401E1D
:1041E00000788DF800009DF81000401E8DF810003A
:1041F000B0469DF80000672811D29DF800100FF21C
:10420000E830085C00F0300600F00F08400609D5E1
:1042100009F12401497A884504D2012702E07B286C
:1042200038BF10269DF800000A2818BF0D28B0D10D
:104230000120AFE7202E96D003203DE1102E1CBFB9
:104240009DF800005F2800D027B199F824000C28C1
:10425000F2DA83E7202E18BF302E48D199F82410C7
:10426000494400204874002409F11100029009F12A
:104270002400D0F80CA00DE01BF8010B00F02DF984
:104280000199491C0191491E0978814209D0641C99
:104290000AF1100ADAF8040048B3DAF800B002981C
:1042A0000190019800780028E6D19BF800000028D2
:1042B000EDD109F124006C83C068698B00EB01101B
:1042C0008068E8610020A87289F824000220E87262
:1042D00009F12401687A487287B32B20087209F12A
:1042E0002400C0F80480687A487204206AE7032139
:1042F000484600F0EBF89DF8010000280AD0287B22
:1043000028B1D9F804104846884700202873484649
:10431000FFF708FF27E79DF8010018B1484600F0B5
:10432000EFF8F4E79DF80000232803D1484600F099
:10433000E7F846E7202EEDD00420BDE09DF8000010
:104340002D2818BF2B2806D1087200204860687AF3
:104350004872032036E722280CD10120FEF7DFFC4B
:1043600009F12401FF2888700DD00021FEF7D2FC4E
:10437000052027E77B28CED10120FEF7D0FC09F1EC
:104380002401FF28887000F096800021FEF7C2FC0F
:1043900009F1240110204872062013E76FB109F1DA
:1043A000240009F124014068497A01FB00800421BE
:1043B000E97209F124014860D5E69DF800107829DA
:1043C00018BF582908D109F12401496821B909F118
:1043D000240110204872C6E603285AD0202E18BFA8
:1043E000302E56D109F12403E8691B7A027840780F
:1043F00009F124012D2B496808BF4942752A08D1CB
:1044000034281AD00022312814BF4FF6FF70FF2045
:104410000FE0732A08D1312807BF6FF07F027F2099
:10442000294A47F6FF7004E00421484600F04EF8A0
:1044300061E79142A8BF884206DB0222484600F0AD
:104440007EF80028F4D041E70621EEE79DF8000051
:10445000222820D10021484600F086F80028BAD052
:104460000220AFE69DF800007D280FD109F124005D
:104470008078FFF727FE06460121484600F074F8D1
:1044800008B10220E872002EA5D102E0202EA2D0B1
:104490000FB9072010E009F124000A498078096863
:1044A000415CFF2908BF082006D0012200A9FEF7C1
:1044B00068FD00288FD002208DF800009DF80010C4
:1044C00016E70000642400200080FFFF027C1AB978
:1044D0000822C27301745DE07047A0F141011A29FE
:1044E0003CBF2030C0B2704738B50C4694F8245019
:1044F000FFF7F3FF29194874681C84F8240031BDC4
:1045000010B50446206A017831B162290CBF01213F
:104510000221085C2A2807D1216BE28B01EB0211F2
:1045200020464968884706E00420207420466168D8
:104530008847002020742046BDE810402AE010B5CE
:10454000837B047BA34201D105211FE0846844F8EA
:104550002310817B491C8173016A535C2A2B1CBF89
:1045600051180162012010BD10B5026A1278622A4A
:1045700001D004210AE000F12002FF249379947114
:104580000122BDE8104003EB0121D8E7FFF79EFFB1
:10459000002010BDF8B5044604F10805A86AE98AB0
:1045A00000EB01100027866805E00220815D2A29C2
:1045B00018BF86197F1CA879FFB287420AD23078CB
:1045C0006228F2D1A06850F82700C0B2FEF710FCB4
:1045D0000120EBE70020A871A87FFF2803D0FEF799
:1045E00007FCFF20A877F1BD0000000000000000DC
:1045F000002020202020000000000000000000001B
:10460000000000000000000020003030000000002A
:10461000000000300030000040414243444546471E
:104620004849000000000000005A5B5C5D5E5F10BE
:10463000101010101010101010101010101010107A
:104640001010103000000000005A5B5C5D5E5F00DF
:1046500010B540F2A17403F094FE24FA00F0C007F4
:104660000BD5064C207803F0A3FE207803F02AFF38
:104670002078BDE8104004F028B810BD00240020C8
:1046800010B5DFF834440FF218012078FEF714FB60
:1046900020780FF21C01BDE81040FEF70DBB0000B2
:1046A000286C6974746C6520656E6469616E0000C5
:1046B0002C20616C6C20646174612072657072657D
:1046C00073656E746564206173206279746520611E
:1046D00072726179290D0A000178A1F130030A2B69
:1046E0000AD3A1F14103062B38BF373904D3A1F116
:1046F0006102062A03D257390907090E00E000219A
:104700004078A0F130030A2B02D2401830380CE078
:10471000A0F14103062B02D24018373805E0A0F182
:104720006102062A03D240185738C0B27047080900
:10473000704710B504F0D2FA02001AD0DE4C20788F
:10474000042A08BF0FF22C0108D0062A08BF0FF276
:10475000700103D0072A04D10FF2A801FEF7ACFACA
:1047600003E00FF2E801FEF7A7FA20780FF210112C
:1047700091E710BD68616C537461636B496E697435
:10478000546F6B656E73204641494C4544207769F0
:10479000746820454D4245525F454550524F4D5F2C
:1047A0004D46475F535441434B5F56455253494F23
:1047B0004E5F4D49534D415443480D0A00000000DF
:1047C00068616C537461636B496E6974546F6B6597
:1047D0006E73204641494C454420776974682045F2
:1047E0004D4245525F454550524F4D5F4D46475FE4
:1047F00056455253494F4E5F4D49534D41544348DE
:104800000D0A000068616C537461636B496E6974D2
:10481000546F6B656E73204641494C45442077695F
:10482000746820454D4245525F454550524F4D5F9B
:10483000535441434B5F56455253494F4E5F4D4988
:10484000534D415443480D0A0000000068616C5309
:104850007461636B496E6974546F6B656E73204647
:1048600041494C4544207769746820456D62657202
:104870005374617475733A2025580D0A00000000C6
:10488000546F6B656E7320617265207374696C6C14
:1048900020616374697665207768656E2075736939
:1048A0006E672074686973206170706C69636174ED
:1048B000696F6E2E0D0A00002DE9F04FC1B08068BF
:1048C0000568FFF7DDFEA8B204F02AFC0446A8B292
:1048D00004F07DFA8046A8B204F0F5FC764F8346DA
:1048E000002C38781ABF4FF6FF7188450FF27C21F3
:1048F0002CD02346AAB20FF21411FEF7DDF90025E1
:104900000FF2AC190FF2AC1A0AE000A9725C387809
:104910004946FEF7D1F9761CF6B2A642F5DB6D1CCE
:10492000EDB25D4510DABBF1010F234603D17F22C2
:1049300000F011F806E02A4600F00DF838785146EC
:10494000FEF7BAF90026E7E738785146FEF7B4F9E2
:1049500041B0BDE8F08F414600A804F003BA2DE94C
:10496000F047C0B0806804684768FFF789FEA0B2CE
:1049700004F0D6FB8146A0B204F029FA8046A0B22A
:1049800004F0A1FC4C4E0546B9F1000F30781ABF77
:104990004FF6FF7188450FF2D41132D0A5F1010A0C
:1049A00015B1FFB2BA450BDA0FF2CC11FEF784F95C
:1049B00030780FF2FC1153460022FEF77DF922E019
:1049C0004B46A2B20FF24401FEF776F9012D08BF63
:1049D0007F274B463A46FFF7BEFF36A43078214684
:1049E000FEF76AF900270FF2C80805E000AA414661
:1049F000BA5CFEF761F97F1C3078FFB24F45F5DBFA
:104A00002146FEF759F940B0BDE8F0875B253278C2
:104A10005D28256429203D002DE9F047C2B080685B
:104A20000668FFF72DFEB0B204F07AFB8146B0B203
:104A300004F0CDF98246B0B204F045FC0646B9F167
:104A4000000F1CBF4FF6FF708245DFF8A07D05D137
:104A500038780FF21811FEF72FF928E00FF27418CA
:104A6000002403E0504604F08EF9641CB4421EDAC0
:104A7000002513E006FB09F0431E387809FB0452B9
:104A80004146FEF719F93878032200A9FFF70BF920
:104A900000A8FFF721FE01A968546D1C4D45E9DB14
:104AA000012E4B4601AA0CBF7F21E1B2DAE759E0A3
:104AB000202558000D0A0000002400202DE9F047B1
:104AC000C2B0806807684468FFF7DAFDB8B204F046
:104AD00027FB8046B8B204F07AF98146B8B204F0F8
:104AE000F2FBDFF8085D0746B8F1000F28781CBF1D
:104AF0004FF6FF71894504D10FF27001FEF7DCF823
:104B000030E07E1E17B1E4B2A6420BDA0FF2680164
:104B1000FEF7D2F828780FF2980133460022FEF70C
:104B2000CBF81FE000260FF2AC0A10E02878A8F1BD
:104B30000103324600F030FF2878032200A9FFF776
:104B4000B2F800A8FFF7C8FD01A97054761C4645CD
:104B5000ECDB012F08BF7F24434601AA21464846CB
:104B600004F011F942B0BDE8F08700006E6F7420C8
:104B7000666F756E640D0A004552524F523A2044DA
:104B800065736972656420696E6465782069732055
:104B90006F7574206F662072616E676520666F7234
:104BA000207468697320746F6B656E0D0A000000D5
:104BB0002020202020202056616C69642072616EC4
:104BC0006765206973202558207468727520255800
:104BD0000D0A00006461746120627974655B25646C
:104BE000206F662025645D3A000000002DE9F04347
:104BF000F1B0FFF745FDDFF8F44B0FF600482078E1
:104C00004CF2443200F0CBFE20780FF6F831FFF77B
:104C100070F8DFF8DC0B01880FF2883918237F2247
:104C20001DA804F09FF800271DA849463A5C00F033
:104C300063FE7F1C182FF7D3DBA700F066FE2078F9
:104C40004FF2640200F0ABFE20780FF6C831FFF798
:104C500050F8DFF8A00B0188062300F039FE00258C
:104C600000F047FE6D1C062DFAD300F04EFE2078B2
:104C70004FF2644200F093FE20780FF6A831FFF760
:104C800038F8DFF8740B018806237F2212A804F09D
:104C900069F8002512A800F02DFE6D1C062DF9D331
:104CA00000F033FE20784EF2455200F078FE207876
:104CB0000FF68031FFF71DF8DFF8580C00F006FE04
:104CC000002500F016FE6D1C082DFAD300F01DFE25
:104CD00020784FF26E4200F062FE20780FF66831C5
:104CE000FFF707F8DFF8300C018814237F2218A89B
:104CF00004F038F8002518A800F0FCFD6D1C142DF8
:104D0000F9D300F002FE20784FF2424200F047FE55
:104D100020780FF64C31FEF7ECFFDFF8000C00F0C6
:104D2000C9FD002509A800F0E5FD6D1C142DF9D37F
:104D300000F0EBFD20784FF2624200F030FE207868
:104D40000FF63431FEF7D5FFDFF8D40B01880A23C4
:104D50007F220FA804F006F800250FA800F0CAFD76
:104D60006D1C0A2DF9D300F0D0FD20784FF274228B
:104D700000F015FE20780FF61831FEF7BAFF012576
:104D8000DFF8A00B00F0AFFD00F0B9FD9DF80120A9
:104D900000F0B7FD6D1EF3D100F0B7FD20784FF2A3
:104DA000762200F0FCFD20780FF6F421FEF7A1FF3B
:104DB0000125DFF8740B00F08FFD9DF8022000F054
:104DC000A0FD9DF8032000F09CFD6D1EF1D100F0C8
:104DD0009CFD20784FF2766200F0E1FD20780FF61E
:104DE000C431FEF786FF0125DFF8400B00F07BFDA4
:104DF00000F085FD9DF8012000F083FD6D1EF3D1CC
:104E000000F083FD20784FF2634200F0C8FD207867
:104E10000FF6A431FEF76DFF0125DFF8140B00F04B
:104E20005BFD9DF8022000F06CFD9DF8032000F072
:104E300068FD6D1EF1D100F068FD20784FF27442DC
:104E400000F0ADFD20780FF68031FEF752FF01250E
:104E5000DFF8E00A00F047FD00F051FD9DF8012069
:104E600000F04FFD6D1EF3D100F04FFD20784FF69E
:104E7000097200F094FD20780FF65C31FEF739FFDF
:104E80000125DFF8B40A00F027FD9DF8022000F0AC
:104E900038FD9DF8032000F034FD6D1EF1D100F0C7
:104EA00034FD20784EF2636200F079FD20780FF631
:104EB0003831FEF71EFF0125DFF8800A00F013FDF0
:104EC00000F01DFD9DF8012000F01BFD6D1EF3D1CB
:104ED00000F01BFD20784EF26F6200F060FD20783C
:104EE0000FF61831FEF705FFDFF8540A00F0EEFC6C
:104EF00000F0FFFC6D1C082DFAD300F006FD2078B1
:104F00004EF26F3200F04BFD20780FF6FC21FEF7D9
:104F1000F0FEDFF8300A00F0D3FC002505A800F011
:104F2000E9FC6D1C102DF9D300F0EFFC20784CF259
:104F3000563200F034FD20780FF6D821FEF7D9FE66
:104F40000125DFF8040A00F0CEFC00F0D8FC9DF843
:104F5000012000F0D6FC6D1EF3D100F0D6FC2078C5
:104F60004EF2453200F01BFD20780FF6BC21FEF713
:104F7000C0FEDFF8D80900F0A9FC00F0BAFC6D1CF7
:104F8000082DFAD300F0C1FC20784EF6735200F0E1
:104F900006FD20780FF6A421FEF7ABFEDFF8B0097E
:104FA00004E000BF202558000D0A000000F088FC36
:104FB000002505A800F09EFC6D1C102DF9D300F013
:104FC000A4FC20784CF24E2200F0E9FC20780FF689
:104FD0007821FEF78EFEDFF87C09018810237F22FE
:104FE00014A803F0BFFE002514A800F083FC6D1C7C
:104FF000102DF9D300F089FC20784CF6441200F013
:10500000CEFC20780FF65021FEF773FE0125DFF865
:10501000480900F068FC00F072FC9DF8012000F0E7
:1050200070FC6D1EF3D100F070FC20784DF243024D
:1050300000F0B5FC20780FF63021FEF75AFE01256E
:10504000DFF8180900F048FC9DF8022000F059FC38
:105050009DF8032000F055FC6D1EF1D100F055FCC9
:1050600020784CF24B2200F09AFC20780FF60821B1
:10507000FEF73FFEDFF8E80800F022FC05A800F08C
:1050800039FC6D1C102DF9D300F03FFC20784CF654
:10509000535200F084FC20780FF6F411FEF729FE3D
:1050A000DFF8C00800F012FC002500F022FC6D1CA7
:1050B000082DFAD300F029FC20784CF2431200F0BE
:1050C0006EFC20780FF6DC11FEF713FE0025DFF8EA
:1050D000980801880223EAB2FFF73EFC00F00FFCBB
:1050E0009DF8012000F00DFC6D1C142DEFDB00F08D
:1050F0000CFC20784CF2423200F051FC20780FF684
:10510000B411FEF7F6FDDFF8640801885C237F2206
:1051100059A803F027FE002559A800F0EBFB6D1CF1
:105120005C2DF9D300F0F1FB20784CF6431200F02F
:1051300036FC20780FF68C11FEF7DBFDDFF8300827
:1051400000F0B8FB002509A800F0D4FB6D1C142D5D
:10515000F9D300F0DAFB20784BF2542200F01FFC68
:1051600020780FF67811FEF7C4FD0125DFF804085A
:1051700000F0B9FB00F0C3FB9DF8012000F0C1FB7B
:105180006D1EF3D100F0C1FB20784DF2463200F0E5
:1051900006FC20780FF65C11FEF7ABFD0125DFF869
:1051A000D80700F099FB9DF8022000F0AAFB9DF8BB
:1051B000032000F0A6FB6D1EF1D100F0A6FB2078C5
:1051C0004BF2532200F0EBFB20780FF64011FEF774
:1051D00090FD0125DFF8A40700F085FB00F08FFBB0
:1051E0009DF8012000F08DFB6D1EF3D100F08DFBCA
:1051F00020784DF2433200F0D2FB20780FF62411D4
:10520000FEF777FD0125DFF8780700F065FB9DF8D4
:10521000022000F076FB9DF8032000F072FB6D1E6B
:10522000F1D100F072FB20784CF2433200F0B7FB72
:1052300020780FF60411FEF75CFD0125DFF8440726
:1052400000F051FB00F05BFB9DF8012000F059FBE2
:105250006D1EF3D100F059FB20784DF2423200F080
:105260009EFB20780FF6E401FEF743FDDFF81807F8
:1052700000F026FB05A800F03DFB6D1C102DF9D3B6
:1052800000F043FB20784CF2545200F088FB207869
:105290000FF6D401FEF72DFDDFF8F0060188062396
:1052A00000F016FB002500F024FB6D1C062DFAD340
:1052B00000F02BFB20784CF2453200F070FB207898
:1052C0000FF6BC01FEF715FDDFF8C4060188942334
:1052D0007F2234A803F046FD002534A800F00AFB25
:1052E0006D1C942DF9D300F010FB20784BF2346242
:1052F00000F055FB20780FF69C01FEF7FAFCDFF872
:10530000940600F0E3FA002500F0F3FA6D1C082D76
:10531000FAD300F0FAFA20784FF6017200F03FFB62
:1053200020780FF67C01FEF7E4FC012502237F22A2
:105330000021FFF711FB00F0E2FA9DF8012000F0D8
:10534000E0FA6D1EF2D100F0E0FA20784EF223125E
:1053500000F025FB20780FF66001FEF7CAFC04235D
:105360007F22012103A803F0FDFC03A800F0C2FA8C
:105370006D1C042DF9D300F0C8FA20784EF2754266
:1053800000F00DFB20780FF64801FEF7B2FC112368
:105390007F22022100F091FA002509A800F0AAFA64
:1053A0006D1C112DF9D300F0B0FA20784EF2632273
:1053B00000F0F5FA20780FF62C01FEF79AFC042392
:1053C0007F22032103A803F0CDFC002503A800F0F1
:1053D00091FA6D1C042DF9D300F097FA20784EF263
:1053E000635200F0DCFA20780FF60C01FEF781FC26
:1053F00004237F22042104A803F0B4FC002504A8A0
:1054000000F078FA6D1C042DF9D300F07EFA2078B4
:105410004EF2621200F0C3FA20780FF2F071FEF73C
:1054200068FC012502237F220521FFF795FA00F091
:1054300066FA9DF8012000F064FA6D1EF2D100F0CA
:1054400064FA20784EF6793200F0A9FA20780FF24B
:10545000D471FEF74EFC11237F22062100F02DFAB5
:1054600009A800F047FA6D1C112DF9D300F04DFA90
:1054700020784EF6646200F092FA20780FF2B07154
:10548000FEF737FC10237F22072105A803F06AFCF2
:10549000002505A800F02EFA6D1C102DF9D300F0A0
:1054A00034FA20784EF2241200F079FA20780FF2C4
:1054B0009071FEF71EFC1A237F2208212DA803F00D
:1054C00051FC00252DA800F015FA6D1C1A2DF9D3FA
:1054D00000F01BFA20784EF2251200F060FA2078D6
:1054E0000FF27071FEF705FC08237F22092101A845
:1054F00003F038FC002500F0FCF96D1C082DFAD3F0
:1055000000F003FA20784EF2261200F048FA2078D4
:105510000FF25C71FEF7EDFB0A237F220A210FA830
:1055200003F020FC00250FA800F0E4F96D1C0A2D03
:10553000F9D300F0EAF920784EF2271200F02FFAA2
:1055400020780FF24071FEF7D4FB012502237F2261
:105550000B21FFF701FA00F0D2F99DF8012000F0CD
:10556000D0F96D1EF2D100F0D0F920784DF245222D
:1055700000F015FA20780FF22C71FEF7BAFB042325
:10558000EAB20C2103A803F0EDFB002603A849466C
:10559000325C00F0B1F9761C042EF7D36D1C102D8F
:1055A000EDDB00F0B2F920784EF2102200F0F7F9AE
:1055B00020780FF20071FEF79CFB00F0A6F920782E
:1055C0004EF2112200F0EBF920780FF20471FEF791
:1055D00090FB00F09AF920784EF2122200F0DFF9E9
:1055E00020780FF20C71FEF784FB00F08EF9207822
:1055F0004EF2132200F0D3F920780FF21871FEF763
:1056000078FB00F082F920784EF2142200F0C7F9FE
:1056100020780FF22471FEF76CFB00F076F9207809
:105620004EF2152200F0BBF920780FF23471FEF72C
:1056300060FB00F06AF920784EF2202200F0AFF90A
:1056400020780FF23C71FEF754FB04237F221321D4
:1056500004A803F087FB002504A800F04BF96D1C9B
:10566000042DF9D300F051F920784EF2212200F0F8
:1056700096F920780FF22C71FEF73BFB00F045F90C
:1056800020784EF2742200F08AF920780FF24071EF
:10569000FEF72FFB00F039F920784FF60D7200F07D
:1056A0007EF920780FF23C71FEF723FB00250B23D7
:1056B000EAB216210FA803F055FB00260FA84946B1
:1056C000325C00F019F9761C0B2EF7D36D1C062DF9
:1056D000EDDB00F01AF920784EF2564200F05FF947
:1056E00020780FF21471FEF704FB00F00EF9207819
:1056F0004FF4654200F053F920780FF20C71FEF779
:10570000F8FA00F002F920784EF2035200F047F95F
:1057100020780FF20C71FEF7ECFA00250123EAB2B3
:1057200019210EA803F01EFB9DF8382000F0E9F8BF
:105730006D1C062DF2DB00F0E8F820784EF20152E5
:1057400000F02DF920780FF2F461FEF7D2FA102361
:105750007F221A2105A803F005FB002505A800F00B
:10576000C9F86D1C102DF9D300F0CFF820784EF257
:10577000025200F014F920780FF2D061FEF7B9FA66
:1057800028237F221B2123A803F0ECFA002523A85D
:1057900000F0B0F86D1C282DF9D300F0B6F8207891
:1057A0004EF2502200F0FBF820780FF2B461FEF7C1
:1057B000A0FA12237F221C2100F07FF8002509A8FF
:1057C00000F098F86D1C122DF9D300F09EF82078A7
:1057D0004EF2512200F0E3F820780FF29861FEF7C4
:1057E00088FA00F092F871B0BDE8F0830024002040
:1057F000742C0108762C0108782C01085B2532589E
:105800005D2000004D46475F434849505F44415486
:10581000410000004D46475F504152545F4441549F
:10582000410000004D46475F5445535445525F4484
:10583000415441004D46475F454D4245525F4555F5
:10584000495F3634000000004D46475F414E414CF1
:105850004F475F5452494D5F4E4F524D414C0000EF
:105860004D46475F414E414C4F475F5452494D5F53
:10587000424F4F53540000004D46475F414E414C4C
:105880004F475F5452494D5F424F5448000000005B
:105890004D46475F5245475F5452494D0000000056
:1058A0004D46475F3156385F5245475F564F4C541F
:1058B00041474500018814237F2209A803F052BA0A
:1058C000018810237F2205A803F04CBA0188082321
:1058D0007F2201A803F046BA018802237F220DF13E
:1058E000020003F03FBA018802237F2200A803F0E0
:1058F00039BA01A849462A5C2078FDF7DDB99DF840
:10590000002020784946FDF7D7B920783946FDF7C1
:10591000D3B900007A2C01087C2C01087E2C0108E8
:10592000802C0108822C0108842C0108862C010897
:10593000882C01088A2C01088C2C01088E2C010867
:10594000902C0108922C0108942C0108962C010837
:10595000982C01089A2C01089C2C01089E2C010807
:10596000A02C0108A22C0108A42C0108A62C0108D7
:10597000A82C0108AA2C0108AC2C0108AE2C0108A7
:10598000B02C0108B22C0108B42C0108B62C010877
:10599000B82C0108BA2C01085146FDF78DB94146D3
:1059A000FDF78AB94D46475F565245465F564F4C04
:1059B00054414745000000004D46475F54454D5057
:1059C0005F43414C000000004D46475F544553542F
:1059D0005F54454D500000004D46475F4649425FC9
:1059E00056455253494F4E004D46475F4649425F28
:1059F000434845434B53554D000000004D46475F1B
:105A00004649425F4F4253004D46475F4349425F1C
:105A10004F4253004D46475F435553544F4D5F56D9
:105A2000455253494F4E00004D46475F435553542E
:105A30004F4D5F4555495F36340000004D46475F86
:105A4000535452494E4700004D46475F424F415222
:105A5000445F4E414D4500004D46475F4D414E5518
:105A6000465F4944000000004D46475F5048595F7B
:105A7000434F4E46494700004D46475F424F4F5403
:105A80004C4F41445F4145535F4B45590000000076
:105A90004D46475F455A53505F53544F5241474517
:105AA000000000004D46475F4153485F434F4E465C
:105AB000494700004D46475F43424B455F444154D0
:105AC000410000004D46475F494E5354414C4C4104
:105AD00054494F4E5F434F44450000004D46475FD9
:105AE0004F534332344D5F424941535F5452494D05
:105AF000000000004D46475F53594E54485F4652E0
:105B000045515F4F46465345540000004D46475FA0
:105B10004F534332344D5F534554544C455F4445D5
:105B20004C4159004D46475F5345435552495459DE
:105B30005F434F4E464947004D46475F4343415FF1
:105B40005448524553484F4C440000004D46475F6F
:105B50005345435552455F424F4F544C4F41444586
:105B6000525F4B45590000004D46475F455448453C
:105B7000524E45545F414444524553530000000087
:105B80004D46475F43424B455F3238334B315F44AC
:105B9000415441004D46475F4555495F363400004A
:105BA000535441434B5F4E56444154415F56455216
:105BB00053494F4E00000000535441434B5F415046
:105BC000535F4652414D455F434F554E5445520039
:105BD000535441434B5F414C5445524E4154455FF1
:105BE0004B455900535441434B5F424F4F545F4321
:105BF0004F554E5445520000535441434B5F4E4F56
:105C00004E43455F434F554E544552005354414314
:105C10004B5F414E414C595349535F5245424F4FA0
:105C200054000000535441434B5F4B45595300000F
:105C3000535441434B5F4E4F44455F4441544100F0
:105C4000535441434B5F54525553545F43454E5454
:105C500045520000535441434B5F4E4554574F52F9
:105C60004B5F4D414E4147454D454E5400000000AD
:105C7000535441434B5F504152454E545F494E4649
:105C80004F000000535441434B5F504152454E5426
:105C90005F4144444954494F4E414C5F494E464F41
:105CA00000000000535441434B5F43414C5F44416B
:105CB000544100004D554C54495F4E4554574F5286
:105CC0004B5F535441434B5F4B4559530000000019
:105CD0004D554C54495F4E4554574F524B5F5354AA
:105CE00041434B5F4E4F44455F44415441000000E7
:105CF0004D554C54495F4E4554574F524B5F53548A
:105D000041434B5F414C5445524E4154455F4B45D6
:105D1000590000004D554C54495F4E4554574F5261
:105D20004B5F535441434B5F54525553545F43456B
:105D30004E544552000000004D554C54495F4E45AD
:105D400054574F524B5F535441434B5F4E4554574A
:105D50004F524B5F4D414E4147454D454E5400001B
:105D60004D554C54495F4E4554574F524B5F535419
:105D700041434B5F504152454E545F494E464F00A0
:105D80004D554C54495F4E4554574F524B5F5354F9
:105D900041434B5F4E4F4E43455F434F554E544535
:105DA000520000004D554C54495F4E4554574F52D8
:105DB0004B5F535441434B5F504152454E545F41FA
:105DC00044444954494F4E414C5F494E464F0000B0
:105DD000535441434B5F42494E44494E475F5441FF
:105DE000424C4500535441434B5F4348494C445F48
:105DF0005441424C45000000535441434B5F4B45D6
:105E0000595F5441424C4500535441434B5F434515
:105E10005254494649434154455F5441424C450020
:105E2000535441434B5F4144444954494F4E414CC4
:105E30005F4348494C445F444154410053544143FB
:105E40004B5F5A4C4C5F4441544100005354414312
:105E50004B5F5A4C4C5F53454355524954590000CF
:105E6000535441434B5F52463443455F4441544190
:105E700000000000535441434B5F52463443455F9A
:105E800050414952494E475F5441424C4500000041
:105E900021210FF22C00FEF717B810B501F0F6F82B
:105EA000044601F0EDF80246234604480FF22001B3
:105EB0000078BDE81040FCF7FFBE00000024002081
:105EC00072657365742D746573742E630000000031
:105ED00052455345543A25702D25700D0A00000097
:105EE00010B50446002003F0EEFD002003F0FBFD9A
:105EF00001F0CCF9012003F0C7FC03F0C1FC10F065
:105F0000060018BF012003F05AFF204604F051FBA1
:105F10002046BDE8104000F0F9BB80B5022100F03A
:105F20008AF8009804F040FC01BD8068006800B168
:105F30000120DFF810120FF22022087008780028E4
:105F4000DFF80402D0F870130FF2002014BF0FF234
:105F500018230FF21C23FDF775BB80B503F08EFDEF
:105F6000012808BF0FF2142305D000280CBF0FF240
:105F700014230FF21823DFF8D0010FF24022D0F8DB
:105F8000A0130FF218202FE038B50446A06805686A
:105F90006D48D0F8B0130FF23020FDF753FBEDB28F
:105FA00015B1012D07D00CE00FF22420FDF74AFBBC
:105FB00003F0F5FC05E00FF22C20FDF743FB03F0A6
:105FC0002BFD0FF23020FDF73DFB2046BDE83240AF
:105FD000C3E780B504F021FE03465B480FF2382288
:105FE000D0F880130FF21420BDE80050FDF72ABB53
:105FF00038B5044603F042FD05465348D0F89013E7
:106000000FF21C20FDF71EFB03F006FDA0680068E0
:10601000C0B204F0FAFD02460FF278110FF23420FC
:10602000FDF710FB012D08BF03F0B9FC2046BDE8C9
:106030003240CEE7012100A805F0F7B838B5044694
:1060400003F01CFD054603F0E7FC502001F004FDC1
:1060500003F0EAFD034639A204F111010FF2FC102E
:10606000FDF7F0FA012D04BFBDE8314003F097BC05
:1060700031BD2DE9F84F07460C4615467F266FF0D7
:106080007F0A4FF0000803F0F9FC814603F0F9FCA9
:10609000002F8DF8000008D10127002003F0F4FC48
:1060A000502001F0D9FCBB4610E0F6D57F42F4E762
:1060B000802001F0D1FC03F0F9FC8245B8BF824694
:1060C000B0428044D8BF0646ABF1010BBBF1010FD3
:1060D000EEDA9DF8000003F0D7FCB9F1010F08BF1C
:1060E00003F05DFC04B1267015B198FBF7F0287041
:1060F0005046BDE8F28F10B500F01AF804F1110116
:10610000BDE8104003460FF274120FF25C10FDF769
:1061100099BA10B500F00CF803F0ACF904F11101D4
:10612000BDE81040034606A20FF25810FDF78ABAE8
:1061300004460022002101209BE700004343410068
:10614000454400003D240020701C01087B264E20A1
:106150002674737D0D0A00005045522054657374F7
:10616000204D6F6465000000656E61626C656400BF
:1061700064697361626C65640000000061736C6542
:10618000657000006177616B65000000656E657287
:106190006779000073746174757300007B264E206C
:1061A000526164696F20706F7765722073746174D7
:1061B00065202674737D0D0A00000000706F7765FE
:1061C00072207374617465007B264E20000000000D
:1061D000536C656570696E6720726164696F2E2EFD
:1061E0002E00000057616B696E6720726164696FF1
:1061F0002E2E2E00646F6E657D0D0A007B264E20CC
:10620000526164696F206368616E6E656C202674EC
:10621000687D0D0A000000006368616E6E656C00A9
:106220007B264E2053657474696E67206368616EC7
:106230006E656C20616E642063616C69627261746A
:10624000696E6720286173206E6565646564292E18
:106250002E2E00002674687D0D0A00007B264E203D
:106260002674647D0D0A00007B264E20267464206F
:106270005B64426D5D7D0D0A00000000525353497E
:10628000000000007B264E20267464205B383032EC
:106290002E31352E3420756E6974735D7D0D0A00C4
:1062A000DFF88014DFF880240978517003F00FB90B
:1062B0002DE9F8430E4617468046DFF87044DFF8B4
:1062C00068540FF29C4940B1402814D0892820D04E
:1062D0008D2817D08F2807D01DE06868401C6860A3
:1062E000207B10B390211DE0E868401CE860207B13
:1062F000D8B1942116E02869401C2861207BA0B108
:1063000098210FE0A868401CA860207B68B19C2100
:1063100008E0A62106E042460FF25C410120FDF7AD
:106320008AFDAC214846FDF7CFFDB8F1400F2F7034
:10633000AE610BD16878401E6870C0B230B1688819
:10634000401C6880BDE8F14305F0B6B80120207319
:10635000BDE8F18380B504F063FC0346DFF8D003A9
:106360000FF25442D0F850140FF24040BDE80050F4
:10637000FDF768B930B5044683B0A068056868B217
:1063800004F052FC01906BB20FF258400FF24442FD
:106390000090DFF89C03D0F860140FF22840FDF75E
:1063A00051F98AA0FDF74EF92046BDE83E40D1E7FD
:1063B00000B5DFF878130FF24842CB890FF258414D
:1063C00083B00091019300F111010FF22040FDF71D
:1063D00039F907BD8168DFF854230968D181E7E7FF
:1063E0002DE9FE4F00218DF80810012480680088F7
:1063F0000090401E8041C00F019003F03FFB81469A
:106400000098DFF82873DFF82C6301284FF00008AC
:106410001BD030780FF21841FCF74EFC3078019910
:1064200021B10FF21441FCF747FC03E0009A68A188
:10643000FCF742FCFA8930780FF20841FCF73CFC8B
:1064400030780FF21031FCF737FCDFF8ECA20025B2
:10645000019818B90098ADB285423DDA30786D1CCC
:1064600002A9FDF767FB9DF80800652834D0DFF826
:10647000CC02007820B104F041FF08B105F09EF88D
:10648000F88901F0E9FADFF8B802007860B19AF80B
:106490000000504400F8034CA4B29AF80010514494
:1064A000200A01F8020C641C002038735046FFF7E4
:1064B000F7FE5FEA00080FD101F038FB8346387B16
:1064C0000028C5D101F032FBA0EB0B0080B2B0F583
:1064D0007A7FF4D94FF0010830780FF28031AAB2F8
:1064E000FCF7EAFB30780FF290314246FCF7E4FB10
:1064F000DFF850020FF29C3102883078FCF7DCFBA9
:1065000030780FF2B031FCF7D7FBDFF81C4230785F
:106510002178002914BF0FF2B8310FF2BC31FCF71B
:10652000CBFB03F09BFB28B1626930780FF2B031EE
:10653000FCF7C2FBA26930780FF2D031FCF7BCFB4C
:10654000642001F089FAB9F1010F08BF03F027FABE
:10655000BDE8F78F10B58068006800B10120C0B2B7
:1065600000F0BBFDDFF8CC4100F09EFD70B104F0FF
:10657000DFFE002820780FF2C431BDE8104014BFC0
:106580000FF2E0320FF2E432FCF796BB20780FF204
:10659000E431BDE81040FCF78FBB70B5044600F055
:1065A00083FD48B1DFF8A0516E7801206870204665
:1065B000FFF716FF6E7070BDBDE87040DFF8740124
:1065C0000FF2CC310078FCF777BB00000D0A000019
:1065D0002575000038B500F02FF800F032F803F010
:1065E0001BFA03F0D8FA01E000F00BF89DF8000068
:1065F0006528F9D103F0D7FA012C08BF03F0CFF9D1
:1066000031BD287800A9FDF795BA38B500F014F827
:1066100000F017F803F000FA03F0CFFA01E0FFF7FB
:10662000F0FF9DF800006528F9D103F0E7FA012C8E
:1066300008BF03F0B4F931BD00208DF8000003F06D
:106640001DBA0446DFF8EC500FF208112878FCF769
:1066500033BB2DE9F041DFF8DC400FF268312078E0
:10666000FCF72AFB0FF26C360FF26038DFF8C870C7
:10667000002515E0EA5D20784146FCF71DFB681017
:1066800005EB90708010B5EB800007D1387885421B
:1066900004DA20782A463146FCF70EFB6D1CEDB279
:1066A0003878401C8542E5DBBDE8F08180682249EE
:1066B0000068087070472DE9F84304460025A0687B
:1066C0001C4E07680FF21839DFF86C80781CC7B2CF
:1066D000802F06DAA06800EB8500406807F8080004
:1066E00005E030786B1C7A1E4946FCF7E5FA6D1C14
:1066F000042DEBDBBDE8F1830F481421017001216B
:106700004A1E0A54491C8029FAD370470F4A06488A
:106710000021116041608160C160016141800C4ACB
:10672000116070475C240020402700204224002094
:10673000701C010800240020402F00203E2400206F
:106740003D240020F02D002054240020F42D0020B2
:10675000FC2D00202765276E642E2E2E00000000E1
:106760007068792D636F6D6D6F6E2D74782D746503
:1067700073742E6300000000656D6265725261647F
:10678000696F5472616E736D6974436F6D706C657F
:10679000746549737243616C6C6261636B207374DE
:1067A000617475733A203078257800007B264E207E
:1067B00026746464426D7D0061637475616C506F12
:1067C000776572007B264E2026746464426D202615
:1067D00074647D00726571756573746564506F775C
:1067E0006572000073746174757300007B264E201F
:1067F0002674647573202674327875737D000000EA
:106800007472616E736D69742064656C617920289F
:1068100064656329000000007472616E736D6974B1
:106820002064656C61792028686578290000000083
:106830005478696E67200000696E66696E697465D8
:1068400000000000207061636B6574732025752063
:1068500075732061706172742E2000000D0A257519
:10686000207061636B657473207472616E736D69FF
:10687000747465642E0D0A004C617374207061633A
:106880006B6574207374617475733A2030782532A7
:10689000780D0A004C617374207061636B6574201D
:1068A0006261636B6F66663A2030782532780D0A34
:1068B000000000004672616D652070656E64696E4F
:1068C0006720696E206C6173742041434B3A20004D
:1068D0005965732E0D0A00004E6F2E0D0A00000040
:1068E0005346442074696D652028766961205346BB
:1068F000442073656E742063616C6C6261636B2904
