S0120000536553616D706C654573692E733337A7
S3150800400040D300202D9F02082D740208317402083F
S31508004010A70A080100410008040803AC0056E70097
S315080040200000000000000000000000000000000082
S315080040300000000000000000000000000000000072
S315080040400000000000000000FFFFFFFFFFFFFFFF6A
S31508004050FFFFFFFF00E00708000000000000000067
S31508004060FFFFFFFFFFFFFFFFFFFFFFFFFFFFFFFF52
S31508004070FFFFFFFFFFFFFFFFFFFFFFFFFFFFFFFF42
S31508004080F0FF002000000000EAFF0020EAFF002001
S3150800409040D3002020D30208DCA20208E0C9002091
S311080040A0A80D0020000008080000012000
S3150800410040D300202D9F02082D740208317402083E
S3150800411039740208357402083D740208B47402083A
S31508004120B4740208B4740208B4740208B4740208B9
S3150800413041740208B4740208B47402081D5D0008CC
S31508004140616B0208B47402087F940008B47402080C
S31508004150339D00081B920008B4740208B474020860
S31508004160F7830008135300080B4E00089141000816
S31508004170B47402088F930008D7930008AD73020839
S3150800418049DF0008B4740208B47402081F720208F2
S3150800419070B52C482C4942780B685B0725D5032A4D
S315080041A023DA838800EB4204A3810123847803FA87
S315080041B002F222438270254C0278002A12D000258A
S315080041C022FA05F6F60708D5AB4045705A40027044
S315080041D010EB4500808A206007E06D1CEDB2032DC8
S315080041E0EEDB02E02260032242704FF6FF700860A1
S315080041F0BFF35F8F70BD13480021017000220321B1
S3150800420041700021C1700521018100218170001DC6
S315080042100E490A604A604FF400428A601022CA605A
S315080042204861012088610320C860042106480164AA
S315080042304FF6FF7101604FF400600549086000F011
S3150800424045B8000070DC002010A8004004E00040DB
S3150800425000E100E0DFF8E03433F810001040C84011
S31508004260704730B50FF29054DFF8D03434F8104068
S315080042709C601140DFF8C04434F810509543294338
S31508004280D96002221A6000221A6024F810105868B1
S315080042900028FCD130BDDFF8A824DFF8A80412787E
S315080042A0DFF8A4140AB149780EE0895611F1090F0E
S315080042B0B8BF302108DBC16D39B1C26D40F24A3151
S315080042C0B1FBF2F189B2C91E01607047E0B5DFF8AB
S315080042D07C0401880A2300F064F8BDF806104FF63E
S315080042E0FF720D20FFF7BDFF07BDF8B50546B5F50A
S315080042F0004FDFF8544419D1DFF85404018802232B
S3150800430000F04FF8BDF80000000AFF2814BF002887
S3150800431018206070BDF800000006C00E10281CBFEB
S31508004320001D00F098F9BDF80000C543DFF81064D9
S31508004330707808B1002005E0A089ADB26840C007D2
S3150800434001D501207070DFF80C04A58105F0010481
S31508004350016841F400410160C5F340070FF2BC4013
S3150800436000EB44004FF440524078010389B2022022
S31508004370FFF777FF204600F053FA4022B90100F014
S3150800438005FA2D06A80E00F0010038433070FFF735
S3150800439082FF707818B1FFF799FF0020707000202F
S315080043A0F2BD7F2200A800F0B1BA2DE9F04FDFF880
S315080043B0AC43207887B0042304900C210B38C0B294
S315080043C0039000A8039A00F05FFB9DF800008DF8A3
S315080043D00A009DF801008DF809009DF802008DF885
S315080043E008009DF803008DF80500DFF874030078CF
S315080043F0012804D16078451EAD41ED0F00E0012586
S3150800440000F0CEFD83469DF902000399D24F0BF1C9
S315080044100A0AABF10A065045B6BF86424FF00108B4
S315080044204FF0000801208840ADF806009DF801000D
S31508004430000604D47888BDF80610084201D04FF06B
S31508004440010800F023FE9DF8030000060AD4B88888
S31508004450BDF80610084205D19DF900005045B8BFC1
S31508004460864202DB4FF0010901E04FF0000948EAF5
S31508004470050059EA000000F09E80DFF8E8A2BA4974
S31508004480DAF8000000F002008DF80400B74800686A
S3150800449000F4E06005904FF4E0600860002001F049
S315080044A0C1F901F0C0FCB24EADB1607858B1DAF886
S315080044B00000AB4940084000CAF800000120087017
S315080044C001F096FD07E0306840F40050306030682F
S315080044D020F480503060A248007801280DD101F000
S315080044E0D2FEDAF800009E4940F00100CAF8000042
S315080044F000200870642001F07BFD2DB1607818B9A2
S315080045000498C0B201F081FF607838B1306820F4B1
S3150800451080503060306840F400503060BDF80600C6
S31508004520C543B8F1000F08D002F05AF88DF801001B
S315080045308DF802B0788828407880B9F1000F08D045
S3150800454002F0FFF88DF803008DF800B0B88828400F
S31508004550B8809DF900009DF90A10884202BF9DF8AF
S3150800456001009DF8091088420BD19DF902009DF9BA
S315080045700810884202BF9DF803009DF8051088427E
S3150800458006D00399042300AAC9B20C2000F0A3FAA6
S3150800459005987649086000F0D5FA9DF8040001F000
S315080045A041F902F0EEF9607828B148F2607030609F
S315080045B0642001F01DFD9DF8010001F07DFF9DF8C6
S315080045C0030002F0B9F807B0BDE8F08F80B500F037
S315080045D0DAFCBDE80140E8E600F0D5BC70B5064651
S315080045E0A6F10B0401F07FF80546A6F10B0010288A
S315080045F001D38A2070BD5F488168090702D4006824
S31508004600C00701D58C2070BD544806705A48016809
S315080046100C290FD00FF27811584A92F90020A4B24B
S3150800462031F824105118C161FFF7BFFE012D08BFEC
S3150800463000F0FAFF002070BD10B5044600F0A3FC98
S315080046402046BDE81040C9E74448007870473E4810
S3150800465090F9000070472DE9F041044614F12B0F3C
S3150800466086B045DB464801881423FFF79AFEBDF855
S3150800467010004FF6FF71884203D0400448BF012658
S3150800468006D43F2200211020FFF7E4FD0546002648
S3150800469004F12B022F2A2C483A491AD213220FF278
S315080046A0301300E0521ED2B213F91270BC42F9DB85
S315080046B003EB4204032764780C60002413F81210F5
S315080046C0017000208046AEB1BDF810104FF6BF72DB
S315080046D029E0092C0CDA225C0A60047014232A48A3
S315080046E00188FFF75EFE01240320A0462827EAE793
S315080046F08B201DE0C1024FF4605200F047F84FF4DA
S31508004700E062210200F042F880224FEAC81100F068
S315080047103DF885F020003D18ADB2402DA8BF3F25D5
S315080047203F2285F0200100F031F8FFF7B4FD0020A4
S3150800473006B0BDE8F081000098FB0020E8100040B4
S31508004740BAFF00206410004050D6002048CF020867
S3150800475054CF02081C10004076FE00204CD60020DC
S31508004760BCD600208020004080E100E000E100E0A7
S31508004770D010004060200040AC100040B9FF002077
S3150800478044CF0208C010004046CF02080B2068E557
S31508004790AA2129005523290000252800AA26270032
S315080047A055282700002A2600AA2B2600552D250065
S315080047B0002F2400AA30240055322300003422009A
S315080047C0AA3522005537210000392000AA3A2000D0
S315080047D0D500E601EC02EF03F204F405F506F70747
S315080047E0F808F909FA0AFB0BFC0DFD0FFE11FF1379
S315080047F000160119021C031F1000110020003000CA
S315080048004000410050006000700080009000A00049
S31508004810B000C000D000E000F00000000000010376
S31508004820F0B5044689B0002001F07AFB26480188D5
S315080048300A237F2200A800F069F8BDF802004FF6A7
S31508004840FF75A84204D1DC210FF2940002F0D2F8D9
S315080048500FF2A407002601E02A4616B94FF47C4257
S3150800486003E0022E08BF4EF23F0200A800F032F81D
S31508004870761C052EF0D3012C03D114237F2213486E
S3150800488002E014237F221248018803A800F03EF8AC
S3150800489000260FF26C072A4608E02A46012E08BFB2
S315080048A04FF6C07202D0082E08BF002203A800F0F7
S315080048B011F8761C0A2EF0D3012C04BF012001F052
S315080048C02FFB09B0F0BD000048CF020846CF02080A
S315080048D044CF020830F81610F05DFFF7C2BC00009E
S315080048E0616E616C6F6775652D63656C6C2D6269A9
S315080048F061732E630000000000100C0D0E0000000E
S31508004900010203040708090A0B0F000030B5044624
S3150800491010467F2808BF0020B1F5004F83B01AD192
S3150800492008237F2240F6120100A8FFF7EFFF0822AE
S315080049300FF2C40100A802F0A5F930B908237F22B6
S3150800494040F2A27100A8FFF7E1FF082200A920465D
S3150800495002F04EF937BD204D294300FB03111A46D4
S31508004960204602F045F937BD2DE9F0440C461A49B0
S315080049700FF2780A41EA0006C007154602D56221F9
S3150800498000F030F8E80702D5632100F02BF8134849
S31508004990864204D3A819401E1149884202D36421CD
S315080049A000F020F8002706E0B85DFF2802D06B214A
S315080049B000F018F87F1CAF42F6D36A082146304645
S315080049C002F0CAF928B15046BDE8F044712102F058
S315080049D011B8BDE8F08400000000080800080808BF
S315080049E000100808504602F005B800006D66672DED
S315080049F0746F6B656E2E6300FFFFFFFFFFFFFFFFFF
S31508004A0030B50FF23C11DFF824510A6883B001A8CB
S31508004A100024026001202870002002F0E1F930B17C
S31508004A20002002F0DDF910B12C7049203EBDDFF8F8
S31508004A300001018802237F220DF1020000F024F80C
S31508004A4002237F22002100A800F01EF8204601A9B3
S31508004A50BDF8022031F81010914208BF0124401C0D
S31508004A600228F4D3BDF8000024B1B0F57F7F07D142
S31508004A7000203EBDB0F57F7F0CBF0620042000E075
S31508004A800720002129703EBD10B5FF2908DCDFF894
S31508004A909C40247844B1BDE81040C9B202F0ACBCD1
S31508004AA0BDE81040FFF732BF10BD10B5FF2908DC7E
S31508004AB0DFF8784024786CB1BDE81040C9B202F03E
S31508004AC0D7BC7F2A08BF0022DFF86840214302FBD3
S31508004AD00311016010BD2DE9F0410546FF2D0E4674
S31508004AE0174698460FF2500012DC104C2178A1B1F7
S31508004AF0617811B1C02101F07DFF01206070434645
S31508004B0032463946E8B202F0F2FD0020607004E051
S31508004B10BDE8F041CB2101F06DBFBDE8F081034946
S31508004B200978002918BF02F0E5BE7047B5FF0020D6
S31508004B3050CF020800000808746F6B656E2E63007C
S31508004B40FE01FD0210B5DFF8F0441020206302F0E4
S31508004B5087FFDFF8E8140A6842F001020A6002F0EB
S31508004B6085FFDFF8DC0400F10801616021609230FE
S31508004B7061688931616001212163E060A060DFF826
S31508004B80C414E0688930E060022020634FF6FF70A5
S31508004B90086010BDDFF8B00445F26401C1601E214B
S31508004BA0416250210162C821C1618165F021C16558
S31508004BB045F690014166882181660621C16644F260
S31508004BC0066101604FF6FF714160DFF880040078E6
S31508004BD038B1DFF87C0448F2607101604FF4C151C6
S31508004BE04160DFF87004016841F0040101600020AB
S31508004BF0DFF86414487070472DE9F84FDFF8401461
S31508004C008A2202FB001202F10806721C0427537856
S31508004C10127802EB03221FFA82F808F44062B2F512
S31508004C20006F044608F4404B08BF082703D0B2F5C6
S31508004C30406F08BF0E27BBF1000F04D05FEA486239
S31508004C405CBFBF1CFFB2DFF8142412784A70401804
S31508004C50009000200099887008F0270023285ED16C
S31508004C60DFF8FC53686E000659D5B819BBF5404FF6
S31508004C704FF480694FF4006A03D102F048FF0146F9
S31508004C8016E0BBF5004F40D14078B95D01EB002036
S31508004C9080B203F0C9F90021FF2808D0DFF8C42341
S31508004CA0126832F810004FF4FE62104200D001215B
S31508004CB059B35FEA08701AD4BBF5004F08BFBF1C8A
S31508004CC003D0BBF5404F01D10837FFB27808002C56
S31508004CD014BF69682968814217D3002C14BF696814
S31508004CE02968421C9142F8D3B85D04280DD1E86DB5
S31508004CF0C00606D400F015F803D0686C40F0010031
S31508004D00686401200099887009E0E86DC00606D538
S31508004D1000F007F803D0686C400840006864BDE8F6
S31508004D20F18FA86C04B1D14610EA090F70472DE936
S31508004D30F04E0446C24EDFF828538A2000FB046072
S31508004D4000F1080B002C0CBF28686868C1B2052959
S31508004D5003DA7068401C706055E040005FFA80F91D
S31508004D6009EB0B00A0F108073878797801EB0020E9
S31508004D701FFA80FA7078387003F025FA7870BA4FFF
S31508004D80F86B20F48050F863686E14B938684005EB
S31508004D9004D4012C1FD1386800051CD5B348017806
S31508004DA089B1002101701AF4E45FB148016802D0A4
S31508004DB00022402005E09BF80100000900F00102EE
S31508004DC08F2003F07EFA002C0CBF4FF480604FF45E
S31508004DD00060386012E01AF4E45F0FD100F01FFD9E
S31508004DE010B15FEA4A4009D59BF80000802805DA29
S31508004DF0A01949468278584603F028FB002C0CBFB8
S31508004E00012002202861BDE8F08E2DE9F0478D4C7F
S31508004E10974E2068216C924FDFF85882DFF84C9243
S31508004E20DFF81CA201EA000519E038B14878C00687
S31508004E3004D4316800228F2003F043FA280605D5EA
S31508004E4003F098FA802025F080052060E80506D54D
S31508004E5003F090FA4FF4807025F480752060002DD9
S31508004E605CD0280706D50020FFF7C6FE082025F0E7
S31508004E7008052060E80606D50120FFF7BDFE1020CC
S31508004E8025F01005206005F06000602803D1B86C95
S31508004E90C0050AD401E0A80605D52020206025F023
S31508004EA02005002006E0680606D54020206025F08B
S31508004EB040050120FFF73BFFE80404D54FF4805076
S31508004EC025F480552060E807B8D5012020606D08D4
S31508004ED09AF800006D000028B0D000F019FC0128EF
S31508004EE0ACD199F800000028A8D098F8000004284A
S31508004EF0A4D1F868400800F001008A2101FB00A14E
S31508004F000831002814BF7A683A6812B92268D204B0
S31508004F10F7D5002814BF7868386886E7002020602F
S31508004F20BDE8F087544800687047F0B504460D465A
S31508004F3089B00021032001F0CDFC04AE1BE0002758
S31508004F4001F0E3FC26F8170001F0DFFC00A921F8C0
S31508004F5017007F1C082FF3DB04A803F019FC0020B8
S31508004F602080218836F810205140401C08282180CE
S31508004F70F7DB6D1EA41CEDB2002DE0D101F001FD9A
S31508004F80012009B0F0BD0321022001F0A3BC4FF6B1
S31508004F90FF71081A292190FBF1F03A3040B27047A8
S31508004FA038B501F0B2FCFFF7F2FF344D0446287815
S31508004FB0B0B90321032001F08DFC31480188022392
S31508004FC07F2200A8FFF7A2FC01F09FFCBDF80010A5
S31508004FD0401880B2FFF7DBFF15386870012028708B
S31508004FE001F0CFFC6878201A40B232BD80B50321A3
S31508004FF0022001F06FFCBDE80140D1E770B52148F9
S315080050000078002490B9FFF7F1FF134E0546707833
S3150800501048B13078401B40B203F0CBFB0B2805DBC8
S315080050203570012402E0012035707070204670BD8D
S315080050301548007870470000002000408420004092
S3150800504064FC002000A000404C1000404DD6002013
S31508005050D010004080200040D3FF00204CD600200E
S315080050602020004058D4002004A0004080FD0020E5
S3150800507088FD0020BBD6002038200040D1FF002044
S315080050804ECF0208BCD60020D5FF002010B50D482B
S31508005090018884B00A237F2200A8FFF737FCBDF8F1
S315080050A000004FF6FF74A04204D14E210FF21800FB
S315080050B001F0A0FCBDF8001022460020FFF7D1F849
S315080050C01FBD000048CF0208616E616C6F67756589
S315080050D02D66696C7465722E63000000DFF8AC07F4
S315080050E0007848B1DFF8A8070179012904BF40799B
S315080050F0042801D101207047002070470FF62C01C3
S315080051004008405C7047010603D54FF67F7108409A
S31508005110C0007047491C800189B2B0FBF1F080B22B
S31508005120FF288CBF0020C0F1FF00C0B2704738B519
S31508005130DFF86007C178012901D1002032BDDFF808
S315080051406047617871B1E178407945182079ADB248
S31508005150854228BF054603F045FB0121A940491EA3
S31508005160084000E0002061790818C0B232BD2DE978
S31508005170F0470446C00705D540F271110FF29C703E
S3150800518001F038FCDFF81C57286DC00748BF8C2093
S3150800519000F19480DFF8FC06DFF80477002101713E
S315080051A001704178B1B93978A1B12178122918BFAF
S315080051B00C290BD1627802F00702032A02BF0919EB
S315080051C011F8021C042904BF01210171A96F41F0DD
S315080051D0010102E0A96F49084900A967DFF8B0860E
S315080051E07A7898F80610DFF8C096DFF8C06692B1AC
S315080051F0002242710129286D40F00400286506D175
S315080052004FF6FF7030604FF40070C9F80000FFF7E2
S315080052108EFF82460CE0286D20F0040001292865DF
S315080052204FF0000A04D100F02CFA642000F0E0FEEA
S31508005230A86F20F00800A8671420E864C5F848A0FD
S31508005240787838B198F80600002801BFA86C0028BD
S315080052500120A864B8790028286D14BF40F008001A
S3150800526020F008002865FFF739FF18B1306C40F0C8
S3150800527008003064202028626C602C604FF4E064DB
S3150800528068687F30686004202862DFF824060460B6
S3150800529006E003F0B7FA18B103F0BCFA02F0E0FB37
S315080052A0DFF81006006800F003000328F1D0C9F8FB
S315080052B00040286D40F0010028650020BDE8F08711
S315080052C0DFF8F405002141608160016821F00201E0
S315080052D001604FF00070DFF8E41508600120DFF880
S315080052E0E01508707047A0F13301DFF8D825914220
S315080052F000D3704710B5DFF8C8450021217000F0CB
S3150800530062FB02E0012003F089FA20780028F9D030
S3150800531010BD2DE9F84FDFF89485DFF87855D8F8F1
S315080053200000D8F84010DFF87C7501EA0004A4B242
S31508005330C8F800406878002840F0D580E007DFF814
S315080053408865DFF85C954CD5D7F800A0386C796C81
S3150800535041EA004199F80000A96000283DD09AF872
S315080053600100800639D501202870FFF7B7FEC0B3C3
S31508005370192000F03DFE4FF44040DFF850B5CBF859
S315080053802800DBF800000090F06E40F40050F0664C
S31508005390F06E40F48050F0669AF80010A86849014B
S315080053A0B83101EB000AFFF7BDFDAAEB00000003C8
S315080053B0000BFFF798FFF06E80098001F06600A9E0
S315080053C0F06E09880843F0660020CBF8280048F2FA
S315080053D06070F066E888306003E00022002002F082
S315080053E070FF20060ED5287830B1002028700022DC
S315080053F0A968402002F065FFD8F83C0020F48050E8
S31508005400C8F83C00600608D5687830B9FFF78AFD09
S3150800541001460022892002F054FFE00654D5DFF841
S3150800542070A4DFF884B49AF80400012804BF9AF837
S31508005430061001291FD100F026FF386F40F0010041
S31508005440386700208AF80600FFF77CFB0A2000F080
S31508005450CFFD4FF6FF70C8F8000000244FF4E06057
S31508005460CBF800000920B8660120B864B86F40F090
S315080054700800B86718E0697999F80220491C69712B
S31508005480C9B2914215D2012808BF00F0CDF8B86F0D
S3150800549020F00800B8671420B866FFF748FEB8641D
S315080054A04FF40070CBF80000386D40F00100386505
S315080054B00AE0012808BF00F0B7F8FFF733FD0146F8
S315080054C000228D2002F0FDFE20070CD5FFF706FE10
S315080054D048B13068E88001203060D8F8400020F0F4
S315080054E00800C8F84000A0060AD520203862687867
S315080054F030B9FFF717FD01460022882002F0E1FEC9
S31508005500687820B114F4407F04BF0120A870BDE874
S31508005510F18F70B582B00446FFF75EF8DFF8B8037E
S31508005520DFF87453002101601521E960092101653E
S315080055301F21416001210166DFF898030088FEF704
S31508005540D4FEFFF727FB03F023FC00F02EF9DFF863
S315080055504063308900F056F9708900F05BF902F073
S315080055607FFA696841F04001696002F07FFA707855
S3150800557000F0F0F8B07800F0FDF8DFF86003007886
S3150800558000F02AF9DFF8580390F90000FFF763F8EE
S31508005590307800F047F996F9030000F04FF9DFF884
S315080055A0440300F06DF9BDF80000DFF83C13C005B0
S315080055B04CBF0020BDF800000870DFF83003007803
S315080055C0FFF70CF828B10FF2543040F2B73101F06A
S315080055D011FA012C05D12868C00711D500F024F866
S315080055E00EE06CB92868C0070AD400F04CFE28689B
S315080055F040F001002860C82000F0FAFC0020B071D5
S31508005600F120DFF8A842206440F2F910E063FFF7C2
S3150800561099FA2868C00704D54FF6FF70206000F095
S315080056205DF800F000FC73BD70B5DFF8C452DFF812
S3150800563060422E68A079012822D002F011FAB6B28B
S31508005640DFF86C222E604FF4E0611160DFF88012FB
S315080056500A6A520852000A620A68520852000A6028
S315080056600A6842F002020A604A6A42F001024A6285
S315080056700121A17102F0FAF9BDE8704000F0FCBD05
S3150800568070BD70B5824CA07938B300F0FCFD02F00D
S31508005690E7F90546DFF85C12804E01200860306D98
S315080056A040F0010030650020A071FFF74BFA20207A
S315080056B03060306B40F002003063F06D40F0080057
S315080056C0F065284602F0D2F90A2000F091FC7749E5
S315080056D04FF6FF70086000F001F870BD4FF4E06007
S315080056E07149086070476A488079704710B5684CF8
S315080056F0A07928B140F2AD410FF2202001F07AF9E5
S315080057002079012804BFBDE81040FFF78DBF10BD02
S315080057105F480079704780B5022801DB012002BD89
S315080057205B4908718979884205D010B9FFF7A9FF46
S3150800573001E0FFF779FF002002BD6F48006880028C
S3150800574000149A3801B211F1800FB8BF6FF07F00CC
S3150800575040B2704710B5044602F082F967490A68F4
S31508005760002C14BF42F0120222F012020A604849C5
S315080057704C7040E038B5044602F072F90546FFF76A
S3150800578057FC40B95D480168002C14BF41F0800100
S3150800579021F0800101603E4884702846BDE8324009
S315080057A002F064B93A488078704755494A780B78C8
S315080057B0544803EB022202608B78CA7803EB022274
S315080057C042600B794A7903EB02228260CA798979A9
S315080057D001EB0221C160704710B5044602F040F99A
S315080057E046490A68002C14BF42F0200222F0200223
S315080057F00A603A490C70BDE8104002F037B92448EF
S3150800580000897047224908813F4908607047204847
S31508005810408970471E4948813C49086070473C48A2
S31508005820007870471C490A68002814BF42F0020233
S3150800583022F002020A6016490870704738B5044615
S315080058407F2C0AD1334800F01BF8BDF80000C005CC
S3150800585054BFBDF800406FF04A0402F001F905464E
S31508005860FFF7E6FB30B964B204F19A0080052A49CD
S31508005870000C08600648C470284602F0F7F831BDE7
S31508005880018802237F2200A8FFF740B8DAFF00202C
S31508005890B6D6002080FD0020802000403020004041
S315080058A088D600201020004000E100E004A0004057
S315080058B080E100E0A820004010E000E004ED00E0F0
S315080058C0DBFF0020CDFF070064100040E410004015
S315080058D0602000405CD600205C100040D9FF002004
S315080058E050D600205ACF0208B9FF00204CD6002017
S315080058F01C100040281000400C1000408420004076
S3150800590000FC002098200040942000409020004091
S31508005910B4D6002060CF0208541000407068792D74
S31508005920636F6D6D6F6E2E6300000000FEF7C80191
S31508005930DFF864155120086070472DE9F0410546E7
S3150800594003F03AFADFF85415B0FBF1F64FF4F070AD
S31508005950B0FBF6F71E2D3FB201DBE81B04D5A8B253
S31508005960BDE8F04100F044BB02F07AF8804603F047
S315080059708FFADFF82C15DFF82C250120487007214F
S31508005980DFF8240500F041F8E91B09B27143C91C88
S315080059908908491EDFF81455416000F0BDF8DFF8A4
S315080059A0F8743C68386820F04000386003F072FAF2
S315080059B03C602E6003F072FA03F078FA4046BDE8C0
S315080059C0F04102F053B838B5054603F0F5F9DFF8AB
S315080059D0CC14B0FBF1F44FF4F070B0FBF4F02D1AD0
S315080059E01E2D04DA98210FF20C5001F003F8DFF8A7
S315080059F0B804DFF8B024072100F007F805FB04F126
S31508005A00C91C8908491E416031BD016000214160F9
S31508005A1081604FF0007111607047DFF8842401211E
S31508005A205170D0E7DFF88804006800B970472DE99F
S31508005A30F041DFF88054DFF8806400242C6034607D
S31508005A404FF4A040706041F29A084046FFF775FF90
S31508005A506F6803F0B9F9000142F21071B0FBF1F07A
S31508005A6000F5C870C01B00B24FF4487190FBF1F006
S31508005A7000B20828A8BF072004DA10F1080FB8BF3B
S31508005A806FF0070030604046FFF757FF082740468B
S31508005A90FFF753FF686804197F1EF8D103F094F9DD
S31508005AA0211D4001C908B0FBF1F080B27060BDE865
S31508005AB0F081DFF8FC03006800B9704738B5DFF8F5
S31508005AC0FC5301206FF00F04A8602C608020FFF7BC
S31508005AD034FFE868FF2802D8641C102CF5DB31BDBA
S31508005AE070B5DFF8DC03016841F0010101600121AE
S31508005AF0416001F0B5FF0446DFF8B05300F00CF83A
S31508005B005120DFF8941308602E6003F0C7F9204689
S31508005B10BDE8704001F0AABF2E682868400840001A
S31508005B20286003F0BBB90020704710B5DFF8800382
S31508005B30DFF86C4300680128BCBF032000F01DF89D
S31508005B400120207000202071DFF87803816901F0B8
S31508005B500301032907D10020A070042000F07FF874
S31508005B600120207110BD0F210160022181610120F1
S31508005B70E0706420BDE810404FE72DE9F041CC4CB9
S31508005B80C74D226840F2DC51012A8846CD4ECE4FD9
S31508005B9017DA0221B9803160B16901F003010329DE
S31508005BA05BD02168002903D5B16941F00201B161D2
S31508005BB0FFF7B9FF5FEA00081BD1206800284CD51B
S31508005BC049E0B8884FF6FF74A0421DD1BF48018846
S31508005BD002237F22381DFEF799FEB888A04204BF2B
S31508005BE00220B880B069800703D4B06940F002008B
S31508005BF0B0610120A870B88830600FFA88F0FFF706
S31508005C000CFF4046BDE8F081B3699B07EDD5AB783C
S31508005C100BB10846F6E7B168B36811F0010103D184
S31508005C200F2809D2401C06E09B0705D53B781BB117
S31508005C30032801DB2018B880B88839700228BCBF51
S31508005C400220B8803068B9888842D2D1B06900F09D
S31508005C500300032801D0FFF743FF0020D2E72DE910
S31508005C60F047804600248C4D904E01F0F9FE81469F
S31508005C7003F00EF94046FFF780FF08B901240AE051
S31508005C8000F0CAF8D5F800A000F02EF9C5F800A073
S31508005C90376003F003F903F009F9484601F0E6FE18
S31508005CA0002CE2D0BDE8F0870220D8E710B57E4880
S31508005CB07B4C002141608160016821F0020101608E
S31508005CC0002060704FF0007076490860A07838B1FF
S31508005CD00020A0700620FFF726FF00F098F81CDBCE
S31508005CE0E078012814D17A480121016079490968C8
S31508005CF0C90748BF03200FD40221E170016C41F0A7
S31508005D00010101640420744908607449086010BDE3
S31508005D10E078042801D10520E07010BD80B5604800
S31508005D20407800281CBFBDE80140FFF7BFBFFFF75A
S31508005D30C7FA01BD2DE9F84300F069F803DABDE8B2
S31508005D40F24304208BE7564C207900B35DE001F05E
S31508005D5087FE054603F09CF8E078032812D000F089
S31508005D605AF8DFF83481D8F80090D8F8000020F007
S31508005D704000C8F8000003F08DF8C8F800903760B6
S31508005D8003F08CF803F092F8284601F06FFEE078ED
S31508005D900328DCD14C4E4B4DB08828604FF6FF7770
S31508005DA07088B8420CD14E48018802237F22B01C65
S31508005DB0FEF7ACFD7088B84202D16420708001E01D
S31508005DC07088C8B103F000F87188344AB0FBF2F065
S31508005DD048432F303021B0FBF1F042494A6D42F07A
S31508005DE001024A650A68AB68DB07FBD50B689B1A94
S31508005DF01B031B0B8342F6D3FFF772FE0420E070E9
S31508005E004FF4C870BDE8F24307E6BDE8F1832848B9
S31508005E10006801287047254E3768306840084000FA
S31508005E20306003F03BB82DE9F8431D4C2078002874
S31508005E302DD0207900282AD1FFF7E9FF1FDA40F292
S31508005E40F7310FF2B00000F0D5FD18E001F008FEBA
S31508005E50804603F01DF8E07805280BD0FFF7DBFF36
S31508005E600D4DD5F8009000F03FF8C5F80090376062
S31508005E7003F014F803F01AF8404601F0F7FDE0784D
S31508005E800528E3D10020A0700520FFF7E8FE0020D2
S31508005E902070BDE8F18300000080004090D0030028
S31508005EA0CBFF002004ED00E010E000E094ED00E0F8
S31508005EB044C40208104000400C000040084000405E
S31508005EC01C40004004400040A8D6002058CF0208D5
S31508005ED018A000400C40004080E200E000E100E02D
S31508005EE05CCF020838200040286820F0400028606F
S31508005EF002F0D0BF636C6F636B732E630000000003
S31508005F0010B5754C002000F042FD40F68C21884201
S31508005F102068B4BF40F0080020F00800206010BDDB
S31508005F2010B504466D48018882B000F05CF89DF80B
S31508005F3000109DF80100FF2902BFFF280420002158
S31508005F4004B1801C664A1368C0B20828A8BF072097
S31508005F5023F4607343EAC010106008291068A8BFCC
S31508005F600721C00841EAC00010605E48047013BDEE
S31508005F7000B55D48018883B000F035F8BDF800002B
S31508005F804FF6FF7188420EBF4FF4E1600A2190FB7D
S31508005F90F1F0ADF800005348007808B34F4801887F
S31508005FA002237F2201A8FEF7B1FC9DF80500BDF883
S31508005FB00030FF2808BF0420811CC9B20829A8BFE1
S31508005FC00721C1F12F0202EBD272C0F12F00521045
S31508005FD000FB0320C1F12F01B0FBF1F0ADF8000082
S31508005FE0BDF800000EBD02237F2200A8FEF78EBC76
S31508005FF070B53E4C2568064602F0E6FE3C49B0FB05
S31508006000F1F070432F303021B0FBF1F0032809D3AB
S31508006010616D41F0010161652168491B0903090B9E
S315080060208142F9D370BD10B5040004D110BD4FF4F8
S315080060307A70FFF7DDFF2046441E80B20028F6D1AD
S3150800604010BD2C48017869B9C078072818BF0928F7
S3150800605014D0032818BF112810D013281CBF1528E0
S315080060600B280BD02448016841F480720260C805E9
S3150800607004D438210FF2900000F0BCBC704738B544
S315080060800C4620B101280FD0032820D021E01B4D53
S3150800609044B102F099FE1A49B0FBF1F0401EB0F582
S315080060A0005F0CD2286012E04CB102F08DFE610848
S315080060B001EB4000B0FBF4F0B0F5003F01D320201F
S315080060C032BD104900F001024A604008086000200D
S315080060D032BD212032BD000000BC00404ACF020874
S315080060E018000040BCFF00204CCF020838200040B2
S315080060F090D003009607080838400040100004E0D6
S3150800610020A1070068C800407573625F6572726FE8
S31508006110722E630038B50120FFF72FFD0020FFF728
S31508006120FFFE714C206840F00800206002F053FE24
S31508006130FFF7E6FE6D4900F02AF88D786C4BDD60B6
S315080061408D880560CD88456000F018F800F094F851
S31508006150206820F010002060FEF74DF803F05CF888
S3150800616003F0D0F8FFF7A0FD02F033FEBDE831409A
S3150800617002F04FBE40F2016003F060B90889106072
S315080061804889506088891860C889586070475A4895
S315080061900A78C2604B78594AD360704710B5FFF742
S315080061A0C4FCFFF7ADFE00F00FF800F006F8FFF7A5
S315080061B0C1FDBDE8104003F01BB84B48016821F04B
S315080061C010010160FEF717B848494B480A78C260C3
S315080061D04B784A4AD3608C78454BDC608C880460DF
S315080061E0CC8844600889106048895060888918609E
S315080061F0C889586040E0F0B50B68424C0F25246802
S31508006200960005FA06F6344215D0002606EB8207F4
S3150800621024FA07F7FF070BD5B70005FA07FC23EAA8
S315080062200C0330F812C005FA07F707EA0C073B43D8
S31508006230761C042EEADB0B60F0BDF0B50B68314C1A
S31508006240FF252468D600B5402C4213D00025012628
S3150800625005EBC20724FA07F7FF0708D506FA05F77C
S31508006260BB43175C06FA05FC0CEA07073B436D1CA3
S31508006270082DEDDB0B60F0BD10B52248006808B1AB
S315080062801C4C07E010BD10B51E48006808B1174C35
S3150800629000E010BD1C4900222046FFF7CEFF012270
S315080062A01A492046FFF7C9FF022219492046FFF777
S315080062B0C4FF0022104900F031F80122104900F00D
S315080062C02DF802220D4900F029F80322114900F0A1
S315080062D025F80422064900F021F8201DBDE81040E3
S315080062E005220D4987E7000000BC004028D500209C
S315080062F000B4004038D5002000B0004000B200408D
S3150800630004B00040E4DF00200CB000400CB20040AE
S315080063100CB4004004B2004004B40040201D6AE7F3
S315080063200320FEF7FCBB80B503F07FF90FF260018E
S3150800633009E080B503F07DF90FF280010204120E20
S3150800634051F82210C0B201EB800002BD10B503F06F
S315080063506CF9044603F06DF9C0B208B9012C07D1EF
S31508006360072C11D8DFE804F004100608080A0C0EFA
S31508006370002010BD092010BD022010BD032010BD4D
S315080063800B2010BD062010BD44F0800010BD000093
S31508006390554E4B004649420042544C00455854005D
S315080063A05057520057444700205357004352530052
S315080063B04653480042414400464C540048C402082B
S315080063C04CC40208A4C40208C4C40208CCC4020807
S315080063D0D8C40208E4C40208F0C40208F8C40208D3
S315080063E004C5020814C502082A490A6892099201D6
S315080063F00A600A68104308604FF4004126480160A5
S31508006400002101606420FFF7F3BD2DE9F047234D15
S31508006410204FD5F80090224C8046286840F400406A
S315080064202860386820F480503860207868B162782F
S315080064301C48A17800EB820200EB880012F82A2C8F
S3150800644010F82A0C891A461802E001202026207026
S31508006450B0B2FFF7C9FF0FF2500A02E0B0B2FFF779
S31508006460C3FF386B042805D0386B400754BF761E27
S31508006470761CF3E7F86A38B184F80180A6701FFA2B
S3150800648089F02860BDE8F08740F22111504600F0F7
S31508006490B1FAE6E7D0100040181000401C10004082
S315080064A0D6FF002090470008616E616C6F677565BE
S315080064B02D76636F2E63000081014FF4FE5289B278
S315080064C00C20FDF7CEBE2DE9F84F8F4CA568206845
S315080064D00127ADB200264FF00A08B9461FFA80FA1E
S315080064E000F04FFAB0202063DFF820B208E016F17A
S315080064F0190FB8BF4FF00A08464436B27019A060A3
S31508006500DBF80000000702D559EA070028D0012069
S31508006510FFF76EFDB9F1000F11D0AAF1030087420B
S3150800652002DAF81C87B213E00AF5004020605746E5
S315080065300621092000F0CEF94FF000090BE0DBF840
S315080065400000000707D5042FA6BFF81E87B200274C
S3150800655007F5004020601A2EC9DB6FF00908CBE763
S31508006560A560C4F800A00820CBF8000068480068B9
S3150800657080B2BDE8F28F80B5624B66491B784FF052
S31508006580FF326BB1002819BF4A606348486041F280
S3150800659011100860614841880088BDE8044092E708
S315080065A0002819BF4A600A604860086000F0E9F9E7
S315080065B0BDE804400621092000F0DDB938B5012000
S315080065C0FFF7D9FF04460020FFF7D5FF054601204F
S315080065D0FFF7D1FF4042001B00EB450000B232BD79
S315080065E02DE9FE4F4E4CDFF83C81A06A454EADF8CA
S315080065F002002568D8F800B0307860B14FF6FF720F
S3150800660000210820FDF726FEADF80000C022C021B3
S315080066100820FDF726FE4448DFF81091007818B1E7
S3150800662048F26070C9F80000708840F4404040F0B5
S315080066304C00C9F83C000220A0620120206040F20C
S315080066404C40FFF7D5FC0120C8F80C00C8F800003C
S315080066500020324F388040207880307800B12020E2
S31508006660FFF72AFFFFF7AAFF8246402038807F20DF
S315080066707880FFF721FFFFF7A1FF0290504602F04E
S3150800668098F8FE2101FB00F70298AAEB000001909A
S31508006690307860B1029802F08CF88246019802F0D0
S315080066A088F880B207EB8A11B1FBF0F005E0019893
S315080066B002F07FF880B2B7FBF0F080B2401CC70347
S315080066C01FFA8BF0C8F80000ADB20020C8F80C001D
S315080066D0022020602560BDF80200A0620020C9F8EB
S315080066E03C00307830B1BDF800104FF6FF72082034
S315080066F0FDF7B7FD40F24C40FFF77AFC380CBDE8D1
S31508006700FE8F0000B0D60020C010004018A0004040
S315080067100070004038100040EEEEFFFF90FF0020AA
S3150800672060200040281000404DD60020D0100040C0
S3150800673041003F2289B201E001463F220220FDF7CF
S3150800674090BD2DE9F04F564C564D95B0E06CADF81E
S3150800675010004FF6FF782068ADF80E004246E86A4A
S31508006760ADF80C0000210120FDF774FDADF80A0014
S31508006770424600210B20FDF76DFDADF808004FF4E9
S315080067800040206000202861686148F2020000F09D
S315080067908BF84CF68C30E0644FF4805248F2F000E7
S315080067A0E86211460120FDF75CFD424600210B20F8
S315080067B0FDF757FD0621062000F0DDF8019000F0F0
S315080067C085F800904CF69C30E0640020FFF7B0FF97
S315080067D00621084600F07EF800260DF1140BB0B22B
S315080067E0FFF7A6FF0621062000F074F800F08DF8E2
S315080067F02BF81600761C202EF1DB00F086F8102008
S31508006800FFF796FF00F062F80099019A401ABBF864
S315080068102010891A404301FB01094FF0100A11277D
S3150800682000F04EF800F052F800F043F806DB814617
S315080068301FFA87FA781C07B2202FF1DBBAF1100F7E
S315080068400ED10F2700F03CF800F040F800F031F8C0
S3150800685006DB81461FFA87FA781E07B2002FF1D5A4
S31508006860BDF81000E0644246BDF80E002060BDF891
S315080068700C00E8620120BDF80A10FDF7F2FCBDF82D
S31508006880081042460B20FDF7ECFC01202861002089
S3150800689000F00AF84FEA4A00C0B215B0BDE8F08F1A
S315080068A0C010004018100040286040F24C40FFF726
S315080068B09FBB0099401A404306FB060048457047AF
S315080068C03BF817000199461AB8B231E706210720A6
S315080068D000F051B870B505460E4602F0D9FA3D4C9F
S315080068E0206C20F00800206402F0E0FA01F0B8F805
S315080068F0310341EAC511384A41F001011160082106
S315080069002160BDE8704001F0B1B82DE9F041334C83
S31508006910334D304E25E002F0BBFA324904200860B8
S31508006920306C40F0080030642F6828684008400042
S31508006930286002F0B3FAD4F80080206820F04000FE
S31508006940206002F0A7FAC4F800802F6002F0A6FAC9
S31508006950306C254920F0080030640420086002F0F5
S31508006960A5FA30680007D6D5082030601F480068A9
S3150800697080B2BDE8F08180B5FFF7ACFFBDE8014005
S31508006980C3E7154801684908490001607047F8B52A
S315080069900746FFF7EDFA044639460320FFF7EBFFF3
S315080069A0054639460120FFF7E6FF06463946002028
S315080069B0FFF7E1FF08490A68520852000A60401BBF
S315080069C00004711BB0FBF1F060434000000CF2BDFF
S315080069D00000000018A0004004700040008000403D
S315080069E094ED00E000E100E080E200E00070004085
S315080069F042DE704738B504460D4602F0F5F901F057
S31508006A002FF82946204602F04AFE2B4622460FF268
S31508006A10CC11012003F08DF829462046BDE8344004
S31508006A20E6E72DE9F84F6548654D01682E1D4FF4D8
S31508006A30206A7165016AB16562490968F165416A4A
S31508006A403166816A7166C16AB166016BF166806BEF
S31508006A50306796F8340040074CBFF76BB76BBB46F8
S31508006A6002F07BFD0022584CDFF86081DFF8609168
S31508006A70F2648742014624BFA4F12003BB42316574
S31508006A801DD357F8180F306457F8040F7064706DEB
S31508006A90C005C00D062815D1306C484512D34045AF
S31508006AA010D200884DF6426290420BD105F18C0057
S31508006AB06A68426040F2017A7268826002E0326473
S31508006AC0726483464348814202D2014600E0091DAA
S31508006AD0A14203D20B68B3F1CD3FF8D0601AB06477
S31508006AE0182105F1780003F065F8002003E0C0B22C
S31508006AF005EB80029167A34523D254F8041D494546
S31508006B00F9D34145F7D2CA07F5D5002205EB82032A
S31508006B109B6F8B4203D0521CD2B2062AF6DB062A9A
S31508006B20E9D1002814BF401E0520E0E7716F002256
S31508006B3005EB8203521CDF6F9F67052AF8DBC5F851
S31508006B408C100146481EC9B20029EFD1706DC005E8
S31508006B50C00D02280AD0032815D0042816D0052807
S31508006B6017D0062818D00C281CD01EE01A48016831
S31508006B70890748BF40F6021A1CD40068C00719D511
S31508006B8040F2025A16E040F6012A13E040F6022ABD
S31508006B9010E040F6032A0DE0BAF5206F0AD140F658
S31508006BA0042A07E040F6052A04E018B1242838BF6D
S31508006BB040F6072A5046BDE8F28F000004ED00E0D3
S31508006BC00000002000E300E040D30020DCA2020819
S31508006BD090410008980000201CA000400D0A5B4167
S31508006BE053534552543A25703A25645D0D0A000000
S31508006BF0814233D210185118401E491E10E011F870
S31508006C00013900F80139121F11F8013900F8013964
S31508006C1011F8013900F8013911F8013900F801397C
S31508006C2092B2042AEBDA92B2002A1EBF11F8013991
S31508006C3000F80139521EF6D1704711F8013B00F8E9
S31508006C40013B121F11F8013B00F8013B11F8013B0B
S31508006C5000F8013B11F8013B00F8013B92B2042A07
S31508006C60EBDA92B2002A1EBF11F8013B00F8013B8D
S31508006C70521EF6D17047130003D00A46194602F091
S31508006C809DBF704710B500E0521E92B222B100F0C7
S31508006C9012F8F9D0181B10BD002010BD10B500E081
S31508006CA0521E92B22AB100F006F8F9D0181B40B26B
S31508006CB010BD002010BD10F8013B11F8014BA3428E
S31508006CC0704700004048018A40F6A772914202BF09
S31508006CD0408A4FF47F41084203D1022801DB012094
S31508006CE07047002070472DE9F84F8246884600F025
S31508006CF0B7FE364D2F6804462868400840002860CD
S31508006D0002F0CCF80120DFF8BCB08BF80000FFF7E2
S31508006D10D9FF20B9FF210FF2B800FFF76BFE2A480A
S31508006D20D0F8289041464AF48070C84706462F6036
S31508006D3002F0B4F8204600F099FE00208BF8000017
S31508006D400FF294040EB1305D04E041464AF4007037
S31508006D50C847005DBDE8F28F2DE9F84F80468946A1
S31508006D604FEA420A00F07CFE184E3768054630683E
S31508006D7040084000306002F091F8FFF7A3FF28B9F9
S31508006D804FF4A1710FF24800FFF734FE0E48D0F811
S31508006D9024B00023524649464046D8470446376041
S31508006DA002F07CF8284600F061FE0FF22C050CB1C3
S31508006DB0605D05E05346002249464046D847405D97
S31508006DC0BDE8F28FCAFF00200000080894ED00E035
S31508006DD0666C6173682E6300000202024B4B4647DD
S31508006DE02DE9F04F89B080461E251E22FF2100A8F6
S31508006DF0FFF741FFDFF8ACA08422FF215046FFF7DA
S31508006E003AFF0027284CDFF8A490294EB85D17F8FA
S31508006E1009B0395D401C00EBD070401001B1193043
S31508006E20401C00FB0BF2234830F817100FF28800BD
S31508006E3092B202F0F7FEBBF1010F1CBF2AF81750F9
S31508006E405D447F1C1E2FE1DB0FF288054FF4E040FE
S31508006E5000F016F918B1C2212846FFF7CBFD4FF40A
S31508006E60804000F00DF918B1C4212846FFF7C2FD8D
S31508006E704FF4805000F004F918B1C6212846FFF7F0
S31508006E80B9FD1E2340F21C424FF4ED710FF2540077
S31508006E9002F0C8FE00A9404600F01FF909B0BDE897
S31508006EA0F08F000040FA0020F4C5020834C6020834
S31508006EB014C60208B8C5020843726561746F723A4F
S31508006EC02030782532582C20576F7264733A202563
S31508006ED0640A000073696D2D656570726F6D2E63A7
S31508006EE00000000053696D454520646174613A20CD
S31508006EF0256420776F726473206F66202564206D81
S31508006F0061782C20746F6B656E436F756E743A20CA
S31508006F1025640A0010B5DFF8D44ADFF8D43A248885
S31508006F20001B06E010B5DFF8CC4ADFF8C43A24683F
S31508006F301B1B03EB4000002304E030F8134021F844
S31508006F4013405B1C9342F8DB002010BD2DE9F0418D
S31508006F5082B004460D4616460027DFF8948A01E0FB
S31508006F60B81CC7B2B74217DA7819795D4078DFF8E6
S31508006F707C3A1B8801EB0020ADF80000012207EBE4
S31508006F80D77004EB6000C01A00F0ACFB0028E7D00D
S31508006F9002F067FE002000E00120BDE8F681F8B5A2
S31508006FA004460E46154600270DE000F019F8BDF810
S31508006FB0000004EB4701000A4870761CBDF8000083
S31508006FC004F817007F1CB7EB550FEEDBE80706D56C
S31508006FD000F006F8BDF80000291901F8010CF1BD0A
S31508006FE0012200A9B0B295E7DFF8002ADFF8001AF7
S31508006FF01288801A01EB40010220FFF774BEDFF801
S31508007000F819DFF8F829415C825CDFF8F439C05CCE
S3150800701010B102F5997292B241EAC21080B2704775
S3150800702010B5DFF8E039DFF8D04903EB4002005D20
S31508007030012801D1104610BD1088081803EB40003E
S3150800704010BD38B50C46DFF8C0190D782A4621461A
S31508007050FFF760FF208800281CBF4FF6FF718842A3
S315080070600AD0012000E0401CC0B2A84206D234F87B
S31508007070101022889142F6D0002032BD012032BD80
S31508007080F0B5DFF8701987B008600C2200A9002057
S31508007090FFF748FF00A90025C88A8A890346040A1B
S315080070A001204FF6FF7631F81570BDF800C0BC45D3
S315080070B003D1B74218BF002F00D100206D1C062D42
S315080070C0F1DBB21A944518BF0020DBB2C4F1FF0108
S315080070D08B4218BF002007B0F0BD2DE9F24F0446D9
S315080070E0DFF828690020307070809CB0DFF820092E
S315080070F00088ADF8020007A9FFF7A3FF8346012021
S31508007100707009A9DFF80C090588DFF80C09B0F8D2
S315080071100080DFF8D808BDF802A007883846FFF7D0
S3150800712090FFB8B1BBF1000F3CD0BDF81C10BDF8FC
S3150800713024004FF6FE72914202D1012804D10CE0D8
S31508007140012908BF90422DD00846BDF82410884270
S3150800715028D202E0BBF1000F23D0002070700297FE
S3150800716050460695CDF810800122DFF89C1891F854
S3150800717000804044ADF8060000A9BDF80600FFF7F8
S31508007180C9FEDFF89808008805904FF6FF79BDF824
S315080071900000000B404518BF0F2800D10CB300258E
S315080071A016E0012470780128D9D13846CDF808A010
S315080071B0CDF818800495D7E7059805FB00F4E01983
S315080071C000F03AFCBDF80200201800F035FC6D1CF2
S315080071D04545F1DB012030704D2002F042FD0025C7
S315080071E0FCE0BDF80650012201A92846FFF792FEE9
S315080071F0BDF80400C043C0B2ADF804006F1CDFF848
S3150800720020080588BDF80400A84218BF01244FF0DD
S31508007210000A20E0401CC1B2A94218D2C0B2DFF869
S315080072200418BDF80E20834631F81B109142F1D19F
S31508007230FFF7E5FE4FF680710840BDF80C104FF6D3
S3150800724080721140884204BF1C980BF800A00AF10E
S3150800725001001FFA80FABDF80400824507DA022207
S3150800726003A9B8B2FFF756FEBF1C0020D3E70020DB
S3150800727001E0401C80B2A84217DA1C99415C8142A1
S31508007280F7D0012411E02AF81070BDF8060000EBCB
S315080072904300401C00F0E3FABDF80200C0F3C71033
S315080072A0401C00EBD07007EB60070498DFF854A782
S315080072B0BFB2874211DA012200A93846FFF72AFE33
S315080072C0BDF80000484508D0030A00F07F01BDF864
S315080072D004007F1C834202DB012400252DE00020E8
S315080072E001E0401C80B2A842CFDA1C9A825C9A421E
S315080072F0F7D1C0B2FF28C8D0DFF8FC26825C7F2908
S315080073000CBF4FF0000C8C46944509DADFF8F0E61E
S31508007310BDF800C010F80EE0CCF3C01CF44501D04F
S315080073200124B2E7012AAED07F293AF8100008BF37
S3150800733000210818A7E76D1CADB2DFF8EC06008837
S31508007340854204DA3AF815004845F4D101247780D5
S315080073500498BDB285420ADA012200A92846FFF739
S31508007360D9FDBDF800006F1C4845F1D034E7002C64
S31508007370FCD1029801220BA980B2FFF7CBFDBDF81C
S315080073802C0048450DD105E0401C80B2202813DBAF
S315080073902034A4B20699029A891A8C4205DB012088
S315080073A0307000201DB0BDE8F08FA51820220BA96B
S315080073B0A8B2FFF7AFFD00200BA931F81010494518
S315080073C0E2D0A8B2FFF710FE203CA4B2E0E702988C
S315080073D0059905FB010000F02FFB6D1C4545F6DB02
S315080073E001203070494600F054F818B100F03EF913
S315080073F00028D6D10120D5E72DE9F84504460F46E1
S315080074001646984631463846FFF70AFEDFF8101644
S31508007410B0F800A00988DFF8E4558F420AD2DFF8F1
S31508007420D805385C7F2E08BF0026864202DA785DCA
S31508007430804503D040F2DA4100F00DFADFF8C005C6
S31508007440385C68B15146384600F03AFA795D012948
S3150800745008BF20700AD0022914BF2060208005E0EA
S31508007460424651462046BDE8F84598E5BDE8F1850F
S3150800747010B5044608461146FFF7D2FDDFF86C251D
S3150800748000881288DFF86815801A01EB4000206032
S3150800749010BD2DE9F34FDFF85405DFF86C150488A5
S315080074A0DFF868050978407883B000281ABFDFF846
S315080074B06005008820460D18DFF864050088ADF8D9
S315080074C00800ADB2C043C0B200EB013000F5506011
S315080074D0ADF802002B1BDFF8180500F0C6F96E1C84
S315080074E00028B6B238D10025DFF8387514E0E8B2BE
S315080074F0FFF785FDADF80400331B37F81500ADF826
S3150800750006000222DFF8E80400F0ABF8002823D1D1
S31508007510B61C6D1CB6B2ADB2BDF808008542E6DBF6
S31508007520002501E06D1CADB2BDF80800854280F269
S3150800753093804FF0000A1CE001220DF102011FFAA8
S3150800754089F0FFF7E7FCBB19DFF8A4041B1B09F158
S31508007550010900F08AF9002878D17F1CFFB2B7EB41
S315080075601B6FE9DBDFF8C404285C8619B6B20AF19A
S31508007570010ADFF8840415F800B05FFA8AFADA45DA
S31508007580D0D25146E8B2FFF74BFD8046DFF87004CB
S31508007590B8F800902F5CF80140EA0520ADF8000025
S315080075A0BBF1010FBDF800000CBF40F07F004AEAAE
S315080075B00000ADF80000311BDFF8340400EB410091
S315080075C0711C89B201914FF6FF7189451EBFBDF83E
S315080075D00010BDF81020914218D19DF80C10002912
S315080075E0C5D0012200A9FFF7B7FB019E70BBDFF8E3
S315080075F00C04A8F800602A5CDFF8340450F825105B
S31508007600B0B2FFF7A3FC0028ACD122E0DFF8EC13F8
S31508007610695C491C01EBD1714FEAC15B012200A9E3
S31508007620FFF79AFB019E88B9002FA8F8006095D04D
S315080076304946E8B200F044F90190331BDFF8B0037D
S315080076404FEA1B6200F00DF800288BD002F009FB08
S31508007650002005B0BDE8F08FDFF8B00346800120B2
S31508007660F7E701A900EB4300FFF776BB2DE9F041E8
S31508007670DFF89C03DFF894530688DFF87003048864
S315080076806878002882B012BF204630462646012276
S3150800769000A9FFF73FFCBDF80000DFF85483012876
S315080076A00CBF4FF6FE70401EADF80000DFF8580319
S315080076B007783846471E58B1BFB2B819001B0122D1
S315080076C000F010F80028F4D002F0CBFA002007E00A
S315080076D06978481E8041C00F687000202870012014
S315080076E0BDE8F68100A908EB4000FFF735BB2DE998
S315080076F0FE4F0D46174604461E464FF000094FF04A
S3150800770001083946FFF78CFCC549098801908C4267
S315080077100AD2B948205C7F2F08BF0027874203DAC0
S31508007720B648205C864203D040F2FD5100F093F83B
S31508007730B64F787820B1B748B0F800A0AB4803E058
S31508007740B548B0F800A0B2483978008849B97988B0
S31508007750081AB84909888842B4BF4320442002F071
S3150800776080FA01980188A648205CF8B1204600F006
S31508007770A7F8012E08BF297803D0022E0CBF298846
S315080077802968814265D001980088401E00F067F894
S31508007790A648265C7888AAF10101891B814201DB8B
S315080077A0002835D1387858BB452044E00291CB46AD
S315080077B020E002980BEBDB7300EB630000F03FF967
S315080077C00BEB05001BF80510407801EB0020711E35
S315080077D08B4580B205D1BDF80010C9B2C0B2ADF86C
S315080077E00010BDF8001088420BF1020018BFC84609
S315080077F05FFA80FBB345DCDBB8F1000FC3D028E0A5
S31508007800BDF802100020FFF744FE10B34FF001093F
S3150800781078887A49401C788080B2625C2946FFF7EE
S3150800782095FBB0B1714C7B88248871485B1E1B1B85
S3150800783000F01BF810B102F014FA0AE0B9F1000FD3
S3150800784002D0FFF713FF20B1019978880880301815
S315080078507880BDE8F78F0FF2F010FFF7CBB801225A
S315080078600DF1020180B2FFF755BB01220DF10201AD
S3150800787000EB4300FFF770BA70B582B004460025E6
S315080078801926012200A9A0B2FFF744FBBDF80000A3
S31508007890641C48B14FF47F41401A02D0FF3806D025
S315080078A007E0681C40B276BDAD1C761EE9D168B209
S315080078B076BDBDF80000C0B200B96D1CE843F1E71B
S315080078C038B50C46002100914C49455C2A462146AC
S315080078D000A8FFF764FB681C00EBD07004EB60009F
S315080078E080B2FFF7C9FF002848BFC043009940B2DD
S315080078F0401832BDF0B54A4909880446414883B064
S31508007900254630F815608C4202D23D48285C18B9E5
S315080079104FF4E761FFF79FFF38482D5C681C00EBC2
S31508007920D07006EB6007B8B2FFF7A6FF322814D26C
S31508007930C107BFB207EB60002C4F2D4B3F884CBFE9
S3150800794000214FF47F41ADF80410C01B012201A9A4
S3150800795003EB4000FFF700FA60B131462046FFF717
S31508007960AFFF00902B46401C00907F2200A92046BE
S31508007970FFF7BDFEF7BDF8B5244C20780027002890
S3150800798030D11A480588607800281ABF204806882A
S315080079902E461D4807783846471E02281BDBFFB2CD
S315080079A0B81900F04CF8BDF800000028F3D01B48C1
S315080079B0008807FB006000F03FF80020ADF80000E3
S315080079C0BB190B485B1B012200A9FFF74BFE48B108
S315080079D002F047F906E03046FFF706FBFFB20FB99B
S315080079E0012020703846F2BD0000000088C5020854
S315080079F000E0070814FC002034C6020814C6020872
S31508007A00F4C5020840FA002084C502088CFF00204D
S31508007A108CC502088AC502088EC5020886C50208F2
S31508007A2092C50208B8C5020894C5020898C5020896
S31508007A3058C8020890C5020880B2FFF7D5BA0122D5
S31508007A4000A980B2FFF766BA73696D2D6565707215
S31508007A506F6D2D696E7465726E616C2E6300000021
S31508007A60EFF31180602181F31188704780F3118844
S31508007A7070470000DFF8841500200870FF21DFF842
S31508007A808005017001717047F8B5044602F03AF9AD
S31508007A900546DFF87005DFF868750688204602F0A7
S31508007AA032FAB0F5006F16D1204602F050FA00F00F
S31508007AB0BBFAFF280DD000F029FA2146381D02F03E
S31508007AC0D3FDDFF83805017881B10089A9190E1AA6
S31508007AD010E09320F2BDFF21384602F0F0FD05289C
S31508007AE002DA21463846EAE73920F2BD05813146F1
S31508007AF002F045FEB2B20321204602F082F90322C3
S31508007B0000F070F8204602F0FBFA0020F2BDF8B546
S31508007B100446DFF8EC040078FF2813D0DFF8E854B1
S31508007B202968465C3746384602F002FA01460822BA
S31508007B302046FFF7A7F808B90120F2BD28683F5C80
S31508007B40B742F0D10020F2BDF8B5044602F085F937
S31508007B50000B00F00105204602F00EFA0646204604
S31508007B6002F0F9F9B0F5404F11D1002D36D0314663
S31508007B70002000F086F90446FF2C2FD0002102F0E1
S31508007B80F9FE58B300F0A3F900F02AF826E03046CB
S31508007B9003F01BF900F048FA0446FF2C01D1002037
S31508007BA0F2BD01200021224603F03CF9DFF85C24EF
S31508007BB0D2E9006706430F43C2E9006775B1DFF8EB
S31508007BC050341B6833F814304FF4FE64234205D052
S31508007BD0D2E9024520432943C2E902010120F2BD48
S31508007BE040F080020521204602F016B938B5044651
S31508007BF002F089F9B0F5006F0CBF01250025204673
S31508007C0002F096F904462146284600F03AF9FF287C
S31508007C1010D18DB1204603F0D8F800F005FAFF28F8
S31508007C200AD0DFF8EC13096831F810004FF4FA614E
S31508007C30084201D0012032BD002032BD2DE9F041B5
S31508007C4007460C46DFF8B85302F05DF9B0F5006F49
S31508007C500CBF281D28460078FF2846D0DFF8A81351
S31508007C600968405C0646B7423CD1FFF7F9FE8046F4
S31508007C700521304602F0D7F800F07F00471EFAB219
S31508007C800521304602F0C8F8002C18BF312C01D067
S31508007C90F8B200BBFFF7E4FE0746F0B202F033F98C
S31508007CA0B0F5006FF1B205D1281D02F008FD00F00D
S31508007CB012F902E0284602F002FD3846FFF7D6FE22
S31508007CC04046FFF7D3FE2146304603F0BFFF304655
S31508007CD002F024FA04E000F0FEF84046FFF7C6FE7C
S31508007CE0012003E0765C8642BDD10020BDE8F08124
S31508007CF038B502F007F8C14C21892081421A4FF69F
S31508007D00FF75ADF8005000A990B200F008F9BDF86B
S31508007D100000A84202D10020207031BD014620464D
S31508007D2002F02DFD31BD00214FF6FF70F7E02DE979
S31508007D30F84FDFF8D892D9E90001002908BF0028D2
S31508007D4000F0988000264FF00108B246002700246C
S31508007D50FFF786FED9E90023844608EA02001AEAF4
S31508007D60030108BF002817D06FEA08006FEA0A0166
S31508007D7002400B40C9E90023D9E9025B012708EA5A
S31508007D8005021AEA0B0308BF002A05D028400BEAA9
S31508007D900101C9E9020101246046FFF767FE002FC9
S31508007DA057D09B48006830F81600810751D5994985
S31508007DB0096831F816702CB100F49871102908BFBB
S31508007DC0012500D0002594490978C9070AD5934AA0
S31508007DD01268002142F8261091490968725C42F03F
S31508007DE0F0027254F4B180061CD5380A8DF80100E9
S31508007DF08DF8007000A9012000F043F80446FF2C16
S31508007E0007D100F039F84FF6DF72114020F8161046
S31508007E1014E0002102F0AEFD80B100F058F8FFF73B
S31508007E20DFFE0BE085F00100044207D000F024F8DD
S31508007E3041F4006120F8161004F0B0FA00953B46AC
S31508007E401A226DA1032001F0F2FE2946384601F0F8
S31508007E50FEFE761CF6B24FEA4A0040EAD87A402E71
S31508007E604FEA480806DAD9E90001002908BF0028C0
S31508007E707FF46CAFBDE8F18F6548006830F81610DE
S31508007E8070472DE9F04188465D4900281ABF091D4B
S31508007E90022508250878FF2816D05B4E3168475C0E
S31508007EA03C4600F014F800060AD4204602F040F8D2
S31508007EB001462A464046FEF7E5FE08B9204604E094
S31508007EC03068245CBC42ECD1FF20BDE8F081052176
S31508007ED0204601F0A8BF70B50021202004F0F3FC6D
S31508007EE047480079FF2810D0474C2168455C2E4644
S31508007EF0304602F02CF800F097F8FF2801D000F081
S31508007F0005F82068365CAE42F2D170BD4049096872
S31508007F1031F8102042F0200221F8102070472DE990
S31508007F20F84F80460FF2FC00354E0068364F009039
S31508007F308A46344600E0341DFFF792FD814606E086
S31508007F40204602F0A6FB294600A802F08DFB204633
S31508007F5002F0E8FB40B9386821780D5C0321284611
S31508007F6001F046FF8045EBD2301D844208BFFFF77B
S31508007F70B2FF4846FFF77AFD2078FF281CD03968FB
S31508007F8010F801904D460321284601F031FFA0EB79
S31508007F90080B1FFA8BF20321284601F032FFBAF8C4
S31508007FA000001FFA8BFB834588BF8346AAF800B0FA
S31508007FB038682D5C4D45E6D1301D8442BBD100A8FA
S31508007FC002F0B0FBA8B900A802F063FB044601F072
S31508007FD04EFF00F0FAF8FFF77AFF000603D44221B5
S31508007FE0204603F033FE204602F098F800F0EEF83B
S31508007FF0E5E7BDE8F18F0000425742006CFE00201D
S31508008000CCD60020C6D4002048D4002060DC00204E
S3150800801058D4002050D4002090FE00205CD40020C4
S31508008020A4D40020FF000000F8B50D4C2768060010
S3150800803014D0FFF715FD0B4D21682A7821F8126038
S3150800804037F8021BB142FBD1FFF710FDB81E2168B5
S31508008050401AC0052978000E884200D1FF20F2BDDB
S3150800806050D4002054D4002010B57348734C0068CF
S315080080702060606048220021FEF7FDFD70482168F7
S3150800808000780870002021680873216848730B205F
S315080080902168887303202168C8734FF6FE7120682B
S315080080A001824FF6FF71418200F09CFB2168087639
S315080080B000F098FB2168487600F094FB21688876E2
S315080080C0604821680078C8765F4920680968816237
S315080080D05E49097880F82C105D48216800680863B5
S315080080E010BD10B5FCF7B0FA544C6168897B88421C
S315080080F003D00846FCF7A0FA50B9FCF7A8FA0146DF
S31508008100606890F90F00814204D0FCF7A4FA08B120
S31508008110012010BD6068008AFDF774FB6068408A1C
S31508008120FDF778FB6068007B012818BF0020FDF783
S3150800813053FB002010BD10B5464C0020207004F0FB
S315080081402FFB20B92046BDE8104002F00DBB04F015
S31508008150E9FF08B105F017F863E080B5002000F0E4
S3150800816015F828B1002000F005F808B1002002BD76
S31508008170FF2002BD31480068407B02281CBF112839
S31508008180432801D101207047002070472B4800681A
S31508008190007B012818BF022804D003281CBF062824
S315080081A0072801D10120704700207047002070473A
S315080081B000207047704770470020704701207047BD
S315080081C070470020704700207047704770470020AE
S315080081D0704780B50020FFF7CDFF20B10020FFF7DC
S315080081E0D5FF00B1012002BD80B50020FFF7C2FF10
S315080081F030B112480068007B032801DA002002BD6E
S31508008200FF2002BD10B5040004D0E5210FF2680076
S31508008210FEF7F0FB08480068482101FB04000749FF
S315080082204860BDE810405CE704484068008A70472B
S3150800823002484068408A70477CD40020ECFB002046
S31508008240C1D40020C2D4002084D4002088D40020C1
S315080082508CD40020DCFB00207047002070470020EB
S31508008260704702F0BCBB7047704705F04EB805F082
S31508008270F8B901F0EFBC0000656D6265722D6D7589
S315080082806C74692D6E6574776F726B2D7374756275
S315080082902E63000038B504460D46012005F062FB42
S315080082A05D48002D12BF00210178491C01705B480A
S315080082B044705B48FCF75BFFBDE83240002005F0E0
S315080082C051BB10B5002814463FD0402823D0882833
S315080082D018BF892840D08D282FD08F2846D15148DD
S315080082E0007804280DD144B14F490220087040F6A1
S315080082F00620BDE8104005F03DBBFDF7F7F9312033
S3150800830030E0012001F092FCFDF7F0F9002C0CBFDB
S315080083103120002026E04048444900780978884200
S3150800832004D2BDE8104000210120B3E7002001F087
S315080083307DFCFDF7DBF9402014E0002001F076FC17
S3150800834000212020FFF795FF0BE0012001F06EFCCD
S31508008350FDF7CCF9002005E0002001F067FCFDF7E9
S31508008360C5F98D20BDE8104002F0E8BBBDE8104015
S31508008370C9213CE02C480078022800D0704780B517
S315080083802B480078042807D00C280ED129480078F5
S31508008390022818BF7C2808D105F007FBFDF7A6F9C7
S315080083A0BDE80240002002F0C9BB01BD38B5002473
S315080083B0FFF756FB05461C48007810B9FCF71EFE69
S315080083C004462846FFF752FB002C1CBFBDE8314087
S315080083D001F045BC31BD80B5FFF7E8FFBDE80440B4
S315080083E04FF4A051144802F0CAB940F205110FF231
S315080083F05000FEF7FFBA38B5104C2068216C01EA28
S315080084000005ADB2680705D5206C20F0040020648D
S3150800841004F0ACF8256031BDE8FF002088D60020BE
S31508008420DCFD0020BBD60020D0FD0020E4D60020CD
S31508008430E2FF0020E3FF002054FF002008A00040D0
S315080084406D61632D656D3235302E630070B5044657
S315080084500D461646FDF7A6F938B16078002E14BF0A
S3150800846040F0200000F0DF0060702946204601F049
S31508008470D8FEFF2821D0974C0146201D02F0F4F8BB
S31508008480954D28882188401C288080B281420AD2CE
S315080084906888401C6880201D02F0FBF801F03EFE4B
S315080084A02888401E2880208829888842F3D3BDE87A
S315080084B070408A48007802F045BA70BD2DE9F04F41
S315080084C0A5B082460027FFF7CBFA834C2188491EC0
S315080084D02180FFF7CBFA504601F0ACFD90F80090EA
S315080084E081784078009700EB01201FFA80F800F0A9
S315080084F0D4F8A0F108020823D2B2514602A801F026
S31508008500ACFE02AD6878FFF760FE7548007808B3E0
S31508008510606800281DD0E878FCF7F5FD4946FCF7A9
S31508008520F9FD074695F9020000F16605002000905E
S3150800853009F10103DBB20022514604A801F08DFEC1
S31508008540FFF73EFE63686AB2394604A89847FFF704
S315080085503DFE98E008F0070002282DD0FF208DF890
S315080085600400504601F066FD00F1010B584601F083
S31508008570AFFC0446A9EB0400801E46B2002E1BD4AD
S315080085805FEA885003D508F00700032810D101A92F
S31508008590584605F0FFFA002876D108F007000128AA
S315080085A00BD19DF8040004EB0B0103F075FE20B90E
S315080085B09DF8040001F0B2FD66E04A499DF8040002
S315080085C00968475C4849096800F801A000F065F8A1
S315080085D000F120019DF80400C9B201F031FD9DF8B3
S315080085E0040001F03FFC00F00C0004281CBFA6198B
S315080085F0002470B280B20090631C9DF804009BB200
S315080086005246394601F0FFFFF1199DF80400C9B238
S3150800861001F0CFFE354968780978884204D3CD2120
S315080086200FF2D000FEF7E6F99DF8040001F015FCFC
S3150800863069788004800C40EA81319DF8040089B28B
S3150800864001F00DFCE878FCF75EFD4946FCF762FD93
S3150800865002469DF80400032101F0DEFBA87800F12C
S3150800866066029DF80400D2B2042101F0D5FB9DF8FC
S3150800867008209DF80400052101F0CEFB9DF804A012
S31508008680504602F0B7FA0127504601F047FDFFF7BA
S315080086909DFD384625B0BDE8F08F124800681AF8E7
S315080086A00000704710B50C4C618829B1C9B21D206D
S315080086B0FFF7DFFD002060800D4801F0EAFFFF2884
S315080086C003D0FFF7FBFE0028F6D010BD084802F0DD
S315080086D029B80000DCD60020D4FE0020C4FF002004
S315080086E081FD00203CD4002044D4002080D4002002
S315080086F0E0D600206D61632D726563656976652E27
S315080087006300000038B504461B4D214600F03DF8CD
S31508008710E860211D00F039F8A86004F1080100F0AE
S3150800872034F8686004F10C0100F02FF8286031BDB8
S315080087307047F8B50446114D114E80202860062072
S3150800874030600720286030688007FCD5002704EBD6
S31508008750870100F01AF87F1C042FA862F7D3306847
S315080087604007FCD500262A6B04EB860100F00AF8C0
S31508008770761C042EF7D3F1BD383000400030004097
S3150800878010A00040002002F02BBB002002F036BBF0
S3150800879070B504460D46FFF763F906462846FFF707
S315080087A0B1FF2046FFF7C5FF3046BDE87040FFF72A
S315080087B05DB9002848BF40427047000081B209B938
S315080087C04BF6EF610E4A1180000C08BF4FF6CE201B
S315080087D0508070470288130448BF4A405100018000
S315080087E01046704738B5064C62212046FFF7F2FF5F
S315080087F0054641F20B01A01CFFF7ECFF684032BDAD
S315080088009ED50020EFF3118060288041C043C00F39
S3150800881070470000002181F3118870472DE9F04F59
S31508008820DFF8184591B061680F91072808BF032043
S3150800883002D0082808BF0220DFF8045529686A68AC
S3150800884041EA0221AA6841EA02410091696849079A
S3150800885003D5E16941F00201E1612968490703D5B9
S31508008860E16941F00401E1610099EA69D140C9076B
S3150800887003D5E16941F00801E1610021DFF8B86438
S31508008880DFF8C0743160012800F0FA81C0F0208258
S3150800889003281AD004D3042840F01A82616014E031
S315080088A0386CC00703D5E06940F04000E061386CD9
S315080088B0400703D5E06940F02000E061386C800786
S315080088C003D5E06940F01000E061FFF7C9F800F051
S315080088D098FA8DF838004FF00009DFF86C14DFF8C5
S315080088E06CA4C1F580310120090B00FA01F1491E7B
S315080088F0CAF83810090A07D1DFF85414097819B1EB
S31508008900616C41F020016164396CDFF84884DFF856
S3150800891048240D91796C0C91D8F84C100B91D8F825
S3150800892050100A91D8F854100991D8F8581008919F
S31508008930DAF800100791DAF804100691DAF814103C
S315080089400591DAF824100491DFF810140968126802
S31508008950039202222260DFF8082412688DF80420A8
S31508008960DFF8002412688DF80520DFF8FC2312686A
S315080089708DF806204FF0FF32626200F0B2F9D20499
S315080089800AD56A68D20707D5E269D20704D53268DC
S3150800899042F480728146326000F0A3F992040AD547
S315080089A06A68520607D5E269D20704D5326842F4E6
S315080089B080428146326000F094F952040ED5009A3E
S315080089C0AB69DA40D20709D5E269D20706D532681B
S315080089D0AB6900FA03F31A438146326000F081F965
S315080089E0120410D5009AEB69DA40D2070BD5E26972
S315080089F0D20702D4E269120705D53268EB698146C7
S31508008A00984010433060D9480068C00308D5E0692B
S31508008A10000605D5F07840F008004FF00109F0701F
S31508008A2000206A68D2076A6848BF4FF48050520629
S31508008A30009AAB6948BF40F40050DA40D207009A62
S31508008A40EB6948BF40F48040DA40D207E26948BF84
S31508008A5040F40040D20605D4E269920602D4E269DF
S31508008A60520601D540F01000E269120648BF40F4EC
S31508008A70803008400290A52000F0BAF90120E06392
S31508008A80E069A16B11B1616A0142FAD0616A0142DB
S31508008A9000F0C7800020E063F07840F04000F070F6
S31508008AA000F0F6F9072038600F20C8F8000005F036
S31508008AB02FF90F98A94960600D9838640C98786466
S31508008AC00B98C8F84C000A98C8F850000998C8F8D6
S31508008AD054000898C8F858000798CAF8000006987D
S31508008AE0CAF804000598CAF814000498CAF82400BD
S31508008AF0029808609849039808604FF0FF309C492F
S31508008B000860974800683070964800687070964804
S31508008B100068B070626AE0691040EA6933680199D2
S31508008B204B4000990B400106490E01F0010143EA4A
S31508008B3081230106890E01F0010143EA810301063A
S31508008B40C90E01F0010101FA02F21A4300F47C7021
S31508008B5042EA00503060FEF783FF00F0A7F90020D4
S31508008B6020609DF8380008B100F035F9F0787B49A7
S31508008B700968C90304D5C0F3C00109B120212162DF
S31508008B80396C890703D5C10744BF0221F960396CDE
S31508008B90490704D5C0F3400109B10421F960396CCD
S31508008BA0C90704D5C0F3800109B10121F96031680C
S31508008BB0D8F84C2012F0E00F05D0CA0503D56B4B48
S31508008BC04FF480521A60D8F8502012F0E00F05D002
S31508008BD04A0403D5654B4FF400521A60D8F854205E
S31508008BE012F0E00F08D0AA6921FA02F2D20703D5DB
S31508008BF05E4B4FF480421A60D8F8582012F0E00F06
S31508008C0007D0EA69D140C90703D5584A4FF400414D
S31508008C10116040F08000F07011B0BDE8F04FFFF72A
S31508008C20F9BDB9F1000F7FF437AFDAF818004A49F1
S31508008C30DFF840B140084000CAF818004648806886
S31508008C4040F00400886040F20721BBF80000884223
S31508008C5002BFBBF802004FF20F01884205D14CF261
S31508008C603C30ABF802004FF00109012005F08AF804
S31508008C70B9F1000F03D04FF20F00ABF8020011E76D
S31508008C8000F0BFF80446A52000F0B2F800F000F99D
S31508008C90FFF7C0FD384D2E68286840084000286058
S31508008CA000F0FCF8354FD7F80080386820F040000F
S31508008CB0386000F0EFF8C7F800802E6000F0EEF894
S31508008CC00CB100F088F811B0BDE8F04F00F0EEB82E
S31508008CD011B0BDE8F04F4FF488610FF2AC00FDF714
S31508008CE089BE224A1268704711F1010F144A07D04B
S31508008CF0CBB21360C1F307235360C1F307419160F8
S31508008D0000231F490B601368002B04BF5368002B10
S31508008D1001D192681AB10A6842F001020A600A682B
S31508008D2042F400720A600A6842F080020A6075E539
S31508008D301449D9E700000000C4FA002004000040E6
S31508008D4008BC004014A00040000000000440004099
S31508008D509807080814A8004008ED00E000E100E0C4
S31508008D6008B0004008B2004008B4004000E200E045
S31508008D7080E200E00000002094ED00E00080004062
S31508008D802000004000404000736C6565702E63004B
S31508008D9003480188034808237F22FBF7B7BD00BFB5
S31508008DA062CF020800FC00202D480068C00701D4E5
S31508008DB02C4870472C48704780B5FFF7F5FF2B49BC
S31508008DC0096801B9400802BD80B5FFF7EDFF400804
S31508008DD002BDFCF76EBE2648012181604EF6BE2113
S31508008DE041600121016070472249012008607047EF
S31508008DF0A52805D11E484DF6AD61416002210160E6
S31508008E0070471B480068C00701D50120704700203D
S31508008E10704780B51849194A10200860184919483A
S31508008E20007858B103280CBF00200120106040F6D6
S31508008E30510008600020FDF7F6F806E002201060F1
S31508008E404FF400600860FCF7EDFD07210E4801604D
S31508008E500021016410200D490860002002BD0000B1
S31508008E601C400040001BB70000366E012040004041
S31508008E70006000400860004080E100E00800004013
S31508008E800C600040ACFF002014A0004000E100E0A8
S31508008E9072B6704700BF30BF00BF7047BFF35F8F21
S31508008EA0BFF34F8FBFF36F8F7047000062B67047EE
S31508008EB0DFF8D803016C41F4C04141F009010164AF
S31508008EC04FF6FF7101602020DFF8C4130860704771
S31508008ED07CB515461E4610B904F07AFF76BD012802
S31508008EE036D113293CBF0FF20840095C08096422F1
S31508008EF0504301F00F010B2903DA884006E00A22E5
S31508008F0050430A46511ED2B20B2AF8DA014601200E
S31508008F10FDF7B5F800285FD1300907280CBF0020F7
S31508008F200220012D08BF40F0180003D0022D08BF0B
S31508008F3040F0080006F00F010229DFF85813A8BF11
S31508008F4040F00400886001200860FFF7B1FF40E0A8
S31508008F50032840D1FFF748FFDFF83C0301880823C0
S31508008F607F2200A8FBF7D2FC00220020DFF82C1392
S31508008F7000AC531C045D25090A2DD2B2B4BF3026B5
S31508008F80372601EB4202751955805A1C04F00F0565
S31508008F900A2DB4BF3025372504F00F04DBB22C198F
S31508008FA001EB4303401C08285C80E1DB0FF2243008
S31508008FB005F0F3F800F0A6FE044605F0D3F80428F9
S31508008FC007D000F09FFE001B80B2B0F57A7FF4DD73
S31508008FD001E0002076BD212076BD38B5040013D106
S31508008FE0DFF8BC020468608828B140F2B7210FF2A6
S31508008FF0DC20FDF7FFFCA188C9B2A01D00F05CFBD0
S315080090000020A080208031BD012813D1A148006826
S31508009010012815D1FEF724FD0546A248016841F04E
S3150800902006010160012000F0C6F82846BDE8324076
S31508009030FEF71CBD032804BFBDE8314005F096BA0B
S3150800904031BD012804D19748016821F00601016065
S31508009050704780B50B46114620B9184600F02CFB20
S31508009060002002BD012814D18F488269012A07D041
S31508009070212002BDC2685207FCD513F8012B0260F5
S315080090800A46511ED2B2002AF4D1C1684906FCD557
S31508009090E6E70328ECD1184605F07AFAE0E710B5BA
S315080090A00446FFF7A1FE012C03D18248006840065A
S315080090B0FBD510BD70B57D4A7D4B126804E000F003
S315080090C068F81D8800F06CF80C46611EE4B254B1CD
S315080090D09488794D2D886D1EAC42F0DBBDE8704052
S315080090E023210020B2E070BD2DE9F84304466F48FD
S315080090F0DFF8BC91DFF8C0816B4F254650F8256034
S3150800910014E0B18838F81520521E91421CDA3188CD
S3150800911089198871308839F81510401C90FBF1F2CE
S3150800912001FB12003080B088401CB080F8688007C8
S3150800913016D5F86810F038013868E2D0080705D463
S31508009140C80605D5242107E0232105E0272103E0E9
S3150800915088064CBF25210121204600F077F8E5E76F
S31508009160BDE8F18370B5514A514BD26804E000F06E
S3150800917010F8DD8800F014F80C46611EE4B23CB124
S3150800918094887F2CF3DBBDE87040232103205DE043
S3150800919070BD158810F8014BAD18AC71148870476E
S315080091A0641C94FBF5F605FB164414809488641C2D
S315080091B094807047704770B53949404A51F8201075
S315080091C0394B0FE04C886418A4791C604C8832F837
S315080091D01050641C94FBF5F605FB16444C808C88ED
S315080091E0641E8C808C8814B1DC686407EAD470BD70
S315080091F080B5334927480A6842614A6882618968A6
S315080092008160012101600120FFF752FEBDE802409E
S315080092100FF2C00004F0C1BF704738B51B4C0FE011
S3150800922046F229700542256003D0A9B20120FFF74E
S315080092305BFF41F6D60005421CBF0120FFF7BBFFC6
S315080092402068216C11EA0005EAD131BD30B5174A0C
S315080092501C4C52F82020055D1B4B25B9128823F8B3
S315080092601020015530BD33F810301380015513888E
S3150800927051888B4205D2104C34F81000401A181841
S3150800928000E0581A908030BD0000000008A8004091
S3150800929000E100E054C8004062CF020824D600204E
S315080092A0C4D5002048A800403CC80040D4D50020BA
S315080092B0A89B000848C800407CC50208A09B000877
S315080092C0E8FA002018FA00201CFA0020756172746A
S315080092D02E630000D0C80208E4C80208A4C9020820
S315080092E004000000B4C90208B8C90208000000005A
S315080092F0306090C0C1C2C394C495C55C96C6AC978D
S3150800930098990D002DE9F041454C464EDFF8188135
S31508009310002020654FF40055356002202060E56086
S3150800932000202065206D40F0600020650E2000F0CA
S315080093301DF888F800004FF4804700206065376004
S3150800934004202060E7601620384908600020606520
S31508009350606D40F060006065162000F007F888F838
S315080093600100334805600760BDE8F0810E2802D089
S31508009370162802D009E02F4800E02F480068800927
S3150800938000F0010080F0010070470020704710B51A
S3150800939023484FF40051C160022101600E20FFF7F7
S315080093A0E5FF214C227801468A4218BF21700DD16B
S315080093B0501E8041C00F20700E20217805F0E6FC73
S315080093C02178481E8041C00F20702178BDE81040E2
S315080093D00E2005F0DBBC10B511484FF48041C16082
S315080093E0042101601620FFF7C1FF0F4C6278014681
S315080093F08A4218BF61700DD1501E8041C00F60703F
S315080094001620617805F0C2FC6178481E8041C00FBD
S3150800941060706178BDE81040162005F0B7BC000002
S3150800942014A8004080E100E09CFF002020BC00401A
S3150800943000E100E008B2004008B4004010B5044658
S31508009440FEF70EFB46493020086046490860464943
S3150800945008601020454908604FF20F01200A0028CD
S31508009460434808BF240204804180BFF35F8F414808
S3150800947000210160416040484049086010BD4048ED
S315080094800168C90708D53F4A03211170016C4908CC
S3150800949049000164012101600168090703D5016CCF
S315080094A021F008010164704780B5002000F009F832
S315080094B030B9BDE80440FC210FF2DC00FDF79ABA8A
S315080094C001BD2DE9F044304C21680D1A15F01F0135
S315080094D005D0002852BF6D1A681A00F120052B48DE
S315080094E0A5F12006A84224BF2948864203D3EFF3F4
S315080094F00880854201D300202DE0FEF7B1FA8246A6
S315080095002448006810F0010718BF04F019FC206809
S3150800951001468D4206D2A84224BFCD2100F8011982
S31508009520F9D206E02038002201E000F8012B884233
S31508009530FBD32560304604F008FCE22001E006F87B
S31508009540010BAE42FBD30FB104F0E2FB5046FEF727
S315080095508DFA20682038BDE8F0840B48006870470B
